:020000040800F2
:100000000000032089050008F11C0008F31C00080B
:10001000F51C0008F71C0008F91C0008000000008F
:10002000000000000000000000000000516C00080B
:10003000FB1C000800000000E16C00084D65000892
:10004000D9050008D9050008D9050008D905000818
:10005000D9050008D9050008D9050008D905000808
:10006000D9050008D9050008D9050008D9050008F8
:10007000D9050008D9050008D9050008D9050008E8
:10008000D9050008D9050008D9050008D9050008D8
:10009000D9050008D9050008D9050008D9050008C8
:1000A000D9050008D9050008D9050008D9050008B8
:1000B000D9050008D9050008D9050008D9050008A8
:1000C000D9050008D9050008D9050008D905000898
:1000D000D9050008D9050008D9050008D905000888
:1000E000D9050008D9050008D9050008D905000878
:1000F000D9050008D9050008D9050008D905000868
:10010000D9050008D9050008D9050008D905000857
:10011000D9050008D9050008FD1C0008D90500080C
:10012000D9050008D9050008D9050008D905000837
:10013000D9050008D9050008D9050008D905000827
:10014000D9050008D9050008D9050008D905000817
:10015000D9050008D9050008D9050008D905000807
:10016000D9050008D9050008D9050008D9050008F7
:10017000D9050008D9050008D905000800000000CD
:10018000D9050008D9050008D9050008D9050008D7
:10019000D9050008D9050008D9050008D9050008C7
:0C01A000091D0008D9050008151D000805
:1001B00010B5054C237833B9044B13B10448AFF3A1
:1001C00000800123237010BD6401002000000000A6
:1001D000E0C0010808B5034B1BB103490348AFF366
:1001E000008008BD0000000068010020E0C0010898
:1001F00001F0FF01102A2BDB10F0070F08D010F8D8
:10020000013B013A8B422DD010F0070F42B3F6D1DB
:10021000F0B441EA012141EA014122F007047FF0F4
:1002200000070023F0E80256083C85EA010586EA4B
:10023000010685FA47F5A3FA87F586FA47F6A5FA87
:1002400087F68EB9EED1F0BC01F0FF0102F0070293
:1002500032B110F8013B013A83EA010313B1F8D13E
:100260000020704701387047002D06BF354603381F
:10027000073815F0010F07D1013015F4807F02BF58
:10028000013015F4C03F0130F0BC0138704700BFA9
:1002900053B94AB9002908BF00281CBF4FF0FF31ED
:1002A0004FF0FF3000F06EB9ADF1080C6DE904CEEF
:1002B00000F006F8DDF804E0DDE9022304B0704741
:1002C0002DE9F047089D04468C46002B40F08380C2
:1002D0008A42174647D9B2FA82F242B1C2F12000EF
:1002E00024FA00F09140974040EA010C94404FEA14
:1002F0001748230CBCFBF8F61FFA87FE08FB16C153
:1003000043EA014306FB0EF1994209D9FB1806F1B5
:10031000FF3080F01981994240F21681023E3B4441
:100320005B1AA4B2B3FBF8F008FB103344EA0344B1
:1003300000FB0EFEA64509D93C1900F1FF3380F001
:100340000581A64540F2028102383C4440EA06405D
:10035000A4EB0E0400261DB1D4400023C5E90043E0
:100360003146BDE8F08702B9FFDEB2FA82F2002A18
:1003700050D1CB1B4FEA174E1FFA87F80126B3FB6B
:10038000FEFC210C0EFB1C3341EA034108FB0CF37D
:100390008B4207D979180CF1FF3002D28B4200F260
:1003A000E9808446C91AA3B2B1FBFEF00EFB10111E
:1003B00043EA014408FB00F8A04507D93C1900F1C5
:1003C000FF3302D2A04500F2D9801846A4EB0804FE
:1003D00040EA0C40BFE78B4209D9002D00F0B18004
:1003E0000026C5E9000130463146BDE8F087B3FA82
:1003F00083F6002E4AD18B4202D3824200F2B880AB
:10040000841A61EB030101208C46002DA8D0C5E9B8
:10041000004CA5E7C2F1200320FA03F6974001FA49
:1004200002F04FEA174ED9403043030CB1FBFEF601
:100430001FFA87F80EFB161143EA014306FB08F189
:10044000994204FA02F409D9FB1806F1FF3C80F046
:100450008D80994240F28A80023E3B445B1A81B211
:10046000B3FBFEF00EFB103341EA034100FB08F33F
:100470008B4207D9791800F1FF3C73D28B4271D9B6
:1004800002383944CB1A40EA064678E7C6F1200C18
:1004900003FA06F422FA0CF31C4320FA0CF701FAD3
:1004A00006F34FEA144E21FA0CF11F433B0CB1FB4B
:1004B000FEF91FFA84F80EFB191143EA014109FB0A
:1004C00008FA8A4502FA06F200FA06F308D961181A
:1004D00009F1FF3048D28A4546D9A9F102092144E1
:1004E000A1EB0A01BFB2B1FBFEF00EFB101147EA0F
:1004F000014700FB08F8B84507D9E71900F1FF31BB
:100500002ED2B8452CD90238274440EA0940A7EB3F
:100510000807A0FB02894F45C64649461AD317D0A3
:100520005DB1B3EB0E0267EB010707FA0CFCF2407A
:100530004CEA0202F740C5E9002700263146BDE833
:10054000F0872E4628460BE70646E9E61846FDE604
:100550004345E5D2B8EB020E69EB04010138DFE751
:100560000846D2E760468DE78146B9E7664675E7FB
:1005700030464AE7ACF1020C394413E702383C44F8
:1005800024E700BF704700BFDFF834D0002103E04C
:100590000C4B5B58435004310B480C4B42189A42A9
:1005A000F6D30B4A02E0002342F8043B094B9A427F
:1005B000F9D303F093FB1AF0EFFD00F02BFE704728
:1005C0000000032018E50608000000206401002058
:1005D000640100202C270120FEE700F035BC00F06C
:1005E000A3BC704710B5042104461AF067FC2046EE
:1005F00010BD000038B50C4B0C4C18800C4B822001
:1006000019806368984740F6110398420AD1094D52
:1006100023682C60822098472B688220DB689847EB
:10062000002038BD0120FCE7800100204C000020A4
:1006300082010020840100204FF4A071F020FFF718
:10064000D9BF0000F7B5344D2B6804461B698220E2
:10065000984780B2208000284CD02B680DF106020C
:100660005B6901A982209847BDF8063040F67462A4
:10067000934241D9ADF80620BDF80620C2F5676265
:10068000043292B20A2A3DD90B23B2FBF3F2234B78
:100690001B889A4201D95A1E92B2BDF8043040F626
:1006A000B8318B4230D8C3F571630E339BB20F2142
:1006B000B3FBF1F31A4909888B4201D94B1E9BB257
:1006C000184E194D30682F68834281B28CBF591A79
:1006D000C91AB8B2BA428CBF101A801A89B280B255
:1006E00001440529C8BF33603368C8BF2A606380EE
:1006F0002B68A38003B0F0BDB32B9CBFB423ADF82F
:100700000630B9E70022C8E7C3F56D6308339BB232
:100710000E2BCCD80023D3E78401002082010020D7
:1007200080010020880100208C01002037B5684638
:100730000D461446FFF786FFBDF8000030B1BDF846
:1007400002302B60BDF804302360012003B030BDBF
:10075000704770477047012380F8741080F8753037
:1007600070470020704700207047836B0BB108462C
:10077000184770474FF6FF707047406803689B69E1
:10078000184770477047704770B5044600F06EFC1C
:100790002368D3F88050044BD4E90F122046AC46AE
:1007A000BDE87040604700BF000000D008B531B917
:1007B0000A4B0B4A0B484FF425711AF0ADFBC0E908
:1007C0000F12003A0849436418BF01220A70003B27
:1007D000064A18BF0123137008BD00BF58C10108A5
:1007E00090C10108DEC10108D2210120D3210120DE
:1007F00008B5036804469B6F9847236820461B6F23
:10080000984700F0B5F8236820469B6E984729204A
:1008100000F06CFF00F0ACF8236820469B6E984710
:10082000F8E710B5044609F07FF823682046D3F8AE
:10083000A030BDE81040184700F00ABC00F00EBC24
:1008400000F032BC00F0E0BB00F032BC00F03ABC7B
:1008500000F0E4BB08F020BA10B57C2104461AF081
:100860002DFB204610BD90F877301BB1406803681F
:100870001B6818471846704730B590F8341090F848
:100880007440104B8C421A780DD05AB90E4A0F4959
:100890000F4814880F4D0C80018811802980048036
:1008A00001221A7030BD002AFCD00948074A01888D
:1008B0001180054A074D14882C8011800480002285
:1008C000EFE700BFCC210120C8210120CE2101206B
:1008D000CA210120D0210120012108B500220846AB
:1008E00005F0D6FE0A4B186028B90A4B0A4A2721A0
:1008F0000A481AF011FB00220421012005F066FFCE
:10090000074B186018B9074B034A2B21F0E708BDC5
:1009100094010020F0C2010839C3010868C301082E
:1009200090010020AEC30108024B4FF0FF31186860
:1009300005F0F8BE94010020014B186805F01EBFB9
:1009400094010020024B0021186805F0EBBE00BFA7
:1009500094010020FFF7F0BF03480449006800231A
:100960001A4605F06FBF00BF900100200400002070
:1009700013B5084C00231A4601A9206805F092FF20
:1009800020684FF0FF33002201A905F08BFF02B071
:1009900010BD00BF9001002005F05CBE03685B6CD9
:1009A00018470120704703689B6A184782B00023EC
:1009B00001930D4B1A6B42F400021A631A6B02F496
:1009C00000020192019A1A6942F400021A611A693E
:1009D00022F400021A61054B054A1A61054B4FF0DB
:1009E00080629A6002B07047003802401C260120E5
:1009F000010A000800E100E040F2EF30704700001B
:100A0000024B1B68586803685B691847D4210120B2
:100A100008B50B280BD8DFE800F01206100A0A0A06
:100A20000A0808080808012008BD0520FCE7054B56
:100A3000054A064865211AF06FFA0020F4E7022003
:100A4000F2E700BFF0C301080BC4010857C4010856
:100A500008B50A2809D8DFE800F010060E080808D3
:100A6000080606060600012008BD054B054A064893
:100A700086211AF051FA0020F6E70220F4E700BFC1
:100A8000F0C301089BC4010857C401082DE9F843CD
:100A900091F81D800C464046FFF7BAFFA77F054638
:100AA0003846FFF7B5FF06463846FFF7D1FFA18A63
:100AB000628B534B521A1A649A61228B521A1A6132
:100AC000E28A586342EA01425A6421696268D96342
:100AD000DA60D4F800C094F81C90BCF1800F4FEAA3
:100AE00009629E463BD015D8BCF1200F45EA0200B2
:100AF00079D0BCF1400F76D0BCF1040F2BD0404B25
:100B00002A4342F40032B845DA6114BF3D4A40F24C
:100B100001221EE0BCF5807F07D0BCF5007FEED13E
:100B200042F4003242F0090203E042F4003242F0A3
:100B30000A02DA61E0680202440102F4780204F475
:100B40007C44C0002243C0B202431A622E4A5E6255
:100B500059611A6043E040F40030D861F6E7A068BC
:100B60002A4342F40032041DDC62DA6102785E62DC
:100B7000596142B1012A1CD0244B254A25484FF423
:100B800088711AF0C9F94288D969501E21F47F4250
:100B900022F0100242EA0022DA610125184CE369D2
:100BA00043F02003E361E3699B0613D5FFF7F4FEEE
:100BB000F9E74288D969501E21F47F4222F01002E1
:100BC00042EA0022B9F1FF0542F0100218BF0125E8
:100BD000DA61E3E71023A3601DB10B4B2360BDE88E
:100BE000F883084BFAE7084B40F40030CEF81C00BD
:100BF000CEF82460CEF81410CEF80030EFE700BF36
:100C000000B002400102010001020200E8C4010834
:100C100002C5010857C40108F8B58E7F0C4630465E
:100C2000FFF716FFA78AE18A628B1E4B256958637E
:100C300041EA0741D21B5964DD631A64216808291F
:100C400018D19A611A615862217F174A42EA0162FB
:100C5000DA61E1680A02480102F4780200F47C409B
:100C6000C9000243C9B20A431A62104A5D61DD60DD
:100C70001A60F8BD0022D8611A61E1681EB9996353
:100C8000084B0B4AF4E70A02480102F4780200F428
:100C90007C40C900C9B202430A43217F42EA016293
:100CA0009A63EDE700B00240090001000102020072
:100CB00001020300054B0360054B4FF08062C3F84F
:100CC0008820BFF34F8FBFF36F8F70474CC501086B
:100CD00000E100E010B50446FFF7ECFF20464FF4BA
:100CE00042611AF0EBF8204610BD000070B50446D2
:100CF00025460A4B0C30002660602672667245F865
:100D0000203B6022294608F049FF04F54263EE606B
:100D10002035AB42FBD1204670BD00BF4CC5010859
:100D2000012070470C2070470C2303FB01000830A2
:100D300070470C2303FB0100083070470120704707
:100D40004FF42B7070474FF42B7303FB01000830F6
:100D500070474FF42B7303FB0100083070470120EC
:100D600070471020704700EB01100830704700EB0F
:100D7000011008307047084601F002B910B5034B66
:100D80000360044607F09EFD204610BD04C601081E
:100D900010B50446FFF7F2FF204614211AF08EF832
:100DA000204610BD10B5034B0360044607F08AFDD2
:100DB000204610BDD0C5010810B50446FFF7F2FF6C
:100DC00020464FF42D711AF079F8204610BD00002E
:100DD00010B5034B0360044607F074FD204610BDB8
:100DE0009CC5010810B50446FFF7F2FF2046182104
:100DF0001AF064F8204610BD10B5084B0360044695
:100E000000F53870FFF7BAFF04F12C00FFF7CAFFB6
:100E100004F11400FFF7DCFF204610BD38C60108BE
:100E200008B50248FFF7E8FF08BD00BF9C0100209D
:100E300010B50446FFF7E0FF20464FF48B611AF02F
:100E40003DF8204610BD00002DE9F34100F0DAFF27
:100E5000054600F0DBFF00240146234628462246D3
:100E600000940EF059F9254B254A264D1A6020466C
:100E700002F0B0FA24480EF091F82B78BFF35B8FA4
:100E8000DB0735D428461AF01BF888B31F4C204BDB
:100E9000236004F5407604F1140004F12C0804F5F5
:100EA00038776060C4F80880E760266107F00CFDC1
:100EB000184B6361404607F007FD174BE362384665
:100EC00007F002FD154BC4F8E03204F53D7002F066
:100ED00001FB224604F53D71304602F0F1FA30463E
:100EE00001F04EF8284619F0F7FF0D481AF032F8D5
:100EF0000C4802B0BDE8F041FFF746BC30220120AB
:100F00009412002098010020080000209C0100207D
:100F100038C601089CC50108D0C5010804C60108EF
:100F2000210E0008181200200148FFF761BC00BF25
:100F30001812002070B5244C244E254B254D2360FB
:100F40003046FFF7D3FE284611F06AF9224B2348BA
:100F5000DC6000224FF48071C3E912122049036063
:100F600020481A85C3E91912C3E901654FF0807161
:100F70001D4D5967F024012104804FF4A070C3E98E
:100F80000422C3E90622C3E90822C3E90E22C3E909
:100F90001022C3E91422C3E9162283F82A20DA6258
:100FA0001A861A6683F86C201A6783F878102880EE
:100FB0000E4D83F834102A700D4A14800D4A1080AB
:100FC0000D4A1A6070BD00BFF4050020F80500202E
:100FD00048C101089812002018120020D4210120D5
:100FE00001000001C8210120CA210120CC210120DB
:100FF000CE210120D02101202CC201080148FFF799
:1010000059BE00BFF8050020034B902283F85A23F5
:1010100083F85823704700BF00E100E0094A0A49FD
:10102000D3680A48C3F30A03013B9BB20B801169E2
:10103000C1F30A01013901801364536B43F00103CA
:101040005363704700680140121300201013002002
:10105000014B986A704700BF84680140024B01222F
:10106000996243F8602C70478468014070B504466B
:1010700007F065FE2368DD6D0BF030F80146204671
:10108000A8472368054AD3F880502046AC46002381
:10109000BDE87040A2F51631604700BF00B004D033
:1010A00007F034BE07F03EBE07F0FCBD07F055BFA9
:1010B000034B4FF080629A604FF080729A607047E5
:1010C00000E100E0084B4FF08062C3F88820BFF3D6
:1010D0004F8FBFF36F8F4FF08072C3F88820BFF33C
:1010E0004F8FBFF36F8F704700E100E0134B144A3E
:1010F0001B6C11888B4210B5124C13D1124B1988FE
:1011000004F09AF8226892F86630013382F866306B
:10111000FFF722FC206808F007FCBDE81040002023
:10112000FFF716BB04F088F80020FFF712FB2068D9
:101130000368BDE81040DB69184700BF0068014044
:1011400012130020D42101201013002007B5064BF4
:10115000ADF806001B68054801220DF1060104F0F8
:10116000A7FD03B05DF804FB10000020C824012097
:1011700008B5642005F080FAFBE7000030B595B0B3
:10118000102200210AA81AF04DF81422002103A809
:101190001AF048F800241D4B01941A6C42F080525A
:1011A0001A641B6C03F080530193019B184B02944B
:1011B0001A6842F440421A601B6803F440430293E9
:1011C0000122029B4FF48033CDE9082302254FF41E
:1011D0008003CDE90E5308214FF4A873CDE9101315
:1011E00008A804231393129504F044F80F23CDE9C3
:1011F00003354FF4A0504FF48053CDE90603052189
:1012000003A8059404F010FA15B030BD0038024070
:10121000007000402DE980489BB002F06DFDFFF7A3
:10122000ADFF142200210DA8002419F0FBFFC44BD0
:1012300000941A6BC348C44D42F020021A631A6B23
:1012400002F020020092009A01941A6B42F0800290
:101250001A631A6B02F080020192019A02941A6BCF
:1012600042F004021A631A6B02F004020292029A1C
:1012700003941A6B42F001021A631A6B02F0010226
:101280000392039A04941A6B42F002021A631A6BD7
:1012900002F002020492049A05941A6B42F0400292
:1012A0001A631A6B02F040020592059A06941A6BB3
:1012B00042F010021A631A6B02F010020692069AAC
:1012C00007941A6B42F008021A631B6B03F00803C1
:1012D000079322460421079B03F0D0F99B4822463E
:1012E0004FF4405103F0CAF9224699484FF4C041E7
:1012F00003F0C4F9012602274FF0040891480F9427
:101300000DA9CDE90D86109703F0CCF891480F9701
:101310000DA9CDE90D6403F0C5F84FF440538B4897
:101320000DA9CDE90D36CDE90F4703F0BBF80DA9A6
:101330004FF4C0438648CDE90D36CDE90F4403F0A4
:10134000B1F88548854B036002F0A0FF844A854BC5
:101350002C62C5E9002328464FF48043C5E90434D4
:10136000C5E90244C5E9064403F06AFB102128469A
:1013700003F0A6FD2146284603F0C1FD7A487B49CB
:1013800084624FF48273C0E900134FF40075182390
:10139000C0E906530A23764DC362C0E90244C0E99E
:1013A0000444C0E9084404F027FC724B0D97C5E9DA
:1013B00000364FF0100A4023C5E904A34FF4C07370
:1013C000C5E906344FF40063C5E908344FF400530F
:1013D000AB624FF0030B07230DA92846CDE90E3869
:1013E00010934FF00809C5E90248CDE911B71397EA
:1013F00004F00EFB4FF6FF7209A92846CDE90A96C4
:10140000089409960C9404F023FB304602F0A0FCEB
:101410004FF6FF7209A92846CDE90979CDE90B6499
:1014200004F016FB4FF6FF7209A92846CDE909B969
:10143000CDE90B8404F00CFB4FF40C730893089B6C
:101440000C934FF6FF7209A92846CDE909890B963E
:1014500004F0FEFA40F26A51284604F010FB3422F0
:1014600021460DEB020019F0DDFE434D434BAC86E7
:10147000C5E900340923C5E905361D2340F20D1CDA
:10148000C5E9073B40F24313C5E909C340F2171E03
:1014900040F247132846C5E90BE3C5E902442C6135
:1014A00085F8364003F0D0FDFF21F022CDE912147B
:1014B0004FF4806805214FF4A073CDE90E24CDE9E7
:1014C0001481CDE916420DA922462846CDE91037F0
:1014D0002B4D18930D94ADF864408DF8664003F0E1
:1014E0007EFE284B2B601B68DFF8AC9098472B687A
:1014F000254DDB689847254BC5E90A47C5E90C44EB
:101500002846C5E90034C5E9027402F0CFFE314631
:10151000284602F083FF1E4D524621460DA819F0C1
:1015200081FE4FF48033C5E900932846194BAB6226
:10153000AC602C612C7685F82040EC622EE000BF78
:10154000003802400008024074240120000C0240D0
:101550000018024000000240202501200030024017
:10156000005C0040A0860100C8240120005001401A
:101570005C260120400100A02825012000680140D0
:1015800014130020140000201C26012000B002408B
:10159000D02501200100000F00200140EC60EE6129
:1015A00085F830406E6102F0E7FB0DA92846CDE9D1
:1015B0000D660F9402F07CFDFFF70FF804F0D4FFE6
:1015C000084A0948214604F0FBFF084B084A186006
:1015D0002146084804F0F4FF074B186004F0D6FFDA
:1015E000FEE700BF80C601087111000870240120C9
:1015F0005CC60108DF050008182601207047704707
:101600007FB5094B8DF817201B6802930DF1170267
:101610000123009201930A460146044803F0B8FAF8
:1016200007B05DF804FB00BF0C000020742401200B
:101630007FB500238DF81730084B1B6802930A46CC
:1016400001230DF11701009101930146044803F0B5
:101650002FFB9DF8170007B05DF804FB0C0000207D
:10166000742401201FB5084C24680092CDE9013490
:101670000A4601230146054803F01AFB003818BF4B
:10168000012004B010BD00BF0C0000207424012014
:1016900002F05EBB08B506480022042102F0EEFF0E
:1016A000BDE8084002480122042102F0E7BF00BF64
:1016B0000008024038B50B4D044601220A484FF499
:1016C000005102F0DBFF00220421284602F0D6FF81
:1016D0002046FFF73BFD28460122BDE838400421A3
:1016E00002F0CCBF00080240000C024038B50B4DA0
:1016F000044600220A484FF4005102F0BFFF0022C6
:101700000421284602F0BAFF2046FFF71FFD2846B5
:101710000122BDE83840042102F0B0BF00080240B9
:10172000000C0240F7B5144E144F05460C463046E7
:101730000022042102F0A2FF00224FF4005138469B
:1017400002F09CFF2846FFF701FD0D4B0D481B687A
:10175000224601A904F048FC384601224FF400510A
:10176000019C02F08BFF30460122042102F086FF2B
:10177000204603B0F0BD00BF00080240000C02404C
:1017800010000020C824012002F0E2BA0268034BD6
:101790009A4201D102F0CABA704700BF001000405F
:1017A0007047000082B00E4B00220092596C41F449
:1017B00080415964596C01F4804100910099019273
:1017C000196C41F0805119641B6C03F08053019334
:1017D000019B0F216FF0010002B002F017BD00BFA6
:1017E0000038024010B5044688B01422002103A836
:1017F00019F018FD2268124B9A421FD103F58C3361
:1018000000220192596C0F4841F480715964596C5F
:1018100001F48071019101990292196B41F001016B
:1018200019631B6B059203F0010302930221029BD3
:101830000323CDE9031303A902F034FE08B010BD61
:1018400000200140000002400268094B9A4282B029
:101850000BD100230193074B1A6B42F480521A6399
:101860001B6B03F480530193019B02B0704700BFD0
:10187000003002400038024007B50F4B02689A4220
:1018800016D10022A3F5F0430192196B41F4000137
:1018900019631B6B03F40003019305215A20019B7C
:1018A00002F0B4FC5A2003B05DF804EB02F0E0BC97
:1018B00003B05DF804FB00BF00B002402DE9F04327
:1018C000044689B01422002103A819F0ABFC226859
:1018D000244B9A4243D1244C244800250095236B85
:1018E00043F004032363236B03F004030093009B82
:1018F0000195236B43F001032363236B03F0010382
:101900000193019B4FF012094FF400734FF001084F
:101910000327042603A9CDE90339CDE905870796F6
:1019200002F0C0FD4FF480731148079603A9CDE97A
:101930000339CDE9058702F0B5FD0295236C43F428
:1019400000032364236C03F400030293029B236AC5
:1019500043F400032362236A23F40003236209B0E3
:10196000BDE8F083005C00400038024000080240FF
:1019700000000240F0B599B004461422002107A8E7
:1019800019F050FC30220DEB0200002119F04AFC46
:1019900022685E4B9A4240F0B78008230C93C02324
:1019A0001093042312930CA84FF40033159303F003
:1019B00005FF08B1FFF7F4FE554B5648002400948C
:1019C0005A6C42F080625A645A6C02F08062009253
:1019D000009A01941A6B42F020021A631A6B02F00B
:1019E00020020192019A02941A6B42F001021A63DA
:1019F0001A6B02F001020292029A03941A6B42F0EF
:101A000002021A631A6B02F002020392039A049410
:101A10001A6B42F040021A631A6B02F04002049201
:101A2000049A05941A6B42F004021A631A6B02F0CE
:101A300004020592059A06941A6B42F008021A6392
:101A40001B6B03F00803069302250E26069B0B96DC
:101A50004FF4806307A9CDE90735CDE9094502F0C8
:101A600021FD41F658032C480B9607A9CDE907350F
:101A70000927CDE9094502F015FD032327480B97F7
:101A800007A9CDE90735CDE9094502F00BFD4FF473
:101A9000706322480B9607A9CDE90735CDE90945C2
:101AA00002F000FD4FF40C631D480B9607A9CDE929
:101AB0000735CDE9094502F0F5FCC02319480B961E
:101AC00007A9CDE90735CDE9094502F0EBFC08236C
:101AD00015480B9607A9CDE90735CDE9094502F070
:101AE000E1FC4FF4A0530E480B9707A9CDE9073549
:101AF000CDE9094502F0D6FC58202246052102F026
:101B000085FB582002F0B4FB19B0F0BD006801401D
:101B1000003802400014024000000240000402406D
:101B20000018024000080240000C024010B50446B4
:101B300088B01422002103A819F074FB2268154B09
:101B40009A4224D103F5684300220192596C41F472
:101B500080115964596C01F480110191019902922C
:101B6000196B41F0200119631B6B059203F02003F0
:101B700002934FF46071029B0223CDE9031303200B
:101B80000523CDE9060303A9034802F08BFC08B046
:101B900010BD00BF00500140001402402DE9F0418B
:101BA0002C4B1C6886B0002C50D14FF00108C3F8B4
:101BB0000080294B00949A6B284842EA08029A63F5
:101BC0009B6B039403EA08030093022703260C256A
:101BD000009B01A94FF63F03CDE90137CDE904652C
:101BE00002F060FC1E48059501A9CDE90187CDE909
:101BF000034602F057FC48F233131A48059501A931
:101C0000CDE90137CDE9034602F04CFC4FF6837372
:101C10001548059501A9CDE90137CDE9034602F044
:101C200041FC4CF203731148059501A9CDE9013738
:101C3000CDE9034602F036FC60230D48059501A965
:101C4000CDE90137CDE9034602F02CFC06B0BDE832
:101C5000F08100BF18130020003802400014024039
:101C6000000802400018024000100240000C024030
:101C70000004024030B5014689B00022362002F04F
:101C8000C5FA362002F0F4FA0025154B02951A6CBD
:101C9000144C42F010021A641B6C03F01003029300
:101CA00001A903A8029B03F06BFD03F059FD0E4B45
:101CB000236040F2E733E36040000C4BB0FBF3F0ED
:101CC0000138606020462561A56004F071FB20B9F1
:101CD000204604F027FA09B030BD0120FBE700BF21
:101CE00000380240902601200010004040420F00C2
:101CF0007047FEE7FEE7FEE7FEE77047014804F0A5
:101D00004FBA00BF90260120014803F00BBA00BF74
:101D100028250120014802F0F7BA00BF1C26012047
:101D20000120704708B519F029F9162303604FF018
:101D3000FF3008BD08B519F021F916230360FEE74E
:101D400070B50E4614460025A54201DB204670BD45
:101D5000AFF3008070550135F6E770B50E461446B6
:101D60000025A54201DB204670BD705DAFF3008009
:101D70000135F6E74FF0FF3070474FF400534B60EA
:101D800000207047012070470020704708B50A4BBB
:101D90001968024609B90949196018686946024478
:101DA0008A4206D919F0EAF80C2303604FF0FF309D
:101DB00008BD1A60FCE700BF1C130020302701207B
:101DC000704710B50421044619F078F8204610BD7C
:101DD00008B5032913D8DFE801F002060A0E01F066
:101DE00045FB006808BD01F041FB4068FAE701F0DF
:101DF0003DFB8068F6E701F039FBC068F2E70020A0
:101E0000F0E7000000487047B8C601080C20704792
:101E100013B5002451B1036801948DF8034001AA61
:101E20009C680DF10303A04702B010BD0846FBE714
:101E3000408970478089704780887047837980889F
:101E4000184480B27047C07900F07F007047C079B5
:101E5000C0097047704710B50821044619F02EF8E4
:101E6000204610BD704700F596730868496803C3A3
:101E70007047704770474160704770470123037295
:101E800070477047704710B4C268416854100346E9
:101E900001EB6200D20748BF0A599B685DF8044B0A
:101EA00048BFD358184743682BB183682BB9C06823
:101EB00000F001007047184670470120704710B5C8
:101EC0000C21044618F0FAFF204610BD10B5102171
:101ED000044618F0F3FF204610BD10B54FF4AC7166
:101EE000044618F0EBFF204610BD10B50AF0F6F8D6
:101EF0000368BDE810401B6B184710B50446D0F8C6
:101F00003C0158B10368DB68984738B1D4F83C010C
:101F100003689B6898470023C4F83C3110BD00005B
:101F2000F8B5044617460E460AF0F8F8104B00259F
:101F3000C4E954760F4E1C60C4E952550E4B30680C
:101F400023600E4BC4E95035036801219B68C4E946
:101F50004E559847284601F03DFA336893F87620AD
:101F60000AB1D86C00B9986811F08DFE2046F8BD12
:101F700020220120D421012000CD0108E8CC010855
:101F8000064BC0F848310023C0F84C3100F5A0736F
:101F9000C0F84401C0F83C31704700BF252100085B
:101FA000064BC0F848310023C0F84C3100F5A0734F
:101FB000C0F84401C0F83C31704700BF89220008D6
:101FC000064BC0F848310023C0F84C3100F5A0732F
:101FD000C0F84401C0F83C31704700BFED23000851
:101FE00003685B6A184700002DE9F84F07469068C0
:101FF000DDF828A0994603681B6A8846144698476E
:10200000B0F5C87F05D2414B414AA321414818F0A1
:1020100083FF606803681B6A98470F2803D83E4B0C
:102020003B4AA421F2E7E06803681B6A98470B2843
:1020300003D83A4B364AA521E8E70AF04FF80AF0F0
:1020400053F8D9F8000010B10368DB689847D9F855
:10205000000010B103681B689847386810B1036826
:102060005B699847D8F8000010B103685B6898472F
:10207000386810B103681B689847D8F8000010B1A1
:1020800003689B689847E0680021FFF7A9FF4FF0BD
:10209000000B234B03600546C0F804B080F808B07D
:1020A000A068036859465B6A9847064601F0ACFA97
:1020B0006068036859465B6A98473146044601F0F8
:1020C0004DFAC9F80050C8F800403E60E4B1231D45
:1020D000CAF800303368C4F808A03046DB68F463FF
:1020E0009847236820461B689847294630460BF0DE
:1020F0002AFC2B6828461B6998472B6828465B6991
:1021000098472046BDE8F88F2346E1E7B8C70108A5
:1021100046C801084AC9010891C9010834CA010822
:1021200044CD010807B5D0F854310093D0F85021C0
:10213000044B00F59C710448FFF756FF03B05DF8AF
:1021400004FB00BF14220120102201202DE9F84FCA
:1021500007469068DDF828A0994603681B6A884600
:1021600014469847B0F52B7F05D2414B414AA32135
:10217000414818F0D1FE606803681B6A98470F2831
:1021800003D83E4B3B4AA421F2E7E06803681B6A90
:1021900098470B2803D83A4B364AA521E8E709F0BF
:1021A0009DFF09F0A1FFD9F8000010B10368DB68BA
:1021B0009847D9F8000010B103681B689847386841
:1021C00010B103685B699847D8F8000010B1036844
:1021D0005B689847386810B103681B689847D8F85F
:1021E000000010B103689B689847E0680021FFF782
:1021F000F7FE4FF0000B234B03600546C0F804B018
:1022000080F808B0A068036859465B6A984706469C
:1022100001F05CFA6068036859465B6A984731468A
:10222000044601F009FAC9F80050C8F800403E60C1
:10223000E4B1231DCAF800303368C4F808A0304662
:10224000DB68F4639847236820461B689847294653
:1022500030460BF078FB2B6828461B6998472B68A3
:1022600028465B6998472046BDE8F88F2346E1E79A
:10227000B8C70108D7CA01084AC9010891C90108AD
:1022800034CA010844CD010807B5D0F85431009391
:10229000D0F85021044B00F59C710448FFF756FF1D
:1022A00003B05DF804FB00BF1422012010220120BE
:1022B0002DE9F84F07469068DDF828A09946036895
:1022C0001B6A884614469847B0F5C27F05D2414B39
:1022D000414AA321414818F01FFE606803681B6A49
:1022E00098470F2803D83E4B3B4AA421F2E7E06809
:1022F00003681B6A98470B2803D83A4B364AA52136
:10230000E8E709F0EBFE09F0EFFED9F8000010B1A4
:102310000368DB689847D9F8000010B103681B68B0
:102320009847386810B103685B699847D8F800008F
:1023300010B103685B689847386810B103681B6880
:102340009847D8F8000010B103689B689847E06888
:102350000021FFF745FE4FF0000B234B03600546BD
:10236000C0F804B080F808B0A068036859465B6AFA
:102370009847064601F008FA6068036859465B6AA8
:1023800098473146044601F0CDF9C9F80050C8F825
:1023900000403E60E4B1231DCAF800303368C4F841
:1023A00008A03046DB68F4639847236820461B6822
:1023B0009847294630460BF0C6FA2B6828461B6919
:1023C00098472B6828465B6998472046BDE8F88FF8
:1023D0002346E1E7B8C70108DBCB01084AC9010879
:1023E00091C9010834CA010844CD010807B5D0F8E5
:1023F00054310093D0F85021044B00F59C710448EF
:10240000FFF756FF03B05DF804FB00BF1422012064
:1024100010220120006A7047406A704770478B881D
:1024200080690A68DB0A50F823001044704710B531
:10243000C2B1137BB3B1547BD27A240204F4E064BA
:102440001443C26998B202EB840213888B4202D112
:1024500092F9020010BD05D8013880B2043200287C
:10246000F3D1F7E70020F5E710B52821044618F06E
:1024700025FD204610BD000030B589B00446BDF8EA
:1024800050500695BDF84C5005959DF84050049568
:102490009DF83C5003959DF8385002959DF83450B6
:1024A00001959DF8305000950AF050FE064B2360D0
:1024B000119BA361129BE361159B2362169B6362D0
:1024C000204609B030BD00BF68CD0108002070472C
:1024D00081807047C180704701817047418170479A
:1024E0007047704770477047704710B4C4880368DE
:1024F000121B84881B6D091B12B25DF8044B09B2D4
:1025000018474FF6FF7383814FF0FF330362136860
:10251000C3611060704770477047704770477047DD
:1025200090F825201AB190F8242002B11860704765
:102530007047704770477047704730B4C26844684E
:102540005510034604EB6200D20748BF62599B68EE
:1025500030BC48BFD358184743682BB183682BB9A8
:10256000C06800F0010070471846704701207047AE
:1025700010B51021044618F0A1FC204610BD10B57E
:102580004FF4C871044618F099FC204610BD00F1C4
:102590009802914210B504D10368DB6ABDE810408F
:1025A000184700F1D002914202D103681B6BF5E796
:1025B00000F58472914205D109F090FDBDE810400C
:1025C000FFF7EEBC00F5A273994205D109F086FD34
:1025D000BDE81040FFF7F4BC10BD0000074A0260E0
:1025E0000022C0E90122C0E90322C0E90522C0E9B6
:1025F00007224FF480728284704700BF38E50108DB
:1026000070B503680446DB6A154698472368294677
:1026100020461B6BBDE870401847000010B526220D
:102620000446002118F0FEFD2046FFF7D7FF0023E7
:10263000A36284F82C300123064A84F824304FF634
:10264000FF73E385238684F832302260A386204618
:1026500010BD00BFF0DF01082DE9F04F044689B03E
:10266000264600250AF0F2FF7D4BE56346F8403B25
:1026700029462622304618F0D5FD3046FFF7AEFF3A
:1026800004F16C074FF0FF08764B236426224FF6C7
:10269000FF73294684F86680A5663846ADF81C307D
:1026A00018F0C0FD3846FFF799FF6F4BE366BDF8A1
:1026B0001C30A4F8923007A904F1980B84F8948098
:1026C000384608F004F804F1D00A5846FFF7A6FF90
:1026D00004F584795046FFF7A1FF04F5A278484637
:1026E00007F0CEFF404607F0CBFF604BC4E96034F3
:1026F0005F4B2A46C4E9623529463046FFF780FF22
:102700003046F021FFF7E8FE30464FF4A071FFF7A6
:10271000E5FE4FF07F432A46A36629463846FFF779
:102720006FFF092307A93846ADF81C3007F0CFFF2B
:10273000584668223821FFF763FF0723ADF81830A9
:102740004FF00803A4F8CC3007AA06A95846ADF804
:102750001C3007F095FC04F5C0720392C4F8C02049
:102760005046A6223821FFF74BFF0723ADF818305B
:102770004FF00803A4F8043107AA06A95046ADF8A3
:102780001C3007F07DFC039BC4F8F8304846F82263
:102790002321FFF735FF0423ADF8183006A807AB57
:1027A00000934FF00102034605A8ADF814204FF046
:1027B0000201024604A8ADF81C1001464846ADF8D7
:1027C000105007F0BAFE4FF00803A4F842314FF062
:1027D0004600039BA4F84001C4F8303140460A2269
:1027E0002321FFF70DFF0623ADF818304FF001024B
:1027F00007AB4FF00201ADF81420ADF81C1005AA8C
:10280000009304A906AB4046ADF8105007F095FEC2
:102810001023A4F87E314FF04600039BC4F86C31BE
:10282000A4F87C013146201D039006F0F5F80398CA
:10283000394606F0F1F80398594606F0EDF803988A
:10284000514606F0E9F80398494606F0E5F8039882
:10285000414606F0E1F8204609B0BDE8F08F00BF20
:10286000D8CD010808E1010854E30108C0CD0108F2
:102870008F250008806A704770B50D7990F82C306C
:1028800004463DB93BB123682046D3F88030BDE80B
:10289000704018477BB1B5FA85F35B0984F82C309A
:1028A00023682046D3F884309847236820465B6924
:1028B0009847002DE7D070BD70477047704770474C
:1028C00090F82C302BB1C26EC26523B1436F036602
:1028D0007047826EF8E7036FF9E7704770477047FB
:1028E00030B4C26844685510034604EB6200D20756
:1028F00048BF62599B6830BC48BFD35818474368EB
:102900002BB183682BB9C06800F0010070471846EE
:1029100070470120704730B4C268446855100346C0
:1029200004EB6200D20748BF62599B6830BC48BFC5
:10293000D358184743682BB183682BB9C06800F09F
:1029400001007047184670470120704790F82D30FD
:1029500080F85A30704710B57821044618F0AEFA66
:10296000204610BD10B51021044618F0A7FA2046E5
:1029700010BD10B51021044618F0A0FA204610BD75
:1029800010B54FF42A71044618F098FA204610BD8D
:1029900010B50446006B50B10368DB68984730B14E
:1029A000206B036821469B68BDE81040184710BDA6
:1029B00000F1D802914202D10368DB6A184700F5A2
:1029C000A872914202D103681B6BF7E7704700F5CC
:1029D0001070884208B505D109F080FBBDE80840B9
:1029E000FFF7CEBA08BD70B504461D46BDF91060AC
:1029F000FFF706FE2368294620465B6B984723684D
:102A0000314620469B6BBDE87040184710B5262222
:102A10000446002118F006FC2046FFF7DFFD044BBA
:102A20002360FF2384F826300023A362204610BDD4
:102A300008E1010810B526220446002118F0F2FB37
:102A40002046FFF7CBFD074B2360074BA3624FF6F1
:102A5000FF73A3854FF47F020023C4E90C32238760
:102A6000204610BD60E00108B0C7010870B50446FB
:102A7000FFF7B4FD4FF47F432646A38501230025CD
:102A800084F824300D4BA562256346F8343B30466C
:102A9000FFF7BCFF0A4B63632A4629463046C4E968
:102AA0001A55C4E91C552566A4F86450FFF7A8FD23
:102AB0002046314605F0B0FF204670BD20CF01080A
:102AC00048E201082DE9F04F2DED048B04468BB050
:102AD0000AF0BCFD22460025B84BE56342F8403BB6
:102AE00004F16C06104608EE102A4FF6FF78FFF747
:102AF0008DFF262229463046ADF8208018F092FB43
:102B00003046FFF76BFDAE4BE36608AFBDF82030F3
:102B1000A4F89230394684F89480304604F1980A3B
:102B200007F0D5FD5046FFF785FF04F1D809A54B06
:102B3000C4F89830C4F8D450484604F5A878FFF794
:102B400095FF4046FFF792FF04F5E473184608EE40
:102B5000903AFFF76FFF04F50173184609EE103A3B
:102B6000FFF768FF04F51073184609EE903A07F076
:102B700087FD954BC4E9A234944BC4E9A435944B2A
:102B8000C4E9A634934BC4E9A8354FF4A07318EEFA
:102B9000100A00932A46F0232946FFF724FF4FF03E
:102BA0007F432A46A36629463046FFF729FD0923BD
:102BB00039463046ADF8203007F089FD25230093D3
:102BC0005522832337215046FFF70DFF4FF07F43F7
:102BD000C4F8C830804BA4F8CC501B6804F51F7BA8
:102BE0002BB97E4B7E4AAE217E4818F095F97E4B7C
:102BF0001B88032B03D87D4B794AAF21F4E77C4B2C
:102C00000321186800F022FC7A4A03460521584641
:102C10000CF0B6F9784BC4F8D4B039464FF0320B0B
:102C200050460893ADF8245007F0EAF9CDF800B00B
:102C30005B462A46294604F58670FFF7D4FE4FF01E
:102C400005026E496E4BA4F83C216E486E4AC4E9F9
:102C50005203C4E950214846FFF732FECDF800B0D8
:102C60005B464846AD222321FFF7BDFE04F5267ED4
:102C7000C4F808E15B46CDF800B02A46294604F5C1
:102C8000C270CDF80CE0FFF7AEFE5C495E4A5D48CD
:102C9000C4F8C0014FF0050CC4E96E2102F54C12D6
:102CA000A4F8B4C1C4F8C4214046FFF709FE5B464E
:102CB000CDF800B04046AD229B21FFF794FE039A69
:102CC000C4F8802118EE900A8722A721FFF798FC0C
:102CD0004FF07F42484BC4F8F82118EE900AA4F850
:102CE000FC51089339460123ADF8243007F088F9E8
:102CF00019EE100A87222021FFF782FC4FF07F4255
:102D00003D4BC4F8342219EE100AA4F838524FF0A3
:102D1000020B39460893ADF824B007F071F919EEAB
:102D2000900AF7222321FFF76BFC01234FF0050CDB
:102D300006AA19EE900AADF8183005A907AB00975E
:102D4000ADF81CC0ADF81450ADF820B007F0F5FB9D
:102D50004623A4F878321023251DA4F87A3204F50E
:102D60002273C4F8683218EE101A284605F054FE93
:102D70003146284605F050FE5146284605F04CFEE7
:102D80004946284605F048FE4146284605F044FEDF
:102D900018EE901A284605F03FFE19EE101A284644
:102DA00005F03AFE284619EE901A05F035FE204649
:102DB0000BB0BDEC048BBDE8F08F00BFE4CF010881
:102DC00054E30108A0E10108B4CF0108CF290008AD
:102DD000CCCF0108B1290008242201200CCE010823
:102DE0004ECE01087CCE010828220120C3CE010866
:102DF0003022012015CF0108B0C70108CC9900FF8F
:102E0000996633FF663300FF996600FF704770478D
:102E1000704730B4C26844685510034604EB620042
:102E2000D20748BF62599B6830BC48BFD358184787
:102E300043682BB183682BB9C06800F0010070476C
:102E4000184670470120704710B51021044618F04D
:102E500035F8204610BD10B54FF4C271044618F085
:102E60002DF8204610BD00F59870884208B505D1B0
:102E700009F034F9BDE80840FFF782B808BD00004A
:102E800038B5262204460D46002118F0CBF920461D
:102E9000FFF7A4FB064B23602B88E384FF23204627
:102EA00084F82830294607F012FC204638BD00BFC0
:102EB00054E301082DE9F04F2DED028B04468BB051
:102EC000264600250AF0C2FB844BE56346F8403BEA
:102ED00026222946304618F0A5F93046FFF77EFB3A
:102EE0007F4B236408AFFF2304F16C0A4FF6FF7B8E
:102EF00084F8663004F198093946A5665046ADF865
:102F000020B0FFF7BDFF39464846ADF820B0FFF7C7
:102F1000B7FF04F1C403184604F1F008394608EE7F
:102F2000103AADF820B0FFF7ABFF26222946404605
:102F300018F078F94046FFF751FB6A4BC4F8183196
:102F40004FF47F03A4F81CB1C4F8243104F5987B36
:102F5000654BC4F8F030C4F82051A4F82851C4F8E7
:102F60002C51584607F08CFB604BC4E95D34604B34
:102F70002A46C4E95F3529463046FFF741FBF02178
:102F80003046FFF7A9FA4FF4A0713046FFF7A6FAD2
:102F90004FF07F432A46A36629465046FFF730FB91
:102FA000092339465046ADF8203007F090FB6022E7
:102FB00011464846FFF724FB0B2339464846ADF837
:102FC000203007F084FB6022114618EE100AFFF74C
:102FD00017FB0A2318EE100A394684F8E950ADF8B9
:102FE000203007F074FB27223F214046FFF708FB03
:102FF0004FF07F43C4F8203104F5B67303933D4B83
:10300000A4F824511B682BB93B4B3C4AAE213C48E9
:1030100017F082FF3B4B1B88052B03D83A4B374AEE
:10302000AF21F4E7394B0521186800F00FFA384A50
:103030000346042103980BF0A3FF039BC4F82C3133
:10304000404606F0C0FF274B08933946042340460C
:10305000ADF8243006F0D4FF5846F9222321FFF7BB
:10306000CFFA0123ADF818300323ADF81C3002234A
:1030700006AAADF8203005A907AB58460097ADF871
:10308000145007F05AFA4623A4F868311023A4F824
:103090006A3104F5BA73C4F85831201D31460390E3
:1030A00005F0BAFC0398514605F0B6FC0398494672
:1030B00005F0B2FC18EE101A039805F0ADFC039869
:1030C000414605F0A9FC0398594605F0A5FC2046A9
:1030D0000BB0BDEC028BBDE8F08F00BF38D001080B
:1030E00008E10108B0C70108A0E1010820D00108EB
:1030F000672E0008242201200CCE01084ECE0108C4
:103100007CCE010828220120C3CE010830220120F4
:1031100015CF01087047000030B5164D2C78BFF36D
:103120005B8F14F001048DB020D1284617F0C8FE43
:10313000E0B13F230793104B0693104B1049114801
:103140000894CDE9044301220423CDE9013205238B
:1031500000930C221923CDE909440394FFF78CF95D
:10316000284617F0B9FE084817F0F4FE05480DB0E0
:1031700030BD00BF201300206022020864D0010887
:10318000641C020824130020153100087047000059
:1031900030B5154D2C78BFF35B8F14F001048DB062
:1031A0001ED1284617F08CFED0B13F2307930F4B5A
:1031B00006930F4B0F49104808940122CDE90443B0
:1031C0000423CDE90132CDE909440A230394009494
:1031D000FFF752F9284617F07FFE084817F0BAFEAD
:1031E00005480DB030BD00BF4C130020642202081A
:1031F00068D001080C1D0208501300208D31000812
:103200007047000030B5154D2C78BFF35B8F14F07C
:1032100001048DB01FD1284617F052FED8B13F23CC
:1032200007930F4B06930F4B05930123CDE903330F
:1032300002930423CDE900330B490C48089414236E
:103240005F22CDE90944FFF717F9284617F044FE3D
:10325000074817F07FFE05480DB030BD78130020F9
:10326000682202086CD001081C1D02087C13002093
:10327000013200087047000030B5154D2C78BFF3BF
:103280005B8F14F001048DB01ED1284617F018FE94
:10329000D0B13F2307930F4B06930F4B0F491048B4
:1032A00008940122CDE904430423CDE90132CDE99C
:1032B0000944282303940094FFF7DEF8284617F00A
:1032C0000BFE084817F046FE05480DB030BD00BFA4
:1032D000A41300200C24020870D001085022020818
:1032E000A8130020753200080020704700207047A6
:1032F0000EB403B503AB002153F8042B019309F07E
:1033000043FD02B05DF804EB03B070470CB407B5A1
:1033100004AB53F8042B019309F036FD03B05DF8BC
:1033200004EB02B070470000C36B10B5044673B3E2
:10333000038E2BB9184B194ABF21194817F0ECFD21
:10334000C38D00EB43035B8B0BB30BF05FF8238E55
:10335000012B03D8134B144AC421EEE7E28D531C12
:103360009BB2092B194688BFA3F10A0104EB410166
:1033700040F63F10498B814209D10A2B04EB4202EF
:1033800028BF002304EB4303508B5883518320460E
:10339000BDE810400AF01EBF74D001087DD00108BE
:1033A00028D1010872D1010880D101080AF0CCBEF1
:1033B00010B586B002AC84E806001A460AAB059345
:1033C0000193099B00932146089B08F00AFA06B076
:1033D00010BD000038B518BB124B13481B681349C9
:1033E000B3B11A689C681A4402605A681A440A60A9
:1033F0001C440F4B00221A8000F038F8054600F0FC
:1034000033F80C4B1C600C4B1D600C4B188007E014
:103410000B4B03600B4B0B600B4B1C68002CE8D173
:1034200038BD00BFD0130020D4130020D8130020D3
:10343000DC130020242201202C220120282201203C
:1034400028240208102402085C240208044B1B688C
:1034500053F82100034B1B6803EB4000704700BF8B
:10346000D8130020D413002006207047004870476E
:10347000E013002010B5FFF7C5FE064C2060FFF7F3
:10348000FBFE6060FFF784FEA060FFF745FEE06092
:1034900010BD00BFE0130020704710B54FF4AC71B1
:1034A000044617F00BFD204610BD10B50446D0F8B9
:1034B000540100F015F82046BDE8104008F0E6BCC5
:1034C00010B50446FEF72CFD014B2360204610BDCD
:1034D0005CD20108002202600271322282607047D1
:1034E00070B5012104461348134E01F0C1F80038AD
:1034F00018BF01202071304600F0E4FC0A2130465C
:1035000000F07FFD304600F0CFFD0546304600F06C
:103510005DFDADB26523206821796B431B13A36069
:1035200003689B6898472068A1680368BDE87040FD
:10353000DB68184700000240D02501207047704723
:10354000704704387047704710B51021044617F0D3
:10355000B5FC204610BDA0F10400F5E710B500222F
:103560008260044AC16002F10804203204604260B3
:1035700010BD00BF98D2010870477047FEF7DBBF4F
:1035800010B54FF4C871044617F098FC204610BDE2
:1035900008B5034A034B0448872117F0BDFC00BF60
:1035A00004D30108C8D2010837D3010808B5054B78
:1035B0001B680BB9FFF7ECFF828EC08D131A5842BF
:1035C000584108BD5C22012008B59830FFF7EEFF96
:1035D000024600B10122BDE8084002484FF4005104
:1035E00001F04CB80018024008B5D030FFF7DEFFFC
:1035F000024600B10122BDE8084002484FF4804174
:1036000001F03CB80018024010B50446FFF724F85A
:10361000014B2360204610BD84D301087047043855
:103620007047704710B51021044617F047FC20463C
:1036300010BDA0F10400F5E710B500228260044A35
:10364000C16002F1080420320460426010BD00BF76
:10365000B8D3010870477047FFF731B9B0F9A83205
:103660000A4A10B5002BC4BF03F1FF33A0F8A832FB
:103670000446B0F9A832052100F51F700BF080FC5C
:1036800004F19800BDE8104009F09FBCE8D30108A0
:1036900010B5B0F8A832084A01331BB20446A0F8AE
:1036A000A832052100F51F700BF06AFC04F19800A8
:1036B000BDE8104009F089BCE8D3010810B54FF40B
:1036C0002B71044617F0FAFB204610BD10B50446D6
:1036D000FFF7F8F9034B23600023A4F8A832204633
:1036E00010BD00BFF4D3010870470438704770471D
:1036F000C0680368DB6A1847A0F10400FFF7F8BF51
:10370000C06803681B6B1847A0F10400FFF7F8BFFF
:1037100010B51021044617F0D1FB204610BDA0F1D2
:103720000400F5E710B500228260044AC16002F18E
:10373000080428320460426010BD00BF28D401088C
:1037400070477047FFF763BB80F8E910C43009F099
:103750003CBC000010B50B460446064A042100F5A7
:10376000B6700BF00DFC04F1F000BDE8104009F05C
:103770002CBC00BFE8D3010810B54FF4C271044659
:1037800017F09CFB204610BD10B50446FFF792FBD6
:10379000014B2360204610BD68D40108F02070471B
:1037A0004FF4A07070472920FDF7A0BF2820FDF737
:1037B0009DBF08B5FDF76EFFCA20FDF797FFC32038
:1037C000FDF778FF0820FDF775FF5020FDF772FF29
:1037D000CF20FDF78BFF0020FDF76CFFC120FDF728
:1037E00069FF3020FDF766FFED20FDF77FFF6420C5
:1037F000FDF760FF0320FDF75DFF1220FDF75AFF84
:103800008120FDF757FFE820FDF770FF8520FDF7C9
:1038100051FF0020FDF74EFF7820FDF74BFFCB2036
:10382000FDF764FF3920FDF745FF2C20FDF742FF2F
:103830000020FDF73FFF3420FDF73CFF0220FDF79D
:1038400039FFF720FDF752FF2020FDF733FFEA2074
:10385000FDF74CFF0020FDF72DFF0020FDF72AFFAC
:10386000B120FDF743FF0020FDF724FF1B20FDF7EB
:1038700021FFB620FDF73AFF0A20FDF71BFFA2202B
:10388000FDF718FFC020FDF731FF1020FDF712FFF4
:10389000C120FDF72BFF1020FDF70CFFC520FDF721
:1038A00025FF4520FDF706FF1520FDF703FFC72084
:1038B000FDF71CFF9020FDF7FDFE3620FDF716FFFB
:1038C000C820FDF7F7FEF220FDF710FF0020FDF7FE
:1038D000F1FEB020FDF70AFFC220FDF7EBFEB62097
:1038E000FDF704FF0A20FDF7E5FEA720FDF7E2FE45
:1038F0002720FDF7DFFE0420FDF7DCFE2A20FDF780
:10390000F5FE0020FDF7D6FE0020FDF7D3FE0020D7
:10391000FDF7D0FEEF20FDF7CDFE2B20FDF7E6FEF4
:103920000020FDF7C7FE0020FDF7C4FE0120FDF7D3
:10393000C1FE3F20FDF7BEFEF620FDF7D7FE0120B9
:10394000FDF7B8FE0020FDF7B5FE0620FDF7B2FE3C
:103950002C20FDF7CBFEC820FDF716FF2620FDF733
:10396000C5FE0120FDF7A6FEE020FDF7BFFE0F20FB
:10397000FDF7A0FE2920FDF79DFE2420FDF79AFE0D
:103980000C20FDF797FE0E20FDF794FE0920FDF7B1
:1039900091FE4E20FDF78EFE7820FDF78BFE3C2039
:1039A000FDF788FE0920FDF785FE1320FDF782FE56
:1039B0000520FDF77FFE1720FDF77CFE1120FDF7A7
:1039C00079FE0020FDF776FEE120FDF78FFE002056
:1039D000FDF770FE1620FDF76DFE1B20FDF76AFE59
:1039E0000420FDF767FE1120FDF764FE0720FDF7B8
:1039F00061FE3120FDF75EFE3320FDF75BFE4220C5
:103A0000FDF758FE0520FDF755FE0C20FDF752FE90
:103A10000A20FDF74FFE2820FDF74CFE2F20FDF772
:103A200049FE0F20FDF746FE1120FDF75FFEC8207E
:103A3000FDF7AAFE2920FDF759FEBDE808402C201D
:103A4000FDF754BE08B5FDF725FE0321D320FDF791
:103A500069FE80B208BD10B5C4B20222032120461F
:103A6000FDF7CEFD0A20FDF713FE204600220321BC
:103A7000FDF7C6FDBDE810400220FDF709BE38B5D0
:103A80000446E4B2FDF7BAFD00212046FDF7D0FD63
:103A9000012105462046FDF7CBFD40EA052080B216
:103AA00038BD10B5C4B240212046FDF7C1FD030664
:103AB00007D54C212046FDF7BBFD003818BF01207B
:103AC00010BD01224B212046FDF79AFD2046002221
:103AD0004B21FDF795FD0020F2E773B50423C4B236
:103AE0000E461546D7210DEB03022046FDF7BAFD21
:103AF000019B1BBA1A0DC3F30B23328020462B8087
:103B000001224B21FDF77CFD00224B212046FDF7D1
:103B100077FD02B070BD000010B50A4B1A789042D4
:103B200004460DD0597888420AD00AB141B9012221
:103B30009C54FDF763FD2046BDE81040FFF78BBFA6
:103B400010BD00BFF013002010B5C4B209212046FB
:103B5000FDF76EFD40F00100C2B209212046BDE82C
:103B60001040FDF74DBD10B5C4B209212046FDF748
:103B70005FFD092100F0FE022046BDE81040FDF780
:103B80003FBD38B5C4B20D4620460A21FDF750FDB1
:103B900040EA0502D2B220460A21BDE83840FDF7CE
:103BA0002FBD07B50190FDF72AFD01981F21FFF7F2
:103BB000E8FF019803B05DF804EBFFF7C5BF38B527
:103BC000C4B20D4620460A21FDF732FD20EA050267
:103BD000D2B220460A21BDE83840FDF711BD10B52C
:103BE0000446FFF7C0FF20461F21BDE81040FFF745
:103BF000E6BF10B5C0B20C460B21FDF719FD204001
:103C000010BD1F21FFF7F5BF0A46C0B20B21FDF71B
:103C1000F7BC1F21FFF7F8BF38B5C4B20D462046E8
:103C20001721FDF705FD20EA0502D2B22046172133
:103C3000BDE83840FDF7E4BC70B5C4B206460421C7
:103C40002046FDF7F5FC042100F0FB020546204666
:103C5000FDF7D6FC3046F021FFF7DEFF05F0F80255
:103C600020460421FDF7CCFC492220212046FDF707
:103C7000C7FC0220FDF70CFD204601222121FDF7A3
:103C8000BFFC20469A224121FDF7BAFC20460122C2
:103C90004A21FDF7B5FC204601224B21FDF7B0FC7F
:103CA000204600224B21FDF7ABFC20460122562185
:103CB000FDF7A6FC204601225821FDF7A1FC204675
:103CC00001224021FDF79CFC2046FF220B21FDF73D
:103CD00097FCBDE870400220FDF7DABC054BD3F835
:103CE000882042F47002C3F888204FF000629A6086
:103CF000704700BF00ED00E008B50B4B1A6842F4B6
:103D000000721A601A6842F480621A601A6842F4FB
:103D100080721A60032000F067FA0020FDF7AAFF06
:103D2000FDF740FD002008BD003C0240034A044B63
:103D300011681B780B441360704700BFD826012020
:103D400078000020014B1868704700BFD82601207A
:103D500038B50446FFF7F6FF631C1CBF054B1B7804
:103D6000054618BFE418FFF7EDFF431BA342FAD343
:103D700038BD00BF7800002038B50446002800F0A8
:103D80009B80056C25B9FDF72DFD656484F83C50DA
:103D9000236CDB0600F18E80236C23F4885323F020
:103DA000020343F002032364444B5A6822F4403276
:103DB0005A605A6861680A435A60236821695A68E0
:103DC00022F480725A605A6842EA01225A605A68A4
:103DD000A16822F040725A605A680A435A609A6891
:103DE000E16822F400629A609A680A439A60344952
:103DF000A26A8A4252D0996821F0706199609968EC
:103E00000A439A609A68E16A22F040529A609A687E
:103E10000A439A609A6822F002029A609A68217EA8
:103E200042EA41029A6094F82020002A3ED05A6863
:103E3000616A42F400625A605A6822F460425A6031
:103E40005A68013942EA41325A60DA6AE16922F479
:103E50007002DA62DA6A013942EA0152DA629A6879
:103E600022F400729A609A6894F8301042EA412273
:103E70009A609A68616922F480629A609A68002068
:103E800042EA81229A606064236C23F0030343F0CA
:103E900001032364002384F83C3038BD9A6822F083
:103EA00070629A609A6822F04052B2E75A6822F42F
:103EB0000062C9E70120EDE70120EEE700230140A1
:103EC0000100000F13B50023019390F83C30012B43
:103ED0006CD00123026880F83C309368D9070CD578
:103EE000936813F001031AD1026C42F010020264CD
:103EF000426C42F00102426456E093682D4943F05F
:103F0000010393602C4B1B68B3FBF1F303EB4303FA
:103F10000193019B002BE3D0019B013BF8E7036C6D
:103F2000264C23F4E06323F0010343F4807303641D
:103F300053685B0541BF036C23F4405343F4805343
:103F40000364036C13F480531CBF436C23F006031B
:103F500043646FF02201002380F83C30116018495F
:103F6000486810F01F0019D1A24206D0154B9A42A2
:103F70000DD14B6813F01F0F07D1906810F040501F
:103F800016D1936843F08043936002B010BD0E4B8E
:103F90009A42FAD14B6813F0100FEDE7A24207D115
:103FA000906810F04050ECD01846EEE70220ECE7A5
:103FB0000020EAE740420F0074000020002001408A
:103FC00000230140002101400022014090F83C30D4
:103FD000012B14D003689A6822F001029A609B6852
:103FE000DB0707D4036C23F4885323F0010343F069
:103FF00001030364002380F83C3018467047022018
:10400000704703689A68520570B504460D460BD593
:104010009B68DE0508D5036C43F02003036400238E
:1040200080F83C30012070BDFFF78CFE0646236807
:104030001A6891070CD56FF012021A60226C42F4D4
:10404000007222649A6812F0405F17D00020EAE7FD
:10405000681CEDD065B923681B6813F00203E6D134
:10406000226C84F83C3042F0040222640320DAE738
:10407000FFF768FE801BA842EDD8D8E7207E002815
:10408000E4D1DA6A12F4700F02D09B685A05DDD4CD
:10409000236C23F480732364236CDB04D6D4236C59
:1040A00043F001032364BEE70368D86C7047000047
:1040B000F7B50023019390F83C30012B69D0012320
:1040C00080F83C300D6803688E68092DACB234D995
:1040D00004EB4402DF681E3A4FF0070C0CFA02FCB6
:1040E00027EA0C07DF60DF6806FA02F23A43DA607B
:1040F0004968062901EB81022FD8596B053A1F2622
:10410000964021EA06015963596B04FA02F20A4308
:104110005A63304A93420AD1122D3CD12E4B5A6831
:1041200022F400025A605A6842F480025A60002366
:1041300080F83C30184603B0F0BD1F6905EB45021E
:104140004FF0070C0CFA02FC27EA0C071F611F69ED
:1041500006FA02F23A431A61CAE70C294FF01F012E
:104160000BD81E6B233A914026EA01011963196BA3
:1041700004FA02F20A431A63CBE7DE6A413A91403D
:1041800026EA0101D962D96A04FA02F20A43DA6224
:10419000BFE70220CFE7114B9D4201D0112DC6D1C0
:1041A0000D4B5A6822F480025A605A6842F40002A9
:1041B0005A600A4B9D42BAD1094B0A4A1B68B3FBAD
:1041C000F2F20A2353430193019B002BAFD0019BD2
:1041D000013BF8E7002001400023014012000010DD
:1041E0007400002040420F000749CA6822F4E062D0
:1041F0000302120403F4E063120C134343F0BF63A1
:1042000043F40033CB60704700ED00E0164B30B54F
:10421000DC68C4F30224C4F10705231D042D28BF64
:104220000425062B4FF0FF338CBF033C002403FA18
:1042300005F521EA0501A34022EA0302A140002876
:1042400041EA0203ACBF00F16040084A4FEA0313A1
:10425000B8BF00F00F00DBB2AABF00F561401354F5
:1042600080F8003330BD00BF00ED00E014ED00E049
:10427000002808DB4209012300F01F0003FA00F0C8
:10428000014B43F82200704700E100E010B50446FE
:1042900050B1437903F0FF0213B90271FDF7D4FA6C
:1042A00001236371002010BD0120FCE710B5044616
:1042B00030B390F8393003F0FF021BB980F8382092
:1042C000FDF7DAFA22686168022384F8393013684E
:1042D00023F440330B431360536BA16823F00703AF
:1042E0000B435363136CE16823F47F5323F03F03C4
:1042F0000B43136400200123E06384F8393010BDC0
:104300000120FCE770477047036870B55E681D6860
:10431000F207044614D5E90512D51A6822F4807212
:104320001A60C26B42F00102C26301229A60042348
:1043300080F83930002380F83830436903B198475A
:10434000B20616D5AB0414D523681A6822F40052BD
:104350001A6020229A60E36B43F00203E3630423B4
:1043600084F83930002384F8383063690BB1204673
:104370009847300716D5290514D523681A6822F402
:1043800000621A6008229A60E36B43F00403E3635F
:10439000042384F83930002384F8383063690BB182
:1043A0002046984772070BD56B0509D523681A6814
:1043B00022F480621A6004229A602046FFF7A2FF6E
:1043C000B00714D5A90512D523681A6822F4007223
:1043D0001A6002229A60E36BE363012384F83930A8
:1043E000002384F8383023690BB120469847F20641
:1043F00013D5EB0411D523681A6822F480521A6091
:1044000010229A60E36BE363012384F839300023C0
:1044100084F838302046FFF776FF70BDF0B590F88D
:104420003830012B4FF002032BD0012280F83930B5
:1044300080F8382000EB0113D3E907425D6A184F7A
:1044400044EA0242093C012C9CBF05F07F431A4319
:104450004FEA0116036888BF42EA056299B9596AB2
:1044600039400A435A62012C82699A6103D8426A30
:1044700022F07F429A62012380F83930002380F8CD
:1044800038301846F0BDD96939400A43DA618219DB
:10449000012C92691A619CBF25F07F451D62EAE7F5
:1044A000F0FFFC002DE9F74FDFF8C0916D4A0023C3
:1044B0000D6801249C4004EA050CAC4340F0B9802F
:1044C0004D6805F003044FEA43080326671E06FA09
:1044D00008F6012F6FEA060634D8876807EA060E49
:1044E000CF6807FA08F747EA0E078760476827EAA8
:1044F0000C0EC5F300179F4047EA0E074760C768D8
:1045000007EA060E8F6807FA08F747EA0E07022C3B
:10451000C76019D14FEAD30A00EB8A0A03F0070BF0
:10452000DAF820704FEA8B0B4FF00F0E0EFA0BFEED
:1045300027EA0E0E0F6907FA0BF747EA0E07CAF8CB
:10454000207001E0032CDAD1076804FA08F43E4039
:10455000264315F4403F06606BD04FF0000ACDF8BB
:1045600004A0D9F84460404C46F48046C9F8446041
:10457000D9F8446006F480460196019E23F00306B4
:1045800006F1804606F59C3603F0030ED6F8088047
:104590004FEA8E0E0F2707FA0EF7A04228EA070708
:1045A0004ED004F58064A0424CD004F58064A04253
:1045B0004AD004F58064A04248D004F58064A0424B
:1045C00046D004F58064A04244D004F58064A04243
:1045D00042D004F58064A04240D004F58064A0423B
:1045E0003ED004F58064A0420CBF09240A2404FADA
:1045F0000EF43C43B46014686FEA0C06EF0354BF3A
:1046000034404CEA040414605468AF0354BF34408F
:104610004CEA040454609468EF0254BF34404CEAFE
:1046200004049460D468AD0254BF34404CEA0404DE
:10463000D4600133102B7FF43BAF03B0BDE8F08FA3
:104640005446D4E70124D2E70224D0E70324CEE77E
:104650000424CCE70524CAE70624C8E70724C6E7F4
:104660000824C4E7003C014000000240003802403A
:104670000369194214BF0120002070470AB181610B
:1046800070470904FBE701684B6913F480634FF03E
:10469000000210D06FF480634B612023026380F826
:1046A0003D3080F83E20036C80F83C2043F004034A
:1046B000036401207047184670472DE9F041044615
:1046C0000F46164698462568686927EA000080B2BA
:1046D000B8B16B695A0516D52B6843F400732B608B
:1046E0006FF480636B6120220023236384F83D20F4
:1046F00084F83E30226C42F00402226484F83C309C
:104700000120BDE8F081731CDED0FFF71BFBA0EB9E
:104710000800B04201D8002ED5D100232022236307
:1047200084F83D2084F83E30226C42F02002E4E719
:1047300070B504460D46164623685B695B0701D5D4
:10474000002070BD2046FFF79EFFA8B96A1CF3D079
:10475000FFF7F8FA801BA84201D8002DECD1002306
:104760002022236384F83D2084F83E30226C84F8B4
:104770003C3042F0200222640120E2E770B504469A
:104780000D46164621684B6913F0400301D0002006
:1047900010E04A69D2060ED56FF010024A6120225D
:1047A000236384F83D2084F83E30226C226484F830
:1047B0003C30012070BDFFF7C5FA801BA84201D82C
:1047C000002DDFD100232022236384F83D2084F8CC
:1047D0003E30226C42F02002E8E72DE9F84606461A
:1047E0000F4691461D464FEA114A3368BAF1010F50
:1047F0000CBF5C699C6927EA0404A4B2B4FA84F48F
:104800006409A14501D0002017E06A1CEED0FFF733
:1048100099FA089BC01AA84201D8002DE5D10023BF
:104820002022336386F83D2086F83E30326C86F8CD
:104830003C3042F0200232640120BDE8F88670B5B9
:1048400004460D46164623685B691B0601D5002009
:1048500070BD2046FFF717FFA8B96A1CF3D0FFF719
:1048600071FA801BA84201D8002DECD10023202230
:10487000236384F83D2084F83E30226C84F83C3079
:1048800042F0200222640120E2E700002DE9F0431B
:104890001546026885B0DDE90C789946136843F443
:1048A000807313600E463B46CDF8008000224FF027
:1048B00001110446FFF791FF236838B11B68DB053F
:1048C00002D54FF40073236403200AE006F0FE06CD
:1048D0001E61194943463A462046FFF7EEFE18B1DD
:1048E000012005B0BDE8F083236803905A69039264
:1048F0009B690393424639462046039BFFF79FFF7F
:1049000040B1236C042B01BF2268136843F4007389
:104910001360E5E7B9F1010F236802D1EDB21D6123
:10492000DFE72A0A1A61394642462046FFF787FF29
:104930000028E6D12368F1E7020001002DE9FF47D6
:104940009A46036815461A6842F480621A601A682B
:10495000DDE90C7842F480721A600E463B46CDF8D1
:10496000008000224FF001110446FFF736FF236854
:1049700048B11B68DB0502D54FF4007323640320A4
:1049800004B0BDE8F0875FFA86F906F0FE061E6106
:104990002A4943463A462046FFF78FFE08B10120D8
:1049A000EEE7236803905A6903929B69039342469A
:1049B00039462046039BFFF742FF40B1236C042B8E
:1049C00001BF2268136843F400731360E7E7BAF18C
:1049D000010F23681AD1EDB21D61424639462046C7
:1049E000FFF72DFF0028E9D12268136843F4807394
:1049F00013604FF001110246CDF800803B4620467F
:104A0000FFF7EBFE226860B11368B3E72A0A1A6168
:104A1000394642462046FFF712FF0028CED12368D0
:104A2000D9E749F001031361044943463A46204659
:104A3000FFF743FE003818BF0120A1E70200010084
:104A400070B5044608B9012070BD90F83D3003F000
:104A5000FF021BB980F83C20FCF730FF242384F8C8
:104A60003D3023681A6822F001021A601A6842F485
:104A700000421A601A6822F400421A6000F070FEC8
:104A80003F4A6368934294BF3E4A3F4A90428CBF7C
:104A900000220122002AD6D121683C4E4A68B0FB90
:104AA000F6F622F03F0232434A60354A0D6A9342DD
:104AB00084BF4FF49672724325F03F0591BF721C7C
:104AC0004FF47A76B2FBF6F201322A430A62CD69DC
:104AD000421E2B4825F44F45834225F0FF0532D86E
:104AE0005B00B2FBF3F340F6FC720133134242D099
:104AF000C3F30B032B43CB61D4E907300A680343AC
:104B000022F0C00213430B608A68D4E9030322F445
:104B10000342034322F0FF0213438B60D4E90530C4
:104B2000CA68034322F0FF021343CB600B6843F0D3
:104B300001030B6000202023206484F83D302063B3
:104B400084F83E0080E7A06850B903EB4303B2FB52
:104B5000F3F30133C3F30B037BB143F40043C9E721
:104B600019204343B2FBF3F30133C3F30B0323B127
:104B700043F44043BEE70423BCE70123BAE700BF88
:104B8000A08601007F841E00FF083D0040420F0008
:104B90002DE9F743044699460C9E0F469046FFF7D1
:104BA000D1F894F83D30202B054603D0022003B005
:104BB000BDE8F08300903C49192301222046FFF70D
:104BC0000CFE0028F2D194F83C30012BEED0206886
:104BD000012384F83C300368D9075EBF036843F0C3
:104BE00001030360036823F400630360212384F856
:104BF0003D30402384F83E30002323640A9B6362E7
:104C0000BDF82C306385638D2385284BE362CDE9A5
:104C100000654B46424639462046FFF737FE0028DE
:104C20002AD00120C3E7FFF70AFE40B1236C042B12
:104C300001BF2268136843F400731360F1E7636AED
:104C400027681A4612F8011B39616262628D218D54
:104C5000013A92B262857A69481E80B25207208575
:104C60000AD548B15A783A6102336362638D013BD9
:104C700002399BB221856385238D2A463146204621
:104C8000002BD0D1FFF754FD0028CFD12268136844
:104C900043F400731360202384F83D3084F83C0013
:104CA00084F83E0083E700BF020010000000FFFF11
:104CB0002DE9F043044687B09946109F0D46904673
:104CC000FFF740F894F83D30202B064604D002252B
:104CD000284607B0BDE8F0830090764919230122E9
:104CE0002046FFF77AFD0028F1D194F83C30012BE3
:104CF000EDD02068012384F83C300368DB075EBFF9
:104D0000036843F001030360036823F40063036056
:104D1000222384F83D30402384F83E30002323646E
:104D20000E9B6362BDF83C306385638D2385624BC7
:104D3000E3622946CDE900764B4642462046FFF71E
:104D4000FDFD054608B10125C2E7228D2368B2B9F1
:104D500002905A6902929A690292029A1A6842F47F
:104D600000721A60DFF85481238D002B2CD1202291
:104D700084F83D2084F83C3084F83E30A8E7012ACE
:104D80000AD11A6822F480621A6003905A69039269
:104D90009A690392039AE1E7022A0ED11A6822F473
:104DA00080621A601A6842F400621A6004905A69BC
:104DB00004929B690493049BD4E705905A69059279
:104DC0009B690593059BCDE7032B56D8012B15D185
:104DD000324639462046FFF7D1FC0028B3D123687C
:104DE0001A69636A1A70636A01336362238D013B37
:104DF0002385638D013B9BB26385B5E7022B00964B
:104E00003B464FF000024146204619D1FFF7E5FC32
:104E1000002898D123681A6842F400721A601A694F
:104E2000636A1A70626A531C6362238D013B238597
:104E3000638D013B9BB2638523681B695370D2E786
:104E4000FFF7CBFC00287FF47EAF23681A6822F4BA
:104E500080621A601A69636A1A70636A0096013385
:104E60006362238D013B2385638D013B9BB2638588
:104E700002463B4641462046C8E732463946204670
:104E8000FFF77CFC00287FF45EAF23681A69636A31
:104E90001A70626A531C6362238D013B2385638D04
:104EA000013B9BB263852368596949077FF55CAF75
:104EB000C3E700BF020010000000FFFF0400010074
:104EC00010B590F83D30202BDCB216D1242380F8A9
:104ED0003D3003681A6822F001021A605A6A22F013
:104EE00010025A625A6A114359621A6842F001026A
:104EF0001A6080F83D40002010BD0220FCE730B56C
:104F000090F83D30202BDCB216D10268242380F8C3
:104F10003D30136823F001031360556A4FF6F073B8
:104F20002B40194389B25162136843F001031360A7
:104F300080F83D40002030BD0220FCE72DE9F04321
:104F4000D20104684F68E568D1F800C0D1F8189024
:104F50008432A3180CF10106586800F470405860C0
:104F6000E068C5F30B45C0F30B4030443D4440EAD4
:104F700005405860E068CD68C0F30A0005449868B1
:104F800000F470409860E6688868C6F30A0601304D
:104F9000304440EA0540986018690E6920F0070027
:104FA00018614FF0000E1E619D6991F8320091F872
:104FB0003180C3F818E091F8305045EA096545EAB8
:104FC000082545EA00459D61586920F0FF005861B9
:104FD00048695861D86920F4E06020F00700D86182
:104FE000D1E907500543DD61986A486AC3F828E0B3
:104FF00098621EB3012E23D0B01E022822D9072E9C
:105000000CBF02200120DD6A05F0E025DD628D6A1B
:10501000C96AA7EB0C0745437843033040EA0540D3
:10502000D862186B20F4FF6020F007001863196342
:10503000A35843F00103A350BDE8F0830420E2E746
:105040000320E0E70220DEE738B50446002863D0FD
:1050500090F8A13003F0FF021BB980F8A020FCF704
:1050600089FC022384F8A13023689A6922F07042F7
:105070009A61D4E901200243E068996902432069FA
:1050800002430A439A619A68244960690A409A6017
:105090009A6842EA0042A06902439A60DA68E069CD
:1050A0000A40DA60DA6842EA0042206A0243DA60C3
:1050B0001A69606A0A401A611A6942EA0042A06AE3
:1050C00002431A615A69114059615A69E16A42EA18
:1050D0000142216B0A435A61D96A94F8360094F868
:1050E000355001F07F41D962D96A94F834200A43DF
:1050F00042EA052242EA0042DA625A6B42F00602B4
:105100005A639A6942F001029A6100200123C4F8AF
:10511000A40084F8A13038BD0120FCE700F800F0BD
:1051200070477047036870B59E6B5D6B72070446ED
:1051300014D5690712D55A6B22F004025A6304226F
:10514000DA63D0F8A43043F00103C0F8A4300023A0
:1051500080F8A12080F8A030FFF7E2FFB20716D553
:10516000AB0714D523685A6B22F002025A6302225D
:10517000DA63D4F8A4301343C4F8A430042384F8C9
:10518000A130002384F8A0302046FFF7C9FFF007C4
:1051900010D5E9070ED523685A6B22F001025A6335
:1051A0000122DA63002384F8A12084F8A03020468D
:1051B000FBF79CFF320711D52B070FD523685A6BDD
:1051C00022F008025A630822DA63012384F8A1302E
:1051D000002384F8A0302046FFF7A3FF70BD2DE91F
:1051E000F04190F8A030012B06460F4694464FF050
:1051F00002001FD04FF0010886F8A08086F8A100B9
:1052000034240D4604FB02640FCD38340FC40FCD97
:105210000FC40FCD0FC42B68236030466246394659
:10522000FFF78CFE33680020C3F8248086F8A18045
:1052300086F8A000BDE8F08190F8A030012B4FF077
:10524000020312D080F8A13003685A6B22F00102E9
:105250005A63074A11645A6B42F001025A630123F0
:1052600080F8A130002380F8A0301846704700BFB6
:10527000006801402DE9F341044640B30368DD07AF
:1052800010D4236898075ED423681A0700F1A08021
:1052900023685B0700F1BE80A069002840F01F81F1
:1052A00000202BE0A64B9A6802F00C02042A07D0DB
:1052B0009A6802F00C02082A0BD15A68510208D5EC
:1052C0009F4B1B689A03DCD56368002BD9D1012062
:1052D00014E06268B2F5803F13D11A6842F480325C
:1052E0001A60FEF72FFD964E054633689B03C8D41F
:1052F000FEF728FD401B6428F7D9032002B0BDE863
:10530000F0818F4DB2F5A02F2B6807D143F4802395
:105310002B602B6843F480332B60E2E723F4803367
:105320002B602B6823F480232B60002AD9D1FEF751
:1053300009FD06462B689F03A3D5FEF703FD801BDE
:105340006428F7D9D9E77E4B9A6812F00C0F07D082
:105350009A6802F00C02082A11D15B685E020ED432
:10536000774B1A68950702D5E268012AAFD11A680F
:10537000216922F0F80242EAC1021A6084E7E26879
:10538000704BB2B101221A60FEF7DCFC6C4D064690
:105390002B68980707D52B68226923F0F80343EAA6
:1053A000C2032B6070E7FEF7CDFC801B0228EFD90B
:1053B000A3E71A60FEF7C6FC614E054633689907FD
:1053C0007FF562AFFEF7BEFC401B0228F6D994E7DA
:1053D00062695D4B7AB101221A60FEF7B3FC584E48
:1053E0000546736F9F073FF553AFFEF7ABFC401BBD
:1053F0000228F6D981E71A60FEF7A4FC504E054654
:10540000736F98077FF544AFFEF79CFC401B0228A2
:10541000F6D972E74A4B1A6C12F0805228D10192E9
:105420001A6C42F080521A641B6C03F08053019393
:10543000019B0127454D2B68D9051BD5A368404D1D
:10544000012B27D12B6F43F001032B67FEF77AFC6A
:105450003B4E054641F28838336F9B0739D5002F04
:105460003FF41AAF364A136C23F08053136413E7EA
:105470000027DFE72B6843F480732B60FEF762FCA4
:1054800006462B68DA05D9D4FEF75CFC801B02289F
:10549000F7D932E7052B04D12B6F43F004032B67B8
:1054A000D0E72A6F22F001022A672A6F22F0040255
:1054B0002A67002BCAD1FEF745FC41F28838064620
:1054C0002B6F9807CBD5FEF73DFC801B4045F7D9E5
:1054D00013E7FEF737FC401B4045BDD90DE7184DDB
:1054E000AB6803F00C03082B47D0194E00230228A9
:1054F000336035D1FEF726FC07462B68990129D485
:10550000D4E907321343626A43EA8213E26A43EA48
:105510000263A26A5208013A43EA02436B60012324
:105520003360FEF70FFC064D04462B689A013FF5E9
:10553000B7AEFEF707FC001B0228F6D9DDE600BF78
:105540000038024000004742800E47420070004091
:1055500060004742FEF7F6FBC01B0228CDD9CCE61F
:10556000FEF7F0FB04462B689B017FF599AEFEF732
:10557000E9FB001B0228F6D9BFE601283FF4BEAEC6
:105580006B68E26903F4800191427FF4A0AE216A66
:1055900003F03F028A427FF49AAE616A47F6C07216
:1055A0001A40B2EB811F7FF492AEA26A520803F454
:1055B0004031013AB1EB024F7FF489AEE26A03F069
:1055C0007063B3EB026F3FF46BAE80E6134908B52E
:1055D0008B6803F00C03042B1CD0082B1CD14A68E9
:1055E0004B68496813F4800314BF0D480D48C1F39C
:1055F000881118BF002302F03F02A1FB0001FAF757
:1056000047FE064B5B68C3F3014301335B00B0FB0D
:10561000F3F008BD0248FCE70248FAE70038024010
:1056200000127A000024F4002DE9F0410D460446F2
:1056300010B90120BDE8F081444B1A6802F00F0256
:105640008A4228D3226897072DD4D00741D43F4BF4
:105650001A6802F00F02AA4266D8226851076CD479
:10566000130707D53A4A2169936823F4604343EA54
:10567000C1039360FFF7AAFF354B364A9B68C3F31B
:105680000313D35CD840344B1860344B1868FCF7D4
:10569000F1FA0020CEE7CAB21A701B6803F00F03BC
:1056A0008B42C6D1CEE72A4B12F0040F1EBF996879
:1056B00041F4E0519960160742BF996841F4604196
:1056C00099602349A0688B6823F0F00303438B6043
:1056D000BBE762681E4B012A1CD11B6813F4003F14
:1056E000A7D01B4EB36823F003031343B360FEF748
:1056F00029FB41F288380746B368626803F00C035F
:10570000B3EB820FA3D0FEF71DFBC01B4045F3D9BE
:1057100003208FE7911E01291B6802D813F0007F38
:10572000DEE713F0020FDBE7EAB21A701B6803F042
:105730000F03AB427FF47DAF8FE70549E0688B68CC
:1057400023F4E05303438B608AE700BF003C024030
:10575000003802409CD40108740000207C00002026
:10576000044B054A9B68C3F38223D35C034A106849
:10577000D840704700380240ACD4010874000020C3
:105780000F2303600B4B9A6802F0030242609A6891
:1057900002F0F00282609A6802F4E052C2609B68F4
:1057A000DB0803F4E0530361034B1B6803F00F03B2
:1057B0000B60704700380240003C0240036813F061
:1057C000430FF7B5044640F08A80236813F00C0FAE
:1057D00044D0894D894E00232B60FEF7B3FA07466B
:1057E00033689B0000F1CC8021684F0715D5D4E9C0
:1057F0000403D6F888201B0602F0E04243EA801337
:105800001343C6F88830D6F88C30226A23F4F85354
:10581000013A43EA0223C6F88C300E0714D5774AC2
:10582000A369D2F8881020691B0701F0706143EA70
:1058300080130B43C2F88830D2F88C30616A23F4AD
:1058400040330B43C2F88C3001232B60FEF77AFA09
:105850006A4E05463368980040F1998023689A069D
:1058600033D500230193654B654D1A6C42F080528D
:105870001A641B6C03F080530193019B2B6843F463
:1058800080732B60FEF75EFA06462B68D90540F15F
:1058900085805A4D2B6F13F4407340F08680A36AC5
:1058A00003F44072B2F5407F544A40F0A080916802
:1058B00023F0704021F4F81120F44070014391600E
:1058C000116FC3F30B030B431367206810F0100034
:1058D0001FBF4C4B94F82C201A6000204EE04A4D1C
:1058E000464F00232B60FEF72DFA06463B681A014F
:1058F0003ED42168CB0741BFD4E901231B0743EA0B
:105900008213C7F884308E0715D53C4AE368D2F875
:10591000840066681B0600F0E04043EA86130343F8
:10592000C2F88430D2F88C00E36920F01F00013BFC
:105930000343C2F88C3048060AD5E36862681B0648
:1059400043EA8213A26843EA02732C4AC2F8843005
:1059500001232B60FEF7F6F9284E0546336819013E
:105960003FF533AFFEF7EEF9401B0228F6D904E00D
:10597000FEF7E8F9801B0228B8D9032003B0F0BD78
:10598000FEF7E0F9C01B02287FF62AAFF5E7FEF725
:10599000D9F9401B02287FF65DAFEEE7FEF7D2F99A
:1059A000801B02287FF671AFE7E7A26A02F440721B
:1059B00093423FF474AF2B6F144A0121116023F41A
:1059C0004073002111602B672B6FDA077FF567AFFB
:1059D000FEF7B8F941F2883706462B6F9B073FF573
:1059E0005EAFFEF7AFF9801BB842F6D9C5E7916804
:1059F00021F4F81163E700BF70004742003802400D
:105A000000700040E011474268004742400E4742A4
:105A100038B50D460446C8B190F82C3003F0FF02AB
:105A20001BB980F82D20FCF7B9F8022384F82C303C
:105A3000211D206800F0EAFC62682068294600F019
:105A40001BFD012384F82C30002038BD0120FCE729
:105A500038B590F82C30022B04460D46D8B20DD044
:105A6000022384F82C30206800F042FD2B68022BC2
:105A70000CBF0523012384F82C30002038BD10B55D
:105A800090F82C30022B0446D8B209D0022384F8B7
:105A90002C30206800F053FD012384F82C300020C6
:105AA00010BD00002DE9F3411D4617468846064605
:105AB000FEF748F93D442C1AFEF744F9224B1B68C7
:105AC000C3F3CB330546634332680193936838EAE6
:105AD000030301D000202DE07B1CF7D0FEF732F944
