:020000040800F2
:100000000000032089050008F11C0008F31C00080B
:10001000F51C0008F71C0008F91C0008000000008F
:100020000000000000000000000000000186000841
:10003000FB1C00080000000091860008057F0008F6
:10004000D9050008D9050008D9050008D905000818
:10005000D9050008D9050008D9050008D905000808
:10006000D9050008D9050008D9050008D9050008F8
:10007000D9050008D9050008D9050008D9050008E8
:10008000D9050008D9050008D9050008D9050008D8
:10009000D9050008D9050008D9050008D9050008C8
:1000A000D9050008D9050008D9050008D9050008B8
:1000B000D9050008D9050008D9050008D9050008A8
:1000C000D9050008D9050008D9050008D905000898
:1000D000D9050008D9050008D9050008D905000888
:1000E000D9050008D9050008D9050008D905000878
:1000F000D9050008D9050008D9050008D905000868
:10010000D9050008D9050008D9050008D905000857
:10011000D9050008D9050008FD1C0008D90500080C
:10012000D9050008D9050008D9050008D905000837
:10013000D9050008D9050008D9050008D905000827
:10014000D9050008D9050008D9050008D905000817
:10015000D9050008D9050008D9050008D905000807
:10016000D9050008D9050008D9050008D9050008F7
:10017000D9050008D9050008D905000800000000CD
:10018000D9050008D9050008D9050008D9050008D7
:10019000D9050008D9050008D9050008D9050008C7
:0C01A000091D0008D9050008151D000805
:1001B00010B5054C237833B9044B13B10448AFF3A1
:1001C00000800123237010BD6401002000000000A6
:1001D00084E0010808B5034B1BB103490348AFF3A2
:1001E000008008BD000000006801002084E00108D4
:1001F00001F0FF01102A2BDB10F0070F08D010F8D8
:10020000013B013A8B422DD010F0070F42B3F6D1DB
:10021000F0B441EA012141EA014122F007047FF0F4
:1002200000070023F0E80256083C85EA010586EA4B
:10023000010685FA47F5A3FA87F586FA47F6A5FA87
:1002400087F68EB9EED1F0BC01F0FF0102F0070293
:1002500032B110F8013B013A83EA010313B1F8D13E
:100260000020704701387047002D06BF354603381F
:10027000073815F0010F07D1013015F4807F02BF58
:10028000013015F4C03F0130F0BC0138704700BFA9
:1002900053B94AB9002908BF00281CBF4FF0FF31ED
:1002A0004FF0FF3000F06EB9ADF1080C6DE904CEEF
:1002B00000F006F8DDF804E0DDE9022304B0704741
:1002C0002DE9F047089D04468C46002B40F08380C2
:1002D0008A42174647D9B2FA82F242B1C2F12000EF
:1002E00024FA00F09140974040EA010C94404FEA14
:1002F0001748230CBCFBF8F61FFA87FE08FB16C153
:1003000043EA014306FB0EF1994209D9FB1806F1B5
:10031000FF3080F01981994240F21681023E3B4441
:100320005B1AA4B2B3FBF8F008FB103344EA0344B1
:1003300000FB0EFEA64509D93C1900F1FF3380F001
:100340000581A64540F2028102383C4440EA06405D
:10035000A4EB0E0400261DB1D4400023C5E90043E0
:100360003146BDE8F08702B9FFDEB2FA82F2002A18
:1003700050D1CB1B4FEA174E1FFA87F80126B3FB6B
:10038000FEFC210C0EFB1C3341EA034108FB0CF37D
:100390008B4207D979180CF1FF3002D28B4200F260
:1003A000E9808446C91AA3B2B1FBFEF00EFB10111E
:1003B00043EA014408FB00F8A04507D93C1900F1C5
:1003C000FF3302D2A04500F2D9801846A4EB0804FE
:1003D00040EA0C40BFE78B4209D9002D00F0B18004
:1003E0000026C5E9000130463146BDE8F087B3FA82
:1003F00083F6002E4AD18B4202D3824200F2B880AB
:10040000841A61EB030101208C46002DA8D0C5E9B8
:10041000004CA5E7C2F1200320FA03F6974001FA49
:1004200002F04FEA174ED9403043030CB1FBFEF601
:100430001FFA87F80EFB161143EA014306FB08F189
:10044000994204FA02F409D9FB1806F1FF3C80F046
:100450008D80994240F28A80023E3B445B1A81B211
:10046000B3FBFEF00EFB103341EA034100FB08F33F
:100470008B4207D9791800F1FF3C73D28B4271D9B6
:1004800002383944CB1A40EA064678E7C6F1200C18
:1004900003FA06F422FA0CF31C4320FA0CF701FAD3
:1004A00006F34FEA144E21FA0CF11F433B0CB1FB4B
:1004B000FEF91FFA84F80EFB191143EA014109FB0A
:1004C00008FA8A4502FA06F200FA06F308D961181A
:1004D00009F1FF3048D28A4546D9A9F102092144E1
:1004E000A1EB0A01BFB2B1FBFEF00EFB101147EA0F
:1004F000014700FB08F8B84507D9E71900F1FF31BB
:100500002ED2B8452CD90238274440EA0940A7EB3F
:100510000807A0FB02894F45C64649461AD317D0A3
:100520005DB1B3EB0E0267EB010707FA0CFCF2407A
:100530004CEA0202F740C5E9002700263146BDE833
:10054000F0872E4628460BE70646E9E61846FDE604
:100550004345E5D2B8EB020E69EB04010138DFE751
:100560000846D2E760468DE78146B9E7664675E7FB
:1005700030464AE7ACF1020C394413E702383C44F8
:1005800024E700BF704700BFDFF834D0002103E04C
:100590000C4B5B58435004310B480C4B42189A42A9
:1005A000F6D30B4A02E0002342F8043B094B9A427F
:1005B000F9D305F06FF81CF033FD00F02BFE704707
:1005C00000000320E09509080000002064010020DD
:1005D000640100201C330120FEE700F035BC00F070
:1005E000A3BC704710B5042104461CF0A7FB2046AD
:1005F00010BD000038B50C4B0C4C18800C4B822001
:1006000019806368984740F6110398420AD1094D52
:1006100023682C60822098472B688220DB689847EB
:10062000002038BD0120FCE7800100204C000020A4
:1006300082010020840100204FF4A071F020FFF718
:10064000D9BF0000F7B5344D2B6804461B698220E2
:10065000984780B2208000284CD02B680DF106020C
:100660005B6901A982209847BDF8063040F67462A4
:10067000934241D9ADF80620BDF80620C2F5676265
:10068000043292B20A2A3DD90B23B2FBF3F2234B78
:100690001B889A4201D95A1E92B2BDF8043040F626
:1006A000B8318B4230D8C3F571630E339BB20F2142
:1006B000B3FBF1F31A4909888B4201D94B1E9BB257
:1006C000184E194D30682F68834281B28CBF591A79
:1006D000C91AB8B2BA428CBF101A801A89B280B255
:1006E00001440529C8BF33603368C8BF2A606380EE
:1006F0002B68A38003B0F0BDB32B9CBFB423ADF82F
:100700000630B9E70022C8E7C3F56D6308339BB232
:100710000E2BCCD80023D3E78401002082010020D7
:1007200080010020880100208C01002037B5684638
:100730000D461446FFF786FFBDF8000030B1BDF846
:1007400002302B60BDF804302360012003B030BDBF
:10075000704770477047012380F8741080F8753037
:1007600070470020704700207047836B0BB108462C
:10077000184770474FF6FF707047406803689B69E1
:10078000184770477047704770B5044600F06EFC1C
:100790002368D3F88050044BD4E90F122046AC46AE
:1007A000BDE87040604700BF000000D008B531B917
:1007B0000A4B0B4A0B484FF425711CF0EDFAC0E9C7
:1007C0000F12003A0849436418BF01220A70003B27
:1007D000064A18BF0123137008BD00BFFCE00108E2
:1007E00034E1010882E10108C22D0120C32D01205E
:1007F00008B5036804469B6F9847236820461B6F23
:10080000984700F0B5F8236820469B6E984729204A
:1008100000F06CFF00F0ACF8236820469B6E984710
:10082000F8E710B504460AF057FD23682046D3F8D0
:10083000A030BDE81040184700F00ABC00F00EBC24
:1008400000F032BC00F0E0BB00F032BC00F03ABC7B
:1008500000F0E4BB09F0F8BE10B57C2104461CF0A2
:100860006DFA204610BD90F877301BB140680368E0
:100870001B6818471846704730B590F8341090F848
:100880007440104B8C421A780DD05AB90E4A0F4959
:100890000F4814880F4D0C80018811802980048036
:1008A00001221A7030BD002AFCD00948074A01888D
:1008B0001180054A074D14882C8011800480002285
:1008C000EFE700BFBC2D0120B82D0120BE2D012077
:1008D000BA2D0120C02D0120012108B500220846B3
:1008E00007F0B2FB0A4B186028B90A4B0A4A2721C5
:1008F0000A481CF051FA00220421012007F042FCB2
:10090000074B186018B9074B034A2B21F0E708BDC5
:100910009401002094E20108DDE201080CE30108E3
:100920009001002052E30108024B4FF0FF3118689C
:1009300007F0D4BB94010020014B186807F0FABB04
:1009400094010020024B0021186807F0C7BB00BFCC
:1009500094010020FFF7F0BF03480449006800231A
:100960001A4607F04BBC00BF900100200400002095
:1009700013B5084C00231A4601A9206807F06EFC45
:1009800020684FF0FF33002201A907F067FC02B096
:1009900010BD00BF9001002007F038BB03685B6CFE
:1009A00018470120704703689B6A184782B00023EC
:1009B00001930D4B1A6B42F400021A631A6B02F496
:1009C00000020192019A1A6942F400021A611A693E
:1009D00022F400021A61054B054A1A61054B4FF0DB
:1009E00080629A6002B07047003802400C320120E9
:1009F000010A000800E100E040F2EF30704700001B
:100A0000024B1B68586803685B691847C42D0120B6
:100A100008B50B280BD8DFE800F01206100A0A0A06
:100A20000A0808080808012008BD0520FCE7054B56
:100A3000054A064865211CF0AFF90020F4E70220C2
:100A4000F2E700BF94E30108AFE30108FBE301080C
:100A500008B50A2809D8DFE800F010060E080808D3
:100A6000080606060600012008BD054B054A064893
:100A700086211CF091F90020F6E70220F4E700BF80
:100A800094E301083FE40108FBE301082DE9F84382
:100A900091F81D800C464046FFF7BAFFA77F054638
:100AA0003846FFF7B5FF06463846FFF7D1FFA18A63
:100AB000628B534B521A1A649A61228B521A1A6132
:100AC000E28A586342EA01425A6421696268D96342
:100AD000DA60D4F800C094F81C90BCF1800F4FEAA3
:100AE00009629E463BD015D8BCF1200F45EA0200B2
:100AF00079D0BCF1400F76D0BCF1040F2BD0404B25
:100B00002A4342F40032B845DA6114BF3D4A40F24C
:100B100001221EE0BCF5807F07D0BCF5007FEED13E
:100B200042F4003242F0090203E042F4003242F0A3
:100B30000A02DA61E0680202440102F4780204F475
:100B40007C44C0002243C0B202431A622E4A5E6255
:100B500059611A6043E040F40030D861F6E7A068BC
:100B60002A4342F40032041DDC62DA6102785E62DC
:100B7000596142B1012A1CD0244B254A25484FF423
:100B800088711CF009F94288D969501E21F47F420E
:100B900022F0100242EA0022DA610125184CE369D2
:100BA00043F02003E361E3699B0613D5FFF7F4FEEE
:100BB000F9E74288D969501E21F47F4222F01002E1
:100BC00042EA0022B9F1FF0542F0100218BF0125E8
:100BD000DA61E3E71023A3601DB10B4B2360BDE88E
:100BE000F883084BFAE7084B40F40030CEF81C00BD
:100BF000CEF82460CEF81410CEF80030EFE700BF36
:100C000000B0024001020100010202008CE4010870
:100C1000A6E40108FBE30108F8B58E7F0C463046D8
:100C2000FFF716FFA78AE18A628B1E4B256958637E
:100C300041EA0741D21B5964DD631A64216808291F
:100C400018D19A611A615862217F174A42EA0162FB
:100C5000DA61E1680A02480102F4780200F47C409B
:100C6000C9000243C9B20A431A62104A5D61DD60DD
:100C70001A60F8BD0022D8611A61E1681EB9996353
:100C8000084B0B4AF4E70A02480102F4780200F428
:100C90007C40C900C9B202430A43217F42EA016293
:100CA0009A63EDE700B00240090001000102020072
:100CB00001020300054B0360054B4FF08062C3F84F
:100CC0008820BFF34F8FBFF36F8F7047F0E40108A8
:100CD00000E100E010B50446FFF7ECFF20464FF4BA
:100CE00042611CF02BF8204610BD000070B5044690
:100CF00025460A4B0C30002660602672667245F865
:100D0000203B602229460AF021FC04F54263EE6094
:100D10002035AB42FBD1204670BD00BFF0E4010896
:100D2000012070470C2070470C2303FB01000830A2
:100D300070470C2303FB0100083070470120704707
:100D400040F66C60704740F66C6303FB01000830AE
:100D5000704740F66C6303FB0100083070470120C8
:100D600070471020704700EB01100830704700EB0F
:100D7000011008307047084601F006B910B5034B62
:100D80000360044609F076FA204610BDA8E5010884
:100D900010B50446FFF7F2FF204614211BF0CEFFEA
:100DA000204610BD10B5034B0360044609F062FAFB
:100DB000204610BD74E5010810B50446FFF7F2FFA8
:100DC000204640F674611BF0B9FF204610BD0000BC
:100DD00010B5034B0360044609F04CFA204610BDE1
:100DE00040E5010810B50446FFF7F2FF2046182140
:100DF0001BF0A4FF204610BD10B5084B036004464D
:100E000000F56A60FFF7BAFF04F12C00FFF7CAFF94
:100E100004F11400FFF7DCFF204610BDDCE50108FB
:100E200008B50248FFF7E8FF08BD00BF9C0100209D
:100E300010B50446FFF7E0FF204641F218011BF011
:100E40007DFF204610BD00002DE9F34100F0DEFFDC
:100E5000054600F0DFFF00240146234628462246CF
:100E6000009410F099F8254B254A264D1A6020462B
:100E700003F0D2FB24480FF0D1FF2B78BFF35B8F38
:100E8000DB0735D428461BF05BFF88B31F4C204B93
:100E9000236004F56C6604F1140004F12C0804F5D9
:100EA0006A676060C4F80880E760266109F0E4F9C9
:100EB000184B6361404609F0DFF9174BE36238468F
:100EC00009F0DAF9154BC4F8A03E04F6B46003F05B
:100ED00025FC224604F6B461304603F015FC30468A
:100EE00001F052F828461BF037FF0D481BF072FF47
:100EF0000C4802B0BDE8F041FFF746BC202E0120AF
:100F0000541E002098010020080000209C010020B1
:100F1000DCE5010840E5010874E50108A8E50108E1
:100F2000210E0008D81D00200148FFF761BC00BF5A
:100F3000D81D002070B5244C244E254B254D236030
:100F40003046FFF7D3FE284613F0AAF8224B234879
:100F5000DC6000224FF48071C3E912122049036063
:100F600020481A85C3E91912C3E901654FF0807161
:100F70001D4D5967F024012104804FF4A070C3E98E
:100F80000422C3E90622C3E90822C3E90E22C3E909
:100F90001022C3E91422C3E9162283F82A20DA6258
:100FA0001A861A6683F86C201A6783F878102880EE
:100FB0000E4D83F834102A700D4A14800D4A1080AB
:100FC0000D4A1A6070BD00BFB4110020B811002096
:100FD000ECE00108581E0020D81D0020C42D01207F
:100FE00001000001B82D0120BA2D0120BC2D0120E7
:100FF000BE2D0120C02D0120D0E101080148FFF7DE
:1010000059BE00BFB8110020034B902283F85A2329
:1010100083F85823704700BF00E100E0094A0A49FD
:10102000D3680A48C3F30A03013B9BB20B801169E2
:10103000C1F30A01013901801364536B43F00103CA
:101040005363704700680140D21E0020D01E00206C
:10105000014B986A704700BF84680140024B01222F
:10106000996243F8602C70478468014070B504466B
:1010700009F03DFB2368DD6D0CF04EFF0146204674
:10108000A8472368054AD3F880502046AC46002381
:10109000BDE87040A2F51631604700BF00B004D033
:1010A00009F00CBB09F016BB09F0D4BA09F02DBC4D
:1010B000034B4FF080629A604FF080729A607047E5
:1010C00000E100E0084B4FF08062C3F88820BFF3D6
:1010D0004F8FBFF36F8F4FF08072C3F88820BFF33C
:1010E0004F8FBFF36F8F704700E100E0134B144A3E
:1010F0001B6C11888B4210B5124C13D1124B1988FE
:1011000005F076FD226892F86630013382F8663089
:10111000FFF722FC20680AF0DFF8BDE8104000204D
:10112000FFF716BB05F064FD0020FFF712FB2068F7
:101130000368BDE81040DB69184700BF0068014044
:10114000D21E0020C42D0120D01E002007B5064B62
:10115000ADF806001B68054801220DF1060106F0F6
:1011600083FA03B05DF804FB10000020B8300120C2
:1011700008B5642006F05CFFFBE7000030B595B0D1
:10118000102200210AA81BF091FF1422002103A8BD
:101190001BF08CFF00241D4B01941A6C42F080520E
:1011A0001A641B6C03F080530193019B184B02944B
:1011B0001A6842F440421A601B6803F440430293E9
:1011C0000122029B4FF48033CDE9082302254FF41E
:1011D0008003CDE90E5308214FF4A873CDE9101315
:1011E00008A804231393129505F020FD0F23CDE9E1
:1011F00003354FF4A0504FF48053CDE90603052189
:1012000003A8059405F0ECFE15B030BD003802408F
:10121000007000402DE980489BB004F049FAFFF7C8
:10122000ADFF142200210DA800241BF03FFFC44B8A
:1012300000941A6BC348C44D42F020021A631A6B23
:1012400002F020020092009A01941A6B42F0800290
:101250001A631A6B02F080020192019A02941A6BCF
:1012600042F004021A631A6B02F004020292029A1C
:1012700003941A6B42F001021A631A6B02F0010226
:101280000392039A04941A6B42F002021A631A6BD7
:1012900002F002020492049A05941A6B42F0400292
:1012A0001A631A6B02F040020592059A06941A6BB3
:1012B00042F010021A631A6B02F010020692069AAC
:1012C00007941A6B42F008021A631B6B03F00803C1
:1012D000079322460421079B04F0ACFE9B4822465C
:1012E0004FF4405104F0A6FE224699484FF4C04105
:1012F00004F0A0FE012602274FF0040891480F9445
:101300000DA9CDE90D86109704F0A8FD91480F971F
:101310000DA9CDE90D6404F0A1FD4FF440538B48B5
:101320000DA9CDE90D36CDE90F4704F097FD0DA9C4
:101330004FF4C0438648CDE90D36CDE90F4404F0A3
:101340008DFD8548854B036004F07CFC844A854B09
:101350002C62C5E9002328464FF48043C5E90434D4
:10136000C5E90244C5E9064405F046F810212846BF
:1013700005F082FA2146284605F09DFA7A487B4915
:1013800084624FF48273C0E900134FF40075182390
:10139000C0E906530A23764DC362C0E90244C0E99E
:1013A0000444C0E9084406F003F9724B0D97C5E9FF
:1013B00000364FF0100A4023C5E904A34FF4C07370
:1013C000C5E906344FF40063C5E908344FF400530F
:1013D000AB624FF0030B07230DA92846CDE90E3869
:1013E00010934FF00809C5E90248CDE911B71397EA
:1013F00005F0EAFF4FF6FF7209A92846CDE90A96E3
:10140000089409960C9405F0FFFF304604F07CF92F
:101410004FF6FF7209A92846CDE90979CDE90B6499
:1014200005F0F2FF4FF6FF7209A92846CDE909B988
:10143000CDE90B8405F0E8FF4FF40C730893089B8B
:101440000C934FF6FF7209A92846CDE909890B963E
:1014500005F0DAFF40F26A51284605F0ECFF34222D
:1014600021460DEB02001BF021FE434D434BAC86A1
:10147000C5E900340923C5E905361D2340F20D1CDA
:10148000C5E9073B40F24313C5E909C340F2171E03
:1014900040F247132846C5E90BE3C5E902442C6135
:1014A00085F8364005F0ACFAFF21F022CDE91214A0
:1014B0004FF4806805214FF4A073CDE90E24CDE9E7
:1014C0001481CDE916420DA922462846CDE91037F0
:1014D0002B4D18930D94ADF864408DF8664005F0DF
:1014E0005AFB284B2B601B68DFF8AC9098472B68A1
:1014F000254DDB689847254BC5E90A47C5E90C44EB
:101500002846C5E90034C5E9027404F0ABFB314656
:10151000284604F05FFC1E4D524621460DA81BF0E4
:10152000C5FD4FF48033C5E900932846194BAB62E3
:10153000AC602C612C7685F82040EC622EE000BF78
:10154000003802400008024064300120000C0240D4
:10155000001802400000024010310120003002401B
:10156000005C0040A0860100B8300120005001401E
:101570004C320120400100A01831012000680140D8
:10158000D41E0020140000200C32012000B00240C4
:10159000C03101200100000F00200140EC60EE612D
:1015A00085F830406E6104F0C3F80DA92846CDE9F6
:1015B0000D660F9404F058FAFFF70FF806F0B0FC30
:1015C000084A0948214606F0D7FC084B084A18602B
:1015D0002146084806F0D0FC074B186006F0B2FC24
:1015E000FEE700BF24E60108711100086030012009
:1015F00000E60108DF050008083201207047704747
:101600007FB5094B8DF817201B6802930DF1170267
:101610000123009201930A460146044804F094FF16
:1016200007B05DF804FB00BF0C000020643001200F
:101630007FB500238DF81730084B1B6802930A46CC
:1016400001230DF11701009101930146044805F0B3
:101650000BF89DF8170007B05DF804FB0C000020A4
:10166000643001201FB5084C24680092CDE9013494
:101670000A4601230146054804F0F6FF003818BF6A
:10168000012004B010BD00BF0C0000206430012018
:1016900004F03AB808B506480022042104F0CAFC58
:1016A000BDE8084002480122042104F0C3BC00BF89
:1016B0000008024038B50B4D044601220A484FF499
:1016C000005104F0B7FC00220421284604F0B2FCCB
:1016D0002046FFF73BFD28460122BDE838400421A3
:1016E00004F0A8BC00080240000C024038B50B4DC5
:1016F000044600220A484FF4005104F09BFC0022EB
:101700000421284604F096FC2046FFF71FFD2846DA
:101710000122BDE83840042104F08CBC00080240DE
:10172000000C0240F7B5144E144F05460C463046E7
:101730000022042104F07EFC00224FF400513846C0
:1017400004F078FC2846FFF701FD0D4B0D481B689F
:10175000224601A906F024F9384601224FF400512F
:10176000019C04F067FC30460122042104F062FC75
:10177000204603B0F0BD00BF00080240000C02404C
:1017800010000020B830012003F0BEBF0268034BF8
:101790009A4201D103F0A6BF704700BF001000407D
:1017A0007047000082B00E4B00220092596C41F449
:1017B00080415964596C01F4804100910099019273
:1017C000196C41F0805119641B6C03F08053019334
:1017D000019B0F216FF0010002B004F0F3B900BFCC
:1017E0000038024010B5044688B01422002103A836
:1017F0001BF05CFC2268124B9A421FD103F58C331C
:1018000000220192596C0F4841F480715964596C5F
:1018100001F48071019101990292196B41F001016B
:1018200019631B6B059203F0010302930221029BD3
:101830000323CDE9031303A904F010FB08B010BD86
:1018400000200140000002400268094B9A4282B029
:101850000BD100230193074B1A6B42F480521A6399
:101860001B6B03F480530193019B02B0704700BFD0
:10187000003002400038024007B50F4B02689A4220
:1018800016D10022A3F5F0430192196B41F4000137
:1018900019631B6B03F40003019305215A20019B7C
:1018A00004F090F95A2003B05DF804EB04F0BCB9E1
:1018B00003B05DF804FB00BF00B002402DE9F04327
:1018C000044689B01422002103A81BF0EFFB226814
:1018D000244B9A4243D1244C244800250095236B85
:1018E00043F004032363236B03F004030093009B82
:1018F0000195236B43F001032363236B03F0010382
:101900000193019B4FF012094FF400734FF001084F
:101910000327042603A9CDE90339CDE905870796F6
:1019200004F09CFA4FF480731148079603A9CDE99F
:101930000339CDE9058704F091FA0295236C43F44D
:1019400000032364236C03F400030293029B236AC5
:1019500043F400032362236A23F40003236209B0E3
:10196000BDE8F083005C00400038024000080240FF
:1019700000000240F0B599B004461422002107A8E7
:101980001BF094FB30220DEB020000211BF08EFBBC
:1019900022685E4B9A4240F0B78008230C93C02324
:1019A0001093042312930CA84FF40033159305F001
:1019B000E1FB08B1FFF7F4FE554B564800240094B4
:1019C0005A6C42F080625A645A6C02F08062009253
:1019D000009A01941A6B42F020021A631A6B02F00B
:1019E00020020192019A02941A6B42F001021A63DA
:1019F0001A6B02F001020292029A03941A6B42F0EF
:101A000002021A631A6B02F002020392039A049410
:101A10001A6B42F040021A631A6B02F04002049201
:101A2000049A05941A6B42F004021A631A6B02F0CE
:101A300004020592059A06941A6B42F008021A6392
:101A40001B6B03F00803069302250E26069B0B96DC
:101A50004FF4806307A9CDE90735CDE9094504F0C6
:101A6000FDF941F658032C480B9607A9CDE9073537
:101A70000927CDE9094504F0F1F9032327480B971D
:101A800007A9CDE90735CDE9094504F0E7F94FF499
:101A9000706322480B9607A9CDE90735CDE90945C2
:101AA00004F0DCF94FF40C631D480B9607A9CDE94F
:101AB0000735CDE9094504F0D1F9C02319480B9643
:101AC00007A9CDE90735CDE9094504F0C7F9082391
:101AD00015480B9607A9CDE90735CDE9094504F06E
:101AE000BDF94FF4A0530E480B9707A9CDE9073570
:101AF000CDE9094504F0B2F958202246052104F049
:101B000061F8582004F090F819B0F0BD0068014069
:101B1000003802400014024000000240000402406D
:101B20000018024000080240000C024010B50446B4
:101B300088B01422002103A81BF0B8FA2268154BC4
:101B40009A4224D103F5684300220192596C41F472
:101B500080115964596C01F480110191019902922C
:101B6000196B41F0200119631B6B059203F02003F0
:101B700002934FF46071029B0223CDE9031303200B
:101B80000523CDE9060303A9034804F067F908B06B
:101B900010BD00BF00500140001402402DE9F0418B
:101BA0002C4B1C6886B0002C50D14FF00108C3F8B4
:101BB0000080294B00949A6B284842EA08029A63F5
:101BC0009B6B039403EA08030093022703260C256A
:101BD000009B01A94FF63F03CDE90137CDE904652C
:101BE00004F03CF91E48059501A9CDE90187CDE92E
:101BF000034604F033F948F233131A48059501A956
:101C0000CDE90137CDE9034604F028F94FF6837397
:101C10001548059501A9CDE90137CDE9034604F042
:101C20001DF94CF203731148059501A9CDE901375F
:101C3000CDE9034604F012F960230D48059501A98A
:101C4000CDE90137CDE9034604F008F906B0BDE857
:101C5000F08100BFD81E002000380240001402406E
:101C6000000802400018024000100240000C024030
:101C70000004024030B5014689B00022362003F04E
:101C8000A1FF362003F0D0FF0025154B02951A6CFA
:101C9000144C42F010021A641B6C03F01003029300
:101CA00001A903A8029B05F047FA05F035FA0E4B8F
:101CB000236040F2E733E36040000C4BB0FBF3F0ED
:101CC0000138606020462561A56006F04DF820B916
:101CD000204605F003FF09B030BD0120FBE700BF3F
:101CE00000380240803201200010004040420F00C6
:101CF0007047FEE7FEE7FEE7FEE77047014805F0A4
:101D00002BBF00BF80320120014804F0E7BE00BFB6
:101D100018310120014803F0D3BF00BF0C3201206D
:101D20000120704708B51BF06DF8162303604FF0D3
:101D3000FF3008BD08B51BF065F816230360FEE709
:101D400070B50E4614460025A54201DB204670BD45
:101D5000AFF3008070550135F6E770B50E461446B6
:101D60000025A54201DB204670BD705DAFF3008009
:101D70000135F6E74FF0FF3070474FF400534B60EA
:101D800000207047012070470020704708B50A4BBB
:101D90001968024609B90949196018686946024478
:101DA0008A4206D91BF02EF80C2303604FF0FF3057
:101DB00008BD1A60FCE700BFDC1E002020330120B4
:101DC000704710B5042104461AF0B8FF204610BD34
:101DD00008B5052918D8DFE801F003070B0F0F132A
:101DE00002F066FC006808BD02F062FC4068FAE799
:101DF00002F05EFC8068F6E702F05AFCC068F2E789
:101E000002F056FC0069EEE70020ECE7004870475E
:101E10005CE601080F20704713B5002451B1036838
:101E200001948DF8034001AA9C680DF10303A047BB
:101E300002B010BD0846FBE74089704780897047B3
:101E40008088704783798088184480B27047C07951
:101E500000F07F007047C079C0097047704710B527
:101E6000082104461AF06AFF204610BD704700F5AD
:101E700096730868496803C37047704770474160AC
:101E8000704770470123037270477047704710B462
:101E9000C26841685410034601EB6200D20748BF94
:101EA0000A599B685DF8044B48BFD35818474368EC
:101EB0002BB183682BB9C06800F001007047184649
:101EC00070470120704710B50C2104461AF036FF08
:101ED000204610BD10B5102104461AF02FFF2046F1
:101EE00010BD10B54FF4AC7104461AF027FF204620
:101EF00010BD10B50CF010F80368BDE810401B6B66
:101F0000184710B50446D0F83C0158B10368DB68A7
:101F1000984738B1D4F83C0103689B689847002380
:101F2000C4F83C3110BD0000F8B5044617460E4613
:101F30000CF012F8104B0025C4E954760F4E1C60CB
:101F4000C4E952550E4B306823600E4BC4E950353E
:101F5000036801219B68C4E94E559847284602F062
:101F60005BFB336893F876200AB1D86C00B99868A7
:101F700013F0C9FD2046F8BD102E0120C42D01200C
:101F8000E4ED0108CCED0108064BC0F84831002310
:101F9000C0F84C3100F5A073C0F84401C0F83C31E2
:101FA000704700BF4D210008064BC0F848310023A0
:101FB000C0F84C3100F5A073C0F84401C0F83C31C2
:101FC000704700BFB1220008064BC0F8483100231B
:101FD000C0F84C3100F5A073C0F84401C0F83C31A2
:101FE000704700BF15240008064BC0F84831002395
:101FF000C0F84C3100F5A073C0F84401C0F83C3182
:10200000704700BF7D25000803685B6A1847000021
:102010002DE9F84F07469068DDF828A09946036837
:102020001B6A884614469847B0F5C87F05D2414BD5
:10203000414AA32141481AF0AFFE606803681B6A59
:1020400098470F2803D83E4B3B4AA421F2E7E068AB
:1020500003681B6A98470B2803D83A4B364AA521D8
:10206000E8E70BF059FF0BF05DFFD9F8000010B165
:102070000368DB689847D9F8000010B103681B6853
:102080009847386810B103685B699847D8F8000032
:1020900010B103685B689847386810B103681B6823
:1020A0009847D8F8000010B103689B689847E0682B
:1020B0000021FFF7A9FF4FF0000B234B03600546FB
:1020C000C0F804B080F808B0A068036859465B6A9D
:1020D0009847064602F0BCFB6068036859465B6A95
:1020E00098473146044602F05DFBC9F80050C8F835
:1020F00000403E60E4B1231DCAF800303368C4F8E4
:1021000008A03046DB68F4639847236820461B68C4
:102110009847294630460DF056FB2B6828461B6928
:1021200098472B6828465B6998472046BDE8F88F9A
:102130002346E1E798E7010826E801082AE90108B3
:1021400071E9010814EA010828EE010807B5D0F882
:1021500054310093D0F85021044B00F59C71044891
:10216000FFF756FF03B05DF804FB00BF042E01200B
:10217000002E01202DE9F84F07469068DDF828A0D1
:10218000994603681B6A884614469847B0F52B7F2A
:1021900005D2414B414AA32141481AF0FDFD606838
:1021A00003681B6A98470F2803D83E4B3B4AA4217B
:1021B000F2E7E06803681B6A98470B2803D83A4B9C
:1021C000364AA521E8E70BF0A7FE0BF0ABFED9F8E5
:1021D000000010B10368DB689847D9F8000010B11F
:1021E00003681B689847386810B103685B699847B3
:1021F000D8F8000010B103685B689847386810B1E0
:1022000003681B689847D8F8000010B103689B6802
:102210009847E0680021FFF7F7FE4FF0000B234BD3
:1022200003600546C0F804B080F808B0A0680368F1
:1022300059465B6A9847064602F06CFB6068036883
:1022400059465B6A98473146044602F019FBC9F8C3
:102250000050C8F800403E60E4B1231DCAF80030C9
:102260003368C4F808A03046DB68F46398472368F5
:1022700020461B689847294630460DF0A4FA2B6883
:1022800028461B6998472B6828465B699847204673
:10229000BDE8F88F2346E1E798E70108B7EA0108AF
:1022A0002AE9010871E9010814EA010828EE010889
:1022B00007B5D0F854310093D0F85021044B00F505
:1022C0009C710448FFF756FF03B05DF804FB00BFA4
:1022D000042E0120002E01202DE9F84F07469068BA
:1022E000DDF828A0994603681B6A8846144698477B
:1022F000B0F5E07F05D2414B414AA32141481AF095
:102300004BFD606803681B6A98470F2803D83E4B53
:102310003B4AA421F2E7E06803681B6A98470B2850
:1023200003D83A4B364AA521E8E70BF0F5FD0BF050
:10233000F9FDD9F8000010B10368DB689847D9F8B7
:10234000000010B103681B689847386810B1036833
:102350005B699847D8F8000010B103685B6898473C
:10236000386810B103681B689847D8F8000010B1AE
:1023700003689B689847E0680021FFF745FE4FF02F
:10238000000B234B03600546C0F804B080F808B08A
:10239000A068036859465B6A9847064602F018FB36
:1023A0006068036859465B6A98473146044602F004
:1023B000DDFAC9F80050C8F800403E60E4B1231DC2
:1023C000CAF800303368C4F808A03046DB68F4630C
:1023D0009847236820461B689847294630460DF0E9
:1023E000F2F92B6828461B6998472B6828465B69D9
:1023F00098472046BDE8F88F2346E1E798E70108B3
:10240000BBEB01082AE9010871E9010814EA010897
:1024100028EE010807B5D0F854310093D0F85021C8
:10242000044B00F59C710448FFF756FF03B05DF8BC
:1024300004FB00BF042E0120002E01202DE9F84FDF
:1024400007469068DDF828A0994603681B6A88460D
:102450001446984740F66B63984205D8414B424A70
:10246000A32142481AF098FC606803681B6A9847E9
:102470000F2803D83E4B3C4AA421F2E7E0680368EA
:102480001B6A98470B2803D83A4B374AA521E8E73F
:102490000BF042FD0BF046FDD9F8000010B10368C7
:1024A000DB689847D9F8000010B103681B689847AB
:1024B000386810B103685B699847D8F8000010B11C
:1024C00003685B689847386810B103681B689847D1
:1024D000D8F8000010B103689B689847E0680021B5
:1024E000FFF792FD4FF0000B234B03600546C0F849
:1024F00004B080F808B0A068036859465B6A984742
:10250000064602F00FFE6068036859465B6A98470A
:102510003146044602F074FAC9F80050C8F8004089
:102520003E60E4B1231DCAF800303368C4F808A047
:102530003046DB68F4639847236820461B68984759
:10254000294630460DF03FF92B6828461B6998470D
:102550002B6828465B6998472046BDE8F88F2346DC
:10256000E1E700BF98E70108BFEC01082AE901088C
:1025700071E9010814EA010828EE010807B5D0F84E
:1025800054310093D0F85021044B00F59C7104485D
:10259000FFF754FF03B05DF804FB00BF042E0120D9
:1025A000002E0120006A7047406A704770478B8890
:1025B00080690A68DB0A50F823001044704710B5A0
:1025C000C2B1137BB3B1547BD27A240204F4E06429
:1025D0001443C26998B202EB840213888B4202D181
:1025E00092F9020010BD05D8013880B204320028EB
:1025F000F3D1F7E70020F5E710B5282104461AF0DB
:102600009DFB204610BD000030B589B00446BDF8E2
:1026100050500695BDF84C5005959DF840500495D6
:102620009DF83C5003959DF8385002959DF8345024
:1026300001959DF8305000950CF0A6FC064B2360E8
:10264000119BA361129BE361159B2362169B63623E
:10265000204609B030BD00BF4CEE01080020704795
:1026600081807047C1807047018170474181704708
:102670007047704770477047704710B4C48803684C
:10268000121B84881B6D091B12B25DF8044B09B242
:1026900018474FF6FF7383814FF0FF3303621368CF
:1026A000C36110607047704770477047704770474C
:1026B00090F825201AB190F8242002B118607047D4
:1026C0007047704770477047704730B4C2684468BD
:1026D0005510034604EB6200D20748BF62599B685D
:1026E00030BC48BFD358184743682BB183682BB917
:1026F000C06800F00100704718467047012070471D
:1027000010B5102104461AF019FB204610BD10B573
:102710004FF4C87104461AF011FB204610BD00F1B9
:102720009802914210B504D10368DB6ABDE81040FD
:10273000184700F1D002914202D103681B6BF5E704
:1027400000F58472914205D10BF0E6FBBDE8104024
:10275000FFF72ABC00F5A273994205D10BF0DCFB10
:10276000BDE81040FFF730BC10BD0000074A026012
:102770000022C0E90122C0E90322C0E90522C0E924
:1027800007224FF480728284704700BF5808020805
:1027900070B503680446DB6A1546984723682946E6
:1027A00020461B6BBDE870401847000010B526227C
:1027B000044600211AF07AFC2046FFF7D7FF0023D9
:1027C000A36284F82C300123064A84F824304FF6A3
:1027D000FF73E385238684F832302260A386204687
:1027E00010BD00BFA00202082DE9F04F044689B0D9
:1027F00025460CF06BFE4FF0000B814BC4F83CB04B
:1028000045F8403B5946262228461AF04FFC2846F8
:10281000FFF7ACFF04F16C06FF277A4B23642622F6
:102820004FF6FF73594684F86670C4F868B03046B6
:10283000ADF81C301AF03AFC3046FFF797FF724BA8
:10284000E366BDF81C30A4F8923007A904F1980A99
:1028500084F89470304609F03CFE04F1D0095046EB
:10286000FFF7A4FF04F584784846FFF79FFF04F5BF
:10287000A277404609F006FE384609F003FE634B96
:10288000C4E96034624B5A46C4E9623B5946284663
:10289000FFF77EFF2846F021FFF7E6FE28464FF4BB
:1028A000A071FFF7E3FE4FF07F435A46A3665946F7
:1028B0003046FFF76DFF4FF00A0307A930464FF08F
:1028C000090BADF81C3009F004FE5046682238218F
:1028D000FFF75EFF4FF00803A4F8CCB007AA06A9E3
:1028E0005046ADF81830ADF81CB009F0CBFA04F53D
:1028F000C0720392C4F8C0204846A6223821FFF7D0
:1029000047FF4FF00803A4F804B107AA06A94846F8
:10291000ADF81830ADF81CB009F0B4FA039BC4F858
:10292000F8304046F8222321FFF732FF0523ADF8A7
:1029300018300DF1180C07AB00934FF001026346FD
:102940000DF1140CADF810204FF0020162464FF06B
:1029500003000DF1100CADF81410ADF81C00614629
:10296000404609F0ECFC4FF008034FF0460BA4F88A
:102970004231039BC4F830313846A4F840B10A22F2
:102980002321FFF705FF0723ADF818304FF00102B0
:1029900007AB4FF002014FF00300ADF81020ADF887
:1029A000141005AAADF81C00009304A906AB384624
:1029B00009F0C5FC1023A4F87E31039BC4F86C31E8
:1029C000201D2946A4F87CB1039007F0FDFC039874
:1029D000314607F0F9FC0398514607F0F5FC0398DF
:1029E000494607F0F1FC0398414607F0EDFC0398D7
:1029F000394607F0E9FC204609B0BDE8F08F00BF7A
:102A0000BCEE01082804020874060208A4EE0108BE
:102A10001F270008806A704770B50D7990F82C3038
:102A200004463DB93BB123682046D3F88030BDE869
:102A3000704018477BB1B5FA85F35B0984F82C30F8
:102A400023682046D3F884309847236820465B6982
:102A50009847002DE7D070BD7047704770477047AA
:102A600090F82C302BB1C26EC26523B1436F036660
:102A70007047826EF8E7036FF9E770477047704759
:102A800030B4C26844685510034604EB6200D207B4
:102A900048BF62599B6830BC48BFD3581847436849
:102AA0002BB183682BB9C06800F00100704718464D
:102AB00070470120704730B4C2684468551003461F
:102AC00004EB6200D20748BF62599B6830BC48BF24
:102AD000D358184743682BB183682BB9C06800F0FE
:102AE00001007047184670470120704790F82D305C
:102AF00080F85A30704710B5782104461AF01EF954
:102B0000204610BD10B5102104461AF017F92046D2
:102B100010BD10B5102104461AF010F9204610BD62
:102B200010B54FF42A7104461AF008F9204610BD7A
:102B300010B50446006B50B10368DB68984730B1AC
:102B4000206B036821469B68BDE81040184710BD04
:102B500000F1D802914202D10368DB6A184700F500
:102B6000A872914202D103681B6BF7E7704700F52A
:102B70001070884208B505D10BF0CEF9BDE80840C9
:102B8000FFF702BA08BD70B504461D46BDF91060D6
:102B9000FFF7FEFD2368294620465B6B98472368B4
:102BA000314620469B6BBDE87040184710B5262281
:102BB000044600211AF07AFA2046FFF7D7FD044BAD
:102BC0002360FF2384F826300023A362204610BD33
:102BD0002804020810B52622044600211AF066FADD
:102BE0002046FFF7C3FD074B2360074BA3624FF658
:102BF000FF73A3854FF47F020023C4E90C322387BF
:102C0000204610BD8003020890E7010870B5044615
:102C1000FFF7ACFD4FF47F432646A3850123002533
:102C200084F824300D4BA562256346F8343B3046CA
:102C3000FFF7BCFF0A4B63632A4629463046C4E9C6
:102C40001A55C4E91C552566A4F86450FFF7A0FD89
:102C50002046314607F0B8FB204670BD04F001085D
:102C6000680502082DE9F04F2DED048B04468BB06A
:102C70000CF02CFC22460025B74BE56342F8403BA4
:102C800004F16C06104608EE102A4FF6FF78FFF7A5
:102C90008DFF262229463046ADF820801AF006FA2C
:102CA0003046FFF763FDAD4BE36608AFBDF820305B
:102CB000A4F89230394684F89480304604F1980A9A
:102CC00009F007FC5046FFF785FF04F1D809A44B33
:102CD000C4F89830C4F8D450484604F5A878FFF7F3
:102CE00095FF4046FFF792FF04F5E473184608EE9F
:102CF000903AFFF76FFF04F50173184609EE103A9A
:102D0000FFF768FF04F51073184609EE903A09F0D2
:102D1000B9FB944BC4E9A234934BC4E9A435934B5B
:102D2000C4E9A634924BC4E9A8354FF4A07318EE59
:102D3000100A00932A46F0232946FFF724FF4FF09C
:102D40007F432A46A36629463046FFF721FD0A2322
:102D500039463046ADF8203009F0BBFB25230093FF
:102D60005522832337215046FFF70DFF4FF07F4355
:102D7000C4F8C8307F4BA4F8CC501B6804F51F7B07
:102D80002BB97D4B7D4AAE217D481AF005F87D4B6D
:102D90001B88032B03D87C4B784AAF21F4E77B4B8D
:102DA0000321186801F074FC794A0346052158464E
:102DB0000EF026F8774BC4F8D4B039464FF0320BFA
:102DC00050460893ADF8245009F01CF8CDF800B037
:102DD0005B462A46294604F58670FFF7D4FE4FF07D
:102DE00005026D496D4BA4F83C216D486D4AC4E95C
:102DF0005203C4E950214846FFF732FECDF800B037
:102E00005B464846AD222321FFF7BDFE04F5267E32
:102E1000C4F808E15B46CDF800B02A46294604F51F
:102E2000C270CDF80CE0FFF7AEFE5B495D4A5C482E
:102E3000C4F8C0014FF0050CC4E96E2102F54C1234
:102E4000A4F8B4C1C4F8C4214046FFF709FE5B46AC
:102E5000CDF800B04046AD229B21FFF794FE039AC7
:102E6000C4F8802118EE900A8722A721FFF790FC72
:102E70004FF07F42474BC4F8F82118EE900AA4F8AF
:102E8000FC514FF0010B39460893ADF824B008F01F
:102E9000B9FF19EE100A87222021FFF779FC4FF0C5
:102EA0007F423C4BC4F8342219EE100AA4F8385281
:102EB000394602250893ADF8245008F0A3FF19EE17
:102EC000900AF7222321FFF763FC0623ADF81C309C
:102ED000032306AA19EE900AADF8203005A907AB26
:102EE0000097ADF81850ADF814B009F028FA462351
:102EF000A4F878321023251DA4F87A3204F5227341
:102F0000C4F8683218EE101A284607F05DFA314608
:102F1000284607F059FA5146284607F055FA49461F
:102F2000284607F051FA4146284607F04DFA18EEB8
:102F3000901A284607F048FA19EE101A284607F0AA
:102F400043FA284619EE901A07F03EFA20460BB0D5
:102F5000BDEC048BBDE8F08FC8F0010874060208D0
:102F6000C004020898F001086F2B0008B0F00108B7
:102F7000512B0008142E0120F0EE010832EF010859
:102F800060EF0108182E0120A7EF0108202E012074
:102F9000F9EF010890E70108CC9900FF996633FF2B
:102FA000663300FF996600FF70477047704730B482
:102FB000C26844685510034604EB6200D20748BF5C
:102FC00062599B6830BC48BFD358184743682BB13F
:102FD00083682BB9C06800F001007047184670473D
:102FE0000120704710B51021044619F0A7FE2046B5
:102FF00010BD10B54FF4E071044619F09FFE204655
:1030000010BD08B500F59873994205D10AF084FF08
:10301000BDE80840FEF7B8BF00F5B670814205D1A3
:103020000AF07AFFBDE80840FEF7DEBF08BD0000E9
:1030300038B5262204460D4600211AF037F82046FE
:10304000FFF794FB064B23602B88E384FF23204685
:1030500084F82830294609F03CFA204638BD00BFE4
:10306000740602082DE9F04F2DED028B04468BB05B
:1030700025464FF0000B0CF029FA9F4BC4F83CB0EA
:1030800045F8403B2622594628461AF00FF82846B4
:10309000FFF76CFB994B236404F16C0AFF2384F85F
:1030A00066304FF6FF7704F19809C4F868B008A9B4
:1030B000504604F1C408ADF82070FFF7B9FF08A925
:1030C000484604F1F006ADF82070FFF7B1FF08A9FB
:1030D0004046ADF82070FFF7ABFF59462622304638
:1030E00019F0E4FF3046FFF741FB854BC4F8183177
:1030F0004FF47F03A4F81C71C4F8243104F59877C9
:10310000804BC4F820B1A4F828B1C4F8F030C4F85A
:103110002CB1384609F0B6F904F5B673184608EE36
:10312000103A09F0AFF9784BC4E96C34774B5A4642
:10313000C4E96E3B59462846FFF72AFBF021284692
:10314000FFF792FA4FF4A0712846FFF78FFA4FF07D
:103150007F43A3665A4659465046FFF719FB0A2299
:1031600008A95046ADF8202009F0B3F960221146B5
:103170004846FFF70DFB0D2208A94846ADF8202070
:1031800009F0A7F9602211464046FFF701FB0B2228
:1031900084F8E9B008A94046ADF8202009F099F973
:1031A00027223F213046FFF7F3FA4FF07F43C4F860
:1031B0002031574BA4F824B11B6804F5D47B2BB9FC
:1031C000544B554AAE21554819F0E6FD544B1B8827
:1031D000052B03D8534B504AAF21F4E7524B05213E
:1031E000186801F055FA514A0346042158460DF07B
:1031F00007FEC4F82CB1304608F0E7FD4FF0040B91
:103200003F4B089308A93046ADF824B008F0FAFD0A
:103210003846F9222321FFF7BBFA4FF00103ADF83E
:10322000143007A908AB00934FF002020B4606A921
:10323000ADF81820ADF81CB00A464FF0030B05A9F5
:103240003846ADF820B009F07AF804F5D870462376
:103250004FF01001A4F86831A4F86A110390C4F883
:103260005801BD2218EE100A2321FFF791FA4FF002
:103270000103ADF8143005A808AB4FF00202ADF819
:103280001820009306AA07AB014618EE100AADF805
:103290001CB0ADF820B009F052F84723A4F8A431CF
:1032A0004FF01001039BC4F89431201DA4F8A6111F
:1032B0002946039007F088F80398514607F084F8F0
:1032C0000398494607F080F80398414607F07CF8D8
:1032D0000398314607F078F80398394607F074F8F8
:1032E000039818EE101A07F06FF820460BB0BDECEB
:1032F000028BBDE8F08F00BF1CF101082804020812
:1033000090E70108C004020804F101080330000836
:10331000142E0120F0EE010832EF010860EF0108E1
:10332000182E0120A7EF0108202E0120F9EF010837
:1033300070477047704770477047704770477047D5
:1033400070477047704770477047704770477047C5
:103350007047704790F82C302BB1C26EC26523B114
:10336000436F03667047826EF8E7036FF9E77047B3
:10337000704730B4C26844685510034604EB6200DD
:10338000D20748BF62599B6830BC48BFD358184722
:1033900043682BB183682BB9C06800F00100704707
:1033A000184670470120704790F82D3080F85A3049
:1033B000704710B57821044619F0C0FC204610BDB6
:1033C00010B51021044619F0B9FC204610BD10B507
:1033D0004FF46461044619F0B1FC204610BD0B792E
:1033E00070B590F82C6004460D469BB98EB9B3FABF
:1033F00083F35B0984F82C3023682046D3F88430AB
:103400009847236820465B69984716B12B79012BB2
:1034100003D070BD002EFCD0E9E723682046D3F826
:103420008030BDE87040184700F19802914210B515
:10343000034604D10368DB6ABDE81040184700F575
:103440008872914202D103681B6BF5E700F5C472E4
:10345000914202D103685B6BEEE700F50072914286
:1034600002D103689B6BE7E700F51E72914202D11F
:103470000368DB6BE0E700F53C72914202D1036820
:103480001B6CD9E700F55A72914202D103685B6C5C
:10349000D2E700F57872914202D103689B6CCBE7CA
:1034A00000F58B62914202D10368DB6CC4E700F542
:1034B0009A62914205D10268526DBDE810401846EB
:1034C000104700F5A962914202D10268926DF4E7BB
:1034D00000F5B862914202D10268126DEDE700F585
:1034E000C762914202D10268D26DE6E700F5D6626A
:1034F000914202D10268526EDFE700F5E562914227
:1035000002D10268126ED8E700F60C42914205D152
:103510000AF002FDBDE81040FEF756BD00F54B6213
:10352000914202D10268926EC7E710BD70B50446A1
:10353000FFF71CF94FF47F432646A385012300259E
:1035400084F824300D4BA562256346F8343B3046A1
:10355000FFF72CFB0A4B63632A4629463046C4E931
:103560001A55C4E91C552566A4F86450FFF710F9F4
:103570002046314606F028FF204670BD50F1010874
:103580006805020810B40367019B436703685DF890
:10359000044BD3F88430C0E91A1218472DE9F04FD4
:1035A0002DED108B04469FB00BF090FF22460025B6
:1035B000E24BE56342F8403B04F16C0B10464FF6DA
:1035C000FF7608EE102AFFF7F1FA26222946584620
:1035D000ADF8706019F06AFD5846FFF7C7F8D84B90
:1035E000E366BDF87030A4F892301CA984F89460AA
:1035F000584608F06EFF04F1980318460AEE103A98
:10360000FFF794FF04F5887318460AEE903AFFF727
:103610008DFF04F5C47318460BEE103AFFF786FFD2
:1036200004F5007318460BEE903AFFF77FFF04F5A0
:103630001E7318460CEE103AFFF778FF04F53C7342
:1036400018460CEE903AFFF771FF04F55A731846CE
:103650000DEE103AFFF76AFF04F5787318460DEE89
:10366000903AFFF763FF04F58B6318460EEE103AAD
:10367000FFF75CFF04F59A6318460EEE903AFFF7E9
:1036800055FF04F5A96318460FEE103AFFF74EFFF9
:1036900004F5B86318460FEE903AFFF747FF04F5BC
:1036A000C76318460293FFF741FF04F5D663184637
:1036B0000393FFF73BFF04F5E56318460493FFF718
:1036C00035FF04F5F4631CA9184608EE903AADF8EE
:1036D000706007F0AFFF04F2CC731846994F059362
:1036E000FFF778FA04F60C03C4F8CC771846C4F850
:1036F00008580693FFF76EFA04F648031846079336
:10370000FFF768FA04F68803C4F848781846C4F846
:1037100084580893FFF75EFA04F6C4031846099329
:10372000FFF758FA04F5106318460A93FFF752FAA8
:1037300004F63C1318460B93FFF74CFA04F6781383
:1037400018460C93FFF746FA04F6B41318460D9387
:10375000FFF740FA04F51F6318460E93FFF73AFA95
:1037600004F62C2318460F93FFF734FA04F6682367
:1037700018461093FFF72EFA04F6A4231846119367
:10378000FFF728FA04F52E6318461293FFF722FA82
:1037900004F61C3318461393FFF71CFA04F658334B
:1037A00018461493FFF716FA04F694331846159347
:1037B000FFF710FA04F53D6318461693FFF70AFA6F
:1037C00004F60C4318461793FFF7B0FE04F6844343
:1037D0001CA9184609EE103AADF8706007F02AFFF0
:1037E00004F54B6318461893FFF7A0FE04F6285320
:1037F0001CA9184609EE903AADF8706007F01AFF60
:1038000004F6545318461993FFF7E4F904F6945359
:10381000C4F8547D1846C4F8905D1A93FFF7DAF99E
:10382000494BC4F8303E494BC4F8383E4FF4A073BE
:1038300018EE100AC4F8947D00932A46F023294616
:103840004FF07F49C4F8D05DC4F8344EC4F83C5EF4
:10385000FFF799F92A4629465846C4F86890322657
:10386000FEF796FF4FF00A031CA95846DFF8ECA0BC
:10387000ADF870304FF0050808F02BFE3346009687
:103880002A46294604F1CC00FFF77DF9304B314A36
:103890003149A4F8FC801AEE100ACDF800A004F516
:1038A0006367FFF76FFE33461AEE100A0096AE22EA
:1038B0000721FFF768F9334600962A46294604F5A2
:1038C000A270C4F8C870FFF75EF9214B214A224963
:1038D000A4F874811AEE900ACDF800A0FFF752FE0A
:1038E00033461AEE900A0096AE223321FFF74BF9C9
:1038F000334600962A46294604F5DE70C4F8407126
:10390000FFF741F9124B134A1349A4F8EC811BEE5F
:10391000100ACDF800A0FFF735FE33461BEE100A63
:103920000096AE225F21FFF72EF9334600962A4615
:10393000294604F50D70C4F8B87111E0FCF10108D6
:1039400074060208C0040208E4F1010829340008E2
:10395000663300FFCC9900FF996600FF996633FF3C
:10396000FFF711F9C34BC44AC449A4F864821BEEA3
:10397000900ACDF800A0FFF705FE33461BEE900A33
:103980000096DA220721FFF7FEF8334600962A4612
:10399000294604F52B70C4F83072FFF7F4F8B54BE4
:1039A000B54AB649A4F8DC821CEE100ACDF800A096
:1039B000FFF7E8FD33461CEE100A0096DA223321A9
:1039C000FFF7E1F8334600962A46294604F5497088
:1039D000C4F8A872FFF7D7F8A64BA74AA749A4F8DE
:1039E00054831CEE900ACDF800A0FFF7CBFD3346C0
:1039F0001CEE900A0096DA225F21FFF7C4F83346E6
:103A000000962A46294604F56770C4F82073FFF72C
:103A1000BAF8984B984A9949A4F8CC831DEE100A3D
:103A2000CDF800A0FFF7AEFD33461DEE100A00965C
:103A30004FF484720721FFF7A6F8334600962A4612
:103A4000294604F21440C4F89873FFF79CF8894B98
:103A5000894A8A49A4F844841DEE900ACDF800A052
:103A6000FFF790FD33461DEE900A00964FF48472E6
:103A70003321FFF788F8334600962A46294604F298
:103A80008C40C4F81074FFF77EF87A4B7A4A7B4971
:103A9000A4F8BC841EEE100ACDF800A0FFF772FD5A
:103AA00033461EEE100A00964FF484725F21FFF732
:103AB0006AF8334600962A46294604F20450C4F8B0
:103AC0008874FFF760F86B4B6B4A6C49A4F8348537
:103AD0001EEE900ACDF800A0FFF754FD33461EEE0F
:103AE000900A0096AE228C21FFF74DF833460096DF
:103AF0002A46294604F27C50C4F80075FFF743F8C3
:103B00005C4B5D4A5D49A4F8AC851FEE100ACDF808
:103B100000A0FFF737FD33461FEE100A0096AE22D5
:103B2000B921FFF730F8334600962A46294604F2B9
:103B3000F450C4F87875FFF726F84E4B4E4A4F49BB
:103B4000A4F824861FEE900ACDF800A0FFF71AFD16
:103B500033461FEE900A0096DA228C21FFF713F805
:103B6000334600962A46294604F26C60C4F8F07584
:103B7000FFF709F83F4B404A40490298A4F89C8659
:103B8000CDF800A0FFF7FEFC334602980096DA223B
:103B9000B921FEF7F8FF334600962A46294604F27B
:103BA000E460C4F86876FEF7EEFF324B324A3349E0
:103BB0000398A4F81487CDF800A0FFF7E3FC334680
:103BC000039800964FF484728C21FEF7DCFF334695
:103BD00000962A46294604F25C70C4F8E076FEF7A7
:103BE000D2FF244B244A25490498A4F88C87CDF8A9
:103BF00000A0FFF7C7FC33464FF484720498009688
:103C0000B921FEF7C0FF18EE900A1CA9C4F8587736
:103C1000ADF8705008F05DFC72233C2218EE900A5B
:103C200000930721E323FEF7AEFF18EE900A294622
:103C300007F0C7FC1F2300930598662347220B213A
:103C4000FEF7A1FF0E4BC4F8FC971B68A4F80058C0
:103C500004F6D4562BB90B4B0B4AAE210B4819F086
:103C60009BF80B4B1B88072B16D80A4B064AAF2133
:103C7000F4E700BF663300FFCC9900FF996600FFB0
:103C8000142E0120F0EE010832EF010860EF010868
:103C9000182E0120A7EF0108D54B0721186800F066
:103CA000F7FCD44A03460A2130460DF0A9F84FF03C
:103CB00006020598C4F808681CA9CF4EADF8742018
:103CC0001C9608F09FF8662206980721FEF760FD13
:103CD00008230698C4F83C981CA9A4F84058ADF8ED
:103CE00074301C9608F08EF8242300938322CF238F
:103CF00007981221FEF747FF04F6E8521B92BF4ACD
:103D0000C4F878981368A4F87C58002BA3D0BC4959
:103D10000B880A2BA9D9B64B0A21186800F0B8FC09
:103D2000B44A034614211B980DF06AF81B98C4F896
:103D300084081CA8092301460798ADF874301C9626
:103D400008F060F8BB2208981921FEF721FD1CA895
:103D50000B230146C4F8B8980898A4F8BC58ADF8ED
:103D600074301C9608F04EF8BB2209984621FEF7E5
:103D70000FFD0DF1700C4FF00C006146ADF87400B2
:103D8000C4F8F4980998A4F8F8581C9608F03AF882
:103D9000BB220A987221FEF7FBFC4FF00D0CADF828
:103DA00074C00DF1700C61460A98C4F83099A4F8FB
:103DB00034591C9608F026F8E7220B981921FEF7D3
:103DC000E7FC0DF1700E4FF00E0C71460B98C4F825
:103DD0006C99A4F87059ADF874C01C9608F012F8EC
:103DE000E7220C984621FEF7D3FC0DF1700E0F234D
:103DF00071460C98C4F8A899A4F8AC59ADF8743081
:103E00001C9607F0FFFFE7220D987221FEF7C0FC19
:103E10000DF1700E102371460D98C4F8E499A4F8C2
:103E2000E859ADF874301C9607F0ECFF40F215121B
:103E30000E981821FEF7ACFC0DF1700E112371469F
:103E40000E98C4F8209AA4F8245AADF874301C9641
:103E500007F0D8FF40F215120F984621FEF798FCA4
:103E60000DF1700E122371460F98C4F85C9AA4F8F5
:103E7000605AADF874301C9607F0C4FF40F215127A
:103E800010987221FEF784FC0DF1700E1323714619
:103E90001098C4F8989AA4F89C5AADF874301C96FF
:103EA00007F0B0FFE72211989F21FEF771FC0DF19A
:103EB000700E142371461198C4F8D49AA4F8D85AF5
:103EC000ADF874301C9607F09DFFBB2212989D211F
:103ED000FEF75EFC0DF1700E152371461298C4F8C2
:103EE000109BA4F8145BADF874301C9607F08AFFA1
:103EF00040F215121398A121FEF74AFC0DF1700E45
:103F0000162371461398C4F84C9BA4F8505BADF887
:103F100074301C9607F076FFBB221498CC21FEF774
:103F200037FC0DF1700E172371461498C4F8889B66
:103F3000A4F88C5BADF874301C9607F063FF40F278
:103F400015121598CC21FEF723FC4FF0180EADF892
:103F500074E00DF1700E71461598C4F8C49BA4F876
:103F6000C85B1C9607F04EFFE7221698CA21FEF7A1
:103F70000FFC0DF1700E192371461698C4F8009CC1
:103F8000A4F8045CADF874301C9607F03BFF4FF0CA
:103F9000360ECDF800E078232A46294604F5446021
:103FA000FEF7F1FD174B184A18491798A4F8708CC2
:103FB000CDF800A0FFF7E6FA4FF0360ECDF800E09E
:103FC0007823062217980721FEF7DDFD4FF00C003D
:103FD000ADF870001CA80146C4F83C7C19EE100A2C
:103FE00008F077FA282039230D22009010E000BF56
:103FF000202E0120F9EF010890E70108142E01207E
:10400000182E0120663300FFCC9900FF996600FF4F
:10401000252119EE100AFEF7B6FD19EE100A294601
:1040200007F0CFFA3620009072232A46294604F67C
:10403000E440FEF7A8FDA34BA34AA4491898A4F8AE
:10404000148DCDF800A0FFF79DFA362072230622CA
:10405000009078211898FEF796FD1CA84FF00E0CE2
:104060000146C4F8E07C19EE900AADF870C008F083
:1040700030FA282003460D2200909D2119EE900A67
:10408000FEF781FD19EE900A294607F09AFA1F20E3
:1040900000906623472219988621FEF774FD8C4A0A
:1040A000C4F8849D1368A4F8885D04F56167002B4B
:1040B0003FF4D1AD87490B881B2B7FF6D6AD864BDD
:1040C0001B21186800F0E4FA844A03460A213846A6
:1040D0000CF096FE1CA81A230146C4F8907D19988E
:1040E000ADF874301C9607F08DFE18200090202348
:1040F0004E221A986F21FEF746FD754AA4F8C85D56
:104100001368C4F8C49D04F62465002B3FF4A3ADE6
:1041100070490B881D2B7FF6A8AD6F4B1D211868C9
:1041200000F0B6FA6D4A0346414628460CF068FE98
:104130001C231A98C4F8D05D1CA9251DADF8743055
:104140001C9607F05FFE18EE101A284606F03CF9A0
:104150005946284606F038F91AEE101A284606F095
:1041600033F91AEE901A284606F02EF91BEE101AB3
:10417000284606F029F91BEE901A284606F024F985
:104180001CEE101A284606F01FF91CEE901A28465D
:1041900006F01AF91DEE101A284606F015F91DEE64
:1041A000901A284606F010F91EEE101A284606F05E
:1041B0000BF91EEE901A284606F006F91FEE101AAB
:1041C000284606F001F91FEE901A284606F0FCF882
:1041D0000299284606F0F8F80399284606F0F4F804
:1041E0000499284606F0F0F818EE901A284606F0D2
:1041F000EBF80599284606F0E7F80699284606F0F8
:10420000E3F80799284606F0DFF80899284606F0F3
:10421000DBF80999284606F0D7F80A99284606F0EF
:10422000D3F80B99284606F0CFF80C99284606F0EB
:10423000CBF80D99284606F0C7F80E99284606F0E7
:10424000C3F80F99284606F0BFF81099284606F0E3
:10425000BBF81199284606F0B7F81299284606F0DF
:10426000B3F81399284606F0AFF81499284606F0DB
:10427000ABF81599284606F0A7F81699284606F0D7
:10428000A3F81799284606F09FF819EE101A284649
:1042900006F09AF81899284606F096F819EE901A42
:1042A000284606F091F81999284606F08DF8284618
:1042B0001A9906F089F820461FB0BDEC108BBDE8B6
:1042C000F08F00BF663300FFCC9900FF996600FFB6
:1042D000142E0120182E0120202E0120F9EF0108B4
:1042E0007047000030B5164D2C78BFF35B8F14F08B
:1042F00001048DB020D1284618F022FDE0B13F2303
:104300000793104B0693104B05930123CDE903331C
:10431000029304220323CDE900320C490C4808948F
:104320000F235F22CDE90944FEF76EF9284618F005
:1043300013FD084818F04EFD05480DB030BD00BF14
:10434000E01E0020585D020868F2010828520208A9
:10435000E41E0020E14200087047000030B5164D11
:104360002C78BFF35B8F14F001048DB020D1284668
:1043700018F0E6FCE0B13F230793104B0693104B77
:10438000104911480894CDE9044301220423CDE9E2
:104390000132052300930C221923CDE9094403942B
:1043A000FEF732F9284618F0D7FC084818F012FD3D
:1043B00005480DB030BD00BF0C1F0020205E020874
:1043C0006CF201085C570208101F002059430008D6
:1043D0007047000030B5154D2C78BFF35B8F14F09B
:1043E00001048DB01ED1284618F0AAFCD0B13F239D
:1043F00007930F4B06930F4B0F4910480894012267
:10440000CDE904430423CDE90132CDE909440A236F
:1044100003940094FEF7F8F8284618F09DFC08482D
:1044200018F0D8FC05480DB030BD00BF381F002083
:10443000245E020870F20108045802083C1F0020A4
:10444000D14300087047000030B5154D2C78BFF3FC
:104450005B8F14F001048DB01FD1284618F070FC5A
:10446000D8B13F2307930F4B06930F4B05930123BE
:10447000CDE9033302930423CDE900330B490C4803
:10448000089414235F22CDE90944FEF7BDF82846BD
:1044900018F062FC074818F09DFC05480DB030BDCF
:1044A000641F0020285E020874F2010814580208F4
:1044B000681F0020454400087047000030B5154DC6
:1044C0002C78BFF35B8F14F001048DB01ED1284609
:1044D00018F036FCD0B13F2307930F4B06930F4BD8
:1044E0000F49104808940122CDE904430423CDE983
:1044F0000132CDE90944282303940094FEF784F89F
:10450000284618F029FC084818F064FC05480DB04E
:1045100030BD00BF901F0020CC5F020878F2010878
:10452000485D0208941F0020B9440008002070472D
:10453000002070470EB403B503AB002153F8042BE1
:1045400001930AF03FFB02B05DF804EB03B0704743
:104550000CB407B504AB53F8042B01930AF032FBFB
:1045600003B05DF804EB02B070470000C36B10B5F8
:10457000044673B3038E2BB9184B194ABF2119484F
:1045800018F00AFCC38D00EB43035B8B0BB30BF0FD
:104590007DFE238E012B03D8134B144AC421EEE772
:1045A000E28D531C9BB2092B194688BFA3F10A0167
:1045B00004EB410140F63F10498B814209D10A2B9F
:1045C00004EB420228BF002304EB4303508B5883C3
:1045D00051832046BDE810400BF03CBD7CF2010841
:1045E00085F2010830F301087AF3010888F3010825
:1045F0000BF0EABC10B586B002AC84E806001A469F
:104600000AAB05930193099B00932146089B08F090
:10461000EAFF06B010BD000038B518BB124B1348B6
:104620001B681349B3B11A689C681A4402605A683F
:104630001A440A601C440F4B00221A8000F038F81C
:10464000054600F033F80C4B1C600C4B1D600C4B06
:10465000188007E00B4B03600B4B0B600B4B1C6887
:10466000002CE8D138BD00BFBC1F0020C01F0020B7
:10467000C41F0020C81F0020142E01201C2E012062
:10468000182E012048600208D05F02082461020849
:10469000044B1B6853F82100034B1B6803EB4000DD
:1046A000704700BFC41F0020C01F00201E2070479D
:1046B00000487047CC1F002010B5FFF7C5FE074C1F
:1046C0002060FFF7FBFE6060FFF784FEA060FFF74D
:1046D00045FEE060FFF706FE206110BDCC1F002004
:1046E000704710B54FF4AC71044618F027FB204614
:1046F00010BD10B50446D0F8540100F015F820465E
:10470000BDE8104009F0E0BA10B50446FDF70CFC16
:10471000014B2360204610BD64F4010800220260B2
:10472000027132228260704770B50121044613483D
:10473000134E01F079FC003818BF0120207130467B
:1047400001F09CF80A21304601F037F9304601F0BB
:1047500087F90546304601F015F9ADB265232068AA
:1047600021796B431B13A36003689B6898472068FB
:10477000A1680368BDE87040DB681847000002408C
:10478000C031012070477047704704387047704748
:1047900010B51021044618F0D1FA204610BDA0F142
:1047A0000400F5E710B500228260044AC16002F1FE
:1047B000080420320460426010BD00BFA0F401086C
:1047C00070477047FDF77FBF10B54FF4C8710446BE
:1047D00018F0B4FA204610BD08B5034A034B04484C
:1047E000872118F0D9FA00BF0CF50108D0F40108B0
:1047F0003FF5010808B5054B1B680BB9FFF7ECFF47
:10480000828EC08D131A5842584108BD4C2E01208B
:1048100008B59830FFF7EEFF024600B10122BDE86F
:10482000084002484FF4005101F004BC0018024057
:1048300008B5D030FFF7DEFF024600B10122BDE827
:10484000084002484FF4804101F0F4BB00180240D8
:1048500010B50446FDF7C8FF014B2360204610BD8C
:104860008CF50108704704387047704710B5102167
:10487000044618F063FA204610BDA0F10400F5E7E5
:1048800010B500228260044AC16002F1080420329F
:104890000460426010BD00BFC0F50108704770475A
:1048A000FEF7DDB8B0F9A8320A4A10B5002BC4BF34
:1048B00003F1FF33A0F8A8320446B0F9A83205216D
:1048C00000F51F700CF09CFA04F19800BDE8104050
:1048D0000AF099BAF0F5010810B5B0F8A832084A04
:1048E00001331BB20446A0F8A832052100F51F7061
:1048F0000CF086FA04F19800BDE810400AF083BA83
:10490000F0F5010810B54FF42B71044618F016FAB3
:10491000204610BD10B50446FEF7A4F9034B2360F2
:104920000023A4F8A832204610BD00BFFCF5010802
:104930007047043870477047C0680368DB6A1847DF
:10494000A0F10400FFF7F8BFC06803681B6B1847AD
:10495000A0F10400FFF7F8BF10B51021044618F0CD
:10496000EDF9204610BDA0F10400F5E710B50022D6
:104970008260044AC16002F1080428320460426087
:1049800010BD00BF30F6010870477047FEF70DBB41
:1049900080F8E910C4300AF036BA000010B50B46B2
:1049A0000446064A042100F5D4700CF029FA04F1FB
:1049B000F000BDE810400AF026BA00BFF0F501088B
:1049C00010B54FF4E071044618F0B8F9204610BD58
:1049D00010B50446FEF746FB014B2360204610BD90
:1049E00070F60108704704387047704710B5102101
:1049F000044618F0A3F9204610BDA0F10400F5E725
:104A000010B500228260044AC16002F1080420321D
:104A10000460426010BD00BFA4F6010870477047F3
:104A2000FEF797BC10B540F20113A0F8643E2B23AB
:104A3000044680F8693E064A052100F624600CF021
:104A4000DFF904F69450BDE810400AF0DCB900BF6D
:104A5000D4F6010810B5012380F8643E80F8663E64
:104A60002D23044680F8693E054A052100F624609E
:104A70000CF0C6F904F69450BDE810400AF0C3B932
:104A8000D4F6010810B5012380F8643E80F8673E33
:104A90003A23044680F8693E054A052100F6246061
:104AA0000CF0AEF904F69450BDE810400AF0ABB932
:104AB000D4F6010810B5012380F8643E47F60103DF
:104AC0000446A0F8683E064A7823052100F62460D3
:104AD0000CF096F904F69450BDE810400AF093B932
:104AE000D4F6010890F8653E10B50446BBB190F8C5
:104AF000643EA3B1D0F8543ED0F8582E1344C4F805
:104B0000603ED4F8603E194A04F6E85014210CF0D7
:104B100077F904F64800BDE810400AF074B994F83B
:104B2000663E43B194F8643E2BB1D4F8543ED4F8B9
:104B3000582E9B1AE3E794F8673E4BB194F8643E15
:104B400033B1D4F8543ED4F8582E93FBF2F3D6E7A1
:104B500094F8683E002BD4D094F8643E002BD0D05B
:104B6000D4F8542ED4F8583E5343C8E7F0F5010862
:104B700010B5002304464FF40052C0F8543EC0F86C
:104B8000583EA0F85C3EC0F8603EC0F8643EA0F815
:104B9000682EC0F8403EC0F8443EA0F8483EC0F839
:104BA0004A3EC0F84E3EA0F8523E184A0A2100F68E
:104BB000D4500CF025F9D4F8583E144A0A2104F5D3
:104BC00061600CF01DF9D4F8603E104A142104F61F
:104BD000E8500CF015F994F8693E0D4A052104F6E9
:104BE00024600CF00DF904F694500AF00CF904F26C
:104BF000CC700AF008F904F654500AF004F904F6EF
:104C00004800BDE810400AF0FEB800BFF0F501080A
:104C1000D4F6010810B540F66C61044618F08EF821
:104C2000204610BD90F8643E10B531220446DBB931
:104C300090F85C3E034400F5646083F8402E18F061
:104C4000CFF8174AC4F8540E03460A2104F6D4508C
:104C50000CF0D6F804F2CC700AF0D5F894F85C3E6B
:104C6000013384F85C3E10BD90F85D3E034400F6CD
:104C70004A6083F84A2E18F0B3F8094AC4F8580E6F
:104C800003460A2104F561600CF0BAF804F65450AA
:104C90000AF0B9F894F85D3E013384F85D3EE2E72E
:104CA000F0F5010890F8643E10B532220446DBB9F5
:104CB00090F85C3E034400F5646083F8402E18F0E1
:104CC0008FF8174AC4F8540E03460A2104F6D4504C
:104CD0000CF096F804F2CC700AF095F894F85C3E6B
:104CE000013384F85C3E10BD90F85D3E034400F64D
:104CF0004A6083F84A2E18F073F8094AC4F8580E2F
:104D000003460A2104F561600CF07AF804F6545069
:104D10000AF079F894F85D3E013384F85D3EE2E7ED
:104D2000F0F5010890F8643E10B533220446DBB973
:104D300090F85C3E034400F5646083F8402E18F060
:104D40004FF8174AC4F8540E03460A2104F6D4500B
:104D50000CF056F804F2CC700AF055F894F85C3E6A
:104D6000013384F85C3E10BD90F85D3E034400F6CC
:104D70004A6083F84A2E18F033F8094AC4F8580EEE
:104D800003460A2104F561600CF03AF804F6545029
:104D90000AF039F894F85D3E013384F85D3EE2E7AD
:104DA000F0F5010890F8643E10B534220446DBB9F2
:104DB00090F85C3E034400F5646083F8402E18F0E0
:104DC0000FF8174AC4F8540E03460A2104F6D450CB
:104DD0000CF016F804F2CC700AF015F894F85C3E6A
:104DE000013384F85C3E10BD90F85D3E034400F64C
:104DF0004A6083F84A2E17F0F3FF094AC4F8580EA8
:104E000003460A2104F561600BF0FAFF04F65450E2
:104E100009F0F9FF94F85D3E013384F85D3EE2E766
:104E2000F0F5010890F8643E10B535220446DBB970
:104E300090F85C3E034400F5646083F8402E17F060
:104E4000CFFF174AC4F8540E03460A2104F6D45083
:104E50000BF0D6FF04F2CC7009F0D5FF94F85C3E5D
:104E6000013384F85C3E10BD90F85D3E034400F6CB
:104E70004A6083F84A2E17F0B3FF094AC4F8580E67
:104E800003460A2104F561600BF0BAFF04F65450A2
:104E900009F0B9FF94F85D3E013384F85D3EE2E726
:104EA000F0F5010890F8643E10B536220446DBB9EF
:104EB00090F85C3E034400F5646083F8402E17F0E0
:104EC0008FFF174AC4F8540E03460A2104F6D45043
:104ED0000BF096FF04F2CC7009F095FF94F85C3E5D
:104EE000013384F85C3E10BD90F85D3E034400F64B
:104EF0004A6083F84A2E17F073FF094AC4F8580E27
:104F000003460A2104F561600BF07AFF04F6545061
:104F100009F079FF94F85D3E013384F85D3EE2E7E5
:104F2000F0F5010890F8643E10B537220446DBB96D
:104F300090F85C3E034400F5646083F8402E17F05F
:104F40004FFF174AC4F8540E03460A2104F6D45002
:104F50000BF056FF04F2CC7009F055FF94F85C3E5C
:104F6000013384F85C3E10BD90F85D3E034400F6CA
:104F70004A6083F84A2E17F033FF094AC4F8580EE6
:104F800003460A2104F561600BF03AFF04F6545021
:104F900009F039FF94F85D3E013384F85D3EE2E7A5
:104FA000F0F5010890F8643E10B538220446DBB9EC
:104FB00090F85C3E034400F5646083F8402E17F0DF
:104FC0000FFF174AC4F8540E03460A2104F6D450C2
:104FD0000BF016FF04F2CC7009F015FF94F85C3E5C
:104FE000013384F85C3E10BD90F85D3E034400F64A
:104FF0004A6083F84A2E17F0F3FE094AC4F8580EA7
:1050000003460A2104F561600BF0FAFE04F65450E1
:1050100009F0F9FE94F85D3E013384F85D3EE2E765
:10502000F0F5010890F8643E10B539220446DBB96A
:1050300090F85C3E034400F5646083F8402E17F05E
:10504000CFFE174AC4F8540E03460A2104F6D45082
:105050000BF0D6FE04F2CC7009F0D5FE94F85C3E5D
:10506000013384F85C3E10BD90F85D3E034400F6C9
:105070004A6083F84A2E17F0B3FE094AC4F8580E66
:1050800003460A2104F561600BF0BAFE04F65450A1
:1050900009F0B9FE94F85D3E013384F85D3EE2E725
:1050A000F0F5010890F8643E10B530220446DBB9F3
:1050B00090F85C3E034400F5646083F8402E17F0DE
:1050C0008FFE174AC4F8540E03460A2104F6D45042
:1050D0000BF096FE04F2CC7009F095FE94F85C3E5D
:1050E000013384F85C3E10BD90F85D3E034400F649
:1050F0004A6083F84A2E17F073FE094AC4F8580E26
:1051000003460A2104F561600BF07AFE04F6545060
:1051100009F079FE94F85D3E013384F85D3EE2E7E4
:10512000F0F5010810B50446FEF738FA084B236085
:105130000023C4F8543EC4F8583EA4F85C3EC4F8BA
:10514000643E4FF40053A4F8683E204610BD00BFF3
:10515000E0F60108F02070474FF4A0707047292056
:10516000FCF7C4BA2820FCF7C1BA08B5FCF792FADC
:10517000CA20FCF7BBFAC320FCF79CFA0820FCF716
:1051800099FA5020FCF796FACF20FCF7AFFA0020EE
:10519000FCF790FAC120FCF78DFA3020FCF78AFA70
:1051A000ED20FCF7A3FA6420FCF784FA0320FCF757
:1051B00081FA1220FCF77EFA8120FCF77BFAE820C6
:1051C000FCF794FA8520FCF775FA0020FCF772FAD8
:1051D0007820FCF76FFACB20FCF788FA3920FCF72F
:1051E00069FA2C20FCF766FA0020FCF763FA3420F9
:1051F000FCF760FA0220FCF75DFAF720FCF776FA7C
:105200002020FCF757FAEA20FCF770FA0020FCF7A0
:1052100051FA0020FCF74EFAB120FCF767FA0020A3
:10522000FCF748FA1B20FCF745FAB620FCF75EFABB
:105230000A20FCF73FFAA220FCF73CFAC020FCF75A
:1052400055FA1020FCF736FAC120FCF74FFA10206F
:10525000FCF730FAC520FCF749FA4520FCF72AFA9A
:105260001520FCF727FAC720FCF740FA9020FCF73E
:1052700021FA3620FCF73AFAC820FCF71BFAF22094
:10528000FCF734FA0020FCF715FAB020FCF72EFAF0
:10529000C220FCF70FFAB620FCF728FA0A20FCF728
:1052A00009FAA720FCF706FA2720FCF703FA0420E6
:1052B000FCF700FA2A20FCF719FA0020FCF7FAF9AB
:1052C0000020FCF7F7F90020FCF7F4F9EF20FCF7D9
:1052D000F1F92B20FCF70AFA0020FCF7EBF900208B
:1052E000FCF7E8F90120FCF7E5F93F20FCF7E2F9CB
:1052F000F620FCF7FBF90120FCF7DCF90020FCF7B5
:10530000D9F90620FCF7D6F92C20FCF7EFF9C820D4
:10531000FCF73AFA2620FCF7E9F90120FCF7CAF974
:10532000E020FCF7E3F90F20FCF7C4F92920FCF793
:10533000C1F92420FCF7BEF90C20FCF7BBF90E20C4
:10534000FCF7B8F90920FCF7B5F94E20FCF7B2F9E3
:105350007820FCF7AFF93C20FCF7ACF90920FCF70A
:10536000A9F91320FCF7A6F90520FCF7A3F91720EB
:10537000FCF7A0F91120FCF79DF90020FCF79AF941
:10538000E120FCF7B3F90020FCF794F91620FCF7B4
:1053900091F91B20FCF78EF90420FCF78BF9112002
:1053A000FCF788F90720FCF785F93120FCF782F932
:1053B0003320FCF77FF94220FCF77CF90520FCF74D
:1053C00079F90C20FCF776F90A20FCF773F928200C
:1053D000FCF770F92F20FCF76DF90F20FCF76AF944
:1053E0001120FCF783F9C820FCF7CEF92920FCF73F
:1053F0007DF9BDE808402C20FCF778B908B5FCF72A
:1054000049F90321D320FCF78DF980B208BD10B50E
:10541000C4B2022203212046FCF7F2F80A20FCF76E
:1054200037F9204600220321FCF7EAF8BDE81040D6
:105430000220FCF72DB938B50446E4B2FCF7DEF8DB
:1054400000212046FCF7F4F8012105462046FCF730
:10545000EFF840EA052080B238BD10B5C4B2402153
:105460002046FCF7E5F8030607D54C212046FCF75B
:10547000DFF8003818BF012010BD01224B21204663
:10548000FCF7BEF8204600224B21FCF7B9F80020BB
:10549000F2E773B50423C4B20E461546D7210DEBCF
:1054A00003022046FCF7DEF8019B1BBA1A0DC3F37A
:1054B0000B23328020462B8001224B21FCF7A0F8E1
:1054C00000224B212046FCF79BF802B070BD000083
:1054D00010B50A4B1A78904204460DD0597888428C
:1054E0000AD00AB141B901229C54FCF787F8204642
:1054F000BDE81040FFF78BBF10BD00BFE01F0020CC
:1055000010B5C4B209212046FCF792F840F0010022
:10551000C2B209212046BDE81040FCF771B810B5B1
:10552000C4B209212046FCF783F8092100F0FE02ED
:105530002046BDE81040FCF763B838B5C4B20D464C
:1055400020460A21FCF774F840EA0502D2B2204650
:105550000A21BDE83840FCF753B807B50190FCF7C5
:105560004EF801981F21FFF7E8FF019803B05DF89E
:1055700004EBFFF7C5BF38B5C4B20D4620460A217B
:10558000FCF756F820EA0502D2B220460A21BDE80F
:105590003840FCF735B810B50446FFF7C0FF204689
:1055A0001F21BDE81040FFF7E6BF10B5C0B20C46A2
:1055B0000B21FCF73DF8204010BD1F21FFF7F5BF80
:1055C0000A46C0B20B21FCF71BB81F21FFF7F8BF3A
:1055D00038B5C4B20D4620461721FCF729F820EA59
:1055E0000502D2B220461721BDE83840FCF708B8C2
:1055F00070B5C4B2064604212046FCF719F8042110
:1056000000F0FB0205462046FBF7FAFF3046F0218A
:10561000FFF7DEFF05F0F80220460421FBF7F0FF5C
:10562000492220212046FBF7EBFF0220FCF730F84F
:10563000204601222121FBF7E3FF20469A22412147
:10564000FBF7DEFF204601224A21FBF7D9FF204667
:1056500001224B21FBF7D4FF204600224B21FBF710
:10566000CFFF204601225621FBF7CAFF2046012228
:105670005821FBF7C5FF204601224021FBF7C0FF60
:105680002046FF220B21FBF7BBFFBDE87040022044
:10569000FBF7FEBF054BD3F8882042F47002C3F835
:1056A00088204FF000629A60704700BF00ED00E074
:1056B00008B50B4B1A6842F400721A601A6842F47B
:1056C00080621A601A6842F480721A60032000F047
:1056D00067FA0020FCF7CEFAFCF764F8002008BD5A
:1056E000003C0240034A044B11681B780B441360D2
:1056F000704700BFC832012078000020014B1868B5
:10570000704700BFC832012038B50446FFF7F6FFE6
:10571000631C1CBF054B1B78054618BFE418FFF738
:10572000EDFF431BA342FAD338BD00BF7800002031
:1057300038B50446002800F09B80056C25B9FCF7BD
:1057400051F8656484F83C50236CDB0600F18E80D0
:10575000236C23F4885323F0020343F002032364F1
:10576000444B5A6822F440325A605A6861680A43CE
:105770005A60236821695A6822F480725A605A6814
:1057800042EA01225A605A68A16822F040725A60C7
:105790005A680A435A609A68E16822F400629A6083
:1057A0009A680A439A603449A26A8A4252D0996838
:1057B00021F07061996099680A439A609A68E16A79
:1057C00022F040529A609A680A439A609A6822F0DE
:1057D00002029A609A68217E42EA41029A6094F835
:1057E0002020002A3ED05A68616A42F400625A6062
:1057F0005A6822F460425A605A68013942EA4132DA
:105800005A60DA6AE16922F47002DA62DA6A01390E
:1058100042EA0152DA629A6822F400729A609A6847
:1058200094F8301042EA41229A609A68616922F441
:1058300080629A609A68002042EA81229A606064DD
:10584000236C23F0030343F001032364002384F853
:105850003C3038BD9A6822F070629A609A6822F0F3
:105860004052B2E75A6822F40062C9E70120EDE72E
:105870000120EEE7002301400100000F13B50023D3
:10588000019390F83C30012B6CD00123026880F822
:105890003C309368D9070CD5936813F001031AD1F3
:1058A000026C42F010020264426C42F00102426457
:1058B00056E093682D4943F0010393602C4B1B681D
:1058C000B3FBF1F303EB43030193019B002BE3D004
:1058D000019B013BF8E7036C264C23F4E06323F0C3
:1058E000010343F48073036453685B0541BF036C99
:1058F00023F4405343F480530364036C13F4805344
:105900001CBF436C23F0060343646FF022010023A5
:1059100080F83C3011601849486810F01F0019D118
:10592000A24206D0154B9A420DD14B6813F01F0FBF
:1059300007D1906810F0405016D1936843F080432F
:10594000936002B010BD0E4B9A42FAD14B6813F02F
:10595000100FEDE7A24207D1906810F04050ECD054
:105960001846EEE70220ECE70020EAE740420F008D
:10597000740000200020014000230140002101406C
:105980000022014090F83C30012B14D003689A6843
:1059900022F001029A609B68DB0707D4036C23F4B2
:1059A000885323F0010343F001030364002380F8CC
:1059B0003C30184670470220704703689A685205C9
:1059C00070B504460D460BD59B68DE0508D5036C03
:1059D00043F020030364002380F83C30012070BDB5
:1059E000FFF78CFE064623681A6891070CD56FF006
:1059F00012021A60226C42F4007222649A6812F059
:105A0000405F17D00020EAE7681CEDD065B9236835
:105A10001B6813F00203E6D1226C84F83C3042F09C
:105A2000040222640320DAE7FFF768FE801BA84225
:105A3000EDD8D8E7207E0028E4D1DA6A12F4700F9E
:105A400002D09B685A05DDD4236C23F48073236451
:105A5000236CDB04D6D4236C43F001032364BEE73C
:105A60000368D86C70470000F7B50023019390F8E5
:105A70003C30012B69D0012380F83C300D6803686D
:105A80008E68092DACB234D904EB4402DF681E3AAB
:105A90004FF0070C0CFA02FC27EA0C07DF60DF6806
:105AA00006FA02F23A43DA604968062901EB8102FC
:105AB0002FD8596B053A1F26964021EA06015963F3
:105AC000596B04FA02F20A435A63304A93420AD1EC
:105AD000122D3CD12E4B5A6822F400025A605A68AB
