:020000040800F2
:100000000000032089050008F11C0008F31C00080B
:10001000F51C0008F71C0008F91C0008000000008F
:10002000000000000000000000000000817C0008CB
:10003000FB1C000800000000117D00087D75000811
:10004000D9050008D9050008D9050008D905000818
:10005000D9050008D9050008D9050008D905000808
:10006000D9050008D9050008D9050008D9050008F8
:10007000D9050008D9050008D9050008D9050008E8
:10008000D9050008D9050008D9050008D9050008D8
:10009000D9050008D9050008D9050008D9050008C8
:1000A000D9050008D9050008D9050008D9050008B8
:1000B000D9050008D9050008D9050008D9050008A8
:1000C000D9050008D9050008D9050008D905000898
:1000D000D9050008D9050008D9050008D905000888
:1000E000D9050008D9050008D9050008D905000878
:1000F000D9050008D9050008D9050008D905000868
:10010000D9050008D9050008D9050008D905000857
:10011000D9050008D9050008FD1C0008D90500080C
:10012000D9050008D9050008D9050008D905000837
:10013000D9050008D9050008D9050008D905000827
:10014000D9050008D9050008D9050008D905000817
:10015000D9050008D9050008D9050008D905000807
:10016000D9050008D9050008D9050008D9050008F7
:10017000D9050008D9050008D905000800000000CD
:10018000D9050008D9050008D9050008D9050008D7
:10019000D9050008D9050008D9050008D9050008C7
:0C01A000091D0008D9050008151D000805
:1001B00010B5054C237833B9044B13B10448AFF3A1
:1001C00000800123237010BD6401002000000000A6
:1001D000E0D5010808B5034B1BB103490348AFF351
:1001E000008008BD0000000068010020E0D5010883
:1001F00001F0FF01102A2BDB10F0070F08D010F8D8
:10020000013B013A8B422DD010F0070F42B3F6D1DB
:10021000F0B441EA012141EA014122F007047FF0F4
:1002200000070023F0E80256083C85EA010586EA4B
:10023000010685FA47F5A3FA87F586FA47F6A5FA87
:1002400087F68EB9EED1F0BC01F0FF0102F0070293
:1002500032B110F8013B013A83EA010313B1F8D13E
:100260000020704701387047002D06BF354603381F
:10027000073815F0010F07D1013015F4807F02BF58
:10028000013015F4C03F0130F0BC0138704700BFA9
:1002900053B94AB9002908BF00281CBF4FF0FF31ED
:1002A0004FF0FF3000F06EB9ADF1080C6DE904CEEF
:1002B00000F006F8DDF804E0DDE9022304B0704741
:1002C0002DE9F047089D04468C46002B40F08380C2
:1002D0008A42174647D9B2FA82F242B1C2F12000EF
:1002E00024FA00F09140974040EA010C94404FEA14
:1002F0001748230CBCFBF8F61FFA87FE08FB16C153
:1003000043EA014306FB0EF1994209D9FB1806F1B5
:10031000FF3080F01981994240F21681023E3B4441
:100320005B1AA4B2B3FBF8F008FB103344EA0344B1
:1003300000FB0EFEA64509D93C1900F1FF3380F001
:100340000581A64540F2028102383C4440EA06405D
:10035000A4EB0E0400261DB1D4400023C5E90043E0
:100360003146BDE8F08702B9FFDEB2FA82F2002A18
:1003700050D1CB1B4FEA174E1FFA87F80126B3FB6B
:10038000FEFC210C0EFB1C3341EA034108FB0CF37D
:100390008B4207D979180CF1FF3002D28B4200F260
:1003A000E9808446C91AA3B2B1FBFEF00EFB10111E
:1003B00043EA014408FB00F8A04507D93C1900F1C5
:1003C000FF3302D2A04500F2D9801846A4EB0804FE
:1003D00040EA0C40BFE78B4209D9002D00F0B18004
:1003E0000026C5E9000130463146BDE8F087B3FA82
:1003F00083F6002E4AD18B4202D3824200F2B880AB
:10040000841A61EB030101208C46002DA8D0C5E9B8
:10041000004CA5E7C2F1200320FA03F6974001FA49
:1004200002F04FEA174ED9403043030CB1FBFEF601
:100430001FFA87F80EFB161143EA014306FB08F189
:10044000994204FA02F409D9FB1806F1FF3C80F046
:100450008D80994240F28A80023E3B445B1A81B211
:10046000B3FBFEF00EFB103341EA034100FB08F33F
:100470008B4207D9791800F1FF3C73D28B4271D9B6
:1004800002383944CB1A40EA064678E7C6F1200C18
:1004900003FA06F422FA0CF31C4320FA0CF701FAD3
:1004A00006F34FEA144E21FA0CF11F433B0CB1FB4B
:1004B000FEF91FFA84F80EFB191143EA014109FB0A
:1004C00008FA8A4502FA06F200FA06F308D961181A
:1004D00009F1FF3048D28A4546D9A9F102092144E1
:1004E000A1EB0A01BFB2B1FBFEF00EFB101147EA0F
:1004F000014700FB08F8B84507D9E71900F1FF31BB
:100500002ED2B8452CD90238274440EA0940A7EB3F
:100510000807A0FB02894F45C64649461AD317D0A3
:100520005DB1B3EB0E0267EB010707FA0CFCF2407A
:100530004CEA0202F740C5E9002700263146BDE833
:10054000F0872E4628460BE70646E9E61846FDE604
:100550004345E5D2B8EB020E69EB04010138DFE751
:100560000846D2E760468DE78146B9E7664675E7FB
:1005700030464AE7ACF1020C394413E702383C44F8
:1005800024E700BF704700BFDFF834D0002103E04C
:100590000C4B5B58435004310B480C4B42189A42A9
:1005A000F6D30B4A02E0002342F8043B094B9A427F
:1005B000F9D304F0ABFB1CF06FF800F02BFE704792
:1005C0000000032058650908000000206401002095
:1005D0006401002054310120FEE700F035BC00F03A
:1005E000A3BC704710B5042104461BF0E7FE20466B
:1005F00010BD000038B50C4B0C4C18800C4B822001
:1006000019806368984740F6110398420AD1094D52
:1006100023682C60822098472B688220DB689847EB
:10062000002038BD0120FCE7800100204C000020A4
:1006300082010020840100204FF4A071F020FFF718
:10064000D9BF0000F7B5344D2B6804461B698220E2
:10065000984780B2208000284CD02B680DF106020C
:100660005B6901A982209847BDF8063040F67462A4
:10067000934241D9ADF80620BDF80620C2F5676265
:10068000043292B20A2A3DD90B23B2FBF3F2234B78
:100690001B889A4201D95A1E92B2BDF8043040F626
:1006A000B8318B4230D8C3F571630E339BB20F2142
:1006B000B3FBF1F31A4909888B4201D94B1E9BB257
:1006C000184E194D30682F68834281B28CBF591A79
:1006D000C91AB8B2BA428CBF101A801A89B280B255
:1006E00001440529C8BF33603368C8BF2A606380EE
:1006F0002B68A38003B0F0BDB32B9CBFB423ADF82F
:100700000630B9E70022C8E7C3F56D6308339BB232
:100710000E2BCCD80023D3E78401002082010020D7
:1007200080010020880100208C01002037B5684638
:100730000D461446FFF786FFBDF8000030B1BDF846
:1007400002302B60BDF804302360012003B030BDBF
:10075000704770477047012380F8741080F8753037
:1007600070470020704700207047836B0BB108462C
:10077000184770474FF6FF707047406803689B69E1
:10078000184770477047704770B5044600F06EFC1C
:100790002368D3F88050044BD4E90F122046AC46AE
:1007A000BDE87040604700BF000000D008B531B917
:1007B0000A4B0B4A0B484FF425711BF02DFEC0E984
:1007C0000F12003A0849436418BF01220A70003B27
:1007D000064A18BF0123137008BD00BF58D6010890
:1007E00090D60108DED60108FA2B0120FB2B012050
:1007F00008B5036804469B6F9847236820461B6F23
:10080000984700F0B5F8236820469B6E984729204A
:1008100000F06CFF00F0ACF8236820469B6E984710
:10082000F8E710B504460AF097F823682046D3F895
:10083000A030BDE81040184700F00ABC00F00EBC24
:1008400000F032BC00F0E0BB00F032BC00F03ABC7B
:1008500000F0E4BB09F038BA10B57C2104461BF067
:10086000ADFD204610BD90F877301BB1406803689D
:100870001B6818471846704730B590F8341090F848
:100880007440104B8C421A780DD05AB90E4A0F4959
:100890000F4814880F4D0C80018811802980048036
:1008A00001221A7030BD002AFCD00948074A01888D
:1008B0001180054A074D14882C8011800480002285
:1008C000EFE700BFF42B0120F02B0120F62B0120D5
:1008D000F22B0120F82B0120012108B50022084647
:1008E00006F0EEFE0A4B186028B90A4B0A4A272187
:1008F0000A481BF091FD00220421012006F07EFF32
:10090000074B186018B9074B034A2B21F0E708BDC5
:1009100094010020F0D7010839D8010868D80108EF
:1009200090010020AED80108024B4FF0FF3118684B
:1009300006F010BF94010020014B186806F036BF86
:1009400094010020024B0021186806F003BF00BF8D
:1009500094010020FFF7F0BF03480449006800231A
:100960001A4606F087BF00BF900100200400002057
:1009700013B5084C00231A4601A9206806F0AAFF07
:1009800020684FF0FF33002201A906F0A3FF02B058
:1009900010BD00BF9001002006F074BE03685B6CC0
:1009A00018470120704703689B6A184782B00023EC
:1009B00001930D4B1A6B42F400021A631A6B02F496
:1009C00000020192019A1A6942F400021A611A693E
:1009D00022F400021A61054B054A1A61054B4FF0DB
:1009E00080629A6002B070470038024044300120B3
:1009F000010A000800E100E040F2EF30704700001B
:100A0000024B1B68586803685B691847FC2B012080
:100A100008B50B280BD8DFE800F01206100A0A0A06
:100A20000A0808080808012008BD0520FCE7054B56
:100A3000054A064865211BF0EFFC0020F4E7022080
:100A4000F2E700BFF0D801080BD9010857D9010817
:100A500008B50A2809D8DFE800F010060E080808D3
:100A6000080606060600012008BD054B054A064893
:100A700086211BF0D1FC0020F6E70220F4E700BF3E
:100A8000F0D801089BD9010857D901082DE9F8438E
:100A900091F81D800C464046FFF7BAFFA77F054638
:100AA0003846FFF7B5FF06463846FFF7D1FFA18A63
:100AB000628B534B521A1A649A61228B521A1A6132
:100AC000E28A586342EA01425A6421696268D96342
:100AD000DA60D4F800C094F81C90BCF1800F4FEAA3
:100AE00009629E463BD015D8BCF1200F45EA0200B2
:100AF00079D0BCF1400F76D0BCF1040F2BD0404B25
:100B00002A4342F40032B845DA6114BF3D4A40F24C
:100B100001221EE0BCF5807F07D0BCF5007FEED13E
:100B200042F4003242F0090203E042F4003242F0A3
:100B30000A02DA61E0680202440102F4780204F475
:100B40007C44C0002243C0B202431A622E4A5E6255
:100B500059611A6043E040F40030D861F6E7A068BC
:100B60002A4342F40032041DDC62DA6102785E62DC
:100B7000596142B1012A1CD0244B254A25484FF423
:100B800088711BF049FC4288D969501E21F47F42CC
:100B900022F0100242EA0022DA610125184CE369D2
:100BA00043F02003E361E3699B0613D5FFF7F4FEEE
:100BB000F9E74288D969501E21F47F4222F01002E1
:100BC00042EA0022B9F1FF0542F0100218BF0125E8
:100BD000DA61E3E71023A3601DB10B4B2360BDE88E
:100BE000F883084BFAE7084B40F40030CEF81C00BD
:100BF000CEF82460CEF81410CEF80030EFE700BF36
:100C000000B002400102010001020200E8D901081F
:100C100002DA010857D90108F8B58E7F0C46304634
:100C2000FFF716FFA78AE18A628B1E4B256958637E
:100C300041EA0741D21B5964DD631A64216808291F
:100C400018D19A611A615862217F174A42EA0162FB
:100C5000DA61E1680A02480102F4780200F47C409B
:100C6000C9000243C9B20A431A62104A5D61DD60DD
:100C70001A60F8BD0022D8611A61E1681EB9996353
:100C8000084B0B4AF4E70A02480102F4780200F428
:100C90007C40C900C9B202430A43217F42EA016293
:100CA0009A63EDE700B00240090001000102020072
:100CB00001020300054B0360054B4FF08062C3F84F
:100CC0008820BFF34F8FBFF36F8F70474CDA010856
:100CD00000E100E010B50446FFF7ECFF20464FF4BA
:100CE00042611BF06BFB204610BD000070B504464E
:100CF00025460A4B0C30002660602672667245F865
:100D0000203B6022294609F061FF04F54263EE6052
:100D10002035AB42FBD1204670BD00BF4CDA010844
:100D2000012070470C2070470C2303FB01000830A2
:100D300070470C2303FB0100083070470120704707
:100D400040F6D440704740F6D44303FB010008301E
:100D5000704740F6D44303FB010008307047012080
:100D600070471020704700EB01100830704700EB0F
:100D7000011008307047084601F002B910B5034B66
:100D80000360044608F0B6FD204610BD04DB0108F0
:100D900010B50446FFF7F2FF204614211BF00EFBAE
:100DA000204610BD10B5034B0360044608F0A2FDB9
:100DB000204610BDD0DA010810B50446FFF7F2FF57
:100DC000204640F6DC411BF0F9FA204610BD000039
:100DD00010B5034B0360044608F08CFD204610BD9F
:100DE0009CDA010810B50446FFF7F2FF20461821EF
:100DF0001BF0E4FA204610BD10B5084B0360044612
:100E000000F60850FFF7BAFF04F12C00FFF7CAFF05
:100E100004F11400FFF7DCFF204610BD38DB0108A9
:100E200008B50248FFF7E8FF08BD00BF9C0100209D
:100E300010B50446FFF7E0FF20464FF468611BF051
:100E4000BDFA204610BD00002DE9F34100F0DAFFA5
:100E5000054600F0DBFF00240146234628462246D3
:100E600000940FF0D9FB254B254A264D1A602046E9
:100E700003F096FA24480FF011FB2B78BFF35B8F39
:100E8000DB0735D428461BF09BFA88B31F4C204B58
:100E9000236004F6285604F1140004F12C0804F62B
:100EA00008576060C4F80880E760266108F024FDF8
:100EB000184B6361404608F01FFD174BE36238464C
:100EC00008F01AFD154BC4F8083D04F61C5003F059
:100ED000E7FA224604F61C51304603F0D7FA3046B2
:100EE00001F04EF828461BF077FA0D481BF0B2FAD5
:100EF0000C4802B0BDE8F041FFF746BC582C012079
:100F0000BC1C002098010020080000209C0100204B
:100F100038DB01089CDA0108D0DA010804DB01089B
:100F2000210E0008401C00200148FFF761BC00BFF3
:100F3000401C002070B5244C244E254B254D2360C9
:100F40003046FFF7D3FE284612F0EAFB224B234837
:100F5000DC6000224FF48071C3E912122049036063
:100F600020481A85C3E91912C3E901654FF0807161
:100F70001D4D5967F024012104804FF4A070C3E98E
:100F80000422C3E90622C3E90822C3E90E22C3E909
:100F90001022C3E91422C3E9162283F82A20DA6258
:100FA0001A861A6683F86C201A6783F878102880EE
:100FB0000E4D83F834102A700D4A14800D4A1080AB
:100FC0000D4A1A6070BD00BF1C10002020100020C8
:100FD00048D60108C01C0020401C0020FC2B01202A
:100FE00001000001F02B0120F22B0120F42B012045
:100FF000F62B0120F82B01202CD701080148FFF720
:1010000059BE00BF20100020034B902283F85A23C2
:1010100083F85823704700BF00E100E0094A0A49FD
:10102000D3680A48C3F30A03013B9BB20B801169E2
:10103000C1F30A01013901801364536B43F00103CA
:1010400053637047006801403A1D0020381D00209E
:10105000014B986A704700BF84680140024B01222F
:10106000996243F8602C70478468014070B504466B
:1010700008F07DFE2368DD6D0CF08EFA01462046F7
:10108000A8472368054AD3F880502046AC46002381
:10109000BDE87040A2F51631604700BF00B004D033
:1010A00008F04CBE08F056BE08F014BE08F06DBF44
:1010B000034B4FF080629A604FF080729A607047E5
:1010C00000E100E0084B4FF08062C3F88820BFF3D6
:1010D0004F8FBFF36F8F4FF08072C3F88820BFF33C
:1010E0004F8FBFF36F8F704700E100E0134B144A3E
:1010F0001B6C11888B4210B5124C13D1124B1988FE
:1011000005F0B2F8226892F86630013382F8663052
:10111000FFF722FC206809F01FFCBDE8104000200A
:10112000FFF716BB05F0A0F80020FFF712FB2068C0
:101130000368BDE81040DB69184700BF0068014044
:101140003A1D0020FC2B0120381D002007B5064B5E
:10115000ADF806001B68054801220DF1060105F0F7
:10116000BFFD03B05DF804FB10000020F02E01204D
:1011700008B5642006F098FAFBE7000030B595B09A
:10118000102200210AA81BF0CDFA1422002103A886
:101190001BF0C8FA00241D4B01941A6C42F08052D7
:1011A0001A641B6C03F080530193019B184B02944B
:1011B0001A6842F440421A601B6803F440430293E9
:1011C0000122029B4FF48033CDE9082302254FF41E
:1011D0008003CDE90E5308214FF4A873CDE9101315
:1011E00008A804231393129505F05CF80F23CDE9AA
:1011F00003354FF4A0504FF48053CDE90603052189
:1012000003A8059405F028FA15B030BD0038024057
:10121000007000402DE980489BB003F085FDFFF78A
:10122000ADFF142200210DA800241BF07BFAC44B53
:1012300000941A6BC348C44D42F020021A631A6B23
:1012400002F020020092009A01941A6B42F0800290
:101250001A631A6B02F080020192019A02941A6BCF
:1012600042F004021A631A6B02F004020292029A1C
:1012700003941A6B42F001021A631A6B02F0010226
:101280000392039A04941A6B42F002021A631A6BD7
:1012900002F002020492049A05941A6B42F0400292
:1012A0001A631A6B02F040020592059A06941A6BB3
:1012B00042F010021A631A6B02F010020692069AAC
:1012C00007941A6B42F008021A631B6B03F00803C1
:1012D000079322460421079B04F0E8F99B48224625
:1012E0004FF4405104F0E2F9224699484FF4C041CE
:1012F00004F0DCF9012602274FF0040891480F940E
:101300000DA9CDE90D86109704F0E4F891480F97E8
:101310000DA9CDE90D6404F0DDF84FF440538B487E
:101320000DA9CDE90D36CDE90F4704F0D3F80DA98D
:101330004FF4C0438648CDE90D36CDE90F4404F0A3
:10134000C9F88548854B036003F0B8FF844A854B94
:101350002C62C5E9002328464FF48043C5E90434D4
:10136000C5E90244C5E9064404F082FB1021284681
:1013700004F0BEFD2146284604F0D9FD7A487B4999
:1013800084624FF48273C0E900134FF40075182390
:10139000C0E906530A23764DC362C0E90244C0E99E
:1013A0000444C0E9084405F03FFC724B0D97C5E9C1
:1013B00000364FF0100A4023C5E904A34FF4C07370
:1013C000C5E906344FF40063C5E908344FF400530F
:1013D000AB624FF0030B07230DA92846CDE90E3869
:1013E00010934FF00809C5E90248CDE911B71397EA
:1013F00005F026FB4FF6FF7209A92846CDE90A96AB
:10140000089409960C9405F03BFB304603F0B8FCB9
:101410004FF6FF7209A92846CDE90979CDE90B6499
:1014200005F02EFB4FF6FF7209A92846CDE909B950
:10143000CDE90B8405F024FB4FF40C730893089B53
:101440000C934FF6FF7209A92846CDE909890B963E
:1014500005F016FB40F26A51284605F028FB3422BD
:1014600021460DEB02001BF05DF9434D434BAC866A
:10147000C5E900340923C5E905361D2340F20D1CDA
:10148000C5E9073B40F24313C5E909C340F2171E03
:1014900040F247132846C5E90BE3C5E902442C6135
:1014A00085F8364004F0E8FDFF21F022CDE9121462
:1014B0004FF4806805214FF4A073CDE90E24CDE9E7
:1014C0001481CDE916420DA922462846CDE91037F0
:1014D0002B4D18930D94ADF864408DF8664004F0E0
:1014E00096FE284B2B601B68DFF8AC9098472B6862
:1014F000254DDB689847254BC5E90A47C5E90C44EB
:101500002846C5E90034C5E9027403F0E7FE314618
:10151000284603F09BFF1E4D524621460DA81BF0A6
:1015200001F94FF48033C5E900932846194BAB62AB
:10153000AC602C612C7685F82040EC622EE000BF78
:1015400000380240000802409C2E0120000C02409E
:101550000018024000000240482F012000300240E5
:10156000005C0040A0860100F02E012000500140E8
:1015700084300120400100A0502F0120006801406C
:101580003C1D0020140000204430012000B0024027
:10159000F82F01200100000F00200140EC60EE61F7
:1015A00085F830406E6103F0FFFB0DA92846CDE9B8
:1015B0000D660F9403F094FDFFF70FF805F0ECFFB4
:1015C000084A0948214606F013F8084B084A1860F3
:1015D0002146084806F00CF8074B186005F0EEFFAE
:1015E000FEE700BF80DB010871110008982E012082
:1015F0005CDB0108DF0500084030012070477047C0
:101600007FB5094B8DF817201B6802930DF1170267
:101610000123009201930A460146044804F0D0FADF
:1016200007B05DF804FB00BF0C0000209C2E0120D9
:101630007FB500238DF81730084B1B6802930A46CC
:1016400001230DF11701009101930146044804F0B4
:1016500047FB9DF8170007B05DF804FB0C00002065
:101660009C2E01201FB5084C24680092CDE901345E
:101670000A4601230146054804F032FB003818BF32
:10168000012004B010BD00BF0C0000209C2E0120E2
:1016900003F076BB08B506480022042104F006F8E2
:1016A000BDE8084002480122042103F0FFBF00BF4B
:1016B0000008024038B50B4D044601220A484FF499
:1016C000005103F0F3FF00220421284603F0EEFF4F
:1016D0002046FFF73BFD28460122BDE838400421A3
:1016E00003F0E4BF00080240000C024038B50B4D87
:1016F000044600220A484FF4005103F0D7FF0022AD
:101700000421284603F0D2FF2046FFF71FFD28469C
:101710000122BDE83840042103F0C8BF00080240A0
:10172000000C0240F7B5144E144F05460C463046E7
:101730000022042103F0BAFF00224FF40051384682
:1017400003F0B4FF2846FFF701FD0D4B0D481B6861
:10175000224601A905F060FC384601224FF40051F1
:10176000019C03F0A3FF30460122042103F09EFFF9
:10177000204603B0F0BD00BF00080240000C02404C
:1017800010000020F02E012003F0FABA0268034B8B
:101790009A4201D103F0E2BA704700BF0010004046
:1017A0007047000082B00E4B00220092596C41F449
:1017B00080415964596C01F4804100910099019273
:1017C000196C41F0805119641B6C03F08053019334
:1017D000019B0F216FF0010002B003F02FBD00BF8D
:1017E0000038024010B5044688B01422002103A836
:1017F0001AF098FF2268124B9A421FD103F58C33DE
:1018000000220192596C0F4841F480715964596C5F
:1018100001F48071019101990292196B41F001016B
:1018200019631B6B059203F0010302930221029BD3
:101830000323CDE9031303A903F04CFE08B010BD48
:1018400000200140000002400268094B9A4282B029
:101850000BD100230193074B1A6B42F480521A6399
:101860001B6B03F480530193019B02B0704700BFD0
:10187000003002400038024007B50F4B02689A4220
:1018800016D10022A3F5F0430192196B41F4000137
:1018900019631B6B03F40003019305215A20019B7C
:1018A00003F0CCFC5A2003B05DF804EB03F0F8BC65
:1018B00003B05DF804FB00BF00B002402DE9F04327
:1018C000044689B01422002103A81AF02BFF2268D5
:1018D000244B9A4243D1244C244800250095236B85
:1018E00043F004032363236B03F004030093009B82
:1018F0000195236B43F001032363236B03F0010382
:101900000193019B4FF012094FF400734FF001084F
:101910000327042603A9CDE90339CDE905870796F6
:1019200003F0D8FD4FF480731148079603A9CDE961
:101930000339CDE9058703F0CDFD0295236C43F40F
:1019400000032364236C03F400030293029B236AC5
:1019500043F400032362236A23F40003236209B0E3
:10196000BDE8F083005C00400038024000080240FF
:1019700000000240F0B599B004461422002107A8E7
:101980001AF0D0FE30220DEB020000211AF0CAFE40
:1019900022685E4B9A4240F0B78008230C93C02324
:1019A0001093042312930CA84FF40033159304F002
:1019B0001DFF08B1FFF7F4FE554B56480024009474
:1019C0005A6C42F080625A645A6C02F08062009253
:1019D000009A01941A6B42F020021A631A6B02F00B
:1019E00020020192019A02941A6B42F001021A63DA
:1019F0001A6B02F001020292029A03941A6B42F0EF
:101A000002021A631A6B02F002020392039A049410
:101A10001A6B42F040021A631A6B02F04002049201
:101A2000049A05941A6B42F004021A631A6B02F0CE
:101A300004020592059A06941A6B42F008021A6392
:101A40001B6B03F00803069302250E26069B0B96DC
:101A50004FF4806307A9CDE90735CDE9094503F0C7
:101A600039FD41F658032C480B9607A9CDE90735F7
:101A70000927CDE9094503F02DFD032327480B97DE
:101A800007A9CDE90735CDE9094503F023FD4FF45A
:101A9000706322480B9607A9CDE90735CDE90945C2
:101AA00003F018FD4FF40C631D480B9607A9CDE910
:101AB0000735CDE9094503F00DFDC02319480B9604
:101AC00007A9CDE90735CDE9094503F003FD082352
:101AD00015480B9607A9CDE90735CDE9094503F06F
:101AE000F9FC4FF4A0530E480B9707A9CDE9073531
:101AF000CDE9094503F0EEFC58202246052103F00C
:101B00009DFB582003F0CCFB19B0F0BD00680140EC
:101B1000003802400014024000000240000402406D
:101B20000018024000080240000C024010B50446B4
:101B300088B01422002103A81AF0F4FD2268154B86
:101B40009A4224D103F5684300220192596C41F472
:101B500080115964596C01F480110191019902922C
:101B6000196B41F0200119631B6B059203F02003F0
:101B700002934FF46071029B0223CDE9031303200B
:101B80000523CDE9060303A9034803F0A3FC08B02D
:101B900010BD00BF00500140001402402DE9F0418B
:101BA0002C4B1C6886B0002C50D14FF00108C3F8B4
:101BB0000080294B00949A6B284842EA08029A63F5
:101BC0009B6B039403EA08030093022703260C256A
:101BD000009B01A94FF63F03CDE90137CDE904652C
:101BE00003F078FC1E48059501A9CDE90187CDE9F0
:101BF000034603F06FFC48F233131A48059501A918
:101C0000CDE90137CDE9034603F064FC4FF6837359
:101C10001548059501A9CDE90137CDE9034603F043
:101C200059FC4CF203731148059501A9CDE9013720
:101C3000CDE9034603F04EFC60230D48059501A94C
:101C4000CDE90137CDE9034603F044FC06B0BDE819
:101C5000F08100BF401D0020003802400014024007
:101C6000000802400018024000100240000C024030
:101C70000004024030B5014689B00022362003F04E
:101C8000DDFA362003F00CFB0025154B02951A6C8B
:101C9000144C42F010021A641B6C03F01003029300
:101CA00001A903A8029B04F083FD04F071FD0E4B13
:101CB000236040F2E733E36040000C4BB0FBF3F0ED
:101CC0000138606020462561A56005F089FB20B9D8
:101CD000204605F03FFA09B030BD0120FBE700BF08
:101CE00000380240B83001200010004040420F0090
:101CF0007047FEE7FEE7FEE7FEE77047014805F0A4
:101D000067BA00BFB8300120014804F023BA00BF11
:101D1000502F0120014803F00FBB00BF44300120C9
:101D20000120704708B51AF0A9FB162303604FF095
:101D3000FF3008BD08B51AF0A1FB16230360FEE7CB
:101D400070B50E4614460025A54201DB204670BD45
:101D5000AFF3008070550135F6E770B50E461446B6
:101D60000025A54201DB204670BD705DAFF3008009
:101D70000135F6E74FF0FF3070474FF400534B60EA
:101D800000207047012070470020704708B50A4BBB
:101D90001968024609B90949196018686946024478
:101DA0008A4206D91AF06AFB0C2303604FF0FF3019
:101DB00008BD1A60FCE700BF441D00205831012017
:101DC000704710B5042104461AF0F8FA204610BDF9
:101DD00008B5032913D8DFE801F002060A0E02F065
:101DE0002BFB006808BD02F027FB4068FAE702F011
:101DF00023FB8068F6E702F01FFBC068F2E70020D3
:101E0000F0E7000000487047B8DB01080E2070477B
:101E100013B5002451B1036801948DF8034001AA61
:101E20009C680DF10303A04702B010BD0846FBE714
:101E3000408970478089704780887047837980889F
:101E4000184480B27047C07900F07F007047C079B5
:101E5000C0097047704710B5082104461AF0AEFA61
:101E6000204610BD704700F596730868496803C3A3
:101E70007047704770474160704770470123037295
:101E800070477047704710B4C268416854100346E9
:101E900001EB6200D20748BF0A599B685DF8044B0A
:101EA00048BFD358184743682BB183682BB9C06823
:101EB00000F001007047184670470120704710B5C8
:101EC0000C2104461AF07AFA204610BD10B51021F4
:101ED00004461AF073FA204610BD10B54FF4AC71E9
:101EE00004461AF06BFA204610BD10B50BF054FBF7
:101EF0000368BDE810401B6B184710B50446D0F8C6
:101F00003C0158B10368DB68984738B1D4F83C010C
:101F100003689B6898470023C4F83C3110BD00005B
:101F2000F8B5044617460E460BF056FB104B00253D
:101F3000C4E954760F4E1C60C4E952550E4B30680C
:101F400023600E4BC4E95035036801219B68C4E946
:101F50004E559847284602F023FA336893F87620C6
:101F60000AB1D86C00B9986813F00DF92046F8BD95
:101F7000482C0120FC2B01202CE3010814E301086C
:101F8000064BC0F848310023C0F84C3100F5A0736F
:101F9000C0F84401C0F83C31704700BF452100083B
:101FA000064BC0F848310023C0F84C3100F5A0734F
:101FB000C0F84401C0F83C31704700BFA9220008B6
:101FC000064BC0F848310023C0F84C3100F5A0732F
:101FD000C0F84401C0F83C31704700BF0D24000830
:101FE000064BC0F848310023C0F84C3100F5A0730F
:101FF000C0F84401C0F83C31704700BF75250008A7
:1020000003685B6A184700002DE9F84F074690689F
:10201000DDF828A0994603681B6A8846144698474D
:10202000B0F5C87F05D2414B414AA32141481AF07F
:10203000F3F9606803681B6A98470F2803D83E4B82
:102040003B4AA421F2E7E06803681B6A98470B2823
:1020500003D83A4B364AA521E8E70BF09DFA0BF07E
:10206000A1FAD9F8000010B10368DB689847D9F8E5
:10207000000010B103681B689847386810B1036806
:102080005B699847D8F8000010B103685B6898470F
:10209000386810B103681B689847D8F8000010B181
:1020A00003689B689847E0680021FFF7A9FF4FF09D
:1020B000000B234B03600546C0F804B080F808B05D
:1020C000A068036859465B6A9847064602F082FAA0
:1020D0006068036859465B6A98473146044602F0D7
:1020E00023FAC9F80050C8F800403E60E4B1231D4F
:1020F000CAF800303368C4F808A03046DB68F463DF
:102100009847236820461B689847294630460CF0BC
:102110009AFE2B6828461B6998472B6828465B69FE
:1021200098472046BDE8F88F2346E1E7E0DC010848
:102130006EDD010872DE0108B9DE01085CDF01080E
:1021400070E3010807B5D0F854310093D0F850215E
:10215000044B00F59C710448FFF756FF03B05DF88F
:1021600004FB00BF3C2C0120382C01202DE9F84F46
:1021700007469068DDF828A0994603681B6A8846E0
:1021800014469847B0F52B7F05D2414B414AA32115
:1021900041481AF041F9606803681B6A98470F28A4
:1021A00003D83E4B3B4AA421F2E7E06803681B6A70
:1021B00098470B2803D83A4B364AA521E8E70BF09D
:1021C000EBF90BF0EFF9D9F8000010B10368DB6808
:1021D0009847D9F8000010B103681B689847386821
:1021E00010B103685B699847D8F8000010B1036824
:1021F0005B689847386810B103681B689847D8F83F
:10220000000010B103689B689847E0680021FFF761
:10221000F7FE4FF0000B234B03600546C0F804B0F7
:1022200080F808B0A068036859465B6A984706467C
:1022300002F032FA6068036859465B6A9847314693
:10224000044602F0DFF9C9F80050C8F800403E60CB
:10225000E4B1231DCAF800303368C4F808A0304642
:10226000DB68F4639847236820461B689847294633
:1022700030460CF0E8FD2B6828461B6998472B6810
:1022800028465B6998472046BDE8F88F2346E1E77A
:10229000E0DC0108FFDF010872DE0108B9DE010899
:1022A0005CDF010870E3010807B5D0F854310093F2
:1022B000D0F85021044B00F59C710448FFF756FFFD
:1022C00003B05DF804FB00BF3C2C0120382C01203A
:1022D0002DE9F84F07469068DDF828A09946036875
:1022E0001B6A884614469847B0F5E07F05D2414BFB
:1022F000414AA32141481AF08FF8606803681B6ABD
:1023000098470F2803D83E4B3B4AA421F2E7E068E8
:1023100003681B6A98470B2803D83A4B364AA52115
:10232000E8E70BF039F90BF03DF9D9F8000010B1EE
:102330000368DB689847D9F8000010B103681B6890
:102340009847386810B103685B699847D8F800006F
:1023500010B103685B689847386810B103681B6860
:102360009847D8F8000010B103689B689847E06868
:102370000021FFF745FE4FF0000B234B036005469D
:10238000C0F804B080F808B0A068036859465B6ADA
:102390009847064602F0DEF96068036859465B6AB2
:1023A00098473146044602F0A3F9C9F80050C8F82E
:1023B00000403E60E4B1231DCAF800303368C4F821
:1023C00008A03046DB68F4639847236820461B6802
:1023D0009847294630460CF036FD2B6828461B6985
:1023E00098472B6828465B6998472046BDE8F88FD8
:1023F0002346E1E7E0DC010803E1010872DE0108A1
:10240000B9DE01085CDF010870E3010807B5D0F808
:1024100054310093D0F85021044B00F59C710448CE
:10242000FFF756FF03B05DF804FB00BF3C2C012012
:10243000382C01202DE9F84F07469068DDF828A0D8
:10244000994603681B6A88461446984740F6D3436A
:10245000984205D8414B424AA321424819F0DCFF7B
:10246000606803681B6A98470F2803D83E4B3C4AB4
:10247000A421F2E7E06803681B6A98470B2803D899
:102480003A4B374AA521E8E70BF086F80BF08AF8BB
:10249000D9F8000010B10368DB689847D9F800004C
:1024A00010B103681B689847386810B103685B690E
:1024B0009847D8F8000010B103685B6898473868FF
:1024C00010B103681B689847D8F8000010B1036882
:1024D0009B689847E0680021FFF792FD4FF0000BE2
:1024E000234B03600546C0F804B080F808B0A0682C
:1024F000036859465B6A9847064602F05DF96068D2
:10250000036859465B6A98473146044602F03AF937
:10251000C9F80050C8F800403E60E4B1231DCAF875
:1025200000303368C4F808A03046DB68F46398478D
:10253000236820461B689847294630460CF083FCE8
:102540002B6828461B6998472B6828465B69984783
:102550002046BDE8F88F2346E1E700BFE0DC010834
:1025600007E2010872DE0108B9DE01085CDF01083C
:1025700070E3010807B5D0F854310093D0F850212A
:10258000044B00F59C710448FFF754FF03B05DF85D
:1025900004FB00BF3C2C0120382C0120006A70474E
:1025A000406A704770478B8880690A68DB0A50F878
:1025B00023001044704710B5C2B1137BB3B1547BF4
:1025C000D27A240204F4E0641443C26998B202EBA4
:1025D000840213888B4202D192F9020010BD05D803
:1025E000013880B204320028F3D1F7E70020F5E784
:1025F00010B52821044619F0E1FE204610BD000068
:1026000030B589B00446BDF850500695BDF84C5021
:1026100005959DF8405004959DF83C5003959DF814
:10262000385002959DF8345001959DF83050009532
:102630000BF0EAFF064B2360119BA361129BE36141
:10264000159B2362169B6362204609B030BD00BF14
:1026500094E301080020704781807047C180704773
:1026600001817047418170477047704770477047DC
:10267000704710B4C4880368121B84881B6D091B43
:1026800012B25DF8044B09B218474FF6FF7383810D
:102690004FF0FF3303621368C361106070477047E7
:1026A000704770477047704790F825201AB190F82E
:1026B000242002B118607047704770477047704718
:1026C000704730B4C26844685510034604EB62009A
:1026D000D20748BF62599B6830BC48BFD3581847DF
:1026E00043682BB183682BB9C06800F001007047C4
:1026F000184670470120704710B51021044619F0A4
:102700005DFE204610BD10B54FF4C871044619F0A7
:1027100055FE204610BD00F19802914210B504D13B
:102720000368DB6ABDE81040184700F1D00291420F
:1027300002D103681B6BF5E700F58472914205D165
:102740000AF02AFFBDE81040FFF72ABC00F5A2738B
:10275000994205D10AF020FFBDE81040FFF730BCD8
:1027600010BD0000074A02600022C0E90122C0E952
:102770000322C0E90522C0E907224FF48072828457
:10278000704700BF90FD010870B503680446DB6A1E
:10279000154698472368294620461B6BBDE87040C4
:1027A0001847000010B526220446002119F0BAFF90
:1027B0002046FFF7D7FF0023A36284F82C300123C3
:1027C000064A84F824304FF6FF73E385238684F8A5
:1027D00032302260A386204610BD00BFD8F7010822
:1027E0002DE9F04F044689B025460CF0AFF94FF0C3
:1027F000000B814BC4F83CB045F8403B59462622BB
:10280000284619F08FFF2846FFF7ACFF04F16C064D
:10281000FF277A4B236426224FF6FF73594684F82C
:102820006670C4F868B03046ADF81C3019F07AFF15
:102830003046FFF797FF724BE366BDF81C30A4F8F3
:10284000923007A904F1980A84F89470304609F090
:1028500080F904F1D0095046FFF7A4FF04F584780D
:102860004846FFF79FFF04F5A277404609F04AF972
:10287000384609F047F9634BC4E96034624B5A4665
:10288000C4E9623B59462846FFF77EFF2846F021FF
:10289000FFF7E6FE28464FF4A071FFF7E3FE4FF086
:1028A0007F435A46A36659463046FFF76DFF4FF007
:1028B0000A0307A930464FF0090BADF81C3009F0A8
:1028C00048F9504668223821FFF75EFF4FF00803B1
:1028D000A4F8CCB007AA06A95046ADF81830ADF858
:1028E0001CB008F00FFE04F5C0720392C4F8C020BB
:1028F0004846A6223821FFF747FF4FF00803A4F807
:1029000004B107AA06A94846ADF81830ADF81CB0C6
:1029100008F0F8FD039BC4F8F8304046F822232164
:10292000FFF732FF0523ADF818300DF1180C07AB97
:1029300000934FF0010263460DF1140CADF8102026
:102940004FF0020162464FF003000DF1100CADF89C
:102950001410ADF81C006146404609F030F84FF005
:1029600008034FF0460BA4F84231039BC4F8303102
:102970003846A4F840B10A222321FFF705FF0723B8
:10298000ADF818304FF0010207AB4FF002014FF0E5
:102990000300ADF81020ADF8141005AAADF81C0026
:1029A000009304A906AB384609F009F81023A4F8EF
:1029B0007E31039BC4F86C31201D2946A4F87CB1FC
:1029C000039007F041F80398314607F03DF803986B
:1029D000514607F039F80398494607F035F803984F
:1029E000414607F031F80398394607F02DF82046A4
:1029F00009B0BDE8F08F00BF04E4010860F90108E8
:102A0000ACFB0108ECE3010817270008806A704757
:102A100070B50D7990F82C3004463DB93BB1236870
:102A20002046D3F88030BDE8704018477BB1B5FA36
:102A300085F35B0984F82C3023682046D3F8843072
:102A40009847236820465B699847002DE7D070BD02
:102A5000704770477047704790F82C302BB1C26EAA
:102A6000C26523B1436F03667047826EF8E7036F58
:102A7000F9E770477047704730B4C2684468551032
:102A8000034604EB6200D20748BF62599B6830BC22
:102A900048BFD358184743682BB183682BB9C06827
:102AA00000F001007047184670470120704730B4AD
:102AB000C26844685510034604EB6200D20748BF61
:102AC00062599B6830BC48BFD358184743682BB144
:102AD00083682BB9C06800F0010070471846704742
:102AE0000120704790F82D3080F85A30704710B5AB
:102AF0007821044619F062FC204610BD10B5102163
:102B0000044619F05BFC204610BD10B510210446A8
:102B100019F054FC204610BD10B54FF42A7104463C
:102B200019F04CFC204610BD10B50446006B50B1A6
:102B30000368DB68984730B1206B036821469B68C7
:102B4000BDE81040184710BD00F1D802914202D1F3
:102B50000368DB6A184700F5A872914202D1036846
:102B60001B6BF7E7704700F51070884208B505D178
:102B70000AF012FDBDE80840FFF702BA08BD70B5C3
:102B800004461D46BDF91060FFF7FEFD2368294687
:102B900020465B6B98472368314620469B6BBDE817
:102BA0007040184710B526220446002119F0BAFDDE
:102BB0002046FFF7D7FD044B2360FF2384F826301F
:102BC0000023A362204610BD60F9010810B526223B
:102BD0000446002119F0A6FD2046FFF7C3FD074B70
:102BE0002360074BA3624FF6FF73A3854FF47F0268
:102BF0000023C4E90C322387204610BDB8F8010831
:102C0000D8DC010870B50446FFF7ACFD4FF47F43F4
:102C10002646A3850123002584F824300D4BA562A8
:102C2000256346F8343B3046FFF7BCFF0A4B63632D
:102C30002A4629463046C4E91A55C4E91C5525667A
:102C4000A4F86450FFF7A0FD2046314606F0FCFED4
:102C5000204670BD4CE50108A0FA01082DE9F04FAF
:102C60002DED048B04468BB00BF070FF224600253F
:102C7000B74BE56342F8403B04F16C06104608EEA2
:102C8000102A4FF6FF78FFF78DFF2622294630469F
:102C9000ADF8208019F046FD3046FFF763FDAD4BDF
:102CA000E36608AFBDF82030A4F89230394684F8C6
:102CB0009480304604F1980A08F04BFF5046FFF725
:102CC00085FF04F1D809A44BC4F89830C4F8D45057
:102CD000484604F5A878FFF795FF4046FFF792FFB6
:102CE00004F5E473184608EE903AFFF76FFF04F519
:102CF0000173184609EE103AFFF768FF04F51073E8
:102D0000184609EE903A08F0FDFE944BC4E9A2344F
:102D1000934BC4E9A435934BC4E9A634924BC4E960
:102D2000A8354FF4A07318EE100A00932A46F0233A
:102D30002946FFF724FF4FF07F432A46A366294622
:102D40003046FFF721FD0A2339463046ADF82030E2
:102D500008F0FFFE25230093552283233721504698
:102D6000FFF70DFF4FF07F43C4F8C8307F4BA4F846
:102D7000CC501B6804F51F7B2BB97D4B7D4AAE21DF
:102D80007D4819F049FB7D4B1B88032B03D87C4BF6
:102D9000784AAF21F4E77B4B0321186801F03CFB34
:102DA000794A0346052158460DF06AFB774BC4F873
:102DB000D4B039464FF0320B50460893ADF824504A
:102DC00008F060FBCDF800B05B462A46294604F5C2
:102DD0008670FFF7D4FE4FF005026D496D4BA4F8E5
:102DE0003C216D486D4AC4E95203C4E9502148466C
:102DF000FFF732FECDF800B05B464846AD222321F6
:102E0000FFF7BDFE04F5267EC4F808E15B46CDF869
:102E100000B02A46294604F5C270CDF80CE0FFF751
:102E2000AEFE5B495D4A5C48C4F8C0014FF0050C3A
:102E3000C4E96E2102F54C12A4F8B4C1C4F8C4214F
:102E40004046FFF709FE5B46CDF800B04046AD2294
:102E50009B21FFF794FE039AC4F8802118EE900A94
:102E60008722A721FFF790FC4FF07F42474BC4F821
:102E7000F82118EE900AA4F8FC514FF0010B3946E6
:102E80000893ADF824B008F0FDFA19EE100A872275
:102E90002021FFF779FC4FF07F423C4BC4F83422ED
:102EA00019EE100AA4F83852394602250893ADF8F5
:102EB000245008F0E7FA19EE900AF7222321FFF7D1
:102EC00063FC0623ADF81C30032306AA19EE900A12
:102ED000ADF8203005A907AB0097ADF81850ADF854
:102EE00014B008F06CFD4623A4F878321023251D99
:102EF000A4F87A3204F52273C4F8683218EE101A76
:102F0000284606F0A1FD3146284606F09DFD5146B3
:102F1000284606F099FD4946284606F095FD4146AB
:102F2000284606F091FD18EE901A284606F08CFD12
:102F300019EE101A284606F087FD284619EE901A59
:102F400006F082FD20460BB0BDEC048BBDE8F08F8F
:102F500010E60108ACFB0108F8F90108E0E50108FA
:102F6000672B0008F8E50108492B00084C2C0120CC
:102F700038E401087AE40108A8E40108502C012093
:102F8000EFE40108582C012041E50108D8DC0108D4
:102F9000CC9900FF996633FF663300FF996600FF06
:102FA00070477047704730B4C26844685510034694
:102FB00004EB6200D20748BF62599B6830BC48BF2F
:102FC000D358184743682BB183682BB9C06800F009
:102FD00001007047184670470120704710B5102156
:102FE000044619F0EBF9204610BD10B54FF4E0711E
:102FF000044619F0E3F9204610BD08B500F59873B2
:10300000994205D10AF0C8FABDE80840FEF7B8BFFA
:1030100000F5B670814205D10AF0BEFABDE808405D
:10302000FEF7DEBF08BD000038B5262204460D4677
:10303000002119F077FB2046FFF794FB064B236035
:103040002B88E384FF23204684F82830294608F0A3
:1030500080FD204638BD00BFACFB01082DE9F04FD4
:103060002DED028B04468BB025464FF0000B0BF084
:103070006DFD9F4BC4F83CB045F8403B26225946B5
:10308000284619F04FFB2846FFF76CFB994B236449
:1030900004F16C0AFF2384F866304FF6FF7704F1E1
:1030A0009809C4F868B008A9504604F1C408ADF8FE
:1030B0002070FFF7B9FF08A9484604F1F006ADF803
:1030C0002070FFF7B1FF08A94046ADF82070FFF768
:1030D000ABFF59462622304619F024FB3046FFF755
:1030E00041FB854BC4F818314FF47F03A4F81C71E1
:1030F000C4F8243104F59877804BC4F820B1A4F8C3
:1031000028B1C4F8F030C4F82CB1384608F0FAFC05
:1031100004F5B673184608EE103A08F0F3FC784B45
:10312000C4E96C34774B5A46C4E96E3B594628468D
:10313000FFF72AFBF0212846FFF792FA4FF4A0711F
:103140002846FFF78FFA4FF07F43A3665A46594649
:103150005046FFF719FB0A2208A95046ADF8202077
:1031600008F0F7FC602211464846FFF70DFB0D22E0
:1031700008A94846ADF8202008F0EBFC6022114673
:103180004046FFF701FB0B2284F8E9B008A940464E
:10319000ADF8202008F0DDFC27223F213046FFF764
:1031A000F3FA4FF07F43C4F82031574BA4F824B111
:1031B0001B6804F5D47B2BB9544B554AAE215548B6
:1031C00019F02AF9544B1B88052B03D8534B504A4E
:1031D000AF21F4E7524B0521186801F01DF9514A5F
:1031E0000346042158460DF04BF9C4F82CB1304683
:1031F00008F02BF94FF0040B3F4B089308A9304619
:10320000ADF824B008F03EF93846F9222321FFF743
:10321000BBFA4FF00103ADF8143007A908AB0093D7
:103220004FF002020B4606A9ADF81820ADF81CB00D
:103230000A464FF0030B05A93846ADF820B008F058
:10324000BEFB04F5D87046234FF01001A4F8683196
:10325000A4F86A110390C4F85801BD2218EE100AB0
:103260002321FFF791FA4FF00103ADF8143005A8C0
:1032700008AB4FF00202ADF81820009306AA07AB86
:10328000014618EE100AADF81CB0ADF820B008F0F9
:1032900096FB4723A4F8A4314FF01001039BC4F818
:1032A0009431201DA4F8A6112946039006F0CCFB0A
:1032B0000398514606F0C8FB0398494606F0C4FB44
:1032C0000398414606F0C0FB0398314606F0BCFB6C
:1032D0000398394606F0B8FB039818EE101A06F06A
:1032E000B3FB20460BB0BDEC028BBDE8F08F00BFF6
:1032F00064E6010860F90108D8DC0108F8F9010862
:103300004CE60108FB2F00084C2C012038E4010892
:103310007AE40108A8E40108502C0120EFE4010838
:10332000582C012041E501087047704770477047ED
:1033300070477047704770477047704770477047D5
:103340007047704770477047704790F82C302BB12A
:10335000C26EC26523B1436F03667047826EF8E7A1
:10336000036FF9E77047704730B4C268446855107E
:10337000034604EB6200D20748BF62599B6830BC29
:1033800048BFD358184743682BB183682BB9C0682E
:1033900000F001007047184670470120704790F810
:1033A0002D3080F85A30704710B57821044619F056
:1033B00005F8204610BD10B51021044618F0FEFF98
:1033C000204610BD10B540F6D441044618F0F6FF73
:1033D000204610BD0B7970B590F82C6004460D4660
:1033E0009BB98EB9B3FA83F35B0984F82C30236858
:1033F0002046D3F884309847236820465B69984775
:1034000016B12B79012B03D070BD002EFCD0E9E75B
:1034100023682046D3F88030BDE87040184700F19B
:103420009802914210B5034604D10368DB6ABDE8F7
:103430001040184700F58872914202D103681B6B57
:10344000F5E700F5C472914202D103685B6BEEE7C9
:1034500000F50072914202D103689B6BE7E700F52B
:103460001E72914202D10368DB6BE0E700F53C720B
:10347000914202D103681B6CD9E700F55A72914260
:1034800002D103685B6CD2E700F57872914202D1F9
:1034900003689B6CCBE700F58B62914202D1036815
:1034A000DB6CC4E700F59A62914205D10268526D67
:1034B000BDE810401846104700F5A962914202D1BC
:1034C0000268926DF4E700F5B862914202D1026899
:1034D000126DEDE700F5C762914202D10268D26D2C
:1034E000E6E700F5D662914202D10268526EDFE74C
:1034F00000F5E562914202D10268126ED8E700F64B
:103500000C43994205D10AF047F8BDE81040FEF798
:1035100057BD10BD70B50446FFF724F94FF47F4343
:103520002646A3850123002584F824300D4BA5628F
:10353000256346F8343B3046FFF734FB0A4B6363A0
:103540002A4629463046C4E91A55C4E91C55256661
:10355000A4F86450FFF718F92046314606F074FAD3
:10356000204670BD98E60108A0FA010810B4036770
:10357000019B436703685DF8044BD3F88430C0E9CE
:103580001A1218472DE9F04F2DED108B04469BB011
:103590000BF0DCFA22460025E14BE56342F8403BA4
:1035A00004F16C0B10464FF6FF7608EE102AFFF779
:1035B000F9FA262229465846ADF8606019F0B2F8AB
:1035C0005846FFF7CFF8D74BE366BDF86030A4F854
:1035D000923018A984F89460584608F0BAFA04F1B9
:1035E000980318460AEE103AFFF794FF04F5887323
:1035F00018460AEE903AFFF78DFF04F5C47318469B
:103600000BEE103AFFF786FF04F5007318460BEE39
:10361000903AFFF77FFF04F51E7318460CEE103A40
:10362000FFF778FF04F53C7318460CEE903AFFF76D
:1036300071FF04F55A7318460DEE103AFFF76AFF52
:1036400004F5787318460DEE903AFFF763FF04F522
:103650008B6318460EEE103AFFF75CFF04F59A6391
:1036600018460EEE903AFFF755FF04F5A963184689
:103670000FEE103AFFF74EFF04F5B86318460FEE51
:10368000903AFFF747FF04F5C76318460293FFF728
:1036900041FF04F5D66318460393FFF73BFF04F59B
:1036A000E56318460493FFF735FF04F5F46318A9A2
:1036B000184608EE903AADF8606007F0FBFA04F2A5
:1036C000CC731846984F0593FFF780FA04F60C0365
:1036D000C4F8CC771846C4F808580693FFF776FA72
:1036E00004F64803184609EE103AFFF76FFA04F69D
:1036F0008803C4F848781846C4F884580793FFF73D
:1037000065FA04F6C40318460893FFF75FFA04F558
:10371000106318460993FFF759FA04F63C1318464C
:103720000A93FFF753FA04F6781318460B93FFF742
:103730004DFA04F6B41318460C93FFF747FA04F554
:103740001F6318460D93FFF741FA04F62C23184621
:103750000E93FFF73BFA04F6682318460F93FFF722
:1037600035FA04F6A42318461093FFF72FFA04F550
:103770002E6318461193FFF729FA04F61C331846F6
:103780001293FFF723FA04F6583318461393FFF702
:103790001DFA04F6943318461493FFF717FA04F54C
:1037A0003D6318461593FFF711FA04F60C431846CB
:1037B0001693FFF7AFFE04F6844318A9184609EEE6
:1037C000903AADF8606007F075FA584BC4F8C43C05
:1037D000574BC4F8CC3C4FF4A07318EE100A00937A
:1037E0002A46F02329464FF07F4AC4F8C84CC4F853
:1037F000D05CFFF7C4F92A4629465846C4F868A0A9
:103800003226FEF7C1FF4FF00A0318A95846DFF829
:103810003081ADF860304FF0050908F09AF9334671
:1038200000962A46294604F1CC00FFF7A8F9414B3F
:10383000414A4249A4F8FC901AEE100ACDF80080E3
:1038400004F6C447FFF792FE33461AEE100A0096BC
:10385000AE220721FFF793F9334600962A46294600
:1038600004F5A270C4F8C870FFF789F9314B324AE9
:103870003249A4F874911AEE900ACDF80080FFF74F
:1038800075FE33461AEE900A0096AE223321FFF7FA
:1038900076F9334600962A46294604F5DE70C4F8C8
:1038A0004071FFF76CF9234B234A2449A4F8EC91AB
:1038B0001BEE100ACDF80080FFF758FE33461BEED2
:1038C000100A0096AE225F21FFF759F933460096A1
:1038D0002A46294604F50D70C4F8B871FFF74FF970
:1038E000144B154A1549A4F864921BEE900ACDF8C2
:1038F0000080FFF73BFE33461BEE900A0096DA226B
:103900000721FFF73CF9334600962A46294604F57D
:103910002B70C4F83072FFF732F9064B12E000BF8B
:1039200044E70108ACFB0108F8F901082CE701089D
:103930001F340008663300FFCC9900FF996600FF32
:10394000996633FFB44AB549A4F8DC921CEE100A1C
:10395000CDF80080FFF70AFE33461CEE100A0096F1
:10396000DA223321FFF70BF9334600962A4629461F
:1039700004F54970C4F8A872FFF701F9A84BA64AEC
:10398000A649A4F854931CEE900ACDF80080FFF7E6
:10399000EDFD33461CEE900A0096DA225F21FFF718
:1039A000EEF8334600962A46294604F56770C4F8B7
:1039B0002073FFF7E4F89A4B974A9849A4F8CC9300
:1039C0001DEE100ACDF80080FFF7D0FD33461DEE46
:1039D000100A00964FF484720721FFF7D0F833469F
:1039E00000962A46294604F21440C4F89873FFF75B
:1039F000C6F88B4B884A8949A4F844941DEE900A76
:103A0000CDF80080FFF7B2FD33461DEE900A009618
:103A10004FF484723321FFF7B2F8334600962A46FA
:103A2000294604F28C40C4F81074FFF7A8F87C4BC8
:103A3000794A7A49A4F8BC941EEE100ACDF80080A9
:103A4000FFF794FD33461EEE100A00964FF4847281
:103A50005F21FFF794F8334600962A46294604F280
:103A60000450C4F88874FFF78AF86D4B6A4A6B49B2
:103A7000A4F834951EEE900ACDF80080FFF776FD8D
:103A800033461EEE900A0096AE228C21FFF777F89F
:103A9000334600962A46294604F27C50C4F8007545
:103AA000FFF76DF85E4B5C4A5C49A4F8AC951FEEDD
:103AB000100ACDF80080FFF759FD33461FEE100ABB
:103AC0000096AE22B921FFF75AF8334600962A46EF
:103AD000294604F2F450C4F87875FFF750F8504BBB
:103AE0004D4A4E49A4F824961FEE900ACDF8008066
:103AF000FFF73CFD33461FEE900A0096DA228C2138
:103B0000FFF73DF8334600962A46294604F26C60DA
:103B1000C4F8F075FFF733F8414B3F4A3F4902982C
:103B2000A4F89C96CDF80080FFF720FD334602985C
:103B30000096DA22B921FFF722F8334600962A468A
:103B4000294604F2E460C4F86876FFF718F8344BAD
:103B5000314A32490398A4F81497CDF80080FFF752
:103B600005FD3346039800964FF484728C21FFF7CD
:103B700006F8334600962A46294604F25C70C4F8DB
:103B8000E076FEF7FCFF264B234A24490498A4F86C
:103B90008C97CDF80080FFF7E9FC33464FF4847230
:103BA00004980096B921FEF7EAFF18EE900A18A9CA
:103BB000C4F85877ADF8605007F0CBFF72233C2271
:103BC00018EE900A00930721E323FEF7D8FF18EEC2
:103BD000900A294607F035F81D2300930598CD2358
:103BE00047221221FEF7CBFF0E4BC4F8FCA71B683F
:103BF000A4F8005804F54B662BB90B4B0B4AAE21C9
:103C00000B4818F009FC0B4B1B88072B16D80A4BE6
:103C1000064AAF21F4E700BFCC9900FF996600FF88
:103C2000663300FF4C2C012038E401087AE40108D7
:103C3000A8E40108502C0120EFE40108CE4B072135
:103C4000186800F0E9FBCD4A0346042130460CF029
:103C500017FC4FF006020598C4F8086818A9C84E6A
:103C6000ADF86420189607F00DFC6622069807212F
:103C7000FEF78AFD08230698C4F83CA818A9A4F802
:103C80004058ADF86430189607F0FCFB832219EE1B
:103C9000100A1221FEF778FD04F6B8421792B94ACD
:103CA000C4F878A81368A4F87C58002BA5D0B64AAD
:103CB00013880A2BABD9B04B0A21186800F0ACFB73
:103CC000AE4A4946034617980CF0DAFB179BC4F836
:103CD000843819EE100A07F0B8FB092319EE100A10
:103CE00018A9ADF86430189607F0CCFB0798BB22F2
:103CF0001921FEF749FD0B230798A4F8BC5818A911
:103D0000C4F8B8A8ADF86430189607F0BBFB089863
:103D1000BB224621FEF738FD4FF00C030898A4F8AB
:103D2000F85818A9C4F8F4A8ADF86430189607F04C
:103D3000A9FB0998BB227221FEF726FD0998A4F879
:103D400034594FF00D0218A9C4F830A91896ADF8EF
:103D5000642007F097FB0A98E7221921FEF714FD6B
:103D60000E230A98A4F8705918A9C4F86CA9ADF8E4
:103D70006430189607F086FB0B98E7224621FEF781
:103D800003FD0F230B98A4F8AC5918A9C4F8A8A9EF
:103D9000ADF86430189607F075FB0C98E722722195
:103DA000FEF7F2FC10230C98A4F8E85918A9C4F8FF
:103DB000E4A9ADF86430189607F064FB0D9840F262
:103DC00015121821FEF7E0FC11230D98A4F8245ACF
:103DD00018A9C4F820AAADF86430189607F052FB71
:103DE0000E9840F215124621FEF7CEFC12230E98D3
:103DF000A4F8605A18A9C4F85CAAADF86430189603
:103E000007F040FB0F9840F215127221FEF7BCFC40
:103E100013230F98A4F89C5A18A9C4F898AAADF8CF
:103E20006430189607F02EFB1098E7229F21FEF7CA
:103E3000ABFC14231098A4F8D85A18A9C4F8D4AA33
:103E4000ADF86430189607F01DFB1198BB229D2138
:103E5000FEF79AFC15231198A4F8145B18A9C4F86E
:103E600010ABADF86430189607F00CFB129840F2D6
:103E70001512A121FEF788FC16231298A4F8505BB6
:103E800018A9C4F84CABADF86430189607F0FAFAEC
:103E90001398BB22CC21FEF777FC17231398A4F8C4
:103EA0008C5B18A9C4F888ABADF86430189607F09D
:103EB000E9FA149840F21512CC21FEF765FC18239C
:103EC0001498A4F8C85B18A9C4F8C4ABADF8643062
:103ED000189607F0D7FA1598E722CA21FEF754FC86
:103EE0001598A4F8045C1896192318A93626C4F866
:103EF00000ACADF8643007F0C5FA2A46294604F54F
:103F000044600096E323FEF73AFE16981F4B204AC2
:103F10002049A4F8709CCDF80080FFF727FB169885
:103F200000960622E3230721FEF729FE19EE900AE8
:103F30004FF00C0318A9C4F83C7CADF8603007F0D2
:103F400008FE28230D2219EE900A009358213923E8
:103F5000FEF715FE19EE900A2946251D06F071FEA2
:103F600018EE101A284605F06FFD5946284605F050
:103F70006BFD1AEE101A0FE0582C012041E50108E4
:103F8000D8DC01084C2C0120502C0120663300FFA6
:103F9000CC9900FF996600FF284605F055FD1AEE02
:103FA000901A284605F050FD1BEE101A284605F021
:103FB0004BFD1BEE901A284605F046FD1CEE101A2C
:103FC000284605F041FD1CEE901A284605F03CFD00
:103FD0001DEE101A284605F037FD1DEE901A2846F2
:103FE00005F032FD1EEE101A284605F02DFD1EEEDE
:103FF000901A284605F028FD1FEE101A284605F0F5
:1040000023FD1FEE901A284605F01EFD0299284652
:1040100005F01AFD0399284605F016FD0499284677
:1040200005F012FD18EE901A284605F00DFD0599D1
:10403000284605F009FD0699284605F005FD19EE0C
:10404000101A284605F000FD0799284605F0FCFCEB
:104050000899284605F0F8FC0999284605F0F4FC73
:104060000A99284605F0F0FC0B99284605F0ECFC6F
:104070000C99284605F0E8FC0D99284605F0E4FC6B
:104080000E99284605F0E0FC0F99284605F0DCFC67
:104090001099284605F0D8FC1199284605F0D4FC63
:1040A0001299284605F0D0FC1399284605F0CCFC5F
:1040B0001499284605F0C8FC1599284605F0C4FC5B
:1040C0001699284605F0C0FC284619EE901A05F00E
:1040D000BBFC20461BB0BDEC108BBDE8F08F00BFD1
:1040E0007047000030B5164D2C78BFF35B8F14F08D
:1040F00001048DB020D1284618F062F9E0B13F23C9
:104100000793104B0693104B104911480894CDE9C2
:10411000044301220423CDE90132052300930C223C
:104120001923CDE909440394FEF76AFA284618F0EA
:1041300053F9084818F08EF905480DB030BD00BF9E
:10414000481D0020B83A0208ACE70108BC34020858
:104150004C1D0020E14000087047000030B5154DAF
:104160002C78BFF35B8F14F001048DB01ED128466C
:1041700018F026F9D0B13F2307930F4B06930F4B4E
:104180000F49104808940122CDE904430423CDE9E6
:104190000132CDE909440A2303940094FEF730FA72
:1041A000284618F019F9084818F054F905480DB0D8
:1041B00030BD00BF741D0020BC3A0208B0E7010802
:1041C00064350208781D002059410008704700003E
:1041D00030B5154D2C78BFF35B8F14F001048DB012
:1041E0001FD1284618F0ECF8D8B13F2307930F4BA6
:1041F00006930F4B05930123CDE903330293042368
:10420000CDE900330B490C48089414235F22CDE913
:104210000944FEF7F5F9284618F0DEF8074818F0CB
:1042200019F905480DB030BDA01D0020C03A0208A4
:10423000B4E7010874350208A41D0020CD41000830
:104240007047000030B5154D2C78BFF35B8F14F02C
:1042500001048DB01ED1284618F0B2F8D0B13F232A
:1042600007930F4B06930F4B0F49104808940122F8
:10427000CDE904430423CDE90132CDE909442823E3
:1042800003940094FEF7BCF9284618F0A5F80848F6
:1042900018F0E0F805480DB030BD00BFCC1D00207F
:1042A000643C0208B8E70108A83A0208D01D0020C3
:1042B0004142000800207047002070470EB403B54B
:1042C00003AB002153F8042B019309F0BBFF02B0AC
:1042D0005DF804EB03B070470CB407B504AB53F8BA
:1042E000042B019309F0AEFF03B05DF804EB02B0BC
:1042F00070470000C36B10B5044673B3038E2BB92F
:10430000184B194ABF21194818F086F8C38D00EBE5
:1043100043035B8B0BB30BF0F9FA238E012B03D80D
:10432000134B144AC421EEE7E28D531C9BB2092BB8
:10433000194688BFA3F10A0104EB410140F63F1082
:10434000498B814209D10A2B04EB420228BF00238A
:1043500004EB4303508B588351832046BDE8104043
:104360000BF0B8B9BCE70108C5E7010870E801081F
:10437000BAE80108C8E801080BF066B910B586B0C4
:1043800002AC84E806001A460AAB05930193099B28
:1043900000932146089B08F066FC06B010BD0000A3
:1043A00038B518BB124B13481B681349B3B11A68D0
:1043B0009C681A4402605A681A440A601C440F4BF5
:1043C00000221A8000F038F8054600F033F80C4B54
:1043D0001C600C4B1D600C4B188007E00B4B0360FE
:1043E0000B4B0B600B4B1C68002CE8D138BD00BF99
:1043F000F81D0020FC1D0020001E0020041E0020CF
:104400004C2C0120542C0120502C0120D03C0208BF
:10441000683C02089C3D0208044B1B6853F82100CD
:10442000034B1B6803EB4000704700BF001E0020D9
:10443000FC1D00201A20704700487047081E00200D
:1044400010B5FFF7C5FE064C2060FFF7FBFE60606D
:10445000FFF784FEA060FFF745FEE06010BD00BFDF
:10446000081E0020704710B54FF4AC71044617F0D9
:10447000A5FF204610BD10B50446D0F8540100F049
:1044800015F82046BDE8104008F05EBF10B50446A0
:10449000FDF746FD014B2360204610BDA4E901084D
:1044A00000220260027132228260704770B50121E1
:1044B00004461348134E01F0F3F8003818BF0120EA
:1044C0002071304600F016FD0A21304600F0B1FDA3
:1044D000304600F001FE0546304600F08FFDADB2DB
:1044E0006523206821796B431B13A36003689B68D5
:1044F00098472068A1680368BDE87040DB681847EA
:1045000000000240F82F01207047704770470438C0
:104510007047704710B51021044617F04FFF204632
:1045200010BDA0F10400F5E710B500228260044A36
:10453000C16002F1080420320460426010BD00BF77
:10454000E0E9010870477047FEF7B9B810B54FF4BD
:10455000C871044617F032FF204610BD08B5034A63
:10456000034B0448872117F057FF00BF4CEA0108AE
:1045700010EA01087FEA010808B5054B1B680BB972
:10458000FFF7ECFF828EC08D131A5842584108BDC8
:10459000842C012008B59830FFF7EEFF024600B1E9
:1045A0000122BDE8084002484FF4005101F07EB8F6
:1045B0000018024008B5D030FFF7DEFF024600B118
:1045C0000122BDE8084002484FF4804101F06EB876
:1045D0000018024010B50446FEF702F9014B2360B3
:1045E000204610BDCCEA0108704704387047704778
:1045F00010B51021044617F0E1FE204610BDA0F1D1
:104600000400F5E710B500228260044AC16002F19F
:10461000080420320460426010BD00BF00EB0108B6
:1046200070477047FEF717BAB0F9A8320A4A10B5BA
:10463000002BC4BF03F1FF33A0F8A8320446B0F941
:10464000A832052100F51F700BF01AFF04F1980045
:10465000BDE8104009F017BF30EB010810B5B0F805
:10466000A832084A01331BB20446A0F8A83205213B
:1046700000F51F700BF004FF04F19800BDE8104036
:1046800009F001BF30EB010810B54FF42B7104465F
:1046900017F094FE204610BD10B50446FEF7DEFA72
:1046A000034B23600023A4F8A832204610BD00BFAE
:1046B0003CEB01087047043870477047C0680368D6
:1046C000DB6A1847A0F10400FFF7F8BFC068036871
:1046D0001B6B1847A0F10400FFF7F8BF10B51021BD
:1046E000044617F06BFE204610BDA0F10400F5E76C
:1046F00010B500228260044AC16002F10804283229
:104700000460426010BD00BF70EB01087047704745
:10471000FEF747BC80F8E910C43009F0B4BE0000D1
:1047200010B50B460446064A042100F5D4700BF080
:10473000A7FE04F1F000BDE8104009F0A4BE00BFE0
:1047400030EB010810B54FF4E071044617F036FE67
:10475000204610BD10B50446FEF780FC014B2360D7
:10476000204610BDB0EB0108704704387047704711
:1047700010B51021044617F021FE204610BDA0F10F
:104780000400F5E710B500228260044AC16002F11E
:10479000080420320460426010BD00BFE4EB010851
:1047A00070477047FEF7D0BD10B540F6D4410446BF
:1047B00017F004FE204610BD10B50446FEF7E2FED9
:1047C000014B2360204610BD1CEC0108F02070470F
:1047D0004FF4A07070472920FCF788BF2820FCF711
:1047E00085BF08B5FCF756FFCA20FCF77FFFC32042
:1047F000FCF760FF0820FCF75DFF5020FCF75AFF34
:10480000CF20FCF773FF0020FCF754FFC120FCF71A
:1048100051FF3020FCF74EFFED20FCF767FF6420CE
:10482000FCF748FF0320FCF745FF1220FCF742FF8E
:104830008120FCF73FFFE820FCF758FF8520FCF7BC
:1048400039FF0020FCF736FF7820FCF733FFCB2040
:10485000FCF74CFF3920FCF72DFF2C20FCF72AFF3A
:104860000020FCF727FF3420FCF724FF0220FCF790
:1048700021FFF720FCF73AFF2020FCF71BFFEA207E
:10488000FCF734FF0020FCF715FF0020FCF712FFB7
:10489000B120FCF72BFF0020FCF70CFF1B20FCF7DE
:1048A00009FFB620FCF722FF0A20FCF703FFA22035
:1048B000FCF700FFC020FCF719FF1020FCF7FAFE00
:1048C000C120FCF713FF1020FCF7F4FEC520FCF715
:1048D0000DFF4520FCF7EEFE1520FCF7EBFEC72090
:1048E000FCF704FF9020FCF7E5FE3620FCF7FEFE07
:1048F000C820FCF7DFFEF220FCF7F8FE0020FCF7F2
:10490000D9FEB020FCF7F2FEC220FCF7D3FEB620A1
:10491000FCF7ECFE0A20FCF7CDFEA720FCF7CAFE50
:104920002720FCF7C7FE0420FCF7C4FE2A20FCF772
:10493000DDFE0020FCF7BEFE0020FCF7BBFE0020E1
:10494000FCF7B8FEEF20FCF7B5FE2B20FCF7CEFEFF
:104950000020FCF7AFFE0020FCF7ACFE0120FCF7C6
:10496000A9FE3F20FCF7A6FEF620FCF7BFFE0120C3
:10497000FCF7A0FE0020FCF79DFE0620FCF79AFE47
:104980002C20FCF7B3FEC820FCF7FEFE2620FCF727
:10499000ADFE0120FCF78EFEE020FCF7A7FE0F2005
:1049A000FCF788FE2920FCF785FE2420FCF782FE18
:1049B0000C20FCF77FFE0E20FCF77CFE0920FCF7A4
:1049C00079FE4E20FCF776FE7820FCF773FE3C2043
:1049D000FCF770FE0920FCF76DFE1320FCF76AFE61
:1049E0000520FCF767FE1720FCF764FE1120FCF79A
:1049F00061FE0020FCF75EFEE120FCF777FE002060
:104A0000FCF758FE1620FCF755FE1B20FCF752FE63
:104A10000420FCF74FFE1120FCF74CFE0720FCF7AA
:104A200049FE3120FCF746FE3320FCF743FE4220CE
:104A3000FCF740FE0520FCF73DFE0C20FCF73AFE9B
:104A40000A20FCF737FE2820FCF734FE2F20FCF765
:104A500031FE0F20FCF72EFE1120FCF747FEC82088
:104A6000FCF792FE2920FCF741FEBDE808402C200F
:104A7000FCF73CBE08B5FCF70DFE0321D320FCF784
:104A800051FE80B208BD10B5C4B2022203212046F7
:104A9000FCF7B6FD0A20FCF7FBFD204600220321AF
:104AA000FCF7AEFDBDE810400220FCF7F1BD38B5C3
:104AB0000446E4B2FCF7A2FD00212046FCF7B8FD55
:104AC000012105462046FCF7B3FD40EA052080B2EF
:104AD00038BD10B5C4B240212046FCF7A9FD03063D
:104AE00007D54C212046FCF7A3FD003818BF012054
:104AF00010BD01224B212046FCF782FD20460022FA
:104B00004B21FCF77DFD0020F2E773B50423C4B20E
:104B10000E461546D7210DEB03022046FCF7A2FDF9
:104B2000019B1BBA1A0DC3F30B23328020462B8046
:104B300001224B21FCF764FD00224B212046FCF7AB
:104B40005FFD02B070BD000010B50A4B1A789042AC
:104B500004460DD0597888420AD00AB141B90122E1
:104B60009C54FCF74BFD2046BDE81040FFF78BBF7F
:104B700010BD00BF181E002010B5C4B20921204688
:104B8000FCF756FD40F00100C2B209212046BDE805
:104B90001040FCF735BD10B5C4B209212046FCF722
:104BA00047FD092100F0FE022046BDE81040FCF759
:104BB00027BD38B5C4B20D4620460A21FCF738FDA2
:104BC00040EA0502D2B220460A21BDE83840FCF78F
:104BD00017BD07B50190FCF712FD01981F21FFF7E3
:104BE000E8FF019803B05DF804EBFFF7C5BF38B5E7
:104BF000C4B20D4620460A21FCF71AFD20EA050240
:104C0000D2B220460A21BDE83840FCF7F9BC10B505
:104C10000446FFF7C0FF20461F21BDE81040FFF704
:104C2000E6BF10B5C0B20C460B21FCF701FD2040D9
:104C300010BD1F21FFF7F5BF0A46C0B20B21FCF7DC
:104C4000DFBC1F21FFF7F8BF38B5C4B20D462046C0
:104C50001721FCF7EDFC20EA0502D2B2204617210D
:104C6000BDE83840FCF7CCBC70B5C4B206460421A0
:104C70002046FCF7DDFC042100F0FB02054620463F
:104C8000FCF7BEFC3046F021FFF7DEFF05F0F8022E
:104C900020460421FCF7B4FC492220212046FCF7E1
:104CA000AFFC0220FCF7F4FC204601222121FCF796
:104CB000A7FC20469A224121FCF7A2FC20460122B3
:104CC0004A21FCF79DFC204601224B21FCF798FC71
:104CD000204600224B21FCF793FC2046012256215E
:104CE000FCF78EFC204601225821FCF789FC204667
:104CF00001224021FCF784FC2046FF220B21FCF717
:104D00007FFCBDE870400220FCF7C2BC054BD3F825
:104D1000882042F47002C3F888204FF000629A6045
:104D2000704700BF00ED00E008B50B4B1A6842F475
:104D300000721A601A6842F480621A601A6842F4BB
:104D400080721A60032000F067FA0020FCF792FFDF
:104D5000FCF728FD002008BD003C0240034A044B3C
:104D600011681B780B441360704700BF00310120AD
:104D700078000020014B1868704700BF0031012007
:104D800038B50446FFF7F6FF631C1CBF054B1B78C4
:104D9000054618BFE418FFF7EDFF431BA342FAD303
:104DA00038BD00BF7800002038B50446002800F068
:104DB0009B80056C25B9FCF715FD656484F83C50B3
:104DC000236CDB0600F18E80236C23F4885323F0E0
:104DD000020343F002032364444B5A6822F4403236
:104DE0005A605A6861680A435A60236821695A68A0
:104DF00022F480725A605A6842EA01225A605A6864
:104E0000A16822F040725A605A680A435A609A6850
:104E1000E16822F400629A609A680A439A60344911
:104E2000A26A8A4252D0996821F0706199609968AB
:104E30000A439A609A68E16A22F040529A609A683E
:104E40000A439A609A6822F002029A609A68217E68
:104E500042EA41029A6094F82020002A3ED05A6823
:104E6000616A42F400625A605A6822F460425A60F1
:104E70005A68013942EA41325A60DA6AE16922F439
:104E80007002DA62DA6A013942EA0152DA629A6839
:104E900022F400729A609A6894F8301042EA412233
:104EA0009A609A68616922F480629A609A68002028
:104EB00042EA81229A606064236C23F0030343F08A
:104EC00001032364002384F83C3038BD9A6822F043
:104ED00070629A609A6822F04052B2E75A6822F4EF
:104EE0000062C9E70120EDE70120EEE70023014061
:104EF0000100000F13B50023019390F83C30012B03
:104F00006CD00123026880F83C309368D9070CD537
:104F1000936813F001031AD1026C42F0100202648C
:104F2000426C42F00102426456E093682D4943F01E
:104F3000010393602C4B1B68B3FBF1F303EB4303BA
:104F40000193019B002BE3D0019B013BF8E7036C2D
:104F5000264C23F4E06323F0010343F480730364DD
:104F600053685B0541BF036C23F4405343F4805303
:104F70000364036C13F480531CBF436C23F00603DB
:104F800043646FF02201002380F83C30116018491F
:104F9000486810F01F0019D1A24206D0154B9A4262
:104FA0000DD14B6813F01F0F07D1906810F04050DF
:104FB00016D1936843F08043936002B010BD0E4B4E
:104FC0009A42FAD14B6813F0100FEDE7A24207D1D5
:104FD000906810F04050ECD01846EEE70220ECE765
:104FE0000020EAE740420F0074000020002001404A
:104FF00000230140002101400022014090F83C3094
:10500000012B14D003689A6822F001029A609B6811
:10501000DB0707D4036C23F4885323F0010343F028
:1050200001030364002380F83C30184670470220D7
:10503000704703689A68520570B504460D460BD553
:105040009B68DE0508D5036C43F02003036400234E
:1050500080F83C30012070BDFFF78CFE06462368C7
:105060001A6891070CD56FF012021A60226C42F494
:10507000007222649A6812F0405F17D00020EAE7BD
:10508000681CEDD065B923681B6813F00203E6D1F4
:10509000226C84F83C3042F0040222640320DAE7F8
:1050A000FFF768FE801BA842EDD8D8E7207E0028D5
:1050B000E4D1DA6A12F4700F02D09B685A05DDD48D
:1050C000236C23F480732364236CDB04D6D4236C19
:1050D00043F001032364BEE70368D86C7047000007
:1050E000F7B50023019390F83C30012B69D00123E0
:1050F00080F83C300D6803688E68092DACB234D955
:1051000004EB4402DF681E3A4FF0070C0CFA02FC75
:1051100027EA0C07DF60DF6806FA02F23A43DA603A
:105120004968062901EB81022FD8596B053A1F26E1
:10513000964021EA06015963596B04FA02F20A43C8
:105140005A63304A93420AD1122D3CD12E4B5A68F1
:1051500022F400025A605A6842F480025A60002326
:1051600080F83C30184603B0F0BD1F6905EB4502DE
:105170004FF0070C0CFA02FC27EA0C071F611F69AD
:1051800006FA02F23A431A61CAE70C294FF01F01EE
:105190000BD81E6B233A914026EA01011963196B63
:1051A00004FA02F20A431A63CBE7DE6A413A9140FD
:1051B00026EA0101D962D96A04FA02F20A43DA62E4
:1051C000BFE70220CFE7114B9D4201D0112DC6D180
:1051D0000D4B5A6822F480025A605A6842F4000269
:1051E0005A600A4B9D42BAD1094B0A4A1B68B3FB6D
:1051F000F2F20A2353430193019B002BAFD0019B92
:10520000013BF8E70020014000230140120000109C
:105210007400002040420F000749CA6822F4E0628F
:105220000302120403F4E063120C134343F0BF6360
:1052300043F40033CB60704700ED00E0164B30B50F
:10524000DC68C4F30224C4F10705231D042D28BF24
:105250000425062B4FF0FF338CBF033C002403FAD8
:1052600005F521EA0501A34022EA0302A140002836
:1052700041EA0203ACBF00F16040084A4FEA031361
:10528000B8BF00F00F00DBB2AABF00F561401354B5
:1052900080F8003330BD00BF00ED00E014ED00E009
:1052A000002808DB4209012300F01F0003FA00F088
:1052B000014B43F82200704700E100E010B50446BE
:1052C00050B1437903F0FF0213B90271FCF7BCFA45
:1052D00001236371002010BD0120FCE710B50446D6
:1052E00030B390F8393003F0FF021BB980F8382052
:1052F000FCF7C2FA22686168022384F83930136827
:1053000023F440330B431360536BA16823F007036E
:105310000B435363136CE16823F47F5323F03F0383
:105320000B43136400200123E06384F8393010BD7F
:105330000120FCE770477047036870B55E681D6820
:10534000F207044614D5E90512D51A6822F48072D2
:105350001A60C26B42F00102C26301229A60042308
:1053600080F83930002380F83830436903B198471A
:10537000B20616D5AB0414D523681A6822F400527D
:105380001A6020229A60E36B43F00203E363042374
:1053900084F83930002384F8383063690BB1204633
:1053A0009847300716D5290514D523681A6822F4C2
:1053B00000621A6008229A60E36B43F00403E3631F
:1053C000042384F83930002384F8383063690BB142
:1053D0002046984772070BD56B0509D523681A68D4
:1053E00022F480621A6004229A602046FFF7A2FF2E
:1053F000B00714D5A90512D523681A6822F40072E3
:105400001A6002229A60E36BE363012384F8393067
:10541000002384F8383023690BB120469847F20600
:1054200013D5EB0411D523681A6822F480521A6050
:1054300010229A60E36BE363012384F83930002380
:1054400084F838302046FFF776FF70BDF0B590F84D
:105450003830012B4FF002032BD0012280F8393075
:1054600080F8382000EB0113D3E907425D6A184F3A
:1054700044EA0242093C012C9CBF05F07F431A43D9
:105480004FEA0116036888BF42EA056299B9596A72
:1054900039400A435A62012C82699A6103D8426AF0
:1054A00022F07F429A62012380F83930002380F88D
:1054B00038301846F0BDD96939400A43DA6182199B
:1054C000012C92691A619CBF25F07F451D62EAE7B5
:1054D000F0FFFC002DE9F74FDFF8C0916D4A002383
:1054E0000D6801249C4004EA050CAC4340F0B980EF
:1054F0004D6805F003044FEA43080326671E06FAC9
:1055000008F6012F6FEA060634D8876807EA060E08
:10551000CF6807FA08F747EA0E078760476827EA67
:105520000C0EC5F300179F4047EA0E074760C76897
:1055300007EA060E8F6807FA08F747EA0E07022CFB
:10554000C76019D14FEAD30A00EB8A0A03F0070BB0
:10555000DAF820704FEA8B0B4FF00F0E0EFA0BFEAD
:1055600027EA0E0E0F6907FA0BF747EA0E07CAF88B
:10557000207001E0032CDAD1076804FA08F43E40F9
:10558000264315F4403F06606BD04FF0000ACDF87B
:1055900004A0D9F84460404C46F48046C9F8446001
:1055A000D9F8446006F480460196019E23F0030674
:1055B00006F1804606F59C3603F0030ED6F8088007
:1055C0004FEA8E0E0F2707FA0EF7A04228EA0707C8
:1055D0004ED004F58064A0424CD004F58064A04213
:1055E0004AD004F58064A04248D004F58064A0420B
:1055F00046D004F58064A04244D004F58064A04203
:1056000042D004F58064A04240D004F58064A042FA
:105610003ED004F58064A0420CBF09240A2404FA99
:105620000EF43C43B46014686FEA0C06EF0354BFF9
:1056300034404CEA040414605468AF0354BF34404F
:105640004CEA040454609468EF0254BF34404CEABE
:1056500004049460D468AD0254BF34404CEA04049E
:10566000D4600133102B7FF43BAF03B0BDE8F08F63
:105670005446D4E70124D2E70224D0E70324CEE73E
:105680000424CCE70524CAE70624C8E70724C6E7B4
:105690000824C4E7003C01400000024000380240FA
:1056A0000369194214BF0120002070470AB18161CB
:1056B00070470904FBE701684B6913F480634FF0FE
:1056C000000210D06FF480634B612023026380F8E6
:1056D0003D3080F83E20036C80F83C2043F004030A
:1056E000036401207047184670472DE9F0410446D5
:1056F0000F46164698462568686927EA000080B27A
:10570000B8B16B695A0516D52B6843F400732B604A
:105710006FF480636B6120220023236384F83D20B3
:1057200084F83E30226C42F00402226484F83C305B
:105730000120BDE8F081731CDED0FFF71BFBA0EB5E
:105740000800B04201D8002ED5D1002320222363C7
:1057500084F83D2084F83E30226C42F02002E4E7D9
:1057600070B504460D46164623685B695B0701D594
:10577000002070BD2046FFF79EFFA8B96A1CF3D039
:10578000FFF7F8FA801BA84201D8002DECD10023C6
:105790002022236384F83D2084F83E30226C84F874
:1057A0003C3042F0200222640120E2E770B504465A
:1057B0000D46164621684B6913F0400301D00020C6
:1057C00010E04A69D2060ED56FF010024A6120221D
:1057D000236384F83D2084F83E30226C226484F8F0
:1057E0003C30012070BDFFF7C5FA801BA84201D8EC
:1057F000002DDFD100232022236384F83D2084F88C
:105800003E30226C42F02002E8E72DE9F8460646D9
:105810000F4691461D464FEA114A3368BAF1010F0F
:105820000CBF5C699C6927EA0404A4B2B4FA84F44E
:105830006409A14501D0002017E06A1CEED0FFF7F3
:1058400099FA089BC01AA84201D8002DE5D100237F
:105850002022336386F83D2086F83E30326C86F88D
:105860003C3042F0200232640120BDE8F88670B579
:1058700004460D46164623685B691B0601D50020C9
:1058800070BD2046FFF717FFA8B96A1CF3D0FFF7D9
:1058900071FA801BA84201D8002DECD100232022F0
:1058A000236384F83D2084F83E30226C84F83C3039
:1058B00042F0200222640120E2E700002DE9F043DB
:1058C0001546026885B0DDE90C789946136843F403
:1058D000807313600E463B46CDF8008000224FF0E7
:1058E00001110446FFF791FF236838B11B68DB05FF
:1058F00002D54FF40073236403200AE006F0FE068D
:105900001E61194943463A462046FFF7EEFE18B19C
:10591000012005B0BDE8F083236803905A69039223
:105920009B690393424639462046039BFFF79FFF3E
:1059300040B1236C042B01BF2268136843F4007349
:105940001360E5E7B9F1010F236802D1EDB21D61E3
:10595000DFE72A0A1A61394642462046FFF787FFE9
:105960000028E6D12368F1E7020001002DE9FF4796
:105970009A46036815461A6842F480621A601A68EB
:10598000DDE90C7842F480721A600E463B46CDF891
:10599000008000224FF001110446FFF736FF236814
:1059A00048B11B68DB0502D54FF400732364032064
:1059B00004B0BDE8F0875FFA86F906F0FE061E61C6
:1059C0002A4943463A462046FFF78FFE08B1012098
:1059D000EEE7236803905A6903929B69039342465A
:1059E00039462046039BFFF742FF40B1236C042B4E
:1059F00001BF2268136843F400731360E7E7BAF14C
:105A0000010F23681AD1EDB21D6142463946204686
:105A1000FFF72DFF0028E9D12268136843F4807353
:105A200013604FF001110246CDF800803B4620463E
:105A3000FFF7EBFE226860B11368B3E72A0A1A6128
:105A4000394642462046FFF712FF0028CED1236890
:105A5000D9E749F001031361044943463A46204619
:105A6000FFF743FE003818BF0120A1E70200010044
:105A700070B5044608B9012070BD90F83D3003F0C0
:105A8000FF021BB980F83C20FBF718FF242384F8A1
:105A90003D3023681A6822F001021A601A6842F445
:105AA00000421A601A6822F400421A6000F070FE88
:105AB0003F4A6368934294BF3E4A3F4A90428CBF3C
:105AC00000220122002AD6D121683C4E4A68B0FB50
:105AD000F6F622F03F0232434A60354A0D6A93429D
