:020000040800F2
:100000000000032089050008F11C0008F31C00080B
:10001000F51C0008F71C0008F91C0008000000008F
:100020000000000000000000000000002183000824
:10003000FB1C000800000000B1830008197C0008C8
:10004000D9050008D9050008D9050008D905000818
:10005000D9050008D9050008D9050008D905000808
:10006000D9050008D9050008D9050008D9050008F8
:10007000D9050008D9050008D9050008D9050008E8
:10008000D9050008D9050008D9050008D9050008D8
:10009000D9050008D9050008D9050008D9050008C8
:1000A000D9050008D9050008D9050008D9050008B8
:1000B000D9050008D9050008D9050008D9050008A8
:1000C000D9050008D9050008D9050008D905000898
:1000D000D9050008D9050008D9050008D905000888
:1000E000D9050008D9050008D9050008D905000878
:1000F000D9050008D9050008D9050008D905000868
:10010000D9050008D9050008D9050008D905000857
:10011000D9050008D9050008FD1C0008D90500080C
:10012000D9050008D9050008D9050008D905000837
:10013000D9050008D9050008D9050008D905000827
:10014000D9050008D9050008D9050008D905000817
:10015000D9050008D9050008D9050008D905000807
:10016000D9050008D9050008D9050008D9050008F7
:10017000D9050008D9050008D905000800000000CD
:10018000D9050008D9050008D9050008D9050008D7
:10019000D9050008D9050008D9050008D9050008C7
:0C01A000091D0008D9050008151D000805
:1001B00010B5054C237833B9044B13B10448AFF3A1
:1001C00000800123237010BD6401002000000000A6
:1001D000A4DD010808B5034B1BB103490348AFF385
:1001E000008008BD0000000068010020A4DD0108B7
:1001F00001F0FF01102A2BDB10F0070F08D010F8D8
:10020000013B013A8B422DD010F0070F42B3F6D1DB
:10021000F0B441EA012141EA014122F007047FF0F4
:1002200000070023F0E80256083C85EA010586EA4B
:10023000010685FA47F5A3FA87F586FA47F6A5FA87
:1002400087F68EB9EED1F0BC01F0FF0102F0070293
:1002500032B110F8013B013A83EA010313B1F8D13E
:100260000020704701387047002D06BF354603381F
:10027000073815F0010F07D1013015F4807F02BF58
:10028000013015F4C03F0130F0BC0138704700BFA9
:1002900053B94AB9002908BF00281CBF4FF0FF31ED
:1002A0004FF0FF3000F06EB9ADF1080C6DE904CEEF
:1002B00000F006F8DDF804E0DDE9022304B0704741
:1002C0002DE9F047089D04468C46002B40F08380C2
:1002D0008A42174647D9B2FA82F242B1C2F12000EF
:1002E00024FA00F09140974040EA010C94404FEA14
:1002F0001748230CBCFBF8F61FFA87FE08FB16C153
:1003000043EA014306FB0EF1994209D9FB1806F1B5
:10031000FF3080F01981994240F21681023E3B4441
:100320005B1AA4B2B3FBF8F008FB103344EA0344B1
:1003300000FB0EFEA64509D93C1900F1FF3380F001
:100340000581A64540F2028102383C4440EA06405D
:10035000A4EB0E0400261DB1D4400023C5E90043E0
:100360003146BDE8F08702B9FFDEB2FA82F2002A18
:1003700050D1CB1B4FEA174E1FFA87F80126B3FB6B
:10038000FEFC210C0EFB1C3341EA034108FB0CF37D
:100390008B4207D979180CF1FF3002D28B4200F260
:1003A000E9808446C91AA3B2B1FBFEF00EFB10111E
:1003B00043EA014408FB00F8A04507D93C1900F1C5
:1003C000FF3302D2A04500F2D9801846A4EB0804FE
:1003D00040EA0C40BFE78B4209D9002D00F0B18004
:1003E0000026C5E9000130463146BDE8F087B3FA82
:1003F00083F6002E4AD18B4202D3824200F2B880AB
:10040000841A61EB030101208C46002DA8D0C5E9B8
:10041000004CA5E7C2F1200320FA03F6974001FA49
:1004200002F04FEA174ED9403043030CB1FBFEF601
:100430001FFA87F80EFB161143EA014306FB08F189
:10044000994204FA02F409D9FB1806F1FF3C80F046
:100450008D80994240F28A80023E3B445B1A81B211
:10046000B3FBFEF00EFB103341EA034100FB08F33F
:100470008B4207D9791800F1FF3C73D28B4271D9B6
:1004800002383944CB1A40EA064678E7C6F1200C18
:1004900003FA06F422FA0CF31C4320FA0CF701FAD3
:1004A00006F34FEA144E21FA0CF11F433B0CB1FB4B
:1004B000FEF91FFA84F80EFB191143EA014109FB0A
:1004C00008FA8A4502FA06F200FA06F308D961181A
:1004D00009F1FF3048D28A4546D9A9F102092144E1
:1004E000A1EB0A01BFB2B1FBFEF00EFB101147EA0F
:1004F000014700FB08F8B84507D9E71900F1FF31BB
:100500002ED2B8452CD90238274440EA0940A7EB3F
:100510000807A0FB02894F45C64649461AD317D0A3
:100520005DB1B3EB0E0267EB010707FA0CFCF2407A
:100530004CEA0202F740C5E9002700263146BDE833
:10054000F0872E4628460BE70646E9E61846FDE604
:100550004345E5D2B8EB020E69EB04010138DFE751
:100560000846D2E760468DE78146B9E7664675E7FB
:1005700030464AE7ACF1020C394413E702383C44F8
:1005800024E700BF704700BFDFF834D0002103E04C
:100590000C4B5B58435004310B480C4B42189A42A9
:1005A000F6D30B4A02E0002342F8043B094B9A427F
:1005B000F9D304F0F9FE1CF0C3FB00F02BFE7047EA
:1005C00000000320487B090800000020640100208F
:1005D0006401002084320120FEE700F035BC00F009
:1005E000A3BC704710B5042104461CF037FA20461E
:1005F00010BD000038B50C4B0C4C18800C4B822001
:1006000019806368984740F6110398420AD1094D52
:1006100023682C60822098472B688220DB689847EB
:10062000002038BD0120FCE7800100204C000020A4
:1006300082010020840100204FF4A071F020FFF718
:10064000D9BF0000F7B5344D2B6804461B698220E2
:10065000984780B2208000284CD02B680DF106020C
:100660005B6901A982209847BDF8063040F67462A4
:10067000934241D9ADF80620BDF80620C2F5676265
:10068000043292B20A2A3DD90B23B2FBF3F2234B78
:100690001B889A4201D95A1E92B2BDF8043040F626
:1006A000B8318B4230D8C3F571630E339BB20F2142
:1006B000B3FBF1F31A4909888B4201D94B1E9BB257
:1006C000184E194D30682F68834281B28CBF591A79
:1006D000C91AB8B2BA428CBF101A801A89B280B255
:1006E00001440529C8BF33603368C8BF2A606380EE
:1006F0002B68A38003B0F0BDB32B9CBFB423ADF82F
:100700000630B9E70022C8E7C3F56D6308339BB232
:100710000E2BCCD80023D3E78401002082010020D7
:1007200080010020880100208C01002037B5684638
:100730000D461446FFF786FFBDF8000030B1BDF846
:1007400002302B60BDF804302360012003B030BDBF
:10075000704770477047012380F8741080F8753037
:1007600070470020704700207047836B0BB108462C
:10077000184770474FF6FF707047406803689B69E1
:10078000184770477047704770B5044600F06EFC1C
:100790002368D3F88050044BD4E90F122046AC46AE
:1007A000BDE87040604700BF000000D008B531B917
:1007B0000A4B0B4A0B484FF425711CF07DF9C0E938
:1007C0000F12003A0849436418BF01220A70003B27
:1007D000064A18BF0123137008BD00BF1CDE0108C4
:1007E00054DE0108A2DE01082A2D01202B2D012054
:1007F00008B5036804469B6F9847236820461B6F23
:10080000984700F0B5F8236820469B6E984729204A
:1008100000F06CFF00F0ACF8236820469B6E984710
:10082000F8E710B504460AF0E7FB23682046D3F842
:10083000A030BDE81040184700F00ABC00F00EBC24
:1008400000F032BC00F0E0BB00F032BC00F03ABC7B
:1008500000F0E4BB09F088BD10B57C2104461CF013
:10086000FDF8204610BD90F877301BB14068036852
:100870001B6818471846704730B590F8341090F848
:100880007440104B8C421A780DD05AB90E4A0F4959
:100890000F4814880F4D0C80018811802980048036
:1008A00001221A7030BD002AFCD00948074A01888D
:1008B0001180054A074D14882C8011800480002285
:1008C000EFE700BF242D0120202D0120262D01203F
:1008D000222D0120282D0120012108B500220846E3
:1008E00007F03CFA0A4B186028B90A4B0A4A27213C
:1008F0000A481CF0E1F800220421012007F0CCFA9C
:10090000074B186018B9074B034A2B21F0E708BDC5
:1009100094010020B4DF0108FDDF01082CE001088C
:100920009001002072E00108024B4FF0FF3118687F
:1009300007F05EBA94010020014B186807F084BAF2
:1009400094010020024B0021186807F051BA00BF43
:1009500094010020FFF7F0BF03480449006800231A
:100960001A4607F0D5BA00BF90010020040000200D
:1009700013B5084C00231A4601A9206807F0F8FABD
:1009800020684FF0FF33002201A907F0F1FA02B00E
:1009900010BD00BF9001002007F0C2B903685B6C76
:1009A00018470120704703689B6A184782B00023EC
:1009B00001930D4B1A6B42F400021A631A6B02F496
:1009C00000020192019A1A6942F400021A611A693E
:1009D00022F400021A61054B054A1A61054B4FF0DB
:1009E00080629A6002B07047003802407431012082
:1009F000010A000800E100E040F2EF30704700001B
:100A0000024B1B68586803685B6918472C2D01204E
:100A100008B50B280BD8DFE800F01206100A0A0A06
:100A20000A0808080808012008BD0520FCE7054B56
:100A3000054A064865211CF03FF80020F4E7022033
:100A4000F2E700BFB4E00108CFE001081BE10108B4
:100A500008B50A2809D8DFE800F010060E080808D3
:100A6000080606060600012008BD054B054A064893
:100A700086211CF021F80020F6E70220F4E700BFF1
:100A8000B4E001085FE101081BE101082DE9F8432A
:100A900091F81D800C464046FFF7BAFFA77F054638
:100AA0003846FFF7B5FF06463846FFF7D1FFA18A63
:100AB000628B534B521A1A649A61228B521A1A6132
:100AC000E28A586342EA01425A6421696268D96342
:100AD000DA60D4F800C094F81C90BCF1800F4FEAA3
:100AE00009629E463BD015D8BCF1200F45EA0200B2
:100AF00079D0BCF1400F76D0BCF1040F2BD0404B25
:100B00002A4342F40032B845DA6114BF3D4A40F24C
:100B100001221EE0BCF5807F07D0BCF5007FEED13E
:100B200042F4003242F0090203E042F4003242F0A3
:100B30000A02DA61E0680202440102F4780204F475
:100B40007C44C0002243C0B202431A622E4A5E6255
:100B500059611A6043E040F40030D861F6E7A068BC
:100B60002A4342F40032041DDC62DA6102785E62DC
:100B7000596142B1012A1CD0244B254A25484FF423
:100B800088711BF099FF4288D969501E21F47F4279
:100B900022F0100242EA0022DA610125184CE369D2
:100BA00043F02003E361E3699B0613D5FFF7F4FEEE
:100BB000F9E74288D969501E21F47F4222F01002E1
:100BC00042EA0022B9F1FF0542F0100218BF0125E8
:100BD000DA61E3E71023A3601DB10B4B2360BDE88E
:100BE000F883084BFAE7084B40F40030CEF81C00BD
:100BF000CEF82460CEF81410CEF80030EFE700BF36
:100C000000B002400102010001020200ACE1010853
:100C1000C6E101081BE10108F8B58E7F0C4630469D
:100C2000FFF716FFA78AE18A628B1E4B256958637E
:100C300041EA0741D21B5964DD631A64216808291F
:100C400018D19A611A615862217F174A42EA0162FB
:100C5000DA61E1680A02480102F4780200F47C409B
:100C6000C9000243C9B20A431A62104A5D61DD60DD
:100C70001A60F8BD0022D8611A61E1681EB9996353
:100C8000084B0B4AF4E70A02480102F4780200F428
:100C90007C40C900C9B202430A43217F42EA016293
:100CA0009A63EDE700B00240090001000102020072
:100CB00001020300054B0360054B4FF08062C3F84F
:100CC0008820BFF34F8FBFF36F8F704710E201088A
:100CD00000E100E010B50446FFF7ECFF20464FF4BA
:100CE00042611BF0BBFE204610BD000070B50446FB
:100CF00025460A4B0C30002660602672667245F865
:100D0000203B602229460AF0B1FA04F54263EE6006
:100D10002035AB42FBD1204670BD00BF10E2010878
:100D2000012070470C2070470C2303FB01000830A2
:100D300070470C2303FB0100083070470120704707
:100D400040F60460704740F6046303FB010008307E
:100D5000704740F6046303FB010008307047012030
:100D600070471020704700EB01100830704700EB0F
:100D7000011008307047084601F002B910B5034B66
:100D80000360044609F006F9204610BDC8E20108D8
:100D900010B50446FFF7F2FF204614211BF05EFE5B
:100DA000204610BD10B5034B0360044609F0F2F86D
:100DB000204610BD94E2010810B50446FFF7F2FF8B
:100DC000204640F60C611BF049FE204610BD000095
:100DD00010B5034B0360044609F0DCF8204610BD53
:100DE00060E2010810B50446FFF7F2FF2046182123
:100DF0001BF034FE204610BD10B5084B03600446BE
:100E000000F63860FFF7BAFF04F12C00FFF7CAFFC5
:100E100004F11400FFF7DCFF204610BDFCE20108DE
:100E200008B50248FFF7E8FF08BD00BF9C0100209D
:100E300010B50446FFF7E0FF20464FF47B611BF03E
:100E40000DFE204610BD00002DE9F34100F0DAFF51
:100E5000054600F0DBFF00240146234628462246D3
:100E600000940FF029FF254B254A264D1A60204695
:100E700003F052FB24480FF061FE2B78BFF35B8F29
:100E8000DB0735D428461BF0EBFD88B31F4C204B05
:100E9000236004F6586604F1140004F12C0804F6EB
:100EA00038676060C4F80880E760266109F074F86C
:100EB000184B6361404609F06FF8174BE362384600
:100EC00009F06AF8154BC4F8383E04F64C6003F09C
:100ED000A3FB224604F64C61304603F093FB3046F8
:100EE00001F04EF828461BF0C7FD0D481BF002FE2E
:100EF0000C4802B0BDE8F041FFF746BC882D012048
:100F0000EC1D002098010020080000209C0100201A
:100F1000FCE2010860E2010894E20108C8E201086D
:100F2000210E0008701D00200148FFF761BC00BFC2
:100F3000701D002070B5244C244E254B254D236098
:100F40003046FFF7D3FE284612F03AFF224B2348E3
:100F5000DC6000224FF48071C3E912122049036063
:100F600020481A85C3E91912C3E901654FF0807161
:100F70001D4D5967F024012104804FF4A070C3E98E
:100F80000422C3E90622C3E90822C3E90E22C3E909
:100F90001022C3E91422C3E9162283F82A20DA6258
:100FA0001A861A6683F86C201A6783F878102880EE
:100FB0000E4D83F834102A700D4A14800D4A1080AB
:100FC0000D4A1A6070BD00BF4C1100205011002066
:100FD0000CDE0108F01D0020701D00202C2D0120CA
:100FE00001000001202D0120222D0120242D0120AF
:100FF000262D0120282D0120F0DE01080148FFF7F1
:1010000059BE00BF50110020034B902283F85A2391
:1010100083F85823704700BF00E100E0094A0A49FD
:10102000D3680A48C3F30A03013B9BB20B801169E2
:10103000C1F30A01013901801364536B43F00103CA
:1010400053637047006801406A1E0020681E00203C
:10105000014B986A704700BF84680140024B01222F
:10106000996243F8602C70478468014070B504466B
:1010700009F0CDF92368DD6D0CF0DEFD0146204658
:10108000A8472368054AD3F880502046AC46002381
:10109000BDE87040A2F51631604700BF00B004D033
:1010A00009F09CB909F0A6B909F064B909F0BDBA14
:1010B000034B4FF080629A604FF080729A607047E5
:1010C00000E100E0084B4FF08062C3F88820BFF3D6
:1010D0004F8FBFF36F8F4FF08072C3F88820BFF33C
:1010E0004F8FBFF36F8F704700E100E0134B144A3E
:1010F0001B6C11888B4210B5124C13D1124B1988FE
:1011000005F000FC226892F86630013382F8663000
:10111000FFF722FC206809F06FFFBDE810400020B7
:10112000FFF716BB05F0EEFB0020FFF712FB20686F
:101130000368BDE81040DB69184700BF0068014044
:101140006A1E00202C2D0120681E002007B5064BCA
:10115000ADF806001B68054801220DF1060106F0F6
:101160000DF903B05DF804FB1000002020300120D1
:1011700008B5642006F0E6FDFBE7000030B595B049
:10118000102200210AA81BF021FE1422002103A82E
:101190001BF01CFE00241D4B01941A6C42F080527F
:1011A0001A641B6C03F080530193019B184B02944B
:1011B0001A6842F440421A601B6803F440430293E9
:1011C0000122029B4FF48033CDE9082302254FF41E
:1011D0008003CDE90E5308214FF4A873CDE9101315
:1011E00008A804231393129505F0AAFB0F23CDE959
:1011F00003354FF4A0504FF48053CDE90603052189
:1012000003A8059405F076FD15B030BD0038024006
:10121000007000402DE980489BB004F0D3F8FFF740
:10122000ADFF142200210DA800241BF0CFFDC44BFC
:1012300000941A6BC348C44D42F020021A631A6B23
:1012400002F020020092009A01941A6B42F0800290
:101250001A631A6B02F080020192019A02941A6BCF
:1012600042F004021A631A6B02F004020292029A1C
:1012700003941A6B42F001021A631A6B02F0010226
:101280000392039A04941A6B42F002021A631A6BD7
:1012900002F002020492049A05941A6B42F0400292
:1012A0001A631A6B02F040020592059A06941A6BB3
:1012B00042F010021A631A6B02F010020692069AAC
:1012C00007941A6B42F008021A631B6B03F00803C1
:1012D000079322460421079B04F036FD9B482246D3
:1012E0004FF4405104F030FD224699484FF4C0417C
:1012F00004F02AFD012602274FF0040891480F94BC
:101300000DA9CDE90D86109704F032FC91480F9796
:101310000DA9CDE90D6404F02BFC4FF440538B482C
:101320000DA9CDE90D36CDE90F4704F021FC0DA93B
:101330004FF4C0438648CDE90D36CDE90F4404F0A3
:1013400017FC8548854B036004F006FB844A854BF7
:101350002C62C5E9002328464FF48043C5E90434D4
:10136000C5E90244C5E9064404F0D0FE1021284630
:1013700005F00CF92146284605F027F97A487B4903
:1013800084624FF48273C0E900134FF40075182390
:10139000C0E906530A23764DC362C0E90244C0E99E
:1013A0000444C0E9084405F08DFF724B0D97C5E970
:1013B00000364FF0100A4023C5E904A34FF4C07370
:1013C000C5E906344FF40063C5E908344FF400530F
:1013D000AB624FF0030B07230DA92846CDE90E3869
:1013E00010934FF00809C5E90248CDE911B71397EA
:1013F00005F074FE4FF6FF7209A92846CDE90A965A
:10140000089409960C9405F089FE304604F006F81D
:101410004FF6FF7209A92846CDE90979CDE90B6499
:1014200005F07CFE4FF6FF7209A92846CDE909B9FF
:10143000CDE90B8405F072FE4FF40C730893089B02
:101440000C934FF6FF7209A92846CDE909890B963E
:1014500005F064FE40F26A51284605F076FE34221B
:1014600021460DEB02001BF0B1FC434D434BAC8613
:10147000C5E900340923C5E905361D2340F20D1CDA
:10148000C5E9073B40F24313C5E909C340F2171E03
:1014900040F247132846C5E90BE3C5E902442C6135
:1014A00085F8364005F036F9FF21F022CDE9121417
:1014B0004FF4806805214FF4A073CDE90E24CDE9E7
:1014C0001481CDE916420DA922462846CDE91037F0
:1014D0002B4D18930D94ADF864408DF8664005F0DF
:1014E000E4F9284B2B601B68DFF8AC9098472B6819
:1014F000254DDB689847254BC5E90A47C5E90C44EB
:101500002846C5E90034C5E9027404F035FA3146CD
:10151000284604F0E9FA1E4D524621460DA81BF05C
:1015200055FC4FF48033C5E900932846194BAB6254
:10153000AC602C612C7685F82040EC622EE000BF78
:101540000038024000080240CC2F0120000C02406D
:1015500000180240000002407830012000300240B4
:10156000005C0040A08601002030012000500140B6
:10157000B4310120400100A080300120006801400A
:101580006C1E0020140000207431012000B00240C5
:10159000283101200100000F00200140EC60EE61C5
:1015A00085F830406E6103F04DFF0DA92846CDE966
:1015B0000D660F9404F0E2F8FFF70FF806F03AFB1F
:1015C000084A0948214606F061FB084B084A1860A2
:1015D0002146084806F05AFB074B186006F03CFB12
:1015E000FEE700BF44E3010871110008C82F012085
:1015F00020E30108DF0500087031012070477047C3
:101600007FB5094B8DF817201B6802930DF1170267
:101610000123009201930A460146044804F01EFE8D
:1016200007B05DF804FB00BF0C000020CC2F0120A8
:101630007FB500238DF81730084B1B6802930A46CC
:1016400001230DF11701009101930146044804F0B4
:1016500095FE9DF8170007B05DF804FB0C00002014
:10166000CC2F01201FB5084C24680092CDE901342D
:101670000A4601230146054804F080FE003818BFE1
:10168000012004B010BD00BF0C000020CC2F0120B1
:1016900003F0C4BE08B506480022042104F054FB40
:1016A000BDE8084002480122042104F04DBB00BF00
:1016B0000008024038B50B4D044601220A484FF499
:1016C000005104F041FB00220421284604F03CFBB9
:1016D0002046FFF73BFD28460122BDE838400421A3
:1016E00004F032BB00080240000C024038B50B4D3C
:1016F000044600220A484FF4005104F025FB002262
:101700000421284604F020FB2046FFF71FFD284651
:101710000122BDE83840042104F016BB0008024055
:10172000000C0240F7B5144E144F05460C463046E7
:101730000022042104F008FB00224FF40051384637
:1017400004F002FB2846FFF701FD0D4B0D481B6816
:10175000224601A905F0AEFF384601224FF40051A0
:10176000019C04F0F1FA30460122042104F0ECFA65
:10177000204603B0F0BD00BF00080240000C02404C
:10178000100000202030012003F048BE0268034B07
:101790009A4201D103F030BE704700BF00100040F4
:1017A0007047000082B00E4B00220092596C41F449
:1017B00080415964596C01F4804100910099019273
:1017C000196C41F0805119641B6C03F08053019334
:1017D000019B0F216FF0010002B004F07DB800BF43
:1017E0000038024010B5044688B01422002103A836
:1017F0001BF0ECFA2268124B9A421FD103F58C338E
:1018000000220192596C0F4841F480715964596C5F
:1018100001F48071019101990292196B41F001016B
:1018200019631B6B059203F0010302930221029BD3
:101830000323CDE9031303A904F09AF908B010BDFE
:1018400000200140000002400268094B9A4282B029
:101850000BD100230193074B1A6B42F480521A6399
:101860001B6B03F480530193019B02B0704700BFD0
:10187000003002400038024007B50F4B02689A4220
:1018800016D10022A3F5F0430192196B41F4000137
:1018900019631B6B03F40003019305215A20019B7C
:1018A00004F01AF85A2003B05DF804EB04F046B8CF
:1018B00003B05DF804FB00BF00B002402DE9F04327
:1018C000044689B01422002103A81BF07FFA226885
:1018D000244B9A4243D1244C244800250095236B85
:1018E00043F004032363236B03F004030093009B82
:1018F0000195236B43F001032363236B03F0010382
:101900000193019B4FF012094FF400734FF001084F
:101910000327042603A9CDE90339CDE905870796F6
:1019200004F026F94FF480731148079603A9CDE916
:101930000339CDE9058704F01BF90295236C43F4C4
:1019400000032364236C03F400030293029B236AC5
:1019500043F400032362236A23F40003236209B0E3
:10196000BDE8F083005C00400038024000080240FF
:1019700000000240F0B599B004461422002107A8E7
:101980001BF024FA30220DEB020000211BF01EFA9E
:1019900022685E4B9A4240F0B78008230C93C02324
:1019A0001093042312930CA84FF40033159305F001
:1019B0006BFA08B1FFF7F4FE554B5648002400942B
:1019C0005A6C42F080625A645A6C02F08062009253
:1019D000009A01941A6B42F020021A631A6B02F00B
:1019E00020020192019A02941A6B42F001021A63DA
:1019F0001A6B02F001020292029A03941A6B42F0EF
:101A000002021A631A6B02F002020392039A049410
:101A10001A6B42F040021A631A6B02F04002049201
:101A2000049A05941A6B42F004021A631A6B02F0CE
:101A300004020592059A06941A6B42F008021A6392
:101A40001B6B03F00803069302250E26069B0B96DC
:101A50004FF4806307A9CDE90735CDE9094504F0C6
:101A600087F841F658032C480B9607A9CDE90735AE
:101A70000927CDE9094504F07BF8032327480B9794
:101A800007A9CDE90735CDE9094504F071F84FF410
:101A9000706322480B9607A9CDE90735CDE90945C2
:101AA00004F066F84FF40C631D480B9607A9CDE9C6
:101AB0000735CDE9094504F05BF8C02319480B96BA
:101AC00007A9CDE90735CDE9094504F051F8082308
:101AD00015480B9607A9CDE90735CDE9094504F06E
:101AE00047F84FF4A0530E480B9707A9CDE90735E7
:101AF000CDE9094504F03CF858202246052103F0C1
:101B0000EBFE582003F01AFF19B0F0BD0068014049
:101B1000003802400014024000000240000402406D
:101B20000018024000080240000C024010B50446B4
:101B300088B01422002103A81BF048F92268154B35
:101B40009A4224D103F5684300220192596C41F472
:101B500080115964596C01F480110191019902922C
:101B6000196B41F0200119631B6B059203F02003F0
:101B700002934FF46071029B0223CDE9031303200B
:101B80000523CDE9060303A9034803F0F1FF08B0DC
:101B900010BD00BF00500140001402402DE9F0418B
:101BA0002C4B1C6886B0002C50D14FF00108C3F8B4
:101BB0000080294B00949A6B284842EA08029A63F5
:101BC0009B6B039403EA08030093022703260C256A
:101BD000009B01A94FF63F03CDE90137CDE904652C
:101BE00003F0C6FF1E48059501A9CDE90187CDE99F
:101BF000034603F0BDFF48F233131A48059501A9C7
:101C0000CDE90137CDE9034603F0B2FF4FF6837308
:101C10001548059501A9CDE90137CDE9034603F043
:101C2000A7FF4CF203731148059501A9CDE90137CF
:101C3000CDE9034603F09CFF60230D48059501A9FB
:101C4000CDE90137CDE9034603F092FF06B0BDE8C8
:101C5000F08100BF701E00200038024000140240D6
:101C6000000802400018024000100240000C024030
:101C70000004024030B5014689B00022362003F04E
:101C80002BFE362003F05AFE0025154B02951A6CE8
:101C9000144C42F010021A641B6C03F01003029300
:101CA00001A903A8029B05F0D1F805F0BFF80E4B7F
:101CB000236040F2E733E36040000C4BB0FBF3F0ED
:101CC0000138606020462561A56005F0D7FE20B987
:101CD000204605F08DFD09B030BD0120FBE700BFB7
:101CE00000380240E83101200010004040420F005F
:101CF0007047FEE7FEE7FEE7FEE77047014805F0A4
:101D0000B5BD00BFE8310120014804F071BD00BF3E
:101D100080300120014803F05DBE00BF7431012016
:101D20000120704708B51AF0FDFE162303604FF03E
:101D3000FF3008BD08B51AF0F5FE16230360FEE774
:101D400070B50E4614460025A54201DB204670BD45
:101D5000AFF3008070550135F6E770B50E461446B6
:101D60000025A54201DB204670BD705DAFF3008009
:101D70000135F6E74FF0FF3070474FF400534B60EA
:101D800000207047012070470020704708B50A4BBB
:101D90001968024609B90949196018686946024478
:101DA0008A4206D91AF0BEFE0C2303604FF0FF30C2
:101DB00008BD1A60FCE700BF741E002088320120B5
:101DC000704710B5042104461AF048FE204610BDA5
:101DD00008B5042914D8DFE801F003070B0F0F0042
:101DE00002F0E6FB006808BD02F0E2FB4068FAE79B
:101DF00002F0DEFB8068F6E702F0DAFBC068F2E78B
:101E00000020F0E7004870477CE301080F2070478E
:101E100013B5002451B1036801948DF8034001AA61
:101E20009C680DF10303A04702B010BD0846FBE714
:101E3000408970478089704780887047837980889F
:101E4000184480B27047C07900F07F007047C079B5
:101E5000C0097047704710B5082104461AF0FEFD0E
:101E6000204610BD704700F596730868496803C3A3
:101E70007047704770474160704770470123037295
:101E800070477047704710B4C268416854100346E9
:101E900001EB6200D20748BF0A599B685DF8044B0A
:101EA00048BFD358184743682BB183682BB9C06823
:101EB00000F001007047184670470120704710B5C8
:101EC0000C2104461AF0CAFD204610BD10B51021A1
:101ED00004461AF0C3FD204610BD10B54FF4AC7196
:101EE00004461AF0BBFD204610BD10B50BF0A4FE51
:101EF0000368BDE810401B6B184710B50446D0F8C6
:101F00003C0158B10368DB68984738B1D4F83C010C
:101F100003689B6898470023C4F83C3110BD00005B
:101F2000F8B5044617460E460BF0A6FE104B0025EA
:101F3000C4E954760F4E1C60C4E952550E4B30680C
:101F400023600E4BC4E95035036801219B68C4E946
:101F50004E559847284602F0DFFA336893F876200A
:101F60000AB1D86C00B9986813F05DFC2046F8BD42
:101F7000782D01202C2D012004EB0108ECEA01084A
:101F8000064BC0F848310023C0F84C3100F5A0736F
:101F9000C0F84401C0F83C31704700BF452100083B
:101FA000064BC0F848310023C0F84C3100F5A0734F
:101FB000C0F84401C0F83C31704700BFA9220008B6
:101FC000064BC0F848310023C0F84C3100F5A0732F
:101FD000C0F84401C0F83C31704700BF0D24000830
:101FE000064BC0F848310023C0F84C3100F5A0730F
:101FF000C0F84401C0F83C31704700BF75250008A7
:1020000003685B6A184700002DE9F84F074690689F
:10201000DDF828A0994603681B6A8846144698474D
:10202000B0F5C87F05D2414B414AA32141481AF07F
:1020300043FD606803681B6A98470F2803D83E4B2E
:102040003B4AA421F2E7E06803681B6A98470B2823
:1020500003D83A4B364AA521E8E70BF0EDFD0BF02B
:10206000F1FDD9F8000010B10368DB689847D9F892
:10207000000010B103681B689847386810B1036806
:102080005B699847D8F8000010B103685B6898470F
:10209000386810B103681B689847D8F8000010B181
:1020A00003689B689847E0680021FFF7A9FF4FF09D
:1020B000000B234B03600546C0F804B080F808B05D
:1020C000A068036859465B6A9847064602F03EFBE3
:1020D0006068036859465B6A98473146044602F0D7
:1020E000DFFAC9F80050C8F800403E60E4B1231D93
:1020F000CAF800303368C4F808A03046DB68F463DF
:102100009847236820461B689847294630460DF0BB
:10211000EAF92B6828461B6998472B6828465B69B3
:1021200098472046BDE8F88F2346E1E7B8E4010868
:1021300046E501084AE6010891E6010834E701088E
:1021400048EB010807B5D0F854310093D0F850217E
:10215000044B00F59C710448FFF756FF03B05DF88F
:1021600004FB00BF6C2D0120682D01202DE9F84FE4
:1021700007469068DDF828A0994603681B6A8846E0
:1021800014469847B0F52B7F05D2414B414AA32115
:1021900041481AF091FC606803681B6A98470F2851
:1021A00003D83E4B3B4AA421F2E7E06803681B6A70
:1021B00098470B2803D83A4B364AA521E8E70BF09D
:1021C0003BFD0BF03FFDD9F8000010B10368DB6860
:1021D0009847D9F8000010B103681B689847386821
:1021E00010B103685B699847D8F8000010B1036824
:1021F0005B689847386810B103681B689847D8F83F
:10220000000010B103689B689847E0680021FFF761
:10221000F7FE4FF0000B234B03600546C0F804B0F7
:1022200080F808B0A068036859465B6A984706467C
:1022300002F0EEFA6068036859465B6A98473146D7
:10224000044602F09BFAC9F80050C8F800403E600E
:10225000E4B1231DCAF800303368C4F808A0304642
:10226000DB68F4639847236820461B689847294633
:1022700030460DF038F92B6828461B6998472B68C3
:1022800028465B6998472046BDE8F88F2346E1E77A
:10229000B8E40108D7E701084AE6010891E6010819
:1022A00034E7010848EB010807B5D0F85431009332
:1022B000D0F85021044B00F59C710448FFF756FFFD
:1022C00003B05DF804FB00BF6C2D0120682D0120D8
:1022D0002DE9F84F07469068DDF828A09946036875
:1022E0001B6A884614469847B0F5E07F05D2414BFB
:1022F000414AA32141481AF0DFFB606803681B6A6A
:1023000098470F2803D83E4B3B4AA421F2E7E068E8
:1023100003681B6A98470B2803D83A4B364AA52115
:10232000E8E70BF089FC0BF08DFCD9F8000010B148
:102330000368DB689847D9F8000010B103681B6890
:102340009847386810B103685B699847D8F800006F
:1023500010B103685B689847386810B103681B6860
:102360009847D8F8000010B103689B689847E06868
:102370000021FFF745FE4FF0000B234B036005469D
:10238000C0F804B080F808B0A068036859465B6ADA
:102390009847064602F09AFA6068036859465B6AF5
:1023A00098473146044602F05FFAC9F80050C8F871
:1023B00000403E60E4B1231DCAF800303368C4F821
:1023C00008A03046DB68F4639847236820461B6802
:1023D0009847294630460DF086F82B6828461B6939
:1023E00098472B6828465B6998472046BDE8F88FD8
:1023F0002346E1E7B8E40108DBE801084AE6010802
:1024000091E6010834E7010848EB010807B5D0F868
:1024100054310093D0F85021044B00F59C710448CE
:10242000FFF756FF03B05DF804FB00BF6C2D0120E1
:10243000682D01202DE9F84F07469068DDF828A0A7
:10244000994603681B6A88461446984740F603631A
:10245000984205D8414B424AA32142481AF02CFB2E
:10246000606803681B6A98470F2803D83E4B3C4AB4
:10247000A421F2E7E06803681B6A98470B2803D899
:102480003A4B374AA521E8E70BF0D6FB0BF0DAFB15
:10249000D9F8000010B10368DB689847D9F800004C
:1024A00010B103681B689847386810B103685B690E
:1024B0009847D8F8000010B103685B6898473868FF
:1024C00010B103681B689847D8F8000010B1036882
:1024D0009B689847E0680021FFF792FD4FF0000BE2
:1024E000234B03600546C0F804B080F808B0A0682C
:1024F000036859465B6A9847064602F0A1FC60688B
:10250000036859465B6A98473146044602F0F6F97B
:10251000C9F80050C8F800403E60E4B1231DCAF875
:1025200000303368C4F808A03046DB68F46398478D
:10253000236820461B689847294630460CF0D3FF95
:102540002B6828461B6998472B6828465B69984783
:102550002046BDE8F88F2346E1E700BFB8E4010854
:10256000DFE901084AE6010891E6010834E70108BD
:1025700048EB010807B5D0F854310093D0F850214A
:10258000044B00F59C710448FFF754FF03B05DF85D
:1025900004FB00BF6C2D0120682D0120006A7047EC
:1025A000406A704770478B8880690A68DB0A50F878
:1025B00023001044704710B5C2B1137BB3B1547BF4
:1025C000D27A240204F4E0641443C26998B202EBA4
:1025D000840213888B4202D192F9020010BD05D803
:1025E000013880B204320028F3D1F7E70020F5E784
:1025F00010B5282104461AF031FA204610BD00001B
:1026000030B589B00446BDF850500695BDF84C5021
:1026100005959DF8405004959DF83C5003959DF814
:10262000385002959DF8345001959DF83050009532
:102630000CF03AFB064B2360119BA361129BE361F4
:10264000159B2362169B6362204609B030BD00BF14
:102650006CEB01080020704781807047C180704793
:1026600001817047418170477047704770477047DC
:10267000704710B4C4880368121B84881B6D091B43
:1026800012B25DF8044B09B218474FF6FF7383810D
:102690004FF0FF3303621368C361106070477047E7
:1026A000704770477047704790F825201AB190F82E
:1026B000242002B118607047704770477047704718
:1026C000704730B4C26844685510034604EB62009A
:1026D000D20748BF62599B6830BC48BFD3581847DF
:1026E00043682BB183682BB9C06800F001007047C4
:1026F000184670470120704710B5102104461AF0A3
:10270000ADF9204610BD10B54FF4C87104461AF05B
:10271000A5F9204610BD00F19802914210B504D1F0
:102720000368DB6ABDE81040184700F1D00291420F
:1027300002D103681B6BF5E700F58472914205D165
:102740000BF07AFABDE81040FFF72ABC00F5A2733F
:10275000994205D10BF070FABDE81040FFF730BC8C
:1027600010BD0000074A02600022C0E90122C0E952
:102770000322C0E90522C0E907224FF48072828457
:10278000704700BF7005020870B503680446DB6A35
:10279000154698472368294620461B6BBDE87040C4
:1027A0001847000010B52622044600211AF00EFB3F
:1027B0002046FFF7D7FF0023A36284F82C300123C3
:1027C000064A84F824304FF6FF73E385238684F8A5
:1027D00032302260A386204610BD00BFB8FF01083A
:1027E0002DE9F04F044689B025460CF0FFFC4FF070
:1027F000000B814BC4F83CB045F8403B59462622BB
:1028000028461AF0E3FA2846FFF7ACFF04F16C06FD
:10281000FF277A4B236426224FF6FF73594684F82C
:102820006670C4F868B03046ADF81C301AF0CEFAC5
:102830003046FFF797FF724BE366BDF81C30A4F8F3
:10284000923007A904F1980A84F89470304609F090
:10285000D0FC04F1D0095046FFF7A4FF04F58478BA
:102860004846FFF79FFF04F5A277404609F09AFC1F
:10287000384609F097FC634BC4E96034624B5A4612
:10288000C4E9623B59462846FFF77EFF2846F021FF
:10289000FFF7E6FE28464FF4A071FFF7E3FE4FF086
:1028A0007F435A46A36659463046FFF76DFF4FF007
:1028B0000A0307A930464FF0090BADF81C3009F0A8
:1028C00098FC504668223821FFF75EFF4FF008035E
:1028D000A4F8CCB007AA06A95046ADF81830ADF858
:1028E0001CB009F05FF904F5C0720392C4F8C0206F
:1028F0004846A6223821FFF747FF4FF00803A4F807
:1029000004B107AA06A94846ADF81830ADF81CB0C6
:1029100009F048F9039BC4F8F8304046F822232117
:10292000FFF732FF0523ADF818300DF1180C07AB97
:1029300000934FF0010263460DF1140CADF8102026
:102940004FF0020162464FF003000DF1100CADF89C
:102950001410ADF81C006146404609F080FB4FF0B2
:1029600008034FF0460BA4F84231039BC4F8303102
:102970003846A4F840B10A222321FFF705FF0723B8
:10298000ADF818304FF0010207AB4FF002014FF0E5
:102990000300ADF81020ADF8141005AAADF81C0026
:1029A000009304A906AB384609F059FB1023A4F89C
:1029B0007E31039BC4F86C31201D2946A4F87CB1FC
:1029C000039007F091FB0398314607F08DFB0398C5
:1029D000514607F089FB0398494607F085FB0398A9
:1029E000414607F081FB0398394607F07DFB2046FE
:1029F00009B0BDE8F08F00BFDCEB01084001020820
:102A00008C030208C4EB010817270008806A70478E
:102A100070B50D7990F82C3004463DB93BB1236870
:102A20002046D3F88030BDE8704018477BB1B5FA36
:102A300085F35B0984F82C3023682046D3F8843072
:102A40009847236820465B699847002DE7D070BD02
:102A5000704770477047704790F82C302BB1C26EAA
:102A6000C26523B1436F03667047826EF8E7036F58
:102A7000F9E770477047704730B4C2684468551032
:102A8000034604EB6200D20748BF62599B6830BC22
:102A900048BFD358184743682BB183682BB9C06827
:102AA00000F001007047184670470120704730B4AD
:102AB000C26844685510034604EB6200D20748BF61
:102AC00062599B6830BC48BFD358184743682BB144
:102AD00083682BB9C06800F0010070471846704742
:102AE0000120704790F82D3080F85A30704710B5AB
:102AF0007821044619F0B2FF204610BD10B5102110
:102B0000044619F0ABFF204610BD10B51021044655
:102B100019F0A4FF204610BD10B54FF42A710446E9
:102B200019F09CFF204610BD10B50446006B50B153
:102B30000368DB68984730B1206B036821469B68C7
:102B4000BDE81040184710BD00F1D802914202D1F3
:102B50000368DB6A184700F5A872914202D1036846
:102B60001B6BF7E7704700F51070884208B505D178
:102B70000BF062F8BDE80840FFF702BA08BD70B577
:102B800004461D46BDF91060FFF7FEFD2368294687
:102B900020465B6B98472368314620469B6BBDE817
:102BA0007040184710B52622044600211AF00EF98D
:102BB0002046FFF7D7FD044B2360FF2384F826301F
:102BC0000023A362204610BD4001020810B5262252
:102BD000044600211AF0FAF82046FFF7C3FD074B20
:102BE0002360074BA3624FF6FF73A3854FF47F0268
:102BF0000023C4E90C322387204610BD9800020848
:102C0000B0E4010870B50446FFF7ACFD4FF47F4314
:102C10002646A3850123002584F824300D4BA562A8
:102C2000256346F8343B3046FFF7BCFF0A4B63632D
:102C30002A4629463046C4E91A55C4E91C5525667A
:102C4000A4F86450FFF7A0FD2046314607F04CFA87
:102C5000204670BD24ED0108800202082DE9F04FE6
:102C60002DED048B04468BB00CF0C0FA22460025F3
:102C7000B74BE56342F8403B04F16C06104608EEA2
:102C8000102A4FF6FF78FFF78DFF2622294630469F
:102C9000ADF820801AF09AF83046FFF763FDAD4B8F
:102CA000E36608AFBDF82030A4F89230394684F8C6
:102CB0009480304604F1980A09F09BFA5046FFF7D9
:102CC00085FF04F1D809A44BC4F89830C4F8D45057
:102CD000484604F5A878FFF795FF4046FFF792FFB6
:102CE00004F5E473184608EE903AFFF76FFF04F519
:102CF0000173184609EE103AFFF768FF04F51073E8
:102D0000184609EE903A09F04DFA944BC4E9A23402
:102D1000934BC4E9A435934BC4E9A634924BC4E960
:102D2000A8354FF4A07318EE100A00932A46F0233A
:102D30002946FFF724FF4FF07F432A46A366294622
:102D40003046FFF721FD0A2339463046ADF82030E2
:102D500009F04FFA2523009355228323372150464B
:102D6000FFF70DFF4FF07F43C4F8C8307F4BA4F846
:102D7000CC501B6804F51F7B2BB97D4B7D4AAE21DF
:102D80007D4819F099FE7D4B1B88032B03D87C4BA3
:102D9000784AAF21F4E77B4B0321186801F0F8FB78
:102DA000794A0346052158460DF0BAFE774BC4F820
:102DB000D4B039464FF0320B50460893ADF824504A
:102DC00008F0B0FECDF800B05B462A46294604F56F
:102DD0008670FFF7D4FE4FF005026D496D4BA4F8E5
:102DE0003C216D486D4AC4E95203C4E9502148466C
:102DF000FFF732FECDF800B05B464846AD222321F6
:102E0000FFF7BDFE04F5267EC4F808E15B46CDF869
:102E100000B02A46294604F5C270CDF80CE0FFF751
:102E2000AEFE5B495D4A5C48C4F8C0014FF0050C3A
:102E3000C4E96E2102F54C12A4F8B4C1C4F8C4214F
:102E40004046FFF709FE5B46CDF800B04046AD2294
:102E50009B21FFF794FE039AC4F8802118EE900A94
:102E60008722A721FFF790FC4FF07F42474BC4F821
:102E7000F82118EE900AA4F8FC514FF0010B3946E6
:102E80000893ADF824B008F04DFE19EE100A872221
:102E90002021FFF779FC4FF07F423C4BC4F83422ED
:102EA00019EE100AA4F83852394602250893ADF8F5
:102EB000245008F037FE19EE900AF7222321FFF77D
:102EC00063FC0623ADF81C30032306AA19EE900A12
:102ED000ADF8203005A907AB0097ADF81850ADF854
:102EE00014B009F0BCF84623A4F878321023251D4D
:102EF000A4F87A3204F52273C4F8683218EE101A76
:102F0000284607F0F1F83146284607F0EDF851461B
:102F1000284607F0E9F84946284607F0E5F8414613
:102F2000284607F0E1F818EE901A284607F0DCF87A
:102F300019EE101A284607F0D7F8284619EE901A0D
:102F400007F0D2F820460BB0BDEC048BBDE8F08F43
:102F5000E8ED01088C030208D8010208B8ED010869
:102F6000672B0008D0ED0108492B00087C2D0120BB
:102F700010EC010852EC010880EC0108802D0120C2
:102F8000C7EC0108882D012019ED0108B0E4010803
:102F9000CC9900FF996633FF663300FF996600FF06
:102FA00070477047704730B4C26844685510034694
:102FB00004EB6200D20748BF62599B6830BC48BF2F
:102FC000D358184743682BB183682BB9C06800F009
:102FD00001007047184670470120704710B5102156
:102FE000044619F03BFD204610BD10B54FF4E071CA
:102FF000044619F033FD204610BD08B500F598735E
:10300000994205D10AF018FEBDE80840FEF7B8BFA6
:1030100000F5B670814205D10AF00EFEBDE8084009
:10302000FEF7DEBF08BD000038B5262204460D4677
:10303000002119F0CBFE2046FFF794FB064B2360DE
:103040002B88E384FF23204684F82830294609F0A2
:10305000D0F8204638BD00BF8C0302082DE9F04FA0
:103060002DED028B04468BB025464FF0000B0CF083
:10307000BDF89F4BC4F83CB045F8403B262259466A
:10308000284619F0A3FE2846FFF76CFB994B2364F2
:1030900004F16C0AFF2384F866304FF6FF7704F1E1
:1030A0009809C4F868B008A9504604F1C408ADF8FE
:1030B0002070FFF7B9FF08A9484604F1F006ADF803
:1030C0002070FFF7B1FF08A94046ADF82070FFF768
:1030D000ABFF59462622304619F078FE3046FFF7FE
:1030E00041FB854BC4F818314FF47F03A4F81C71E1
:1030F000C4F8243104F59877804BC4F820B1A4F8C3
:1031000028B1C4F8F030C4F82CB1384609F04AF8B8
:1031100004F5B673184608EE103A09F043F8784BF8
:10312000C4E96C34774B5A46C4E96E3B594628468D
:10313000FFF72AFBF0212846FFF792FA4FF4A0711F
:103140002846FFF78FFA4FF07F43A3665A46594649
:103150005046FFF719FB0A2208A95046ADF8202077
:1031600009F047F8602211464846FFF70DFB0D2293
:1031700008A94846ADF8202009F03BF86022114626
:103180004046FFF701FB0B2284F8E9B008A940464E
:10319000ADF8202009F02DF827223F213046FFF717
:1031A000F3FA4FF07F43C4F82031574BA4F824B111
:1031B0001B6804F5D47B2BB9544B554AAE215548B6
:1031C00019F07AFC544B1B88052B03D8534B504AFB
:1031D000AF21F4E7524B0521186801F0D9F9514AA3
:1031E0000346042158460DF09BFCC4F82CB1304630
:1031F00008F07BFC4FF0040B3F4B089308A93046C6
:10320000ADF824B008F08EFC3846F9222321FFF7F0
:10321000BBFA4FF00103ADF8143007A908AB0093D7
:103220004FF002020B4606A9ADF81820ADF81CB00D
:103230000A464FF0030B05A93846ADF820B008F058
:103240000EFF04F5D87046234FF01001A4F8683142
:10325000A4F86A110390C4F85801BD2218EE100AB0
:103260002321FFF791FA4FF00103ADF8143005A8C0
:1032700008AB4FF00202ADF81820009306AA07AB86
:10328000014618EE100AADF81CB0ADF820B008F0F9
:10329000E6FE4723A4F8A4314FF01001039BC4F8C5
:1032A0009431201DA4F8A6112946039006F01CFFB6
:1032B0000398514606F018FF0398494606F014FF9C
:1032C0000398414606F010FF0398314606F00CFFC4
:1032D0000398394606F008FF039818EE101A06F016
:1032E00003FF20460BB0BDEC028BBDE8F08F00BFA2
:1032F0003CEE010840010208B0E40108D8010208D0
:1033000024EE0108FB2F00087C2D012010EC0108A1
:1033100052EC010880EC0108802D0120C7EC010867
:10332000882D012019ED01087047704770477047DC
:1033300070477047704770477047704770477047D5
:1033400070477047704770477047704790F82C304F
:103350002BB1C26EC26523B1436F03667047826EA4
:10336000F8E7036FF9E77047704730B4C268446804
:103370005510034604EB6200D20748BF62599B68B0
:1033800030BC48BFD358184743682BB183682BB96A
:10339000C06800F001007047184670470120704770
:1033A00090F82D3080F85A30704710B578210446D7
:1033B00019F054FB204610BD10B51021044619F039
:1033C0004DFB204610BD10B540F6D851044619F00B
:1033D00045FB204610BD0B7970B590F82C60044673
:1033E0000D469BB98EB9B3FA83F35B0984F82C3090
:1033F00023682046D3F884309847236820465B69C9
:10340000984716B12B79012B03D070BD002EFCD04C
:10341000E9E723682046D3F88030BDE870401847BC
:1034200000F19802914210B5034604D10368DB6AAB
:10343000BDE81040184700F58872914202D1036838
:103440001B6BF5E700F5C472914202D103685B6B18
:10345000EEE700F50072914202D103689B6BE7E74B
:1034600000F51E72914202D10368DB6BE0E700F5C4
:103470003C72914202D103681B6CD9E700F55A7285
:10348000914202D103685B6CD2E700F578729142F9
:1034900002D103689B6CCBE700F58B62914202D1AD
:1034A0000368DB6CC4E700F59A62914205D10268BB
:1034B000526DBDE810401846104700F5A9629142D0
:1034C00002D10268926DF4E700F5B862914202D130
:1034D0000268126DEDE700F5C762914202D1026801
:1034E000D26DE6E700F5D662914202D10268526ED3
:1034F000DFE700F5E562914202D10268126ED8E77B
:1035000000F60C42914205D10AF096FBBDE810404E
:10351000FEF756BD00F54B62914202D10268926EF1
:10352000C7E710BD70B50446FFF71CF94FF47F43A1
:103530002646A3850123002584F824300D4BA5627F
:10354000256346F8343B3046FFF72CFB0A4B636398
:103550002A4629463046C4E91A55C4E91C55256651
:10356000A4F86450FFF710F92046314606F0BCFD80
:10357000204670BD70EE01088002020810B4036797
:10358000019B436703685DF8044BD3F88430C0E9BE
:103590001A1218472DE9F04F2DED108B04469FB0FD
:1035A0000BF024FE22460025E14BE56342F8403B48
:1035B00004F16C0810464FF6FF7608EE102AFFF76C
:1035C000F1FA262229464046ADF8706019F0FEFB5C
:1035D0004046FFF7C7F8D74BE366BDF87030A4F854
:1035E00092301CA984F89460404608F002FE04F171
:1035F000980318460AEE903AFFF794FF04F5887393
:1036000018460BEE103AFFF78DFF04F5C473184609
:103610000BEE903AFFF786FF04F5007318460CEEA8
:10362000103AFFF77FFF04F51E7318460CEE903A30
:10363000FFF778FF04F53C7318460DEE103AFFF7DC
:1036400071FF04F55A7318460DEE903AFFF76AFFC2
:1036500004F5787318460EEE103AFFF763FF04F591
:103660008B6318460EEE903AFFF75CFF04F59A6301
:1036700018460FEE103AFFF755FF04F5A9631846F8
:103680000FEE903AFFF74EFF04F5B8631846039328
:10369000FFF748FF04F5C76318460493FFF742FF9E
:1036A00004F5D66318460593FFF73CFF04F5E56380
:1036B00018460693FFF736FF04F5F4631CA9184675
:1036C00008EE903AADF8706007F044FE04F2CC7357
:1036D0001846994F0793FFF779FA04F60C03C4F8DC
:1036E000CC771846C4F808580893FFF76FFA04F629
:1036F0004803184609EE103AFFF768FA04F6880303
:10370000C4F848781846C4F884580993FFF75EFA5D
:1037100004F6C40318460A93FFF758FA04F5106339
:1037200018460B93FFF752FA04F63C1318460C9315
:10373000FFF74CFA04F6781318460D93FFF746FA94
:1037400004F6B41318460E93FFF740FA04F51F630E
:1037500018460F93FFF73AFA04F62C2318461093F5
:10376000FFF734FA04F6682318461193FFF72EFA90
:1037700004F6A42318461293FFF728FA04F52E63E3
:1037800018461393FFF722FA04F61C3318461493D5
:10379000FFF71CFA04F6583318461593FFF716FA8C
:1037A00004F6943318461693FFF710FA04F53D63B8
:1037B00018461793FFF70AFA04F60C4318461893B5
:1037C000FFF7B0FE04F684431CA9184609EE903AB0
:1037D000ADF8706007F0BEFD04F54B631846199311
:1037E000FFF7A0FE04F628531CA918460AEE103A6B
:1037F000ADF8706007F0AEFD04F6545318461A9306
:10380000FFF7E4F94D4BC4F8C83D4D4BC4F8D03D2B
:103810004FF4A07318EE100AC4F8547D00932A46A2
:10382000F02329464FF07F47C4F8905DC4F8CC4D93
:10383000C4F8D45DFFF7A3F92A4629464046A76697
:103840003226FEF7A1FF4FF00A031CA94046DFF81D
:1038500000A1ADF870304FF0050B08F0CAFC3346FC
:1038600000962A46294604F1CC00FFF788F9354B2B
:10387000354A3649A4F8FCB01AEE900ACDF800A0FB
:1038800004F6C859FFF77AFE33461AEE900A0096FE
:10389000AE220721FFF773F9334600962A462946E0
:1038A00004F5A270C4F8C890FFF769F9254B264AC1
:1038B0002649A4F874B11BEE100ACDF800A0FFF75A
:1038C0005DFE33461BEE100A0096AE223321FFF751
:1038D00056F9334600962A46294604F5DE70C4F8A8
:1038E0004091FFF74CF9174B174A1849A4F8ECB16F
:1038F0001BEE900ACDF800A0FFF740FE33461BEE0A
:10390000900A0096AE225F21FFF739F93346009600
:103910002A46294604F50D70C4F8B891FFF72FF92F
:10392000084B094A0949A4F864B21CEE100A11E0D8
:103930001CEF01088C030208D801020804EF0108FB
:1039400021340008663300FFCC9900FF996600FF20
:10395000996633FFCDF800A0FFF710FE33461CEE4A
:10396000100A0096DA220721FFF709F9334600967C
:103970002A46294604F52B70C4F83092FFF7FFF869
:10398000B34BB44AB449A4F8DCB21CEE900ACDF8AB
:1039900000A0FFF7F3FD33461CEE900A0096DA22F2
:1039A0003321FFF7ECF8334600962A46294604F502
:1039B0004970C4F8A892FFF7E2F8A54BA54AA649BA
:1039C000A4F854B31DEE100ACDF800A0FFF7D6FD01
:1039D00033461DEE100A0096DA225F21FFF7CFF87A
:1039E000334600962A46294604F56770C4F82093AA
:1039F000FFF7C5F8964B974A9749A4F8CCB31DEE4C
:103A0000900ACDF800A0FFF7B9FD33461DEE900AED
:103A100000964FF484720721FFF7B1F83346009601
:103A20002A46294604F21440C4F89893FFF7A7F8F1
:103A3000874B884A8849A4F844B41EEE100ACDF892
:103A400000A0FFF79BFD33461EEE100A00964FF4D0
:103A500084723321FFF793F8334600962A462946AD
:103A600004F28C40C4F81094FFF789F8784B794A37
:103A70007949A4F8BCB41EEE900ACDF800A0FFF777
:103A80007DFD33461EEE900A00964FF484725F214E
:103A9000FFF775F8334600962A46294604F204508B
:103AA000C4F88894FFF76BF8694B6A4A6A49A4F82E
:103AB00034B51FEE100ACDF800A0FFF75FFD3346C6
:103AC0001FEE100A0096AE228C21FFF758F83346FD
:103AD00000962A46294604F27C50C4F80095FFF768
:103AE0004EF85B4B5B4A5C49A4F8ACB51FEE900AFC
:103AF000CDF800A0FFF742FD33461FEE900A009676
:103B0000AE22B921FFF73BF8334600962A462946F4
:103B100004F2F450C4F87895FFF731F84C4B4D4A55
:103B20004D490398A4F824B6CDF800A0FFF726FD70
:103B3000334603980096DA228C21FFF720F83346AB
:103B400000962A46294604F26C60C4F8F095FFF707
:103B500016F83F4B3F4A40490498A4F89CB6CDF86C
:103B600000A0FFF70BFD334604980096DA22B92136
:103B7000FFF705F8334600962A46294604F2E4602A
:103B8000C4F86896FEF7FBFF314B324A324905987C
:103B9000A4F814B7CDF800A0FFF7F0FC3346059861
:103BA00000964FF484728C21FEF7E9FF33460096AD
:103BB0002A46294604F25C70C4F8E096FEF7DFFF5F
:103BC000234B244A24490698A4F88CB7CDF800A0CA
:103BD000FFF7D4FC33464FF4847206980096B9215F
:103BE000FEF7CDFF18EE900A1CA9C4F85897ADF85F
:103BF000705008F0FEFA72233C2218EE900A0093EF
:103C00000721E323FEF7BBFF18EE900A294607F0D1
:103C100068FB1F2300930798662347221221FEF7B3
:103C2000AEFF0E4BC4F8FC771B68A4F8005804F6EE
:103C300094562BB90A4B0B4AAE210B4818F03CFFA7
:103C40000A4B1B88072B15D8094B064AAF21F4E70E
:103C5000663300FFCC9900FF996600FF7C2D0120A0
:103C600010EC010852EC010880EC0108802D0120C5
:103C7000C7EC0108D64B0721186800F089FCD54A2B
:103C800003460A2130460CF04BFF4FF0060207981E
:103C9000C4F808681CA9D04EADF874201C9607F033
:103CA00041FF662208980721FEF76EFD0823089859
:103CB000C4F83C781CA9A4F84058ADF874301C96A0
:103CC00007F030FF832219EE100A1221FEF75CFD87
:103CD00004F6A8521B92C14AC4F878781368A4F875
:103CE0007C58002BA6D0BE490B880A2BACD9B84B08
:103CF0000A21186800F04CFCB64A034659461B9846
:103D00000CF00EFF1B98C4F8840819EE100A07F097
:103D1000ECFE1CA80923014619EE100AADF8743018
:103D20001C9607F0FFFEBB2209981921FEF72CFD17
:103D30001CA80B230146A4F8BC580998C4F8B8780D
:103D4000ADF874301C9607F0EDFEBB220A984621B0
:103D5000FEF71AFD0DF1700C4FF00C006146A4F84F
:103D6000F858ADF87400C4F8F4780A981C9607F077
:103D7000D9FEBB220B987221FEF706FD4FF00D0C09
:103D8000ADF874C00DF1700C61460B98A4F834596D
:103D9000C4F830791C9607F0C5FEE7220C9819216B
:103DA000FEF7F2FC0DF1700E4FF00E0C71460C9800
:103DB000A4F87059C4F86C79ADF874C01C9607F07B
:103DC000B1FEE7220D984621FEF7DEFC0DF1700EE4
:103DD0000F2371460D98A4F8AC59C4F8A879ADF832
:103DE00074301C9607F09EFEE7220E987221FEF7B3
:103DF000CBFC0DF1700E102371460E98A4F8E85913
:103E0000C4F8E479ADF874301C9607F08BFE40F2EC
:103E100015120F981821FEF7B7FC0DF1700E112343
:103E200071460F98A4F8245AC4F8207AADF874307B
:103E30001C9607F077FE40F2151210984621FEF707
:103E4000A3FC0DF1700E122371461098A4F8605A6D
:103E5000C4F85C7AADF874301C9607F063FE40F24B
:103E6000151211987221FEF78FFC0DF1700E1323BD
:103E700071461198A4F89C5AC4F8987AADF8743039
:103E80001C9607F04FFEE72212989F21FEF77CFC5C
:103E90000DF1700E142371461298A4F8D85AC4F884
:103EA000D47AADF874301C9607F03CFEBB22139810
:103EB0009D21FEF769FC0DF1700E152371461398D4
:103EC000A4F8145BC4F8107BADF874301C9607F0AE
:103ED00029FE40F215121498A121FEF755FC0DF1B0
:103EE000700E162371461498A4F8505BC4F84C7BEE
:103EF000ADF874301C9607F015FEBB221598CC2146
:103F0000FEF742FC0DF1700E172371461598A4F8C8
:103F10008C5BC4F8887BADF874301C9607F002FE09
:103F200040F215121698CC21FEF72EFC0DF1700E02
:103F3000182371461698A4F8C85BC4F8C47BADF882
:103F400074301C9607F0EEFDE7221798CA21FEF7A1
:103F50001BFC0DF1700E192371461798A4F8045C30
:103F6000C4F8007CADF874301C9607F0DBFD4FF010
:103F7000360ECDF800E02A462946782304F5446041
:103F8000FEF7FDFD174B184A18491898A4F870BCA5
:103F9000CDF800A0FFF7F2FA4FF0360ECDF800E0B2
:103FA0007823062218980721FEF7E9FD4FF00C0050
:103FB000ADF870001CA80146C4F83C9C19EE900AAC
:103FC00008F017F9282039230D22009025210FE051
:103FD000882D012019ED0108B0E401087C2D012095
:103FE000802D0120663300FFCC9900FF996600FF09
:103FF00019EE900AFEF7C3FD294619EE900A07F064
:1040000070F936202A4629460090722304F6E440CF
:10401000FEF7B5FD894B8A4A8A491998A4F814BD60
:10402000CDF800A0FFF7AAFA3620722306220090EE
:1040300078211998FEF7A3FD1CA84FF00E0C01463D
:10404000C4F8E09C1AEE100AADF870C008F0D1F880
:10405000282003460D2200909D211AEE100AFEF73B
:104060008EFD29461AEE100A07F03BF91F2000903A
:10407000662347221A988621FEF781FD724AA4F82A
:10408000885D1368C4F8847D04F6B255002B3FF4B4
:10409000D1AD6E490B881B2B7FF6D6AD6C4B1B2127
:1040A000186800F075FA6B4A03460A2128460CF09E
:1040B00037FD1A231A98C4F8905D1CA9251DADF888
:1040C00074301C9607F02EFD18EE101A284606F0E4
:1040D0000BF84146284606F007F81AEE901A2846D3
:1040E00006F002F81BEE101A284605F0FDFF1BEE45
:1040F000901A284605F0F8FF1CEE101A284605F025
:10410000F3FF1CEE901A284605F0EEFF1DEE101A84
:10411000284605F0E9FF1DEE901A284605F0E4FF59
:104120001EEE101A284605F0DFFF1EEE901A2846F4
:1041300005F0DAFF1FEE101A284605F0D5FF1FEE36
:10414000901A284605F0D0FF0399284605F0CCFFC9
:104150000499284605F0C8FF0599284605F0C4FFD4
:104160000699284605F0C0FF18EE901A284605F07B
:10417000BBFF0799284605F0B7FF0899284605F0C8
:10418000B3FF19EE101A284605F0AEFF099928462C
:1041900005F0AAFF0A99284605F0A6FF0B992846C4
:1041A00005F0A2FF0C99284605F09EFF0D992846C0
:1041B00005F09AFF0E99284605F096FF0F992846BC
:1041C00005F092FF1099284605F08EFF11992846B8
:1041D00005F08AFF1299284605F086FF13992846B4
:1041E00005F082FF1499284605F07EFF15992846B0
:1041F00005F07AFF1699284605F076FF17992846AC
:1042000005F072FF1899284605F06EFF19EE901A16
:10421000284605F069FF1999284605F065FF1AEE52
:10422000101A284605F060FF28461A9905F05CFF31
:1042300020461FB0BDEC108BBDE8F08F663300FF49
:10424000CC9900FF996600FF7C2D0120802D012074
:10425000882D012019ED01087047000030B5164D7A
:104260002C78BFF35B8F14F001048DB020D1284669
:1042700018F0F6FBE0B13F230793104B0693104B69
:10428000104911480894CDE9044301220423CDE9E3
:104290000132052300930C221923CDE9094403942C
:1042A000FEF7AEF9284618F0E7FB084818F022FCA4
:1042B00005480DB030BD00BF781E00209C430208A9
:1042C00088EF0108A03D02087C1E0020594200082A
:1042D0007047000030B5154D2C78BFF35B8F14F09C
:1042E00001048DB01ED1284618F0BAFBD0B13F238F
:1042F00007930F4B06930F4B0F4910480894012268
:10430000CDE904430423CDE90132CDE909440A2370
:1043100003940094FEF774F9284618F0ADFB0848A2
:1043200018F0E8FB05480DB030BD00BFA41E00200A
:10433000A04302088CEF0108483E0208A81E002096
:10434000D14200087047000030B5154D2C78BFF3FE
:104350005B8F14F001048DB01FD1284618F080FB4C
:10436000D8B13F2307930F4B06930F4B05930123BF
:10437000CDE9033302930423CDE900330B490C4804
:10438000089414235F22CDE90944FEF739F9284641
:1043900018F072FB074818F0ADFB05480DB030BDB2
:1043A000D01E0020A443020890EF0108583E0208E6
:1043B000D41E0020454300087047000030B5154D5D
:1043C0002C78BFF35B8F14F001048DB01ED128460A
:1043D00018F046FBD0B13F2307930F4B06930F4BCA
:1043E0000F49104808940122CDE904430423CDE984
:1043F0000132CDE90944282303940094FEF700F923
:10440000284618F039FB084818F074FB05480DB031
:1044100030BD00BFFC1E00204845020894EF010893
:104420008C430208001F0020B94300080020704799
:10443000002070470EB403B503AB002153F8042BE2
:1044400001930AF04FFA02B05DF804EB03B0704735
:104450000CB407B504AB53F8042B01930AF042FAED
:1044600003B05DF804EB02B070470000C36B10B5F9
:10447000044673B3038E2BB9184B194ABF21194850
:1044800018F01AFBC38D00EB43035B8B0BB30BF0EF
:104490008DFD238E012B03D8134B144AC421EEE764
:1044A000E28D531C9BB2092B194688BFA3F10A0168
:1044B00004EB410140F63F10498B814209D10A2BA0
:1044C00004EB420228BF002304EB4303508B5883C4
:1044D00051832046BDE810400BF04CBC98EF01081A
:1044E000A1EF01084CF0010896F00108A4F00108C2
:1044F0000BF0FABB10B586B002AC84E806001A4691
:104500000AAB05930193099B00932146089B08F091
:10451000FAFE06B010BD000038B518BB124B1348A8
:104520001B681349B3B11A689C681A4402605A6840
:104530001A440A601C440F4B00221A8000F038F81D
:10454000054600F033F80C4B1C600C4B1D600C4B07
:10455000188007E00B4B03600B4B0B600B4B1C6888
:10456000002CE8D138BD00BF281F00202C1F0020E0
:10457000301F0020341F00207C2D0120842D0120BD
:10458000802D0120BC4502084C4502088C460208DB
:10459000044B1B6853F82100034B1B6803EB4000DE
:1045A000704700BF301F00202C1F00201C207047C8
:1045B00000487047381F002010B5FFF7C5FE064CB5
:1045C0002060FFF7FBFE6060FFF784FEA060FFF74E
:1045D00045FEE06010BD00BF381F0020704710B5D9
:1045E0004FF4AC71044618F039FA204610BD10B5EE
:1045F0000446D0F8540100F015F82046BDE81040FC
:1046000009F0F2B910B50446FDF78AFC014B2360AE
:10461000204610BD80F101080022026002713222A2
:104620008260704770B5012104461348134E01F0B3
:1046300085FB003818BF01202071304600F0A8FF2C
:104640000A21304601F043F8304601F093F8054660
:10465000304601F021F8ADB26523206821796B4323
:104660001B13A36003689B6898472068A1680368D0
:10467000BDE87040DB681847000002402831012087
:1046800070477047704704387047704710B5102165
:10469000044618F0E3F9204610BDA0F10400F5E748
:1046A00010B500228260044AC16002F10804203281
:1046B0000460426010BD00BFBCF101087047704744
:1046C000FDF7FDBF10B54FF4C871044618F0C6F9E8
:1046D000204610BD08B5034A034B0448872118F053
:1046E000EBF900BF28F20108ECF101085BF20108C8
:1046F00008B5054B1B680BB9FFF7ECFF828EC08D28
:10470000131A5842584108BDB42D012008B59830FD
:10471000FFF7EEFF024600B10122BDE80840024863
:104720004FF4005101F010BB0018024008B5D03022
:10473000FFF7DEFF024600B10122BDE80840024853
:104740004FF4804101F000BB0018024010B5044650
:10475000FEF746F8014B2360204610BDA8F2010881
:10476000704704387047704710B51021044618F0A0
:1047700075F9204610BDA0F10400F5E710B5002240
:104780008260044AC16002F1080420320460426081
:1047900010BD00BFDCF2010870477047FEF75BB93F
:1047A000B0F9A8320A4A10B5002BC4BF03F1FF3399
:1047B000A0F8A8320446B0F9A832052100F51F7010
:1047C0000CF0AEF904F19800BDE810400AF0ABB966
:1047D0000CF3010810B5B0F8A832084A01331BB237
:1047E0000446A0F8A832052100F51F700CF098F9D6
:1047F00004F19800BDE810400AF095B90CF30108E7
:1048000010B54FF42B71044618F028F9204610BD5E
:1048100010B50446FEF722FA034B23600023A4F8E8
:10482000A832204610BD00BF18F3010870470438B5
:1048300070477047C0680368DB6A1847A0F104003E
:10484000FFF7F8BFC06803681B6B1847A0F10400AE
:10485000FFF7F8BF10B51021044618F0FFF8204606
:1048600010BDA0F10400F5E710B500228260044AF3
:10487000C16002F1080428320460426010BD00BF2C
:104880004CF3010870477047FEF78BBB80F8E910C6
:10489000C4300AF048B9000010B50B460446064A79
:1048A000042100F5D4700CF03BF904F1F000BDE8F0
:1048B00010400AF038B900BF0CF3010810B54FF4EE
:1048C000E071044618F0CAF8204610BD10B5044641
:1048D000FEF7C4FB014B2360204610BD8CF301089A
:1048E000704704387047704710B51021044618F01F
:1048F000B5F8204610BDA0F10400F5E710B5002280
:104900008260044AC16002F10804203204604260FF
:1049100010BD00BFC0F3010870477047012380F845
:10492000003E7047002380F8003E7047FEF70DBD43
:1049300010B540F60461044618F090F8204610BD0A
:1049400090F8003E10B531220446DBB990F8F43DF2
:10495000034400F6D85083F8D82D18F0D1F8174A40
:10496000C4F8EC0D03460A2104F694500CF0D8F874
:1049700004F2CC700AF0D7F894F8F43D013384F8CF
:10498000F43D10BD90F8F53D034400F6E25083F885
:10499000E22D18F0B5F8094AC4F8F00D03460A21D3
:1049A00004F6B2500CF0BCF804F654500AF0BBF810
:1049B00094F8F53D013384F8F53DE2E70CF3010886
:1049C00090F8003E10B532220446DBB990F8F43D71
:1049D000034400F6D85083F8D82D18F091F8174A00
:1049E000C4F8EC0D03460A2104F694500CF098F834
:1049F00004F2CC700AF097F894F8F43D013384F88F
:104A0000F43D10BD90F8F53D034400F6E25083F804
:104A1000E22D18F075F8094AC4F8F00D03460A2192
:104A200004F6B2500CF07CF804F654500AF07BF80F
:104A300094F8F53D013384F8F53DE2E70CF3010805
:104A400090F8003E10B533220446DBB990F8F43DEF
:104A5000034400F6D85083F8D82D18F051F8174ABF
:104A6000C4F8EC0D03460A2104F694500CF058F8F3
:104A700004F2CC700AF057F894F8F43D013384F84E
:104A8000F43D10BD90F8F53D034400F6E25083F884
:104A9000E22D18F035F8094AC4F8F00D03460A2152
:104AA00004F6B2500CF03CF804F654500AF03BF80F
:104AB00094F8F53D013384F8F53DE2E70CF3010885
:104AC00090F8003E10B534220446DBB990F8F43D6E
:104AD000034400F6D85083F8D82D18F011F8174A7F
:104AE000C4F8EC0D03460A2104F694500CF018F8B3
:104AF00004F2CC700AF017F894F8F43D013384F80E
:104B0000F43D10BD90F8F53D034400F6E25083F803
:104B1000E22D17F0F5FF094AC4F8F00D03460A210B
:104B200004F6B2500BF0FCFF04F6545009F0FBFF02
:104B300094F8F53D013384F8F53DE2E70CF3010804
:104B400090F8003E10B535220446DBB990F8F43DEC
:104B5000034400F6D85083F8D82D17F0D1FF174A38
:104B6000C4F8EC0D03460A2104F694500BF0D8FF6C
:104B700004F2CC7009F0D7FF94F8F43D013384F8C7
:104B8000F43D10BD90F8F53D034400F6E25083F883
:104B9000E22D17F0B5FF094AC4F8F00D03460A21CB
:104BA00004F6B2500BF0BCFF04F6545009F0BBFF02
:104BB00094F8F53D013384F8F53DE2E70CF3010884
:104BC00090F8003E10B536220446DBB990F8F43D6B
:104BD000034400F6D85083F8D82D17F091FF174AF8
:104BE000C4F8EC0D03460A2104F694500BF098FF2C
:104BF00004F2CC7009F097FF94F8F43D013384F887
:104C0000F43D10BD90F8F53D034400F6E25083F802
:104C1000E22D17F075FF094AC4F8F00D03460A218A
:104C200004F6B2500BF07CFF04F6545009F07BFF01
:104C300094F8F53D013384F8F53DE2E70CF3010803
:104C400090F8003E10B537220446DBB990F8F43DE9
:104C5000034400F6D85083F8D82D17F051FF174AB7
:104C6000C4F8EC0D03460A2104F694500BF058FFEB
:104C700004F2CC7009F057FF94F8F43D013384F846
:104C8000F43D10BD90F8F53D034400F6E25083F882
:104C9000E22D17F035FF094AC4F8F00D03460A214A
:104CA00004F6B2500BF03CFF04F6545009F03BFF01
:104CB00094F8F53D013384F8F53DE2E70CF3010883
:104CC00090F8003E10B538220446DBB990F8F43D68
:104CD000034400F6D85083F8D82D17F011FF174A77
:104CE000C4F8EC0D03460A2104F694500BF018FFAB
:104CF00004F2CC7009F017FF94F8F43D013384F806
:104D0000F43D10BD90F8F53D034400F6E25083F801
:104D1000E22D17F0F5FE094AC4F8F00D03460A210A
:104D200004F6B2500BF0FCFE04F6545009F0FBFE02
:104D300094F8F53D013384F8F53DE2E70CF3010802
:104D400090F8003E10B539220446DBB990F8F43DE6
:104D5000034400F6D85083F8D82D17F0D1FE174A37
:104D6000C4F8EC0D03460A2104F694500BF0D8FE6B
:104D700004F2CC7009F0D7FE94F8F43D013384F8C6
:104D8000F43D10BD90F8F53D034400F6E25083F881
:104D9000E22D17F0B5FE094AC4F8F00D03460A21CA
:104DA00004F6B2500BF0BCFE04F6545009F0BBFE02
:104DB00094F8F53D013384F8F53DE2E70CF3010882
:104DC00090F8003E10B530220446DBB990F8F43D6F
:104DD000034400F6D85083F8D82D17F091FE174AF7
:104DE000C4F8EC0D03460A2104F694500BF098FE2B
:104DF00004F2CC7009F097FE94F8F43D013384F886
:104E0000F43D10BD90F8F53D034400F6E25083F800
:104E1000E22D17F075FE094AC4F8F00D03460A2189
:104E200004F6B2500BF07CFE04F6545009F07BFE01
:104E300094F8F53D013384F8F53DE2E70CF3010801
:104E400010B50446FEF7A6FB064B23600023C4F80A
:104E5000EC3DC4F8F03DA4F8F43D84F8003E204653
:104E600010BD00BFF8F30108F02070474FF4A070A8
:104E700070472920FCF73ABC2820FCF737BC08B55E
:104E8000FCF708FCCA20FCF731FCC320FCF712FC3D
:104E90000820FCF70FFC5020FCF70CFCCF20FCF79F
:104EA00025FC0020FCF706FCC120FCF703FC3020A9
:104EB000FCF700FCED20FCF719FC6420FCF7FAFB82
:104EC0000320FCF7F7FB1220FCF7F4FB8120FCF732
:104ED000F1FBE820FCF70AFC8520FCF7EBFB002047
:104EE000FCF7E8FB7820FCF7E5FBCB20FCF7FEFBAA
:104EF0003920FCF7DFFB2C20FCF7DCFB0020FCF763
:104F0000D9FB3420FCF7D6FB0220FCF7D3FBF720BB
:104F1000FCF7ECFB2020FCF7CDFBEA20FCF7E6FBDE
:104F20000020FCF7C7FB0020FCF7C4FBB120FCF716
:104F3000DDFB0020FCF7BEFB1B20FCF7BBFBB62013
:104F4000FCF7D4FB0A20FCF7B5FBA220FCF7B2FB70
:104F5000C020FCF7CBFB1020FCF7ACFBC120FCF71A
:104F6000C5FB1020FCF7A6FBC520FCF7BFFB4520C6
:104F7000FCF7A0FB1520FCF79DFBC720FCF7B6FB58
:104F80009020FCF797FB3620FCF7B0FBC820FCF71D
:104F900091FBF220FCF7AAFB0020FCF78BFBB02072
:104FA000FCF7A4FBC220FCF785FBB620FCF79EFBB8
:104FB0000A20FCF77FFBA720FCF77CFB2720FCF7EF
:104FC00079FB0420FCF776FB2A20FCF78FFB0020FE
:104FD000FCF770FB0020FCF76DFB0020FCF76AFB80
:104FE000EF20FCF767FB2B20FCF780FB0020FCF791
:104FF00061FB0020FCF75EFB0120FCF75BFB3F2020
:10500000FCF758FBF620FCF771FB0120FCF752FB84
:105010000020FCF74FFB0620FCF74CFB2C20FCF794
:1050200065FBC820FCF7B0FB2620FCF75FFB0120E6
:10503000FCF740FBE020FCF759FB0F20FCF73AFBA4
:105040002920FCF737FB2420FCF734FB0C20FCF76D
:1050500031FB0E20FCF72EFB0920FCF72BFB4E202A
:10506000FCF728FB7820FCF725FB3C20FCF722FB13
:105070000920FCF71FFB1320FCF71CFB0520FCF7A5
:1050800019FB1720FCF716FB1120FCF713FB00207F
:10509000FCF710FBE120FCF729FB0020FCF70AFBE2
:1050A0001620FCF707FB1B20FCF704FB0420FCF791
:1050B00001FB1120FCF7FEFA0720FCF7FBFA312078
:1050C000FCF7F8FA3320FCF7F5FA4220FCF7F2FA85
:1050D0000520FCF7EFFA0C20FCF7ECFA0A20FCF7AD
:1050E000E9FA2820FCF7E6FA2F20FCF7E3FA0F2074
:1050F000FCF7E0FA1120FCF7F9FAC820FCF744FBB2
:105100002920FCF7F3FABDE808402C20FCF7EEBAA2
:1051100008B5FCF7BFFA0321D320FCF703FB80B2EC
:1051200008BD10B5C4B2022203212046FCF768FA7C
:105130000A20FCF7ADFA204600220321FCF760FAB2
:10514000BDE810400220FCF7A3BA38B50446E4B22B
:10515000FCF754FA00212046FCF76AFA01210546C3
:105160002046FCF765FA40EA052080B238BD10B54C
:10517000C4B240212046FCF75BFA030607D54C2158
:105180002046FCF755FA003818BF012010BD012257
:105190004B212046FCF734FA204600224B21FCF735
:1051A0002FFA0020F2E773B50423C4B20E46154669
:1051B000D7210DEB03022046FCF754FA019B1BBAE2
:1051C0001A0DC3F30B23328020462B8001224B2182
:1051D000FCF716FA00224B212046FCF711FA02B028
:1051E00070BD000010B50A4B1A78904204460DD0ED
:1051F000597888420AD00AB141B901229C54FCF77F
:10520000FDF92046BDE81040FFF78BBF10BD00BF81
:10521000481F002010B5C4B209212046FCF708FA47
:1052200040F00100C2B209212046BDE81040FCF761
:10523000E7B910B5C4B209212046FCF7F9F90921F4
:1052400000F0FE022046BDE81040FCF7D9B938B5A1
:10525000C4B20D4620460A21FCF7EAF940EA0502ED
:10526000D2B220460A21BDE83840FCF7C9B907B5DB
:105270000190FCF7C4F901981F21FFF7E8FF01989E
:1052800003B05DF804EBFFF7C5BF38B5C4B20D46F7
:1052900020460A21FCF7CCF920EA0502D2B22046CA
:1052A0000A21BDE83840FCF7ABB910B50446FFF75A
:1052B000C0FF20461F21BDE81040FFF7E6BF10B534
:1052C000C0B20C460B21FCF7B3F9204010BD1F21E2
:1052D000FFF7F5BF0A46C0B20B21FCF791B91F21B9
:1052E000FFF7F8BF38B5C4B20D4620461721FCF7CA
:1052F0009FF920EA0502D2B220461721BDE83840C6
:10530000FCF77EB970B5C4B2064604212046FCF70E
:105310008FF9042100F0FB0205462046FCF770F9E6
:105320003046F021FFF7DEFF05F0F80220460421A9
:10533000FCF766F9492220212046FCF761F902209A
:10534000FCF7A6F9204601222121FCF759F9204655
:105350009A224121FCF754F9204601224A21FCF708
:105360004FF9204601224B21FCF74AF92046002242
:105370004B21FCF745F9204601225621FCF740F964
:10538000204601225821FCF73BF92046012240210A
:10539000FCF736F92046FF220B21FCF731F9BDE876
:1053A00070400220FCF774B9054BD3F8882042F412
:1053B0007002C3F888204FF000629A60704700BF07
:1053C00000ED00E008B50B4B1A6842F400721A6059
:1053D0001A6842F480621A601A6842F480721A6095
:1053E000032000F067FA0020FCF744FCFCF7DAF930
:1053F000002008BD003C0240034A044B11681B78A2
:105400000B441360704700BF303201207800002049
:10541000014B1868704700BF3032012038B5044690
:10542000FFF7F6FF631C1CBF054B1B78054618BF32
:10543000E418FFF7EDFF431BA342FAD338BD00BFCA
:105440007800002038B50446002800F09B80056CE9
:1054500025B9FCF7C7F9656484F83C50236CDB067A
:1054600000F18E80236C23F4885323F0020343F071
:1054700002032364444B5A6822F440325A605A684B
:1054800061680A435A60236821695A6822F480726D
:105490005A605A6842EA01225A605A68A16822F0AA
:1054A00040725A605A680A435A609A68E16822F466
:1054B00000629A609A680A439A603449A26A8A42F2
:1054C00052D0996821F07061996099680A439A6096
:1054D0009A68E16A22F040529A609A680A439A6098
:1054E0009A6822F002029A609A68217E42EA41029A
:1054F0009A6094F82020002A3ED05A68616A42F4EB
:1055000000625A605A6822F460425A605A6801394F
:1055100042EA41325A60DA6AE16922F47002DA62E0
:10552000DA6A013942EA0152DA629A6822F40072B8
:105530009A609A6894F8301042EA41229A609A6818
:10554000616922F480629A609A68002042EA8122AE
:105550009A606064236C23F0030343F00103236427
:10556000002384F83C3038BD9A6822F070629A605B
:105570009A6822F04052B2E75A6822F40062C9E702
:105580000120EDE70120EEE7002301400100000FBC
:1055900013B50023019390F83C30012B6CD001230C
:1055A000026880F83C309368D9070CD5936813F0F3
:1055B00001031AD1026C42F010020264426C42F004
:1055C0000102426456E093682D4943F00103936061
:1055D0002C4B1B68B3FBF1F303EB43030193019BDB
:1055E000002BE3D0019B013BF8E7036C264C23F42E
:1055F000E06323F0010343F48073036453685B05A5
:1056000041BF036C23F4405343F480530364036CA1
:1056100013F480531CBF436C23F0060343646FF004
:105620002201002380F83C3011601849486810F0CE
:105630001F0019D1A24206D0154B9A420DD14B68DA
:1056400013F01F0F07D1906810F0405016D19368E7
:1056500043F08043936002B010BD0E4B9A42FAD1E2
:105660004B6813F0100FEDE7A24207D1906810F0DD
:105670004050ECD01846EEE70220ECE70020EAE7C5
:1056800040420F0074000020002001400023014030
:10569000002101400022014090F83C30012B14D041
:1056A00003689A6822F001029A609B68DB0707D4BE
:1056B000036C23F4885323F0010343F001030364D4
:1056C000002380F83C30184670470220704703687A
:1056D0009A68520570B504460D460BD59B68DE05E9
:1056E00008D5036C43F020030364002380F83C30AA
:1056F000012070BDFFF78CFE064623681A689107EB
:105700000CD56FF012021A60226C42F4007222640F
:105710009A6812F0405F17D00020EAE7681CEDD0CD
:1057200065B923681B6813F00203E6D1226C84F884
:105730003C3042F0040222640320DAE7FFF768FEFF
:10574000801BA842EDD8D8E7207E0028E4D1DA6A91
:1057500012F4700F02D09B685A05DDD4236C23F439
:1057600080732364236CDB04D6D4236C43F00103E1
:105770002364BEE70368D86C70470000F7B50023C8
:10578000019390F83C30012B69D0012380F83C3024
:105790000D6803688E68092DACB234D904EB44025D
:1057A000DF681E3A4FF0070C0CFA02FC27EA0C07E0
:1057B000DF60DF6806FA02F23A43DA6049680629D8
:1057C00001EB81022FD8596B053A1F26964021EA3A
:1057D00006015963596B04FA02F20A435A63304ACC
:1057E00093420AD1122D3CD12E4B5A6822F400026A
:1057F0005A605A6842F480025A60002380F83C30B4
:10580000184603B0F0BD1F6905EB45024FF0070CC9
:105810000CFA02FC27EA0C071F611F6906FA02F264
:105820003A431A61CAE70C294FF01F010BD81E6BCF
:10583000233A914026EA01011963196B04FA02F236
:105840000A431A63CBE7DE6A413A914026EA010136
:10585000D962D96A04FA02F20A43DA62BFE7022087
:10586000CFE7114B9D4201D0112DC6D10D4B5A6887
:1058700022F480025A605A6842F400025A600A4BCD
:105880009D42BAD1094B0A4A1B68B3FBF2F20A23C4
:1058900053430193019B002BAFD0019B013BF8E7E1
:1058A000002001400023014012000010740000207D
:1058B00040420F000749CA6822F4E0620302120462
:1058C00003F4E063120C134343F0BF6343F400336B
:1058D000CB60704700ED00E0164B30B5DC68C4F3D8
:1058E0000224C4F10705231D042D28BF0425062B1F
:1058F0004FF0FF338CBF033C002403FA05F521EA87
:105900000501A34022EA0302A140002841EA020364
:10591000ACBF00F16040084A4FEA0313B8BF00F083
:105920000F00DBB2AABF00F56140135480F80033CA
:1059300030BD00BF00ED00E014ED00E0002808DB02
:105940004209012300F01F0003FA00F0014B43F865
:105950002200704700E100E010B5044650B14379E1
:1059600003F0FF0213B90271FBF76EFF01236371AD
:10597000002010BD0120FCE710B5044630B390F8BC
:10598000393003F0FF021BB980F83820FBF774FFB1
:1059900022686168022384F83930136823F44033A5
:1059A0000B431360536BA16823F007030B4353634E
:1059B000136CE16823F47F5323F03F030B4313641C
:1059C00000200123E06384F8393010BD0120FCE79A
:1059D00070477047036870B55E681D68F20704463B
:1059E00014D5E90512D51A6822F480721A60C26BC8
:1059F00042F00102C26301229A60042380F8393028
:105A0000002380F83830436903B19847B20616D5B1
:105A1000AB0414D523681A6822F400521A602022BD
:105A20009A60E36B43F00203E363042384F83930A4
:105A3000002384F8383063690BB12046984730075B
:105A400016D5290514D523681A6822F400621A6055
:105A500008229A60E36B43F00403E363042384F8B1
:105A60003930002384F8383063690BB120469847F9
:105A700072070BD56B0509D523681A6822F480627A
:105A80001A6004229A602046FFF7A2FFB00714D5DF
:105A9000A90512D523681A6822F400721A6002223E
:105AA0009A60E36BE363012384F83930002384F8C0
:105AB000383023690BB120469847F20613D5EB0422
:105AC00011D523681A6822F480521A6010229A6055
:105AD000E36BE363012384F83930002384F8383022
