:020000040800F2
:100000000000032089050008F11C0008F31C00080B
:10001000F51C0008F71C0008F91C0008000000008F
:1000200000000000000000000000000051840008F3
:10003000FB1C000800000000E1840008497D000866
:10004000D9050008D9050008D9050008D905000818
:10005000D9050008D9050008D9050008D905000808
:10006000D9050008D9050008D9050008D9050008F8
:10007000D9050008D9050008D9050008D9050008E8
:10008000D9050008D9050008D9050008D9050008D8
:10009000D9050008D9050008D9050008D9050008C8
:1000A000D9050008D9050008D9050008D9050008B8
:1000B000D9050008D9050008D9050008D9050008A8
:1000C000D9050008D9050008D9050008D905000898
:1000D000D9050008D9050008D9050008D905000888
:1000E000D9050008D9050008D9050008D905000878
:1000F000D9050008D9050008D9050008D905000868
:10010000D9050008D9050008D9050008D905000857
:10011000D9050008D9050008FD1C0008D90500080C
:10012000D9050008D9050008D9050008D905000837
:10013000D9050008D9050008D9050008D905000827
:10014000D9050008D9050008D9050008D905000817
:10015000D9050008D9050008D9050008D905000807
:10016000D9050008D9050008D9050008D9050008F7
:10017000D9050008D9050008D905000800000000CD
:10018000D9050008D9050008D9050008D9050008D7
:10019000D9050008D9050008D9050008D9050008C7
:0C01A000091D0008D9050008151D000805
:1001B00010B5054C237833B9044B13B10448AFF3A1
:1001C00000800123237010BD6401002000000000A6
:1001D000D4DE010808B5034B1BB103490348AFF354
:1001E000008008BD0000000068010020D4DE010886
:1001F00001F0FF01102A2BDB10F0070F08D010F8D8
:10020000013B013A8B422DD010F0070F42B3F6D1DB
:10021000F0B441EA012141EA014122F007047FF0F4
:1002200000070023F0E80256083C85EA010586EA4B
:10023000010685FA47F5A3FA87F586FA47F6A5FA87
:1002400087F68EB9EED1F0BC01F0FF0102F0070293
:1002500032B110F8013B013A83EA010313B1F8D13E
:100260000020704701387047002D06BF354603381F
:10027000073815F0010F07D1013015F4807F02BF58
:10028000013015F4C03F0130F0BC0138704700BFA9
:1002900053B94AB9002908BF00281CBF4FF0FF31ED
:1002A0004FF0FF3000F06EB9ADF1080C6DE904CEEF
:1002B00000F006F8DDF804E0DDE9022304B0704741
:1002C0002DE9F047089D04468C46002B40F08380C2
:1002D0008A42174647D9B2FA82F242B1C2F12000EF
:1002E00024FA00F09140974040EA010C94404FEA14
:1002F0001748230CBCFBF8F61FFA87FE08FB16C153
:1003000043EA014306FB0EF1994209D9FB1806F1B5
:10031000FF3080F01981994240F21681023E3B4441
:100320005B1AA4B2B3FBF8F008FB103344EA0344B1
:1003300000FB0EFEA64509D93C1900F1FF3380F001
:100340000581A64540F2028102383C4440EA06405D
:10035000A4EB0E0400261DB1D4400023C5E90043E0
:100360003146BDE8F08702B9FFDEB2FA82F2002A18
:1003700050D1CB1B4FEA174E1FFA87F80126B3FB6B
:10038000FEFC210C0EFB1C3341EA034108FB0CF37D
:100390008B4207D979180CF1FF3002D28B4200F260
:1003A000E9808446C91AA3B2B1FBFEF00EFB10111E
:1003B00043EA014408FB00F8A04507D93C1900F1C5
:1003C000FF3302D2A04500F2D9801846A4EB0804FE
:1003D00040EA0C40BFE78B4209D9002D00F0B18004
:1003E0000026C5E9000130463146BDE8F087B3FA82
:1003F00083F6002E4AD18B4202D3824200F2B880AB
:10040000841A61EB030101208C46002DA8D0C5E9B8
:10041000004CA5E7C2F1200320FA03F6974001FA49
:1004200002F04FEA174ED9403043030CB1FBFEF601
:100430001FFA87F80EFB161143EA014306FB08F189
:10044000994204FA02F409D9FB1806F1FF3C80F046
:100450008D80994240F28A80023E3B445B1A81B211
:10046000B3FBFEF00EFB103341EA034100FB08F33F
:100470008B4207D9791800F1FF3C73D28B4271D9B6
:1004800002383944CB1A40EA064678E7C6F1200C18
:1004900003FA06F422FA0CF31C4320FA0CF701FAD3
:1004A00006F34FEA144E21FA0CF11F433B0CB1FB4B
:1004B000FEF91FFA84F80EFB191143EA014109FB0A
:1004C00008FA8A4502FA06F200FA06F308D961181A
:1004D00009F1FF3048D28A4546D9A9F102092144E1
:1004E000A1EB0A01BFB2B1FBFEF00EFB101147EA0F
:1004F000014700FB08F8B84507D9E71900F1FF31BB
:100500002ED2B8452CD90238274440EA0940A7EB3F
:100510000807A0FB02894F45C64649461AD317D0A3
:100520005DB1B3EB0E0267EB010707FA0CFCF2407A
:100530004CEA0202F740C5E9002700263146BDE833
:10054000F0872E4628460BE70646E9E61846FDE604
:100550004345E5D2B8EB020E69EB04010138DFE751
:100560000846D2E760468DE78146B9E7664675E7FB
:1005700030464AE7ACF1020C394413E702383C44F8
:1005800024E700BF704700BFDFF834D0002103E04C
:100590000C4B5B58435004310B480C4B42189A42A9
:1005A000F6D30B4A02E0002342F8043B094B9A427F
:1005B000F9D304F091FF1CF05BFC00F02BFE7047B8
:1005C000000003207C7C090800000020640100205A
:1005D00064010020A0320120FEE700F035BC00F0ED
:1005E000A3BC704710B5042104461CF0CFFA204686
:1005F00010BD000038B50C4B0C4C18800C4B822001
:1006000019806368984740F6110398420AD1094D52
:1006100023682C60822098472B688220DB689847EB
:10062000002038BD0120FCE7800100204C000020A4
:1006300082010020840100204FF4A071F020FFF718
:10064000D9BF0000F7B5344D2B6804461B698220E2
:10065000984780B2208000284CD02B680DF106020C
:100660005B6901A982209847BDF8063040F67462A4
:10067000934241D9ADF80620BDF80620C2F5676265
:10068000043292B20A2A3DD90B23B2FBF3F2234B78
:100690001B889A4201D95A1E92B2BDF8043040F626
:1006A000B8318B4230D8C3F571630E339BB20F2142
:1006B000B3FBF1F31A4909888B4201D94B1E9BB257
:1006C000184E194D30682F68834281B28CBF591A79
:1006D000C91AB8B2BA428CBF101A801A89B280B255
:1006E00001440529C8BF33603368C8BF2A606380EE
:1006F0002B68A38003B0F0BDB32B9CBFB423ADF82F
:100700000630B9E70022C8E7C3F56D6308339BB232
:100710000E2BCCD80023D3E78401002082010020D7
:1007200080010020880100208C01002037B5684638
:100730000D461446FFF786FFBDF8000030B1BDF846
:1007400002302B60BDF804302360012003B030BDBF
:10075000704770477047012380F8741080F8753037
:1007600070470020704700207047836B0BB108462C
:10077000184770474FF6FF707047406803689B69E1
:10078000184770477047704770B5044600F06EFC1C
:100790002368D3F88050044BD4E90F122046AC46AE
:1007A000BDE87040604700BF000000D008B531B917
:1007B0000A4B0B4A0B484FF425711CF015FAC0E99F
:1007C0000F12003A0849436418BF01220A70003B27
:1007D000064A18BF0123137008BD00BF4CDF010893
:1007E00084DF0108D2DF0108462D0120472D0120BA
:1007F00008B5036804469B6F9847236820461B6F23
:10080000984700F0B5F8236820469B6E984729204A
:1008100000F06CFF00F0ACF8236820469B6E984710
:10082000F8E710B504460AF07FFC23682046D3F8A9
:10083000A030BDE81040184700F00ABC00F00EBC24
:1008400000F032BC00F0E0BB00F032BC00F03ABC7B
:1008500000F0E4BB09F020BE10B57C2104461CF07A
:1008600095F9204610BD90F877301BB140680368B9
:100870001B6818471846704730B590F8341090F848
:100880007440104B8C421A780DD05AB90E4A0F4959
:100890000F4814880F4D0C80018811802980048036
:1008A00001221A7030BD002AFCD00948074A01888D
:1008B0001180054A074D14882C8011800480002285
:1008C000EFE700BF402D01203C2D0120422D0120EB
:1008D0003E2D0120442D0120012108B500220846AB
:1008E00007F0D4FA0A4B186028B90A4B0A4A2721A4
:1008F0000A481CF079F900220421012007F064FB6A
:10090000074B186018B9074B034A2B21F0E708BDC5
:1009100094010020E4E001082DE101085CE10108F8
:1009200090010020A2E10108024B4FF0FF3118684E
:1009300007F0F6BA94010020014B186807F01CBBC1
:1009400094010020024B0021186807F0E9BA00BFAB
:1009500094010020FFF7F0BF03480449006800231A
:100960001A4607F06DBB00BF900100200400002074
:1009700013B5084C00231A4601A9206807F090FB24
:1009800020684FF0FF33002201A907F089FB02B075
:1009900010BD00BF9001002007F05ABA03685B6CDD
:1009A00018470120704703689B6A184782B00023EC
:1009B00001930D4B1A6B42F400021A631A6B02F496
:1009C00000020192019A1A6942F400021A611A693E
:1009D00022F400021A61054B054A1A61054B4FF0DB
:1009E00080629A6002B07047003802409031012066
:1009F000010A000800E100E040F2EF30704700001B
:100A0000024B1B68586803685B691847482D012032
:100A100008B50B280BD8DFE800F01206100A0A0A06
:100A20000A0808080808012008BD0520FCE7054B56
:100A3000054A064865211CF0D7F80020F4E702209B
:100A4000F2E700BFE4E10108FFE101084BE2010821
:100A500008B50A2809D8DFE800F010060E080808D3
:100A6000080606060600012008BD054B054A064893
:100A700086211CF0B9F80020F6E70220F4E700BF59
:100A8000E4E101088FE201084BE201082DE9F84397
:100A900091F81D800C464046FFF7BAFFA77F054638
:100AA0003846FFF7B5FF06463846FFF7D1FFA18A63
:100AB000628B534B521A1A649A61228B521A1A6132
:100AC000E28A586342EA01425A6421696268D96342
:100AD000DA60D4F800C094F81C90BCF1800F4FEAA3
:100AE00009629E463BD015D8BCF1200F45EA0200B2
:100AF00079D0BCF1400F76D0BCF1040F2BD0404B25
:100B00002A4342F40032B845DA6114BF3D4A40F24C
:100B100001221EE0BCF5807F07D0BCF5007FEED13E
:100B200042F4003242F0090203E042F4003242F0A3
:100B30000A02DA61E0680202440102F4780204F475
:100B40007C44C0002243C0B202431A622E4A5E6255
:100B500059611A6043E040F40030D861F6E7A068BC
:100B60002A4342F40032041DDC62DA6102785E62DC
:100B7000596142B1012A1CD0244B254A25484FF423
:100B800088711CF031F84288D969501E21F47F42E7
:100B900022F0100242EA0022DA610125184CE369D2
:100BA00043F02003E361E3699B0613D5FFF7F4FEEE
:100BB000F9E74288D969501E21F47F4222F01002E1
:100BC00042EA0022B9F1FF0542F0100218BF0125E8
:100BD000DA61E3E71023A3601DB10B4B2360BDE88E
:100BE000F883084BFAE7084B40F40030CEF81C00BD
:100BF000CEF82460CEF81410CEF80030EFE700BF36
:100C000000B002400102010001020200DCE2010822
:100C1000F6E201084BE20108F8B58E7F0C4630463B
:100C2000FFF716FFA78AE18A628B1E4B256958637E
:100C300041EA0741D21B5964DD631A64216808291F
:100C400018D19A611A615862217F174A42EA0162FB
:100C5000DA61E1680A02480102F4780200F47C409B
:100C6000C9000243C9B20A431A62104A5D61DD60DD
:100C70001A60F8BD0022D8611A61E1681EB9996353
:100C8000084B0B4AF4E70A02480102F4780200F428
:100C90007C40C900C9B202430A43217F42EA016293
:100CA0009A63EDE700B00240090001000102020072
:100CB00001020300054B0360054B4FF08062C3F84F
:100CC0008820BFF34F8FBFF36F8F704740E3010859
:100CD00000E100E010B50446FFF7ECFF20464FF4BA
:100CE00042611BF053FF204610BD000070B5044662
:100CF00025460A4B0C30002660602672667245F865
:100D0000203B602229460AF049FB04F54263EE606D
:100D10002035AB42FBD1204670BD00BF40E3010847
:100D2000012070470C2070470C2303FB01000830A2
:100D300070470C2303FB0100083070470120704707
:100D40004FF4626070474FF4626303FB01000830A8
:100D500070474FF4626303FB0100083070470120C5
:100D600070471020704700EB01100830704700EB0F
:100D7000011008307047084601F002B910B5034B66
:100D80000360044609F09EF9204610BDF8E301080F
:100D900010B50446FFF7F2FF204614211BF0F6FEC3
:100DA000204610BD10B5034B0360044609F08AF9D4
:100DB000204610BDC4E3010810B50446FFF7F2FF5A
:100DC000204640F628611BF0E1FE204610BD0000E1
:100DD00010B5034B0360044609F074F9204610BDBA
:100DE00090E3010810B50446FFF7F2FF20461821F2
:100DF0001BF0CCFE204610BD10B5084B0360044626
:100E000000F65460FFF7BAFF04F12C00FFF7CAFFA9
:100E100004F11400FFF7DCFF204610BD2CE40108AC
:100E200008B50248FFF7E8FF08BD00BF9C0100209D
:100E300010B50446FFF7E0FF204640F6CC711BF0EA
:100E4000A5FE204610BD00002DE9F34100F0DAFFB9
:100E5000054600F0DBFF00240146234628462246D3
:100E600000940FF0C1FF254B254A264D1A602046FD
:100E700003F050FB24480FF0F9FE2B78BFF35B8F93
:100E8000DB0735D428461BF083FE88B31F4C204B6C
:100E9000236004F6746604F1140004F12C0804F6CF
:100EA00054676060C4F80880E760266109F00CF9B7
:100EB000184B6361404609F007F9174BE362384667
:100EC00009F002F9154BC4F8543E04F6686003F0CB
:100ED000A1FB224604F66861304603F091FB3046E0
:100EE00001F04EF828461BF05FFE0D481BF09AFEFD
:100EF0000C4802B0BDE8F041FFF746BCA42D01202C
:100F0000081E002098010020080000209C010020FD
:100F10002CE4010890E30108C4E30108F8E30108A8
:100F2000210E00088C1D00200148FFF761BC00BFA6
:100F30008C1D002070B5244C244E254B254D23607C
:100F40003046FFF7D3FE284612F0D2FF224B23484B
:100F5000DC6000224FF48071C3E912122049036063
:100F600020481A85C3E91912C3E901654FF0807161
:100F70001D4D5967F024012104804FF4A070C3E98E
:100F80000422C3E90622C3E90822C3E90E22C3E909
:100F90001022C3E91422C3E9162283F82A20DA6258
:100FA0001A861A6683F86C201A6783F878102880EE
:100FB0000E4D83F834102A700D4A14800D4A1080AB
:100FC0000D4A1A6070BD00BF681100206C1100202E
:100FD0003CDF01080C1E00208C1D0020482D012044
:100FE000010000013C2D01203E2D0120402D01205B
:100FF000422D0120442D012020E001080148FFF787
:1010000059BE00BF6C110020034B902283F85A2375
:1010100083F85823704700BF00E100E0094A0A49FD
:10102000D3680A48C3F30A03013B9BB20B801169E2
:10103000C1F30A01013901801364536B43F00103CA
:101040005363704700680140861E0020841E002004
:10105000014B986A704700BF84680140024B01222F
:10106000996243F8602C70478468014070B504466B
:1010700009F065FA2368DD6D0CF076FE0146204626
:10108000A8472368054AD3F880502046AC46002381
:10109000BDE87040A2F51631604700BF00B004D033
:1010A00009F034BA09F03EBA09F0FCB909F055BBB1
:1010B000034B4FF080629A604FF080729A607047E5
:1010C00000E100E0084B4FF08062C3F88820BFF3D6
:1010D0004F8FBFF36F8F4FF08072C3F88820BFF33C
:1010E0004F8FBFF36F8F704700E100E0134B144A3E
:1010F0001B6C11888B4210B5124C13D1124B1988FE
:1011000005F098FC226892F86630013382F8663068
:10111000FFF722FC20680AF007F8BDE81040002025
:10112000FFF716BB05F086FC0020FFF712FB2068D6
:101130000368BDE81040DB69184700BF0068014044
:10114000861E0020482D0120841E002007B5064B76
:10115000ADF806001B68054801220DF1060106F0F6
:10116000A5F903B05DF804FB100000203C3001201D
:1011700008B5642006F07EFEFBE7000030B595B0B0
:10118000102200210AA81BF0B9FE1422002103A896
:101190001BF0B4FE00241D4B01941A6C42F08052E7
:1011A0001A641B6C03F080530193019B184B02944B
:1011B0001A6842F440421A601B6803F440430293E9
:1011C0000122029B4FF48033CDE9082302254FF41E
:1011D0008003CDE90E5308214FF4A873CDE9101315
:1011E00008A804231393129505F042FC0F23CDE9C0
:1011F00003354FF4A0504FF48053CDE90603052189
:1012000003A8059405F00EFE15B030BD003802406D
:10121000007000402DE980489BB004F06BF9FFF7A7
:10122000ADFF142200210DA800241BF067FEC44B63
:1012300000941A6BC348C44D42F020021A631A6B23
:1012400002F020020092009A01941A6B42F0800290
:101250001A631A6B02F080020192019A02941A6BCF
:1012600042F004021A631A6B02F004020292029A1C
:1012700003941A6B42F001021A631A6B02F0010226
:101280000392039A04941A6B42F002021A631A6BD7
:1012900002F002020492049A05941A6B42F0400292
:1012A0001A631A6B02F040020592059A06941A6BB3
:1012B00042F010021A631A6B02F010020692069AAC
:1012C00007941A6B42F008021A631B6B03F00803C1
:1012D000079322460421079B04F0CEFD9B4822463B
:1012E0004FF4405104F0C8FD224699484FF4C041E4
:1012F00004F0C2FD012602274FF0040891480F9424
:101300000DA9CDE90D86109704F0CAFC91480F97FE
:101310000DA9CDE90D6404F0C3FC4FF440538B4894
:101320000DA9CDE90D36CDE90F4704F0B9FC0DA9A3
:101330004FF4C0438648CDE90D36CDE90F4404F0A3
:10134000AFFC8548854B036004F09EFB844A854BC7
:101350002C62C5E9002328464FF48043C5E90434D4
:10136000C5E90244C5E9064404F068FF1021284697
:1013700005F0A4F92146284605F0BFF97A487B49D3
:1013800084624FF48273C0E900134FF40075182390
:10139000C0E906530A23764DC362C0E90244C0E99E
:1013A0000444C0E9084406F025F8724B0D97C5E9DE
:1013B00000364FF0100A4023C5E904A34FF4C07370
:1013C000C5E906344FF40063C5E908344FF400530F
:1013D000AB624FF0030B07230DA92846CDE90E3869
:1013E00010934FF00809C5E90248CDE911B71397EA
:1013F00005F00CFF4FF6FF7209A92846CDE90A96C1
:10140000089409960C9405F021FF304604F09EF8EC
:101410004FF6FF7209A92846CDE90979CDE90B6499
:1014200005F014FF4FF6FF7209A92846CDE909B966
:10143000CDE90B8405F00AFF4FF40C730893089B69
:101440000C934FF6FF7209A92846CDE909890B963E
:1014500005F0FCFE40F26A51284605F00EFF3422EA
:1014600021460DEB02001BF049FD434D434BAC867A
:10147000C5E900340923C5E905361D2340F20D1CDA
:10148000C5E9073B40F24313C5E909C340F2171E03
:1014900040F247132846C5E90BE3C5E902442C6135
:1014A00085F8364005F0CEF9FF21F022CDE912147F
:1014B0004FF4806805214FF4A073CDE90E24CDE9E7
:1014C0001481CDE916420DA922462846CDE91037F0
:1014D0002B4D18930D94ADF864408DF8664005F0DF
:1014E0007CFA284B2B601B68DFF8AC9098472B6880
:1014F000254DDB689847254BC5E90A47C5E90C44EB
:101500002846C5E90034C5E9027404F0CDFA314635
:10151000284604F081FB1E4D524621460DA81BF0C3
:10152000EDFC4FF48033C5E900932846194BAB62BC
:10153000AC602C612C7685F82040EC622EE000BF78
:101540000038024000080240E82F0120000C024051
:101550000018024000000240943001200030024098
:10156000005C0040A08601003C300120005001409A
:10157000D0310120400100A09C30012000680140D2
:10158000881E0020140000209031012000B002408D
:10159000443101200100000F00200140EC60EE61A9
:1015A00085F830406E6103F0E5FF0DA92846CDE9CE
:1015B0000D660F9404F07AF9FFF70FF806F0D2FBEE
:1015C000084A0948214606F0F9FB084B084A18600A
:1015D0002146084806F0F2FB074B186006F0D4FBE2
:1015E000FEE700BF74E4010871110008E42F012038
:1015F00050E40108DF0500088C3101207047704776
:101600007FB5094B8DF817201B6802930DF1170267
:101610000123009201930A460146044804F0B6FEF5
:1016200007B05DF804FB00BF0C000020E82F01208C
:101630007FB500238DF81730084B1B6802930A46CC
:1016400001230DF11701009101930146044804F0B4
:101650002DFF9DF8170007B05DF804FB0C0000207B
:10166000E82F01201FB5084C24680092CDE9013411
:101670000A4601230146054804F018FF003818BF48
:10168000012004B010BD00BF0C000020E82F012095
:1016900003F05CBF08B506480022042104F0ECFB0F
:1016A000BDE8084002480122042104F0E5BB00BF68
:1016B0000008024038B50B4D044601220A484FF499
:1016C000005104F0D9FB00220421284604F0D4FB89
:1016D0002046FFF73BFD28460122BDE838400421A3
:1016E00004F0CABB00080240000C024038B50B4DA4
:1016F000044600220A484FF4005104F0BDFB0022CA
:101700000421284604F0B8FB2046FFF71FFD2846B9
:101710000122BDE83840042104F0AEBB00080240BD
:10172000000C0240F7B5144E144F05460C463046E7
:101730000022042104F0A0FB00224FF4005138469F
:1017400004F09AFB2846FFF701FD0D4B0D481B687E
:10175000224601A906F046F8384601224FF400510E
:10176000019C04F089FB30460122042104F084FB33
:10177000204603B0F0BD00BF00080240000C02404C
:10178000100000203C30012003F0E0BE0268034B53
:101790009A4201D103F0C8BE704700BF001000405C
:1017A0007047000082B00E4B00220092596C41F449
:1017B00080415964596C01F4804100910099019273
:1017C000196C41F0805119641B6C03F08053019334
:1017D000019B0F216FF0010002B004F015B900BFAA
:1017E0000038024010B5044688B01422002103A836
:1017F0001BF084FB2268124B9A421FD103F58C33F5
:1018000000220192596C0F4841F480715964596C5F
:1018100001F48071019101990292196B41F001016B
:1018200019631B6B059203F0010302930221029BD3
:101830000323CDE9031303A904F032FA08B010BD65
:1018400000200140000002400268094B9A4282B029
:101850000BD100230193074B1A6B42F480521A6399
:101860001B6B03F480530193019B02B0704700BFD0
:10187000003002400038024007B50F4B02689A4220
:1018800016D10022A3F5F0430192196B41F4000137
:1018900019631B6B03F40003019305215A20019B7C
:1018A00004F0B2F85A2003B05DF804EB04F0DEB89F
:1018B00003B05DF804FB00BF00B002402DE9F04327
:1018C000044689B01422002103A81BF017FB2268EC
:1018D000244B9A4243D1244C244800250095236B85
:1018E00043F004032363236B03F004030093009B82
:1018F0000195236B43F001032363236B03F0010382
:101900000193019B4FF012094FF400734FF001084F
:101910000327042603A9CDE90339CDE905870796F6
:1019200004F0BEF94FF480731148079603A9CDE97E
:101930000339CDE9058704F0B3F90295236C43F42C
:1019400000032364236C03F400030293029B236AC5
:1019500043F400032362236A23F40003236209B0E3
:10196000BDE8F083005C00400038024000080240FF
:1019700000000240F0B599B004461422002107A8E7
:101980001BF0BCFA30220DEB020000211BF0B6FA6E
:1019900022685E4B9A4240F0B78008230C93C02324
:1019A0001093042312930CA84FF40033159305F001
:1019B00003FB08B1FFF7F4FE554B56480024009492
:1019C0005A6C42F080625A645A6C02F08062009253
:1019D000009A01941A6B42F020021A631A6B02F00B
:1019E00020020192019A02941A6B42F001021A63DA
:1019F0001A6B02F001020292029A03941A6B42F0EF
:101A000002021A631A6B02F002020392039A049410
:101A10001A6B42F040021A631A6B02F04002049201
:101A2000049A05941A6B42F004021A631A6B02F0CE
:101A300004020592059A06941A6B42F008021A6392
:101A40001B6B03F00803069302250E26069B0B96DC
:101A50004FF4806307A9CDE90735CDE9094504F0C6
:101A60001FF941F658032C480B9607A9CDE9073515
:101A70000927CDE9094504F013F9032327480B97FB
:101A800007A9CDE90735CDE9094504F009F94FF477
:101A9000706322480B9607A9CDE90735CDE90945C2
:101AA00004F0FEF84FF40C631D480B9607A9CDE92E
:101AB0000735CDE9094504F0F3F8C02319480B9622
:101AC00007A9CDE90735CDE9094504F0E9F8082370
:101AD00015480B9607A9CDE90735CDE9094504F06E
:101AE000DFF84FF4A0530E480B9707A9CDE907354F
:101AF000CDE9094504F0D4F858202246052103F029
:101B000083FF582003F0B2FF19B0F0BD0068014018
:101B1000003802400014024000000240000402406D
:101B20000018024000080240000C024010B50446B4
:101B300088B01422002103A81BF0E0F92268154B9D
:101B40009A4224D103F5684300220192596C41F472
:101B500080115964596C01F480110191019902922C
:101B6000196B41F0200119631B6B059203F02003F0
:101B700002934FF46071029B0223CDE9031303200B
:101B80000523CDE9060303A9034804F089F808B04A
:101B900010BD00BF00500140001402402DE9F0418B
:101BA0002C4B1C6886B0002C50D14FF00108C3F8B4
:101BB0000080294B00949A6B284842EA08029A63F5
:101BC0009B6B039403EA08030093022703260C256A
:101BD000009B01A94FF63F03CDE90137CDE904652C
:101BE00004F05EF81E48059501A9CDE90187CDE90D
:101BF000034604F055F848F233131A48059501A935
:101C0000CDE90137CDE9034604F04AF84FF6837376
:101C10001548059501A9CDE90137CDE9034604F042
:101C20003FF84CF203731148059501A9CDE901373E
:101C3000CDE9034604F034F860230D48059501A969
:101C4000CDE90137CDE9034604F02AF806B0BDE836
:101C5000F08100BF8C1E00200038024000140240BA
:101C6000000802400018024000100240000C024030
:101C70000004024030B5014689B00022362003F04E
:101C8000C3FE362003F0F2FE0025154B02951A6CB8
:101C9000144C42F010021A641B6C03F01003029300
:101CA00001A903A8029B05F069F905F057F90E4B4D
:101CB000236040F2E733E36040000C4BB0FBF3F0ED
:101CC0000138606020462561A56005F06FFF20B9EE
:101CD000204605F025FE09B030BD0120FBE700BF1E
:101CE00000380240043201200010004040420F0042
:101CF0007047FEE7FEE7FEE7FEE77047014805F0A4
:101D00004DBE00BF04320120014804F009BE00BFEF
:101D10009C300120014803F0F5BE00BF9031012046
:101D20000120704708B51AF095FF162303604FF0A5
:101D3000FF3008BD08B51AF08DFF16230360FEE7DB
:101D400070B50E4614460025A54201DB204670BD45
:101D5000AFF3008070550135F6E770B50E461446B6
:101D60000025A54201DB204670BD705DAFF3008009
:101D70000135F6E74FF0FF3070474FF400534B60EA
:101D800000207047012070470020704708B50A4BBB
:101D90001968024609B90949196018686946024478
:101DA0008A4206D91AF056FF0C2303604FF0FF3029
:101DB00008BD1A60FCE700BF901E0020A032012081
:101DC000704710B5042104461AF0E0FE204610BD0D
:101DD00008B5042914D8DFE801F003070B0F0F0042
:101DE00002F0E4FB006808BD02F0E0FB4068FAE79F
:101DF00002F0DCFB8068F6E702F0D8FBC068F2E78F
:101E00000020F0E700487047ACE401080F2070475D
:101E100013B5002451B1036801948DF8034001AA61
:101E20009C680DF10303A04702B010BD0846FBE714
:101E3000408970478089704780887047837980889F
:101E4000184480B27047C07900F07F007047C079B5
:101E5000C0097047704710B5082104461AF096FE75
:101E6000204610BD704700F596730868496803C3A3
:101E70007047704770474160704770470123037295
:101E800070477047704710B4C268416854100346E9
:101E900001EB6200D20748BF0A599B685DF8044B0A
:101EA00048BFD358184743682BB183682BB9C06823
:101EB00000F001007047184670470120704710B5C8
:101EC0000C2104461AF062FE204610BD10B5102108
:101ED00004461AF05BFE204610BD10B54FF4AC71FD
:101EE00004461AF053FE204610BD10B50BF03CFF1F
:101EF0000368BDE810401B6B184710B50446D0F8C6
:101F00003C0158B10368DB68984738B1D4F83C010C
:101F100003689B6898470023C4F83C3110BD00005B
:101F2000F8B5044617460E460BF03EFF104B002551
:101F3000C4E954760F4E1C60C4E952550E4B30680C
:101F400023600E4BC4E95035036801219B68C4E946
:101F50004E559847284602F0DDFA336893F876200C
:101F60000AB1D86C00B9986813F0F5FC2046F8BDAA
:101F7000942D0120482D012034EC01081CEC0108AF
:101F8000064BC0F848310023C0F84C3100F5A0736F
:101F9000C0F84401C0F83C31704700BF452100083B
:101FA000064BC0F848310023C0F84C3100F5A0734F
:101FB000C0F84401C0F83C31704700BFA9220008B6
:101FC000064BC0F848310023C0F84C3100F5A0732F
:101FD000C0F84401C0F83C31704700BF0D24000830
:101FE000064BC0F848310023C0F84C3100F5A0730F
:101FF000C0F84401C0F83C31704700BF71250008AB
:1020000003685B6A184700002DE9F84F074690689F
:10201000DDF828A0994603681B6A8846144698474D
:10202000B0F5C87F05D2414B414AA32141481AF07F
:10203000DBFD606803681B6A98470F2803D83E4B96
:102040003B4AA421F2E7E06803681B6A98470B2823
:1020500003D83A4B364AA521E8E70BF085FE0BF092
:1020600089FED9F8000010B10368DB689847D9F8F9
:10207000000010B103681B689847386810B1036806
:102080005B699847D8F8000010B103685B6898470F
:10209000386810B103681B689847D8F8000010B181
:1020A00003689B689847E0680021FFF7A9FF4FF09D
:1020B000000B234B03600546C0F804B080F808B05D
:1020C000A068036859465B6A9847064602F03CFBE5
:1020D0006068036859465B6A98473146044602F0D7
:1020E000DDFAC9F80050C8F800403E60E4B1231D95
:1020F000CAF800303368C4F808A03046DB68F463DF
:102100009847236820461B689847294630460DF0BB
:1021100082FA2B6828461B6998472B6828465B691A
:1021200098472046BDE8F88F2346E1E7E8E5010837
:1021300076E601087AE70108C1E7010864E80108CA
:1021400078EC010807B5D0F854310093D0F850214D
:10215000044B00F59C710448FFF756FF03B05DF88F
:1021600004FB00BF882D0120842D01202DE9F84FAC
:1021700007469068DDF828A0994603681B6A8846E0
:1021800014469847B0F52B7F05D2414B414AA32115
:1021900041481AF029FD606803681B6A98470F28B8
:1021A00003D83E4B3B4AA421F2E7E06803681B6A70
:1021B00098470B2803D83A4B364AA521E8E70BF09D
:1021C000D3FD0BF0D7FDD9F8000010B10368DB6830
:1021D0009847D9F8000010B103681B689847386821
:1021E00010B103685B699847D8F8000010B1036824
:1021F0005B689847386810B103681B689847D8F83F
:10220000000010B103689B689847E0680021FFF761
:10221000F7FE4FF0000B234B03600546C0F804B0F7
:1022200080F808B0A068036859465B6A984706467C
:1022300002F0ECFA6068036859465B6A98473146D9
:10224000044602F099FAC9F80050C8F800403E6010
:10225000E4B1231DCAF800303368C4F808A0304642
:10226000DB68F4639847236820461B689847294633
:1022700030460DF0D0F92B6828461B6998472B682B
:1022800028465B6998472046BDE8F88F2346E1E77A
:10229000E8E5010807E901087AE70108C1E7010854
:1022A00064E8010878EC010807B5D0F854310093D0
:1022B000D0F85021044B00F59C710448FFF756FFFD
:1022C00003B05DF804FB00BF882D0120842D0120A0
:1022D0002DE9F84F07469068DDF828A09946036875
:1022E0001B6A884614469847B0F5E07F05D2414BFB
:1022F000414AA32141481AF077FC606803681B6AD1
:1023000098470F2803D83E4B3B4AA421F2E7E068E8
:1023100003681B6A98470B2803D83A4B364AA52115
:10232000E8E70BF021FD0BF025FDD9F8000010B116
:102330000368DB689847D9F8000010B103681B6890
:102340009847386810B103685B699847D8F800006F
:1023500010B103685B689847386810B103681B6860
:102360009847D8F8000010B103689B689847E06868
:102370000021FFF745FE4FF0000B234B036005469D
:10238000C0F804B080F808B0A068036859465B6ADA
:102390009847064602F098FA6068036859465B6AF7
:1023A00098473146044602F05DFAC9F80050C8F873
:1023B00000403E60E4B1231DCAF800303368C4F821
:1023C00008A03046DB68F4639847236820461B6802
:1023D0009847294630460DF01EF92B6828461B69A0
:1023E00098472B6828465B6998472046BDE8F88FD8
:1023F0002346E1E7E8E501080BEA01087AE701086E
:10240000C1E7010864E8010878EC010807B5D0F8D5
:1024100054310093D0F85021044B00F59C710448CE
:10242000FFF756FF03B05DF804FB00BF882D0120C5
:10243000842D01202DE9F84F07469068DDF828A08B
:10244000994603681B6A884614469847B0F5626F40
:1024500005D2414B414AA32141481AF0C5FB6068AF
:1024600003681B6A98470F2803D83E4B3B4AA421B8
:10247000F2E7E06803681B6A98470B2803D83A4BD9
:10248000364AA521E8E70BF06FFC0BF073FCD9F896
:10249000000010B10368DB689847D9F8000010B15C
:1024A00003681B689847386810B103685B699847F0
:1024B000D8F8000010B103685B689847386810B11D
:1024C00003681B689847D8F8000010B103689B6840
:1024D0009847E0680021FFF793FD4FF0000B234B76
:1024E00003600546C0F804B080F808B0A06803682F
:1024F00059465B6A9847064602F038FD60680368F3
:1025000059465B6A98473146044602F0F5F9C9F826
:102510000050C8F800403E60E4B1231DCAF8003006
:102520003368C4F808A03046DB68F4639847236832
:1025300020461B689847294630460DF06CF82B68FA
:1025400028461B6998472B6828465B6998472046B0
:10255000BDE8F88F2346E1E7E8E501080FEB010845
:102560007AE70108C1E7010864E8010878EC01088E
:1025700007B5D0F854310093D0F85021044B00F542
:102580009C710448FFF756FF03B05DF804FB00BFE1
:10259000882D0120842D0120006A7047406A704711
:1025A00070478B8880690A68DB0A50F82300104462
:1025B000704710B5C2B1137BB3B1547BD27A2402F9
:1025C00004F4E0641443C26998B202EB84021388F5
:1025D0008B4202D192F9020010BD05D8013880B2B9
:1025E00004320028F3D1F7E70020F5E710B52821E1
:1025F00004461AF0CBFA204610BD000030B589B071
:102600000446BDF850500695BDF84C5005959DF810
:10261000405004959DF83C5003959DF83850029524
:102620009DF8345001959DF8305000950CF0D4FB86
:10263000064B2360119BA361129BE361159B2362F0
:10264000169B6362204609B030BD00BF9CEC0108B8
:102650000020704781807047C180704701817047BA
:10266000418170477047704770477047704710B49A
:10267000C4880368121B84881B6D091B12B25DF8A5
:10268000044B09B218474FF6FF7383814FF0FF33B5
:1026900003621368C36110607047704770477047EA
:1026A0007047704790F825201AB190F8242002B1A5
:1026B000186070477047704770477047704730B474
:1026C000C26844685510034604EB6200D20748BF55
:1026D00062599B6830BC48BFD358184743682BB138
:1026E00083682BB9C06800F0010070471846704736
:1026F0000120704710B5102104461AF047FA204611
:1027000010BD10B54FF4C87104461AF03FFA2046C8
:1027100010BD00F19802914210B504D10368DB6A44
:10272000BDE81040184700F1D002914202D1036881
:102730001B6BF5E700F58472914205D10BF014FB99
:10274000BDE81040FFF72CBC00F5A273994205D1FB
:102750000BF00AFBBDE81040FFF732BC10BD0000D3
:10276000074A02600022C0E90122C0E90322C0E951
:102770000522C0E907224FF480728284704700BFAF
:10278000A406020870B503680446DB6A154698473C
:102790002368294620461B6BBDE87040184700009F
:1027A00010B52622044600211AF0A8FB2046FFF7A8
:1027B000D7FF0023A36284F82C300123064A84F853
:1027C00024304FF6FF73E385238684F8323022608D
:1027D000A386204610BD00BFEC0002082DE9F04F93
:1027E000044689B025460CF099FD4FF0000B814B53
:1027F000C4F83CB045F8403B5946262228461AF01A
:102800007DFB2846FFF7ACFF04F16C06FF277A4BEF
:10281000236426224FF6FF73594684F86670C4F885
:1028200068B03046ADF81C301AF068FB3046FFF750
:1028300097FF724BE366BDF81C30A4F8923007A9ED
:1028400004F1980A84F89470304609F06AFD04F1A6
:10285000D0095046FFF7A4FF04F584784846FFF7F7
:102860009FFF04F5A277404609F034FD384609F091
:1028700031FD634BC4E96034624B5A46C4E9623BA4
:1028800059462846FFF77EFF2846F021FFF7E6FE6F
:1028900028464FF4A071FFF7E3FE4FF07F435A46FE
:1028A000A36659463046FFF76DFF4FF00A0307A9AC
:1028B00030464FF0090BADF81C3009F032FD5046A0
:1028C00068223821FFF75EFF4FF00803A4F8CCB070
:1028D00007AA06A95046ADF81830ADF81CB009F0AB
:1028E000F9F904F5C0720392C4F8C0204846A62244
:1028F0003821FFF747FF4FF00803A4F804B107AAF7
:1029000006A94846ADF81830ADF81CB009F0E2F958
:10291000039BC4F8F8304046F8222321FFF732FF2A
:102920000523ADF818300DF1180C07AB00934FF0EC
:10293000010263460DF1140CADF810204FF00201B6
:1029400062464FF003000DF1100CADF81410ADF815
:102950001C006146404609F01AFC4FF008034FF096
:10296000460BA4F84231039BC4F830313846A4F832
:1029700040B10A222321FFF705FF0723ADF81830E5
:102980004FF0010207AB4FF002014FF00300ADF82A
:102990001020ADF8141005AAADF81C00009304A98E
:1029A00006AB384609F0F3FB1023A4F87E31039BF5
:1029B000C4F86C31201D2946A4F87CB1039007F0BF
:1029C0002BFC0398314607F027FC0398514607F08B
:1029D00023FC0398494607F01FFC0398414607F083
:1029E0001BFC0398394607F017FC204609B0BDE8E8
:1029F000F08F00BF0CED010874020208C004020849
:102A0000F4EC010813270008806A704770B50D794F
:102A100090F82C3004463DB93BB123682046D3F8EA
:102A20008030BDE8704018477BB1B5FA85F35B098B
:102A300084F82C3023682046D3F8843098472368E4
:102A400020465B699847002DE7D070BD70477047FE
:102A50007047704790F82C302BB1C26EC26523B11D
:102A6000436F03667047826EF8E7036FF9E77047BC
:102A70007047704730B4C26844685510034604EB91
:102A80006200D20748BF62599B6830BC48BFD35828
:102A9000184743682BB183682BB9C06800F0010068
:102AA0007047184670470120704730B4C2684468C8
:102AB0005510034604EB6200D20748BF62599B6879
:102AC00030BC48BFD358184743682BB183682BB933
:102AD000C06800F001007047184670470120704739
:102AE00090F82D3080F85A30704710B578210446A0
:102AF0001AF04CF8204610BD10B5102104461AF00B
:102B000045F8204610BD10B5102104461AF03EF8D5
:102B1000204610BD10B54FF42A7104461AF036F85D
:102B2000204610BD10B50446006B50B10368DB6849
:102B3000984730B1206B036821469B68BDE8104080
:102B4000184710BD00F1D802914202D10368DB6A38
:102B5000184700F5A872914202D103681B6BF7E792
:102B6000704700F51070884208B505D10BF0FCF8ED
:102B7000BDE80840FFF704BA08BD70B504461D461D
:102B8000BDF91060FFF7FEFD2368294620465B6B08
:102B900098472368314620469B6BBDE87040184734
:102BA00010B52622044600211AF0A8F92046FFF7A6
:102BB000D7FD044B2360FF2384F826300023A36253
:102BC000204610BD7402020810B5262204460021DA
:102BD0001AF094F92046FFF7C3FD074B2360074B1B
:102BE000A3624FF6FF73A3854FF47F020023C4E96D
:102BF0000C322387204610BDCC010208E0E5010815
:102C000070B50446FFF7ACFD4FF47F432646A3851D
:102C10000123002584F824300D4BA562256346F876
:102C2000343B3046FFF7BCFF0A4B63632A46294614
:102C30003046C4E91A55C4E91C552566A4F8645009
:102C4000FFF7A0FD2046314607F0E6FA204670BDAA
:102C500054EE0108B40302082DE9F04F2DED048B6A
:102C600004468BB00CF05AFB22460025B74BE563B7
:102C700042F8403B04F16C06104608EE102A4FF66D
:102C8000FF78FFF78DFF262229463046ADF82080D9
:102C90001AF034F93046FFF763FDAD4BE36608AF39
:102CA000BDF82030A4F89230394684F8948030463C
:102CB00004F1980A09F035FB5046FFF785FF04F14F
:102CC000D809A44BC4F89830C4F8D450484604F549
:102CD000A878FFF795FF4046FFF792FF04F5E473ED
:102CE000184608EE903AFFF76FFF04F50173184697
:102CF00009EE103AFFF768FF04F51073184609EE65
:102D0000903A09F0E7FA944BC4E9A234934BC4E932
:102D1000A435934BC4E9A634924BC4E9A8354FF4CB
:102D2000A07318EE100A00932A46F0232946FFF7F5
:102D300024FF4FF07F432A46A36629463046FFF71B
:102D400021FD0A2339463046ADF8203009F0E9FA72
:102D5000252300935522832337215046FFF70DFF8B
:102D60004FF07F43C4F8C8307F4BA4F8CC501B68A9
:102D700004F51F7B2BB97D4B7D4AAE217D4819F0B0
:102D800033FF7D4B1B88032B03D87C4B784AAF2144
:102D9000F4E77B4B0321186801F0F8FB794A0346FE
:102DA000052158460DF054FF774BC4F8D4B039468E
:102DB0004FF0320B50460893ADF8245008F04AFF0C
:102DC000CDF800B05B462A46294604F58670FFF729
:102DD000D4FE4FF005026D496D4BA4F83C216D48BF
:102DE0006D4AC4E95203C4E950214846FFF732FE58
:102DF000CDF800B05B464846AD222321FFF7BDFE6B
:102E000004F5267EC4F808E15B46CDF800B02A46FA
:102E1000294604F5C270CDF80CE0FFF7AEFE5B4921
:102E20005D4A5C48C4F8C0014FF0050CC4E96E214E
:102E300002F54C12A4F8B4C1C4F8C4214046FFF70F
:102E400009FE5B46CDF800B04046AD229B21FFF75E
:102E500094FE039AC4F8802118EE900A8722A721D5
:102E6000FFF790FC4FF07F42474BC4F8F82118EE73
:102E7000900AA4F8FC514FF0010B39460893ADF8C5
:102E800024B008F0E7FE19EE100A87222021FFF790
:102E900079FC4FF07F423C4BC4F8342219EE100A03
:102EA000A4F83852394602250893ADF8245008F0AA
:102EB000D1FE19EE900AF7222321FFF763FC0623C7
:102EC000ADF81C30032306AA19EE900AADF82030A5
:102ED00005A907AB0097ADF81850ADF814B009F08C
:102EE00056F94623A4F878321023251DA4F87A3227
:102EF00004F52273C4F8683218EE101A284607F059
:102F00008BF93146284607F087F95146284607F0E5
:102F100083F94946284607F07FF94146284607F0DD
:102F20007BF918EE901A284607F076F919EE101A78
:102F3000284607F071F9284619EE901A07F06CF947
:102F400020460BB0BDEC048BBDE8F08F18EF0108F4
:102F5000C00402080C030208E8EE0108632B000815
:102F600000EF0108452B0008982D012040ED0108D5
:102F700082ED0108B0ED01089C2D0120F7ED01085C
:102F8000A42D012049EE0108E0E50108CC9900FFDD
:102F9000996633FF663300FF996600FF70477047FC
:102FA000704730B4C26844685510034604EB6200B1
:102FB000D20748BF62599B6830BC48BFD3581847F6
:102FC00043682BB183682BB9C06800F001007047DB
:102FD000184670470120704710B51021044619F0BB
:102FE000D5FD204610BD10B54FF4E071044619F030
:102FF000CDFD204610BD08B500F59873994205D166
:103000000AF0B2FEBDE80840FEF7BABF00F5B670A0
:10301000814205D10AF0A8FEBDE80840FEF7E0BFF6
:1030200008BD000038B5262204460D46002119F0DF
:1030300065FF2046FFF794FB064B23602B88E38453
:10304000FF23204684F82830294609F06AF92046F3
:1030500038BD00BFC00402082DE9F04F2DED028BF2
:1030600004468BB025464FF0000B0CF057F99F4BF0
:10307000C4F83CB045F8403B26225946284619F092
:103080003DFF2846FFF76CFB994B236404F16C0A63
:10309000FF2384F866304FF6FF7704F19809C4F8EF
:1030A00068B008A9504604F1C408ADF82070FFF7D5
:1030B000B9FF08A9484604F1F006ADF82070FFF703
:1030C000B1FF08A94046ADF82070FFF7ABFF5946A5
:1030D0002622304619F012FF3046FFF741FB854BA0
:1030E000C4F818314FF47F03A4F81C71C4F82431DC
:1030F00004F59877804BC4F820B1A4F828B1C4F83F
:10310000F030C4F82CB1384609F0E4F804F5B67391
:10311000184608EE103A09F0DDF8784BC4E96C3433
:10312000774B5A46C4E96E3B59462846FFF72AFBBF
:10313000F0212846FFF792FA4FF4A0712846FFF7D6
:103140008FFA4FF07F43A3665A4659465046FFF721
:1031500019FB0A2208A95046ADF8202009F0E1F831
:10316000602211464846FFF70DFB0D2208A948468C
:10317000ADF8202009F0D5F8602211464046FFF74F
:1031800001FB0B2284F8E9B008A94046ADF82020E5
:1031900009F0C7F827223F213046FFF7F3FA4FF036
:1031A0007F43C4F82031574BA4F824B11B6804F5C1
:1031B000D47B2BB9544B554AAE21554819F014FD18
:1031C000544B1B88052B03D8534B504AAF21F4E7CF
:1031D000524B0521186801F0D9F9514A03460421E0
:1031E00058460DF035FDC4F82CB1304608F015FDF9
:1031F0004FF0040B3F4B089308A93046ADF824B0BC
:1032000008F028FD3846F9222321FFF7BBFA4FF0DA
:103210000103ADF8143007A908AB00934FF0020288
:103220000B4606A9ADF81820ADF81CB00A464FF0C1
:10323000030B05A93846ADF820B008F0A8FF04F547
:10324000D87046234FF01001A4F86831A4F86A1131
:103250000390C4F85801BD2218EE100A2321FFF78D
:1032600091FA4FF00103ADF8143005A808AB4FF008
:103270000202ADF81820009306AA07AB014618EE2B
:10328000100AADF81CB0ADF820B008F080FF47235D
:10329000A4F8A4314FF01001039BC4F89431201D11
:1032A000A4F8A6112946039006F0B6FF03985146EC
:1032B00006F0B2FF0398494606F0AEFF0398414678
:1032C00006F0AAFF0398314606F0A6FF0398394698
:1032D00006F0A2FF039818EE101A06F09DFF204694
:1032E0000BB0BDEC028BBDE8F08F00BF6CEF0108A6
:1032F00074020208E0E501080C03020854EF01081B
:10330000F72F0008982D012040ED010882ED0108FB
:10331000B0ED01089C2D0120F7ED0108A42D01203E
:1033200049EE010870477047704770477047704713
:1033300070477047704770477047704770477047D5
:10334000704770477047704790F82C302BB1C26EB1
:10335000C26523B1436F03667047826EF8E7036F5F
:10336000F9E77047704730B4C268446855100346A7
:1033700004EB6200D20748BF62599B6830BC48BF6B
:10338000D358184743682BB183682BB9C06800F045
:1033900001007047184670470120704790F82D30A3
:1033A00080F85A30704710B57821044619F0EEFBCA
:1033B000204610BD10B51021044619F0E7FB204649
:1033C00010BD10B540F6F451044619F0DFFB20465D
:1033D00010BD0B7970B590F82C6004460D469BB972
:1033E0008EB9B3FA83F35B0984F82C302368204646
:1033F000D3F884309847236820465B69984716B114
:103400002B79012B03D070BD002EFCD0E9E7236897
:103410002046D3F88030BDE87040184700F198028C
:10342000914210B5034604D10368DB6ABDE8104041
:10343000184700F58872914202D103681B6BF5E7CB
:1034400000F5C472914202D103685B6BEEE700F5B0
:103450000072914202D103689B6BE7E700F51E7290
:10346000914202D10368DB6BE0E700F53C729142C8
:1034700002D103681B6CD9E700F55A72914202D160
:1034800003685B6CD2E700F57872914202D1036861
:103490009B6CCBE700F58B62914202D10368DB6C39
:1034A000C4E700F59A62914205D10268526DBDE809
:1034B00010401846104700F5A962914202D10268F7
:1034C000926DF4E700F5B862914202D10268126D84
:1034D000EDE700F5C762914202D10268D26DE6E7DE
:1034E00000F5D662914202D10268526EDFE700F524
:1034F000E562914202D10268126ED8E700F60C42F2
:10350000914205D10AF030FCBDE81040FEF758BDED
:1035100000F54B62914202D10268926EC7E710BD7E
:1035200070B50446FFF71CF94FF47F432646A38588
:103530000123002584F824300D4BA562256346F84D
:10354000343B3046FFF72CFB0A4B63632A4629467F
:103550003046C4E91A55C4E91C552566A4F86450E0
:10356000FFF710F92046314606F056FE204670BDA2
:10357000A0EF0108B403020810B40367019B43677E
:1035800003685DF8044BD3F88430C0E91A12184779
:103590002DE9F04F2DED108B04469FB00BF0BEFED1
:1035A00022460025E14BE56342F8403B04F16C0AFA
:1035B00010464FF6FF7608EE102AFFF7F1FA2622A2
:1035C00029465046ADF8706019F098FC5046FFF758
:1035D000C7F8D74BE366BDF87030A4F892301CA949
:1035E00084F89460504608F09CFE04F19803184655
:1035F0000AEE103AFFF794FF04F5887318460AEEB6
:10360000903AFFF78DFF04F5C47318460BEE103A9D
:10361000FFF786FF04F5007318460BEE903AFFF7AC
:103620007FFF04F51E7318460CEE103AFFF778FF83
:1036300004F53C7318460CEE903AFFF771FF04F561
:103640005A7318460DEE103AFFF76AFF04F57873C7
:1036500018460DEE903AFFF763FF04F58B631846AA
:103660000EEE103AFFF75CFF04F59A6318460EEE73
:10367000903AFFF755FF04F5A96318460FEE103A8C
:10368000FFF74EFF04F5B86318460FEE903AFFF7C8
:1036900047FF04F5C76318460393FFF741FF04F59E
:1036A000D66318460493FFF73BFF04F5E56318461D
:1036B0000593FFF735FF04F5F4631CA9184608EEDF
:1036C000903AADF8706007F0DDFE04F2CC73184656
:1036D000984F0693FFF778FA04F60C03C4F8CC77FA
:1036E0001846C4F808580793FFF76EFA04F6480323
:1036F00018460893FFF768FA04F68803C4F8487878
:103700001846C4F884580993FFF75EFA04F6C40318
:1037100018460A93FFF758FA04F5106318460B93FE
:10372000FFF752FA04F63C1318460C93FFF74CFAD5
:1037300004F6781318460D93FFF746FA04F6B4130F
:1037400018460E93FFF740FA04F51F6318460F93CF
:10375000FFF73AFA04F62C2318461093FFF734FAD1
:1037600004F6682318461193FFF72EFA04F6A423F3
:1037700018461293FFF728FA04F52E6318461393A0
:10378000FFF722FA04F61C3318461493FFF71CFACD
:1037900004F6583318461593FFF716FA04F69433D7
:1037A00018461693FFF710FA04F53D631846179371
:1037B000FFF70AFA04F60C4318461893FFF7B0FE19
:1037C00004F684431CA9184609EE103AADF870605F
:1037D00007F058FE04F54B6318461993FFF7A0FE57
:1037E00004F628531CA9184609EE903AADF870600B
:1037F00007F048FE04F6545318461A93FFF7E4F90D
:103800004D4BC4F8E43D4D4BC4F8EC3D4FF4A07370
:1038100018EE100AC4F8547D00932A46F023294676
:103820004FF07F47C4F8905DC4F8E84DC4F8F05DF0
:10383000FFF7A3F92A4629465046A7663226FEF727
:10384000A1FF4FF00A031CA95046DFF80091ADF824
:1038500070304FF0050B08F064FD334600962A46A1
:10386000294604F1CC00FFF788F9354B354A364933
:10387000A4F8FCB01AEE100ACDF8009004F6E45853
:10388000FFF77AFE33461AEE100A0096AE220721A1
:10389000FFF773F9334600962A46294604F5A270CD
:1038A000C4F8C880FFF769F9254B264A2649A4F8D1
:1038B00074B11AEE900ACDF80090FFF75DFE334622
:1038C0001AEE900A0096AE223321FFF756F93346DE
:1038D00000962A46294604F5DE70C4F84081FFF7B9
:1038E0004CF9174B174A1849A4F8ECB11BEE100A13
:1038F000CDF80090FFF740FE33461BEE100A00960D
:10390000AE225F21FFF739F9334600962A46294651
:1039100004F50D70C4F8B881FFF72FF9084B094A78
:103920000949A4F864B21BEE900A11E04CF00108BA
:10393000C00402080C03020834F001081D3400081A
:10394000663300FFCC9900FF996600FF996633FF4C
:10395000CDF80090FFF710FE33461BEE900A00965C
:10396000DA220721FFF709F9334600962A4629464D
:1039700004F52B70C4F83082FFF7FFF8B44BB54A5A
:10398000B549A4F8DCB21CEE100ACDF80090FFF7A0
:10399000F3FD33461CEE100A0096DA223321FFF7BE
:1039A000ECF8334600962A46294604F54970C4F8D7
:1039B000A882FFF7E2F8A64BA64AA749A4F854B399
:1039C0001CEE900ACDF80090FFF7D6FD33461CEEB2
:1039D000900A0096DA225F21FFF7CFF8334600966F
:1039E0002A46294604F56770C4F82083FFF7C5F816
:1039F000974B984A9849A4F8CCB31DEE100ACDF81D
:103A00000090FFF7B9FD33461DEE100A00964FF403
:103A100084720721FFF7B1F8334600962A462946FB
:103A200004F21440C4F89883FFF7A7F8884B894A3A
:103A30008949A4F844B41DEE900ACDF80090FFF730
:103A40009BFD33461DEE900A00964FF4847233219D
:103A5000FFF793F8334600962A46294604F28C4035
:103A6000C4F81084FFF789F8794B7A4A7A49A4F8A8
:103A7000BCB41EEE100ACDF80090FFF77DFD334672
:103A80001EEE100A00964FF484725F21FFF775F85E
:103A9000334600962A46294604F20450C4F8888426
:103AA000FFF76BF86A4B6B4A6B49A4F834B51EEE0E
:103AB000900ACDF80090FFF75FFD33461EEE900AA6
:103AC0000096AE228C21FFF758F8334600962A461E
:103AD000294604F27C50C4F80085FFF74EF85C4B91
:103AE0005C4A5D49A4F8ACB51FEE100ACDF8009011
:103AF000FFF742FD33461FEE100A0096AE22B921B1
:103B0000FFF73BF8334600962A46294604F2F45064
:103B1000C4F87885FFF731F84D4B4E4A4E49A4F86A
:103B200024B61FEE900ACDF80090FFF725FD33462E
:103B30001FEE900A0096DA228C21FFF71EF833461A
:103B400000962A46294604F26C60C4F8F085FFF717
:103B500014F83F4B3F4A40490398A4F89CB6CDF86F
:103B60000090FFF709FD334603980096DA22B92149
:103B7000FFF703F8334600962A46294604F2E4602C
:103B8000C4F86886FEF7F9FF314B324A324904988F
:103B9000A4F814B7CDF80090FFF7EEFC3346049874
:103BA00000964FF484728C21FEF7E7FF33460096AF
:103BB0002A46294604F25C70C4F8E086FEF7DDFF71
:103BC000234B244A24490598A4F88CB7CDF80090DB
:103BD000FFF7D2FC33464FF4847205980096B92162
:103BE000FEF7CBFF18EE900A1CA9C4F85887ADF871
:103BF000705008F096FB72233C2218EE900A009356
:103C00000721E323FEF7B9FF18EE900A294607F0D3
:103C100000FC1F2300930698662347221221FEF71B
:103C2000ACFF0E4BC4F8FC771B68A4F8005804F6F0
:103C300094562BB90A4B0B4AAE210B4818F0D4FF0F
:103C40000A4B1B88072B15D8094B064AAF21F4E70E
:103C5000663300FFCC9900FF996600FF982D012084
:103C600040ED010882ED0108B0ED01089C2D012016
:103C7000F7ED0108D54B0721186800F087FCD44AFE
:103C800003460A2130460CF0E3FF4FF00602069887
:103C9000C4F808681CA9CF4EADF874201C9607F034
:103CA000D9FF662207980721FEF76CFD08230798C5
:103CB000C4F83C781CA9A4F84058ADF874301C96A0
:103CC00007F0C8FF242300938322CF2308981221F2
:103CD000FEF753FF04F6A8521B92BF4AC4F8787847
:103CE0001368A4F87C58002BA4D0BC490B880A2B7D
:103CF000AAD9B64B0A21186800F048FCB44A03461A
:103D000014211B980CF0A4FF1B98C4F884081CA86D
:103D1000092301460898ADF874301C9607F09AFF05
:103D2000BB2209981921FEF72DFD1CA80B23014683
:103D3000A4F8BC580998C4F8B878ADF874301C964B
:103D400007F088FFBB220A984621FEF71BFD0DF104
:103D5000700C4FF00C006146A4F8F858ADF87400F0
:103D6000C4F8F4780A981C9607F074FFBB220B98ED
:103D70007221FEF707FD4FF00D0CADF874C00DF188
:103D8000700C61460B98A4F83459C4F830791C962D
:103D900007F060FFE7220C981921FEF7F3FC0DF104
:103DA000700E4FF00E0C71460C98A4F87059C4F8C0
:103DB0006C79ADF874C01C9607F04CFFE7220D98A3
:103DC0004621FEF7DFFC0DF1700E0F2371460D98B2
:103DD000A4F8AC59C4F8A879ADF874301C9607F073
:103DE00039FFE7220E987221FEF7CCFC0DF1700E20
:103DF000102371460E98A4F8E859C4F8E479ADF898
:103E000074301C9607F026FF40F215120F98182107
:103E1000FEF7B8FC0DF1700E112371460F98A4F84F
:103E2000245AC4F8207AADF874301C9607F012FFBB
:103E300040F2151210984621FEF7A4FC0DF1700E09
:103E4000122371461098A4F8605AC4F85C7AADF851
:103E500074301C9607F0FEFE40F215121198722184
:103E6000FEF790FC0DF1700E132371461198A4F823
:103E70009C5AC4F8987AADF874301C9607F0EAFEA4
:103E8000E72212989F21FEF77DFC0DF1700E14239E
:103E900071461298A4F8D85AC4F8D47AADF87430A0
:103EA0001C9607F0D7FEBB2213989D21FEF76AFCF3
:103EB0000DF1700E152371461398A4F8145BC4F825
:103EC000107BADF874301C9607F0C4FE40F215125A
:103ED0001498A121FEF756FC0DF1700E16237146C1
:103EE0001498A4F8505BC4F84C7BADF874301C9661
:103EF00007F0B0FEBB221598CC21FEF743FC0DF174
:103F0000700E172371461598A4F88C5BC4F8887B53
:103F1000ADF874301C9607F09DFE40F2151216980D
:103F2000CC21FEF72FFC0DF1700E18237146169868
:103F3000A4F8C85BC4F8C47BADF874301C9607F0D5
:103F400089FEE7221798CA21FEF71CFC0DF1700EBE
:103F5000192371461798A4F8045CC4F8007CADF8E6
:103F600074301C9607F076FE4FF0360ECDF800E068
:103F70002A462946782304F54460FEF7FEFD184BD7
:103F8000184A19491898A4F870BCCDF80090FFF7AA
:103F9000F3FA4FF0360ECDF800E078230622189899
:103FA0000721FEF7EAFD4FF00C00ADF870001CA8E9
:103FB0000146C4F83C8C19EE100A08F0B2F928202A
:103FC00039230D220090252110E000BFA42D0120EF
:103FD00049EE0108E0E50108982D01209C2D012003
:103FE000663300FFCC9900FF996600FF19EE100AB6
:103FF000FEF7C3FD294619EE100A07F00AFA36202B
:104000002A4629460090722304F6E440FEF7B5FDE7
:10401000894B8A4A8A491998A4F814BDCDF80090B2
:10402000FFF7AAFA36207223062200907821199809
:10403000FEF7A3FD1CA84FF00E0C0146C4F8E08C5F
:1040400019EE900AADF870C008F06BF9282003460D
:104050000D2200909D2119EE900AFEF78EFD294653
:1040600019EE900A07F0D5F91F2000906623472229
:104070001A988621FEF781FD724AA4F8885D1368BC
:10408000C4F8847D04F55D65002B3FF4D3AD6E4923
:104090000B881B2B7FF6D8AD6C4B1B21186800F0EA
:1040A00075FA6B4A03460A2128460CF0D1FD1A2303
:1040B0001A98C4F8905D1CA9251DADF874301C96A3
:1040C00007F0C8FD18EE101A284606F0A5F851466C
:1040D000284606F0A1F81AEE101A284606F09CF8B9
:1040E0001AEE901A284606F097F81BEE101A28468A
:1040F00006F092F81BEE901A284606F08DF81CEE9A
:10410000101A284606F088F81CEE901A284606F089
:1041100083F81DEE101A284606F07EF81DEE901A60
:10412000284606F079F81EEE101A284606F074F8B4
:104130001EEE901A284606F06FF81FEE101A284659
:1041400006F06AF81FEE901A284606F065F8039903
:10415000284606F061F80499284606F05DF80599AE
:10416000284606F059F818EE901A284606F054F83A
:104170000699284606F050F80799284606F04CF8AC
:104180000899284606F048F80999284606F044F8A8
:104190000A99284606F040F80B99284606F03CF8A4
:1041A0000C99284606F038F80D99284606F034F8A0
:1041B0000E99284606F030F80F99284606F02CF89C
:1041C0001099284606F028F81199284606F024F898
:1041D0001299284606F020F81399284606F01CF894
:1041E0001499284606F018F81599284606F014F890
:1041F0001699284606F010F81799284606F00CF88C
:104200001899284606F008F819EE101A284606F004
:1042100003F81999284605F0FFFF19EE901A284671
:1042200005F0FAFF28461A9905F0F6FF20461FB060
:10423000BDEC108BBDE8F08F663300FFCC9900FF1A
:10424000996600FF982D01209C2D0120A42D0120AE
:1042500049EE01087047000030B5164D2C78BFF3C9
:104260005B8F14F001048DB020D1284618F090FC2B
:10427000E0B13F230793104B0693104B10491148B0
:104280000894CDE9044301220423CDE9013205233A
:1042900000930C221923CDE909440394FEF7AEF9EB
:1042A000284618F081FC084818F0BCFC05480DB001
:1042B00030BD00BF941E0020D0440208B8F00108B1
:1042C000D43E0208981E00205542000870470000A6
:1042D00030B5154D2C78BFF35B8F14F001048DB011
:1042E0001ED1284618F054FCD0B13F2307930F4B42
:1042F00006930F4B0F49104808940122CDE904435F
:104300000423CDE90132CDE909440A230394009442
:10431000FEF774F9284618F047FC084818F082FCAC
:1043200005480DB030BD00BFC01E0020D4440208B7
:10433000BCF001087C3F0208C41E0020CD420008EA
:104340007047000030B5154D2C78BFF35B8F14F02B
:1043500001048DB01FD1284618F01AFCD8B13F23B4
:1043600007930F4B06930F4B05930123CDE90333BE
:1043700002930423CDE900330B490C48089414231D
:104380005F22CDE90944FEF739F9284618F00CFC04
:10439000074818F047FC05480DB030BDEC1E002062
:1043A000D8440208C0F001088C3F0208F01E00202B
:1043B000414300087047000030B5154D2C78BFF31D
:1043C0005B8F14F001048DB01ED1284618F0E0FB7D
:1043D000D0B13F2307930F4B06930F4B0F49104863
:1043E00008940122CDE904430423CDE90132CDE94B
:1043F0000944282303940094FEF700F9284618F096
:10440000D3FB084818F00EFC05480DB030BD00BFC6
:10441000181F00207C460208C4F00108C0440208AE
:104420001C1F0020B5430008002070470020704783
:104430000EB403B503AB002153F8042B01930AF02B
:10444000E9FA02B05DF804EB03B070470CB407B5AD
:1044500004AB53F8042B01930AF0DCFA03B05DF8C7
:1044600004EB02B070470000C36B10B5044673B391
:10447000038E2BB9184B194ABF21194818F0B4FB09
:10448000C38D00EB43035B8B0BB30BF027FE238E36
:10449000012B03D8134B144AC421EEE7E28D531CC1
:1044A0009BB2092B194688BFA3F10A0104EB410115
:1044B00040F63F10498B814209D10A2B04EB42029E
:1044C00028BF002304EB4303508B588351832046BD
:1044D000BDE810400BF0E6BCC8F00108D1F00108BF
:1044E0007CF10108C6F10108D4F101080BF094BC7D
:1044F00010B586B002AC84E806001A460AAB0593F4
:104500000193099B00932146089B08F094FF06B095
:1045100010BD000038B518BB124B13481B68134977
:10452000B3B11A689C681A4402605A681A440A6057
:104530001C440F4B00221A8000F038F8054600F0AA
:1045400033F80C4B1C600C4B1D600C4B188007E0C3
:104550000B4B03600B4B0B600B4B1C68002CE8D122
:1045600038BD00BF441F0020481F00204C1F002002
:10457000501F0020982D0120A02D01209C2D0120EE
:10458000F046020880460208C0470208044B1B6838
:1045900053F82100034B1B6803EB4000704700BF3A
:1045A0004C1F0020481F00201C2070470048704707
:1045B000541F002010B5FFF7C5FE064C2060FFF722
:1045C000FBFE6060FFF784FEA060FFF745FEE06041
:1045D00010BD00BF541F0020704710B54FF4AC71E0
:1045E000044618F0D3FA204610BD10B50446D0F8A2
:1045F000540100F015F82046BDE8104009F08CBACF
:1046000010B50446FDF78CFC014B2360204610BD1D
:10461000B0F201080022026002713222826070470B
:1046200070B5012104461348134E01F01FFC0038F9
:1046300018BF01202071304601F042F80A213046AF
:1046400001F0DDF8304601F02DF90546304601F065
:10465000BBF8ADB26523206821796B431B13A360BF
:1046600003689B6898472068A1680368BDE87040AC
:10467000DB68184700000240443101207047704752
:10468000704704387047704710B51021044618F081
:104690007DFA204610BDA0F10400F5E710B5002218
:1046A0008260044AC16002F1080420320460426062
:1046B00010BD00BFECF2010870477047FDF7FDBF69
:1046C00010B54FF4C871044618F060FA204610BDCA
:1046D00008B5034A034B0448872118F085FA00BF48
:1046E00058F301081CF301088BF3010808B5054BCA
:1046F0001B680BB9FFF7ECFF828EC08D131A58426E
:10470000584108BDD02D012008B59830FFF7EEFFC5
:10471000024600B10122BDE8084002484FF40051B2
:1047200001F0AABB0018024008B5D030FFF7DEFF49
:10473000024600B10122BDE8084002484FF4804122
:1047400001F09ABB0018024010B50446FEF746F887
:10475000014B2360204610BDD8F301087047043890
:104760007047704710B51021044618F00FFA204624
:1047700010BDA0F10400F5E710B500228260044AE4
:10478000C16002F1080420320460426010BD00BF25
:104790000CF4010870477047FEF75BB9B0F9A83216
:1047A0000A4A10B5002BC4BF03F1FF33A0F8A832AA
:1047B0000446B0F9A832052100F51F700CF048FA44
:1047C00004F19800BDE810400AF045BA3CF4010835
:1047D00010B5B0F8A832084A01331BB20446A0F85D
:1047E000A832052100F51F700CF032FA04F1980090
:1047F000BDE810400AF02FBA3CF4010810B54FF4A0
:104800002B71044618F0C2F9204610BD10B50446BD
:10481000FEF722FA034B23600023A4F8A8322046B7
:1048200010BD00BF48F40108704704387047704756
:10483000C0680368DB6A1847A0F10400FFF7F8BFFF
:10484000C06803681B6B1847A0F10400FFF7F8BFAE
:1048500010B51021044618F099F9204610BDA0F1BA
:104860000400F5E710B500228260044AC16002F13D
:10487000080428320460426010BD00BF7CF40108C7
:1048800070477047FEF78BBB80F8E910C4300AF020
:10489000E2B9000010B50B460446064A042100F5B3
:1048A000D4700CF0D5F904F1F000BDE810400AF026
:1048B000D2B900BF3CF4010810B54FF4E0710446D2
:1048C00018F064F9204610BD10B50446FEF7C4FB8D
:1048D000014B2360204610BDBCF40108704704382A
:1048E0007047704710B51021044618F04FF9204664
:1048F00010BDA0F10400F5E710B500228260044A63
:10490000C16002F1080420320460426010BD00BFA3
:10491000F0F401087047704740F20113A0F8183E08
:104920007047012380F8183E80F81A3E7047012333
:1049300080F8183E80F81B3E7047012380F8183E2F
:1049400080F81C3E7047FEF7FEBC000090F8193E50
:1049500010B50446BBB190F8183EA3B1D0F8083E9C
:10496000D0F80C2E1344C4F8143ED4F8143E194A5F
:1049700004F6A85014210CF06BF904F64800BDE8C9
:1049800010400AF068B994F81A3E43B194F8183E02
:104990002BB1D4F8083ED4F80C2E9B1AE3E794F818
:1049A0001B3E4BB194F8183E33B1D4F8083ED4F80E
:1049B0000C2E93FBF2F3D6E794F81C3E002BD4D0D8
:1049C00094F8183E002BD0D0D4F8082ED4F80C3E22
:1049D0005343C8E720F5010810B500230446C0F88A
:1049E000083EC0F80C3EA0F8103EC0F8143EC0F8D7
:1049F000183E80F81C3EC0F8F43DC0F8F83DA0F821
:104A0000FC3DC0F8FE3DC0F8023EA0F8063E124A4A
:104A10000A2100F694500CF01BF9D4F80C3E0E4A13
:104A20000A2104F55D600CF013F9D4F8143E0A4A2B
:104A3000142104F6A8500CF00BF904F2CC700AF023
:104A40000AF904F654500AF006F904F64800BDE8E5
:104A500010400AF000B900BF3CF4010810B54FF453
:104A60006261044618F092F8204610BD90F8183E96
:104A700010B531220446DBB990F8103E034400F62D
:104A8000F45083F8F42D18F0D3F8174AC4F8080E40
:104A900003460A2104F694500CF0DAF804F2CC70C4
:104AA0000AF0D9F894F8103E013384F8103E10BD96
:104AB00090F8113E034400F6FE5083F8FE2D18F0E6
:104AC000B7F8094AC4F80C0E03460A2104F55D60E4
:104AD0000CF0BEF804F654500AF0BDF894F8113EFC
:104AE000013384F8113EE2E73CF4010890F8183EE7
:104AF00010B532220446DBB990F8103E034400F6AC
:104B0000F45083F8F42D18F093F8174AC4F8080EFF
:104B100003460A2104F694500CF09AF804F2CC7083
:104B20000AF099F894F8103E013384F8103E10BD55
:104B300090F8113E034400F6FE5083F8FE2D18F065
:104B400077F8094AC4F80C0E03460A2104F55D60A3
:104B50000CF07EF804F654500AF07DF894F8113EFB
:104B6000013384F8113EE2E73CF4010890F8183E66
:104B700010B533220446DBB990F8103E034400F62A
:104B8000F45083F8F42D18F053F8174AC4F8080EBF
:104B900003460A2104F694500CF05AF804F2CC7043
:104BA0000AF059F894F8103E013384F8103E10BD15
:104BB00090F8113E034400F6FE5083F8FE2D18F0E5
:104BC00037F8094AC4F80C0E03460A2104F55D6063
:104BD0000CF03EF804F654500AF03DF894F8113EFB
:104BE000013384F8113EE2E73CF4010890F8183EE6
:104BF00010B534220446DBB990F8103E034400F6A9
:104C0000F45083F8F42D18F013F8174AC4F8080E7E
:104C100003460A2104F694500CF01AF804F2CC7002
:104C20000AF019F894F8103E013384F8103E10BDD4
:104C300090F8113E034400F6FE5083F8FE2D17F065
:104C4000F7FF094AC4F80C0E03460A2104F55D601B
:104C50000BF0FEFF04F6545009F0FDFF94F8113EEE
:104C6000013384F8113EE2E73CF4010890F8183E65
:104C700010B535220446DBB990F8103E034400F627
:104C8000F45083F8F42D17F0D3FF174AC4F8080E38
:104C900003460A2104F694500BF0DAFF04F2CC70BC
:104CA00009F0D9FF94F8103E013384F8103E10BD8E
:104CB00090F8113E034400F6FE5083F8FE2D17F0E5
:104CC000B7FF094AC4F80C0E03460A2104F55D60DB
:104CD0000BF0BEFF04F6545009F0BDFF94F8113EEE
:104CE000013384F8113EE2E73CF4010890F8183EE5
:104CF00010B536220446DBB990F8103E034400F6A6
:104D0000F45083F8F42D17F093FF174AC4F8080EF7
:104D100003460A2104F694500BF09AFF04F2CC707B
:104D200009F099FF94F8103E013384F8103E10BD4D
:104D300090F8113E034400F6FE5083F8FE2D17F064
:104D400077FF094AC4F80C0E03460A2104F55D609A
:104D50000BF07EFF04F6545009F07DFF94F8113EED
:104D6000013384F8113EE2E73CF4010890F8183E64
:104D700010B537220446DBB990F8103E034400F624
:104D8000F45083F8F42D17F053FF174AC4F8080EB7
:104D900003460A2104F694500BF05AFF04F2CC703B
:104DA00009F059FF94F8103E013384F8103E10BD0D
:104DB00090F8113E034400F6FE5083F8FE2D17F0E4
:104DC00037FF094AC4F80C0E03460A2104F55D605A
:104DD0000BF03EFF04F6545009F03DFF94F8113EED
:104DE000013384F8113EE2E73CF4010890F8183EE4
:104DF00010B538220446DBB990F8103E034400F6A3
:104E0000F45083F8F42D17F013FF174AC4F8080E76
:104E100003460A2104F694500BF01AFF04F2CC70FA
:104E200009F019FF94F8103E013384F8103E10BDCC
:104E300090F8113E034400F6FE5083F8FE2D17F063
:104E4000F7FE094AC4F80C0E03460A2104F55D601A
:104E50000BF0FEFE04F6545009F0FDFE94F8113EEE
:104E6000013384F8113EE2E73CF4010890F8183E63
:104E700010B539220446DBB990F8103E034400F621
:104E8000F45083F8F42D17F0D3FE174AC4F8080E37
:104E900003460A2104F694500BF0DAFE04F2CC70BB
:104EA00009F0D9FE94F8103E013384F8103E10BD8D
:104EB00090F8113E034400F6FE5083F8FE2D17F0E3
:104EC000B7FE094AC4F80C0E03460A2104F55D60DA
:104ED0000BF0BEFE04F6545009F0BDFE94F8113EEE
:104EE000013384F8113EE2E73CF4010890F8183EE3
:104EF00010B530220446DBB990F8103E034400F6AA
:104F0000F45083F8F42D17F093FE174AC4F8080EF6
:104F100003460A2104F694500BF09AFE04F2CC707A
:104F200009F099FE94F8103E013384F8103E10BD4C
:104F300090F8113E034400F6FE5083F8FE2D17F062
:104F400077FE094AC4F80C0E03460A2104F55D6099
:104F50000BF07EFE04F6545009F07DFE94F8113EED
:104F6000013384F8113EE2E73CF4010810B5044631
:104F7000FEF70EFB074B23600023C4F8083EC4F87D
:104F80000C3EA4F8103EC4F8183E84F81C3E20469F
:104F900010BD00BF2CF50108F02070474FF4A07041
:104FA00070472920FCF7A2BB2820FCF79FBB08B55F
:104FB000FCF770FBCA20FCF799FBC320FCF77AFBD7
:104FC0000820FCF777FB5020FCF774FBCF20FCF7A0
:104FD0008DFB0020FCF76EFBC120FCF76BFB302043
:104FE000FCF768FBED20FCF781FB6420FCF762FB1B
:104FF0000320FCF75FFB1220FCF75CFB8120FCF731
:1050000059FBE820FCF772FB8520FCF753FB0020DE
:10501000FCF750FB7820FCF74DFBCB20FCF766FB40
:105020003920FCF747FB2C20FCF744FB0020FCF761
:1050300041FB3420FCF73EFB0220FCF73BFBF72052
:10504000FCF754FB2020FCF735FBEA20FCF74EFB75
:105050000020FCF72FFB0020FCF72CFBB120FCF715
:1050600045FB0020FCF726FB1B20FCF723FBB620AA
:10507000FCF73CFB0A20FCF71DFBA220FCF71AFB07
:10508000C020FCF733FB1020FCF714FBC120FCF719
:105090002DFB1020FCF70EFBC520FCF727FB45205D
:1050A000FCF708FB1520FCF705FBC720FCF71EFBEF
:1050B0009020FCF7FFFA3620FCF718FBC820FCF71D
:1050C000F9FAF220FCF712FB0020FCF7F3FAB0200B
:1050D000FCF70CFBC220FCF7EDFAB620FCF706FB50
:1050E0000A20FCF7E7FAA720FCF7E4FA2720FCF7F0
:1050F000E1FA0420FCF7DEFA2A20FCF7F7FA002098
:10510000FCF7D8FA0020FCF7D5FA0020FCF7D2FA19
:10511000EF20FCF7CFFA2B20FCF7E8FA0020FCF791
:10512000C9FA0020FCF7C6FA0120FCF7C3FA3F20B9
:10513000FCF7C0FAF620FCF7D9FA0120FCF7BAFA1E
:105140000020FCF7B7FA0620FCF7B4FA2C20FCF795
:10515000CDFAC820FCF718FB2620FCF7C7FA01207F
:10516000FCF7A8FAE020FCF7C1FA0F20FCF7A2FA3E
:105170002920FCF79FFA2420FCF79CFA0C20FCF76E
:1051800099FA0E20FCF796FA0920FCF793FA4E20C4
:10519000FCF790FA7820FCF78DFA3C20FCF78AFAAD
:1051A0000920FCF787FA1320FCF784FA0520FCF7A6
:1051B00081FA1720FCF77EFA1120FCF77BFA002019
:1051C000FCF778FAE120FCF791FA0020FCF772FA7C
:1051D0001620FCF76FFA1B20FCF76CFA0420FCF792
:1051E00069FA1120FCF766FA0720FCF763FA312010
:1051F000FCF760FA3320FCF75DFA4220FCF75AFA1C
:105200000520FCF757FA0C20FCF754FA0A20FCF7AB
:1052100051FA2820FCF74EFA2F20FCF74BFA0F200A
:10522000FCF748FA1120FCF761FAC820FCF7ACFA49
:105230002920FCF75BFABDE808402C20FCF756BAA1
:1052400008B5FCF727FA0321D320FCF76BFA80B2EC
:1052500008BD10B5C4B2022203212046FCF7D0F9E4
:105260000A20FCF715FA204600220321FCF7C8F9B2
:10527000BDE810400220FCF70BBA38B50446E4B292
:10528000FCF7BCF900212046FCF7D2F901210546C4
:105290002046FCF7CDF940EA052080B238BD10B5B4
:1052A000C4B240212046FCF7C3F9030607D54C21C0
:1052B0002046FCF7BDF9003818BF012010BD0122BF
:1052C0004B212046FCF79CF9204600224B21FCF79D
:1052D00097F90020F2E773B50423C4B20E461546D1
:1052E000D7210DEB03022046FCF7BCF9019B1BBA4A
:1052F0001A0DC3F30B23328020462B8001224B2151
:10530000FCF77EF900224B212046FCF779F902B028
:1053100070BD000010B50A4B1A78904204460DD0BB
:10532000597888420AD00AB141B901229C54FCF74D
:1053300065F92046BDE81040FFF78BBF10BD00BFE8
:10534000641F002010B5C4B209212046FCF770F993
:1053500040F00100C2B209212046BDE81040FCF730
:105360004FB910B5C4B209212046FCF761F90921F3
:1053700000F0FE022046BDE81040FCF741B938B508
:10538000C4B20D4620460A21FCF752F940EA050254
:10539000D2B220460A21BDE83840FCF731B907B542
:1053A0000190FCF72CF901981F21FFF7E8FF019805
:1053B00003B05DF804EBFFF7C5BF38B5C4B20D46C6
:1053C00020460A21FCF734F920EA0502D2B2204631
:1053D0000A21BDE83840FCF713B910B50446FFF7C1
:1053E000C0FF20461F21BDE81040FFF7E6BF10B503
:1053F000C0B20C460B21FCF71BF9204010BD1F2149
:10540000FFF7F5BF0A46C0B20B21FCF7F9B81F2120
:10541000FFF7F8BF38B5C4B20D4620461721FCF798
:1054200007F920EA0502D2B220461721BDE838402C
:10543000FCF7E6B870B5C4B2064604212046FCF776
:10544000F7F8042100F0FB0205462046FCF7D8F8E7
:105450003046F021FFF7DEFF05F0F8022046042178
:10546000FCF7CEF8492220212046FCF7C9F802209B
:10547000FCF70EF9204601222121FCF7C1F8204655
:105480009A224121FCF7BCF8204601224A21FCF770
:10549000B7F8204601224B21FCF7B2F82046002243
:1054A0004B21FCF7ADF8204601225621FCF7A8F865
:1054B000204601225821FCF7A3F820460122402172
:1054C000FCF79EF82046FF220B21FCF799F8BDE877
:1054D00070400220FCF7DCB8054BD3F8882042F47A
:1054E0007002C3F888204FF000629A60704700BFD6
:1054F00000ED00E008B50B4B1A6842F400721A6028
:105500001A6842F480621A601A6842F480721A6063
:10551000032000F067FA0020FCF7ACFBFCF742F92F
:10552000002008BD003C0240034A044B11681B7870
:105530000B441360704700BF4C32012078000020FC
:10554000014B1868704700BF4C32012038B5044643
:10555000FFF7F6FF631C1CBF054B1B78054618BF01
:10556000E418FFF7EDFF431BA342FAD338BD00BF99
:105570007800002038B50446002800F09B80056CB8
:1055800025B9FCF72FF9656484F83C50236CDB06E1
:1055900000F18E80236C23F4885323F0020343F040
:1055A00002032364444B5A6822F440325A605A681A
:1055B00061680A435A60236821695A6822F480723C
:1055C0005A605A6842EA01225A605A68A16822F079
:1055D00040725A605A680A435A609A68E16822F435
:1055E00000629A609A680A439A603449A26A8A42C1
:1055F00052D0996821F07061996099680A439A6065
:105600009A68E16A22F040529A609A680A439A6066
:105610009A6822F002029A609A68217E42EA410268
:105620009A6094F82020002A3ED05A68616A42F4B9
:1056300000625A605A6822F460425A605A6801391E
:1056400042EA41325A60DA6AE16922F47002DA62AF
:10565000DA6A013942EA0152DA629A6822F4007287
:105660009A609A6894F8301042EA41229A609A68E7
:10567000616922F480629A609A68002042EA81227D
:105680009A606064236C23F0030343F001032364F6
:10569000002384F83C3038BD9A6822F070629A602A
:1056A0009A6822F04052B2E75A6822F40062C9E7D1
:1056B0000120EDE70120EEE7002301400100000F8B
:1056C00013B50023019390F83C30012B6CD00123DB
:1056D000026880F83C309368D9070CD5936813F0C2
:1056E00001031AD1026C42F010020264426C42F0D3
:1056F0000102426456E093682D4943F00103936030
:105700002C4B1B68B3FBF1F303EB43030193019BA9
:10571000002BE3D0019B013BF8E7036C264C23F4FC
:10572000E06323F0010343F48073036453685B0573
:1057300041BF036C23F4405343F480530364036C70
:1057400013F480531CBF436C23F0060343646FF0D3
:105750002201002380F83C3011601849486810F09D
:105760001F0019D1A24206D0154B9A420DD14B68A9
:1057700013F01F0F07D1906810F0405016D19368B6
:1057800043F08043936002B010BD0E4B9A42FAD1B1
:105790004B6813F0100FEDE7A24207D1906810F0AC
:1057A0004050ECD01846EEE70220ECE70020EAE794
:1057B00040420F00740000200020014000230140FF
:1057C000002101400022014090F83C30012B14D010
:1057D00003689A6822F001029A609B68DB0707D48D
:1057E000036C23F4885323F0010343F001030364A3
:1057F000002380F83C301846704702207047036849
:105800009A68520570B504460D460BD59B68DE05B7
:1058100008D5036C43F020030364002380F83C3078
:10582000012070BDFFF78CFE064623681A689107B9
:105830000CD56FF012021A60226C42F400722264DE
:105840009A6812F0405F17D00020EAE7681CEDD09C
:1058500065B923681B6813F00203E6D1226C84F853
:105860003C3042F0040222640320DAE7FFF768FECE
:10587000801BA842EDD8D8E7207E0028E4D1DA6A60
:1058800012F4700F02D09B685A05DDD4236C23F408
:1058900080732364236CDB04D6D4236C43F00103B0
:1058A0002364BEE70368D86C70470000F7B5002397
:1058B000019390F83C30012B69D0012380F83C30F3
:1058C0000D6803688E68092DACB234D904EB44022C
:1058D000DF681E3A4FF0070C0CFA02FC27EA0C07AF
:1058E000DF60DF6806FA02F23A43DA6049680629A7
:1058F00001EB81022FD8596B053A1F26964021EA09
:1059000006015963596B04FA02F20A435A63304A9A
:1059100093420AD1122D3CD12E4B5A6822F4000238
:105920005A605A6842F480025A60002380F83C3082
:10593000184603B0F0BD1F6905EB45024FF0070C98
:105940000CFA02FC27EA0C071F611F6906FA02F233
:105950003A431A61CAE70C294FF01F010BD81E6B9E
:10596000233A914026EA01011963196B04FA02F205
:105970000A431A63CBE7DE6A413A914026EA010105
:10598000D962D96A04FA02F20A43DA62BFE7022056
:10599000CFE7114B9D4201D0112DC6D10D4B5A6856
:1059A00022F480025A605A6842F400025A600A4B9C
:1059B0009D42BAD1094B0A4A1B68B3FBF2F20A2393
:1059C00053430193019B002BAFD0019B013BF8E7B0
:1059D000002001400023014012000010740000204C
:1059E00040420F000749CA6822F4E0620302120431
:1059F00003F4E063120C134343F0BF6343F400333A
:105A0000CB60704700ED00E0164B30B5DC68C4F3A6
:105A10000224C4F10705231D042D28BF0425062BED
:105A20004FF0FF338CBF033C002403FA05F521EA55
:105A30000501A34022EA0302A140002841EA020333
:105A4000ACBF00F16040084A4FEA0313B8BF00F052
:105A50000F00DBB2AABF00F56140135480F8003399
:105A600030BD00BF00ED00E014ED00E0002808DBD1
:105A70004209012300F01F0003FA00F0014B43F834
:105A80002200704700E100E010B5044650B14379B0
:105A900003F0FF0213B90271FBF7D6FE0123637115
:105AA000002010BD0120FCE710B5044630B390F88B
:105AB000393003F0FF021BB980F83820FBF7DCFE19
:105AC00022686168022384F83930136823F4403374
:105AD0000B431360536BA16823F007030B4353631D
